{
	"server.sol": {
		"FootballBetting": {
			"abi": [
				{
					"inputs": [
						{
							"internalType": "string",
							"name": "_id",
							"type": "string"
						},
						{
							"internalType": "string",
							"name": "_home",
							"type": "string"
						},
						{
							"internalType": "string",
							"name": "_away",
							"type": "string"
						},
						{
							"internalType": "string",
							"name": "_score",
							"type": "string"
						},
						{
							"internalType": "string",
							"name": "_timestamp",
							"type": "string"
						}
					],
					"name": "createMatch",
					"outputs": [],
					"stateMutability": "nonpayable",
					"type": "function"
				},
				{
					"inputs": [],
					"name": "getAllMatches",
					"outputs": [
						{
							"components": [
								{
									"internalType": "string",
									"name": "id",
									"type": "string"
								},
								{
									"internalType": "string",
									"name": "homeTeam",
									"type": "string"
								},
								{
									"internalType": "string",
									"name": "awayTeam",
									"type": "string"
								},
								{
									"internalType": "string",
									"name": "score",
									"type": "string"
								},
								{
									"internalType": "string",
									"name": "startTimestamp",
									"type": "string"
								}
							],
							"internalType": "struct FootballBetting.Match[]",
							"name": "",
							"type": "tuple[]"
						}
					],
					"stateMutability": "view",
					"type": "function"
				}
			],
			"devdoc": {
				"kind": "dev",
				"methods": {},
				"version": 1
			},
			"evm": {
				"assembly": "    /* \"server.sol\":57:1536  contract FootballBetting {... */\n  mstore(0x40, 0x80)\n  callvalue\n  dup1\n  iszero\n  tag_1\n  jumpi\n  0x00\n  dup1\n  revert\ntag_1:\n  pop\n  dataSize(sub_0)\n  dup1\n  dataOffset(sub_0)\n  0x00\n  codecopy\n  0x00\n  return\nstop\n\nsub_0: assembly {\n        /* \"server.sol\":57:1536  contract FootballBetting {... */\n      mstore(0x40, 0x80)\n      callvalue\n      dup1\n      iszero\n      tag_1\n      jumpi\n      0x00\n      dup1\n      revert\n    tag_1:\n      pop\n      jumpi(tag_2, lt(calldatasize, 0x04))\n      shr(0xe0, calldataload(0x00))\n      dup1\n      0xc17c5a45\n      eq\n      tag_3\n      jumpi\n      dup1\n      0xe0f601e0\n      eq\n      tag_4\n      jumpi\n    tag_2:\n      0x00\n      dup1\n      revert\n        /* \"server.sol\":1208:1534  function getAllMatches() public view returns (Match[] memory) {... */\n    tag_3:\n      tag_5\n      tag_6\n      jump\t// in\n    tag_5:\n      mload(0x40)\n      tag_7\n      swap2\n      swap1\n      tag_8\n      jump\t// in\n    tag_7:\n      mload(0x40)\n      dup1\n      swap2\n      sub\n      swap1\n      return\n        /* \"server.sol\":406:1157  function createMatch(string memory _id, string memory _home, string memory _away, string memory _score, string memory _timestamp) public {... */\n    tag_4:\n      tag_9\n      0x04\n      dup1\n      calldatasize\n      sub\n      dup2\n      add\n      swap1\n      tag_10\n      swap2\n      swap1\n      tag_11\n      jump\t// in\n    tag_10:\n      tag_12\n      jump\t// in\n    tag_9:\n      stop\n        /* \"server.sol\":1208:1534  function getAllMatches() public view returns (Match[] memory) {... */\n    tag_6:\n        /* \"server.sol\":1254:1268  Match[] memory */\n      0x60\n        /* \"server.sol\":1280:1305  Match[] memory allMatches */\n      0x00\n        /* \"server.sol\":1320:1328  matchIds */\n      0x01\n        /* \"server.sol\":1320:1335  matchIds.length */\n      dup1\n      sload\n      swap1\n      pop\n        /* \"server.sol\":1308:1336  new Match[](matchIds.length) */\n      0xffffffffffffffff\n      dup2\n      gt\n      iszero\n      tag_14\n      jumpi\n      tag_15\n      tag_16\n      jump\t// in\n    tag_15:\n    tag_14:\n      mload(0x40)\n      swap1\n      dup1\n      dup3\n      mstore\n      dup1\n      0x20\n      mul\n      0x20\n      add\n      dup3\n      add\n      0x40\n      mstore\n      dup1\n      iszero\n      tag_17\n      jumpi\n      dup2\n      0x20\n      add\n    tag_18:\n      tag_19\n      tag_20\n      jump\t// in\n    tag_19:\n      dup2\n      mstore\n      0x20\n      add\n      swap1\n      0x01\n      swap1\n      sub\n      swap1\n      dup2\n      tag_18\n      jumpi\n      swap1\n      pop\n    tag_17:\n      pop\n        /* \"server.sol\":1280:1336  Match[] memory allMatches = new Match[](matchIds.length) */\n      swap1\n      pop\n        /* \"server.sol\":1351:1360  uint256 i */\n      0x00\n        /* \"server.sol\":1346:1501  for (uint256 i = 0; i < matchIds.length; i++) {... */\n    tag_21:\n        /* \"server.sol\":1370:1378  matchIds */\n      0x01\n        /* \"server.sol\":1370:1385  matchIds.length */\n      dup1\n      sload\n      swap1\n      pop\n        /* \"server.sol\":1366:1367  i */\n      dup2\n        /* \"server.sol\":1366:1385  i < matchIds.length */\n      lt\n        /* \"server.sol\":1346:1501  for (uint256 i = 0; i < matchIds.length; i++) {... */\n      iszero\n      tag_22\n      jumpi\n        /* \"server.sol\":1422:1429  matches */\n      0x00\n        /* \"server.sol\":1430:1438  matchIds */\n      0x01\n        /* \"server.sol\":1439:1440  i */\n      dup3\n        /* \"server.sol\":1430:1441  matchIds[i] */\n      dup2\n      sload\n      dup2\n      lt\n      tag_24\n      jumpi\n      tag_25\n      tag_26\n      jump\t// in\n    tag_25:\n    tag_24:\n      swap1\n      0x00\n      mstore\n      keccak256(0x00, 0x20)\n      add\n        /* \"server.sol\":1422:1442  matches[matchIds[i]] */\n      mload(0x40)\n      tag_28\n      swap2\n      swap1\n      tag_29\n      jump\t// in\n    tag_28:\n      swap1\n      dup2\n      mstore\n      0x20\n      add\n      mload(0x40)\n      dup1\n      swap2\n      sub\n      swap1\n      keccak256\n        /* \"server.sol\":1406:1442  allMatches[i] = matches[matchIds[i]] */\n      mload(0x40)\n      dup1\n      0xa0\n      add\n      0x40\n      mstore\n      swap1\n      dup2\n      0x00\n      dup3\n      add\n      dup1\n      sload\n      tag_30\n      swap1\n      tag_31\n      jump\t// in\n    tag_30:\n      dup1\n      0x1f\n      add\n      0x20\n      dup1\n      swap2\n      div\n      mul\n      0x20\n      add\n      mload(0x40)\n      swap1\n      dup2\n      add\n      0x40\n      mstore\n      dup1\n      swap3\n      swap2\n      swap1\n      dup2\n      dup2\n      mstore\n      0x20\n      add\n      dup3\n      dup1\n      sload\n      tag_32\n      swap1\n      tag_31\n      jump\t// in\n    tag_32:\n      dup1\n      iszero\n      tag_33\n      jumpi\n      dup1\n      0x1f\n      lt\n      tag_34\n      jumpi\n      0x0100\n      dup1\n      dup4\n      sload\n      div\n      mul\n      dup4\n      mstore\n      swap2\n      0x20\n      add\n      swap2\n      jump(tag_33)\n    tag_34:\n      dup3\n      add\n      swap2\n      swap1\n      0x00\n      mstore\n      keccak256(0x00, 0x20)\n      swap1\n    tag_35:\n      dup2\n      sload\n      dup2\n      mstore\n      swap1\n      0x01\n      add\n      swap1\n      0x20\n      add\n      dup1\n      dup4\n      gt\n      tag_35\n      jumpi\n      dup3\n      swap1\n      sub\n      0x1f\n      and\n      dup3\n      add\n      swap2\n    tag_33:\n      pop\n      pop\n      pop\n      pop\n      pop\n      dup2\n      mstore\n      0x20\n      add\n      0x01\n      dup3\n      add\n      dup1\n      sload\n      tag_36\n      swap1\n      tag_31\n      jump\t// in\n    tag_36:\n      dup1\n      0x1f\n      add\n      0x20\n      dup1\n      swap2\n      div\n      mul\n      0x20\n      add\n      mload(0x40)\n      swap1\n      dup2\n      add\n      0x40\n      mstore\n      dup1\n      swap3\n      swap2\n      swap1\n      dup2\n      dup2\n      mstore\n      0x20\n      add\n      dup3\n      dup1\n      sload\n      tag_37\n      swap1\n      tag_31\n      jump\t// in\n    tag_37:\n      dup1\n      iszero\n      tag_38\n      jumpi\n      dup1\n      0x1f\n      lt\n      tag_39\n      jumpi\n      0x0100\n      dup1\n      dup4\n      sload\n      div\n      mul\n      dup4\n      mstore\n      swap2\n      0x20\n      add\n      swap2\n      jump(tag_38)\n    tag_39:\n      dup3\n      add\n      swap2\n      swap1\n      0x00\n      mstore\n      keccak256(0x00, 0x20)\n      swap1\n    tag_40:\n      dup2\n      sload\n      dup2\n      mstore\n      swap1\n      0x01\n      add\n      swap1\n      0x20\n      add\n      dup1\n      dup4\n      gt\n      tag_40\n      jumpi\n      dup3\n      swap1\n      sub\n      0x1f\n      and\n      dup3\n      add\n      swap2\n    tag_38:\n      pop\n      pop\n      pop\n      pop\n      pop\n      dup2\n      mstore\n      0x20\n      add\n      0x02\n      dup3\n      add\n      dup1\n      sload\n      tag_41\n      swap1\n      tag_31\n      jump\t// in\n    tag_41:\n      dup1\n      0x1f\n      add\n      0x20\n      dup1\n      swap2\n      div\n      mul\n      0x20\n      add\n      mload(0x40)\n      swap1\n      dup2\n      add\n      0x40\n      mstore\n      dup1\n      swap3\n      swap2\n      swap1\n      dup2\n      dup2\n      mstore\n      0x20\n      add\n      dup3\n      dup1\n      sload\n      tag_42\n      swap1\n      tag_31\n      jump\t// in\n    tag_42:\n      dup1\n      iszero\n      tag_43\n      jumpi\n      dup1\n      0x1f\n      lt\n      tag_44\n      jumpi\n      0x0100\n      dup1\n      dup4\n      sload\n      div\n      mul\n      dup4\n      mstore\n      swap2\n      0x20\n      add\n      swap2\n      jump(tag_43)\n    tag_44:\n      dup3\n      add\n      swap2\n      swap1\n      0x00\n      mstore\n      keccak256(0x00, 0x20)\n      swap1\n    tag_45:\n      dup2\n      sload\n      dup2\n      mstore\n      swap1\n      0x01\n      add\n      swap1\n      0x20\n      add\n      dup1\n      dup4\n      gt\n      tag_45\n      jumpi\n      dup3\n      swap1\n      sub\n      0x1f\n      and\n      dup3\n      add\n      swap2\n    tag_43:\n      pop\n      pop\n      pop\n      pop\n      pop\n      dup2\n      mstore\n      0x20\n      add\n      0x03\n      dup3\n      add\n      dup1\n      sload\n      tag_46\n      swap1\n      tag_31\n      jump\t// in\n    tag_46:\n      dup1\n      0x1f\n      add\n      0x20\n      dup1\n      swap2\n      div\n      mul\n      0x20\n      add\n      mload(0x40)\n      swap1\n      dup2\n      add\n      0x40\n      mstore\n      dup1\n      swap3\n      swap2\n      swap1\n      dup2\n      dup2\n      mstore\n      0x20\n      add\n      dup3\n      dup1\n      sload\n      tag_47\n      swap1\n      tag_31\n      jump\t// in\n    tag_47:\n      dup1\n      iszero\n      tag_48\n      jumpi\n      dup1\n      0x1f\n      lt\n      tag_49\n      jumpi\n      0x0100\n      dup1\n      dup4\n      sload\n      div\n      mul\n      dup4\n      mstore\n      swap2\n      0x20\n      add\n      swap2\n      jump(tag_48)\n    tag_49:\n      dup3\n      add\n      swap2\n      swap1\n      0x00\n      mstore\n      keccak256(0x00, 0x20)\n      swap1\n    tag_50:\n      dup2\n      sload\n      dup2\n      mstore\n      swap1\n      0x01\n      add\n      swap1\n      0x20\n      add\n      dup1\n      dup4\n      gt\n      tag_50\n      jumpi\n      dup3\n      swap1\n      sub\n      0x1f\n      and\n      dup3\n      add\n      swap2\n    tag_48:\n      pop\n      pop\n      pop\n      pop\n      pop\n      dup2\n      mstore\n      0x20\n      add\n      0x04\n      dup3\n      add\n      dup1\n      sload\n      tag_51\n      swap1\n      tag_31\n      jump\t// in\n    tag_51:\n      dup1\n      0x1f\n      add\n      0x20\n      dup1\n      swap2\n      div\n      mul\n      0x20\n      add\n      mload(0x40)\n      swap1\n      dup2\n      add\n      0x40\n      mstore\n      dup1\n      swap3\n      swap2\n      swap1\n      dup2\n      dup2\n      mstore\n      0x20\n      add\n      dup3\n      dup1\n      sload\n      tag_52\n      swap1\n      tag_31\n      jump\t// in\n    tag_52:\n      dup1\n      iszero\n      tag_53\n      jumpi\n      dup1\n      0x1f\n      lt\n      tag_54\n      jumpi\n      0x0100\n      dup1\n      dup4\n      sload\n      div\n      mul\n      dup4\n      mstore\n      swap2\n      0x20\n      add\n      swap2\n      jump(tag_53)\n    tag_54:\n      dup3\n      add\n      swap2\n      swap1\n      0x00\n      mstore\n      keccak256(0x00, 0x20)\n      swap1\n    tag_55:\n      dup2\n      sload\n      dup2\n      mstore\n      swap1\n      0x01\n      add\n      swap1\n      0x20\n      add\n      dup1\n      dup4\n      gt\n      tag_55\n      jumpi\n      dup3\n      swap1\n      sub\n      0x1f\n      and\n      dup3\n      add\n      swap2\n    tag_53:\n      pop\n      pop\n      pop\n      pop\n      pop\n      dup2\n      mstore\n      pop\n      pop\n        /* \"server.sol\":1406:1416  allMatches */\n      dup3\n        /* \"server.sol\":1417:1418  i */\n      dup3\n        /* \"server.sol\":1406:1419  allMatches[i] */\n      dup2\n      mload\n      dup2\n      lt\n      tag_56\n      jumpi\n      tag_57\n      tag_26\n      jump\t// in\n    tag_57:\n    tag_56:\n      0x20\n      mul\n      0x20\n      add\n      add\n        /* \"server.sol\":1406:1442  allMatches[i] = matches[matchIds[i]] */\n      dup2\n      swap1\n      mstore\n      pop\n        /* \"server.sol\":1387:1390  i++ */\n      dup1\n      dup1\n      0x01\n      add\n      swap2\n      pop\n      pop\n        /* \"server.sol\":1346:1501  for (uint256 i = 0; i < matchIds.length; i++) {... */\n      jump(tag_21)\n    tag_22:\n      pop\n        /* \"server.sol\":1517:1527  allMatches */\n      dup1\n        /* \"server.sol\":1510:1527  return allMatches */\n      swap2\n      pop\n      pop\n        /* \"server.sol\":1208:1534  function getAllMatches() public view returns (Match[] memory) {... */\n      swap1\n      jump\t// out\n        /* \"server.sol\":406:1157  function createMatch(string memory _id, string memory _home, string memory _away, string memory _score, string memory _timestamp) public {... */\n    tag_12:\n        /* \"server.sol\":581:582  0 */\n      0x00\n        /* \"server.sol\":563:569  _score */\n      dup3\n        /* \"server.sol\":557:577  bytes(_score).length */\n      mload\n        /* \"server.sol\":557:582  bytes(_score).length == 0 */\n      sub\n        /* \"server.sol\":553:661  if (bytes(_score).length == 0) {... */\n      tag_59\n      jumpi\n        /* \"server.sol\":598:609  _score = \"\" */\n      mload(0x40)\n      dup1\n      0x20\n      add\n      0x40\n      mstore\n      dup1\n      0x00\n      dup2\n      mstore\n      pop\n      swap2\n      pop\n        /* \"server.sol\":553:661  if (bytes(_score).length == 0) {... */\n    tag_59:\n        /* \"server.sol\":796:797  0 */\n      0x00\n        /* \"server.sol\":774:784  _timestamp */\n      dup2\n        /* \"server.sol\":768:792  bytes(_timestamp).length */\n      mload\n        /* \"server.sol\":768:797  bytes(_timestamp).length == 0 */\n      sub\n        /* \"server.sol\":764:881  if (bytes(_timestamp).length == 0) {... */\n      tag_60\n      jumpi\n        /* \"server.sol\":813:828  _timestamp = \"\" */\n      mload(0x40)\n      dup1\n      0x20\n      add\n      0x40\n      mstore\n      dup1\n      0x00\n      dup2\n      mstore\n      pop\n      swap1\n      pop\n        /* \"server.sol\":764:881  if (bytes(_timestamp).length == 0) {... */\n    tag_60:\n        /* \"server.sol\":914:1077  Match({... */\n      mload(0x40)\n      dup1\n      0xa0\n      add\n      0x40\n      mstore\n      dup1\n        /* \"server.sol\":938:941  _id */\n      dup7\n        /* \"server.sol\":914:1077  Match({... */\n      dup2\n      mstore\n      0x20\n      add\n        /* \"server.sol\":965:970  _home */\n      dup6\n        /* \"server.sol\":914:1077  Match({... */\n      dup2\n      mstore\n      0x20\n      add\n        /* \"server.sol\":994:999  _away */\n      dup5\n        /* \"server.sol\":914:1077  Match({... */\n      dup2\n      mstore\n      0x20\n      add\n        /* \"server.sol\":1060:1066  _score */\n      dup4\n        /* \"server.sol\":914:1077  Match({... */\n      dup2\n      mstore\n      0x20\n      add\n        /* \"server.sol\":1029:1039  _timestamp */\n      dup3\n        /* \"server.sol\":914:1077  Match({... */\n      dup2\n      mstore\n      pop\n        /* \"server.sol\":899:906  matches */\n      0x00\n        /* \"server.sol\":907:910  _id */\n      dup7\n        /* \"server.sol\":899:911  matches[_id] */\n      mload(0x40)\n      tag_61\n      swap2\n      swap1\n      tag_62\n      jump\t// in\n    tag_61:\n      swap1\n      dup2\n      mstore\n      0x20\n      add\n      mload(0x40)\n      dup1\n      swap2\n      sub\n      swap1\n      keccak256\n        /* \"server.sol\":899:1077  matches[_id] = Match({... */\n      0x00\n      dup3\n      add\n      mload\n      dup2\n      0x00\n      add\n      swap1\n      dup2\n      tag_63\n      swap2\n      swap1\n      tag_64\n      jump\t// in\n    tag_63:\n      pop\n      0x20\n      dup3\n      add\n      mload\n      dup2\n      0x01\n      add\n      swap1\n      dup2\n      tag_65\n      swap2\n      swap1\n      tag_64\n      jump\t// in\n    tag_65:\n      pop\n      0x40\n      dup3\n      add\n      mload\n      dup2\n      0x02\n      add\n      swap1\n      dup2\n      tag_66\n      swap2\n      swap1\n      tag_64\n      jump\t// in\n    tag_66:\n      pop\n      0x60\n      dup3\n      add\n      mload\n      dup2\n      0x03\n      add\n      swap1\n      dup2\n      tag_67\n      swap2\n      swap1\n      tag_64\n      jump\t// in\n    tag_67:\n      pop\n      0x80\n      dup3\n      add\n      mload\n      dup2\n      0x04\n      add\n      swap1\n      dup2\n      tag_68\n      swap2\n      swap1\n      tag_64\n      jump\t// in\n    tag_68:\n      pop\n      swap1\n      pop\n      pop\n        /* \"server.sol\":1087:1095  matchIds */\n      0x01\n        /* \"server.sol\":1101:1104  _id */\n      dup6\n        /* \"server.sol\":1087:1105  matchIds.push(_id) */\n      swap1\n      dup1\n      0x01\n      dup2\n      sload\n      add\n      dup1\n      dup3\n      sstore\n      dup1\n      swap2\n      pop\n      pop\n      0x01\n      swap1\n      sub\n      swap1\n      0x00\n      mstore\n      keccak256(0x00, 0x20)\n      add\n      0x00\n      swap1\n      swap2\n      swap1\n      swap2\n      swap1\n      swap2\n      pop\n      swap1\n      dup2\n      tag_70\n      swap2\n      swap1\n      tag_64\n      jump\t// in\n    tag_70:\n      pop\n        /* \"server.sol\":406:1157  function createMatch(string memory _id, string memory _home, string memory _away, string memory _score, string memory _timestamp) public {... */\n      pop\n      pop\n      pop\n      pop\n      pop\n      jump\t// out\n    tag_20:\n      mload(0x40)\n      dup1\n      0xa0\n      add\n      0x40\n      mstore\n      dup1\n      0x60\n      dup2\n      mstore\n      0x20\n      add\n      0x60\n      dup2\n      mstore\n      0x20\n      add\n      0x60\n      dup2\n      mstore\n      0x20\n      add\n      0x60\n      dup2\n      mstore\n      0x20\n      add\n      0x60\n      dup2\n      mstore\n      pop\n      swap1\n      jump\t// out\n        /* \"#utility.yul\":7:142   */\n    tag_71:\n        /* \"#utility.yul\":95:101   */\n      0x00\n        /* \"#utility.yul\":129:134   */\n      dup2\n        /* \"#utility.yul\":123:135   */\n      mload\n        /* \"#utility.yul\":113:135   */\n      swap1\n      pop\n        /* \"#utility.yul\":7:142   */\n      swap2\n      swap1\n      pop\n      jump\t// out\n        /* \"#utility.yul\":148:353   */\n    tag_72:\n        /* \"#utility.yul\":268:279   */\n      0x00\n        /* \"#utility.yul\":302:308   */\n      dup3\n        /* \"#utility.yul\":297:300   */\n      dup3\n        /* \"#utility.yul\":290:309   */\n      mstore\n        /* \"#utility.yul\":342:346   */\n      0x20\n        /* \"#utility.yul\":337:340   */\n      dup3\n        /* \"#utility.yul\":333:347   */\n      add\n        /* \"#utility.yul\":318:347   */\n      swap1\n      pop\n        /* \"#utility.yul\":148:353   */\n      swap3\n      swap2\n      pop\n      pop\n      jump\t// out\n        /* \"#utility.yul\":359:512   */\n    tag_73:\n        /* \"#utility.yul\":447:451   */\n      0x00\n        /* \"#utility.yul\":470:473   */\n      dup2\n        /* \"#utility.yul\":462:473   */\n      swap1\n      pop\n        /* \"#utility.yul\":500:504   */\n      0x20\n        /* \"#utility.yul\":495:498   */\n      dup3\n        /* \"#utility.yul\":491:505   */\n      add\n        /* \"#utility.yul\":483:505   */\n      swap1\n      pop\n        /* \"#utility.yul\":359:512   */\n      swap2\n      swap1\n      pop\n      jump\t// out\n        /* \"#utility.yul\":518:617   */\n    tag_74:\n        /* \"#utility.yul\":570:576   */\n      0x00\n        /* \"#utility.yul\":604:609   */\n      dup2\n        /* \"#utility.yul\":598:610   */\n      mload\n        /* \"#utility.yul\":588:610   */\n      swap1\n      pop\n        /* \"#utility.yul\":518:617   */\n      swap2\n      swap1\n      pop\n      jump\t// out\n        /* \"#utility.yul\":623:782   */\n    tag_75:\n        /* \"#utility.yul\":697:708   */\n      0x00\n        /* \"#utility.yul\":731:737   */\n      dup3\n        /* \"#utility.yul\":726:729   */\n      dup3\n        /* \"#utility.yul\":719:738   */\n      mstore\n        /* \"#utility.yul\":771:775   */\n      0x20\n        /* \"#utility.yul\":766:769   */\n      dup3\n        /* \"#utility.yul\":762:776   */\n      add\n        /* \"#utility.yul\":747:776   */\n      swap1\n      pop\n        /* \"#utility.yul\":623:782   */\n      swap3\n      swap2\n      pop\n      pop\n      jump\t// out\n        /* \"#utility.yul\":788:927   */\n    tag_76:\n        /* \"#utility.yul\":877:883   */\n      dup3\n        /* \"#utility.yul\":872:875   */\n      dup2\n        /* \"#utility.yul\":867:870   */\n      dup4\n        /* \"#utility.yul\":861:884   */\n      mcopy\n        /* \"#utility.yul\":918:919   */\n      0x00\n        /* \"#utility.yul\":909:915   */\n      dup4\n        /* \"#utility.yul\":904:907   */\n      dup4\n        /* \"#utility.yul\":900:916   */\n      add\n        /* \"#utility.yul\":893:920   */\n      mstore\n        /* \"#utility.yul\":788:927   */\n      pop\n      pop\n      pop\n      jump\t// out\n        /* \"#utility.yul\":933:1035   */\n    tag_77:\n        /* \"#utility.yul\":974:980   */\n      0x00\n        /* \"#utility.yul\":1025:1027   */\n      0x1f\n        /* \"#utility.yul\":1021:1028   */\n      not\n        /* \"#utility.yul\":1016:1018   */\n      0x1f\n        /* \"#utility.yul\":1009:1014   */\n      dup4\n        /* \"#utility.yul\":1005:1019   */\n      add\n        /* \"#utility.yul\":1001:1029   */\n      and\n        /* \"#utility.yul\":991:1029   */\n      swap1\n      pop\n        /* \"#utility.yul\":933:1035   */\n      swap2\n      swap1\n      pop\n      jump\t// out\n        /* \"#utility.yul\":1041:1398   */\n    tag_78:\n        /* \"#utility.yul\":1119:1122   */\n      0x00\n        /* \"#utility.yul\":1147:1186   */\n      tag_123\n        /* \"#utility.yul\":1180:1185   */\n      dup3\n        /* \"#utility.yul\":1147:1186   */\n      tag_74\n      jump\t// in\n    tag_123:\n        /* \"#utility.yul\":1202:1263   */\n      tag_124\n        /* \"#utility.yul\":1256:1262   */\n      dup2\n        /* \"#utility.yul\":1251:1254   */\n      dup6\n        /* \"#utility.yul\":1202:1263   */\n      tag_75\n      jump\t// in\n    tag_124:\n        /* \"#utility.yul\":1195:1263   */\n      swap4\n      pop\n        /* \"#utility.yul\":1272:1337   */\n      tag_125\n        /* \"#utility.yul\":1330:1336   */\n      dup2\n        /* \"#utility.yul\":1325:1328   */\n      dup6\n        /* \"#utility.yul\":1318:1322   */\n      0x20\n        /* \"#utility.yul\":1311:1316   */\n      dup7\n        /* \"#utility.yul\":1307:1323   */\n      add\n        /* \"#utility.yul\":1272:1337   */\n      tag_76\n      jump\t// in\n    tag_125:\n        /* \"#utility.yul\":1362:1391   */\n      tag_126\n        /* \"#utility.yul\":1384:1390   */\n      dup2\n        /* \"#utility.yul\":1362:1391   */\n      tag_77\n      jump\t// in\n    tag_126:\n        /* \"#utility.yul\":1357:1360   */\n      dup5\n        /* \"#utility.yul\":1353:1392   */\n      add\n        /* \"#utility.yul\":1346:1392   */\n      swap2\n      pop\n        /* \"#utility.yul\":1123:1398   */\n      pop\n        /* \"#utility.yul\":1041:1398   */\n      swap3\n      swap2\n      pop\n      pop\n      jump\t// out\n        /* \"#utility.yul\":1472:2883   */\n    tag_79:\n        /* \"#utility.yul\":1573:1576   */\n      0x00\n        /* \"#utility.yul\":1609:1613   */\n      0xa0\n        /* \"#utility.yul\":1604:1607   */\n      dup4\n        /* \"#utility.yul\":1600:1614   */\n      add\n        /* \"#utility.yul\":1694:1698   */\n      0x00\n        /* \"#utility.yul\":1687:1692   */\n      dup4\n        /* \"#utility.yul\":1683:1699   */\n      add\n        /* \"#utility.yul\":1677:1700   */\n      mload\n        /* \"#utility.yul\":1747:1750   */\n      dup5\n        /* \"#utility.yul\":1741:1745   */\n      dup3\n        /* \"#utility.yul\":1737:1751   */\n      sub\n        /* \"#utility.yul\":1730:1734   */\n      0x00\n        /* \"#utility.yul\":1725:1728   */\n      dup7\n        /* \"#utility.yul\":1721:1735   */\n      add\n        /* \"#utility.yul\":1714:1752   */\n      mstore\n        /* \"#utility.yul\":1773:1846   */\n      tag_128\n        /* \"#utility.yul\":1841:1845   */\n      dup3\n        /* \"#utility.yul\":1827:1839   */\n      dup3\n        /* \"#utility.yul\":1773:1846   */\n      tag_78\n      jump\t// in\n    tag_128:\n        /* \"#utility.yul\":1765:1846   */\n      swap2\n      pop\n        /* \"#utility.yul\":1624:1857   */\n      pop\n        /* \"#utility.yul\":1943:1947   */\n      0x20\n        /* \"#utility.yul\":1936:1941   */\n      dup4\n        /* \"#utility.yul\":1932:1948   */\n      add\n        /* \"#utility.yul\":1926:1949   */\n      mload\n        /* \"#utility.yul\":1996:1999   */\n      dup5\n        /* \"#utility.yul\":1990:1994   */\n      dup3\n        /* \"#utility.yul\":1986:2000   */\n      sub\n        /* \"#utility.yul\":1979:1983   */\n      0x20\n        /* \"#utility.yul\":1974:1977   */\n      dup7\n        /* \"#utility.yul\":1970:1984   */\n      add\n        /* \"#utility.yul\":1963:2001   */\n      mstore\n        /* \"#utility.yul\":2022:2095   */\n      tag_129\n        /* \"#utility.yul\":2090:2094   */\n      dup3\n        /* \"#utility.yul\":2076:2088   */\n      dup3\n        /* \"#utility.yul\":2022:2095   */\n      tag_78\n      jump\t// in\n    tag_129:\n        /* \"#utility.yul\":2014:2095   */\n      swap2\n      pop\n        /* \"#utility.yul\":1867:2106   */\n      pop\n        /* \"#utility.yul\":2192:2196   */\n      0x40\n        /* \"#utility.yul\":2185:2190   */\n      dup4\n        /* \"#utility.yul\":2181:2197   */\n      add\n        /* \"#utility.yul\":2175:2198   */\n      mload\n        /* \"#utility.yul\":2245:2248   */\n      dup5\n        /* \"#utility.yul\":2239:2243   */\n      dup3\n        /* \"#utility.yul\":2235:2249   */\n      sub\n        /* \"#utility.yul\":2228:2232   */\n      0x40\n        /* \"#utility.yul\":2223:2226   */\n      dup7\n        /* \"#utility.yul\":2219:2233   */\n      add\n        /* \"#utility.yul\":2212:2250   */\n      mstore\n        /* \"#utility.yul\":2271:2344   */\n      tag_130\n        /* \"#utility.yul\":2339:2343   */\n      dup3\n        /* \"#utility.yul\":2325:2337   */\n      dup3\n        /* \"#utility.yul\":2271:2344   */\n      tag_78\n      jump\t// in\n    tag_130:\n        /* \"#utility.yul\":2263:2344   */\n      swap2\n      pop\n        /* \"#utility.yul\":2116:2355   */\n      pop\n        /* \"#utility.yul\":2438:2442   */\n      0x60\n        /* \"#utility.yul\":2431:2436   */\n      dup4\n        /* \"#utility.yul\":2427:2443   */\n      add\n        /* \"#utility.yul\":2421:2444   */\n      mload\n        /* \"#utility.yul\":2491:2494   */\n      dup5\n        /* \"#utility.yul\":2485:2489   */\n      dup3\n        /* \"#utility.yul\":2481:2495   */\n      sub\n        /* \"#utility.yul\":2474:2478   */\n      0x60\n        /* \"#utility.yul\":2469:2472   */\n      dup7\n        /* \"#utility.yul\":2465:2479   */\n      add\n        /* \"#utility.yul\":2458:2496   */\n      mstore\n        /* \"#utility.yul\":2517:2590   */\n      tag_131\n        /* \"#utility.yul\":2585:2589   */\n      dup3\n        /* \"#utility.yul\":2571:2583   */\n      dup3\n        /* \"#utility.yul\":2517:2590   */\n      tag_78\n      jump\t// in\n    tag_131:\n        /* \"#utility.yul\":2509:2590   */\n      swap2\n      pop\n        /* \"#utility.yul\":2365:2601   */\n      pop\n        /* \"#utility.yul\":2693:2697   */\n      0x80\n        /* \"#utility.yul\":2686:2691   */\n      dup4\n        /* \"#utility.yul\":2682:2698   */\n      add\n        /* \"#utility.yul\":2676:2699   */\n      mload\n        /* \"#utility.yul\":2746:2749   */\n      dup5\n        /* \"#utility.yul\":2740:2744   */\n      dup3\n        /* \"#utility.yul\":2736:2750   */\n      sub\n        /* \"#utility.yul\":2729:2733   */\n      0x80\n        /* \"#utility.yul\":2724:2727   */\n      dup7\n        /* \"#utility.yul\":2720:2734   */\n      add\n        /* \"#utility.yul\":2713:2751   */\n      mstore\n        /* \"#utility.yul\":2772:2845   */\n      tag_132\n        /* \"#utility.yul\":2840:2844   */\n      dup3\n        /* \"#utility.yul\":2826:2838   */\n      dup3\n        /* \"#utility.yul\":2772:2845   */\n      tag_78\n      jump\t// in\n    tag_132:\n        /* \"#utility.yul\":2764:2845   */\n      swap2\n      pop\n        /* \"#utility.yul\":2611:2856   */\n      pop\n        /* \"#utility.yul\":2873:2877   */\n      dup1\n        /* \"#utility.yul\":2866:2877   */\n      swap2\n      pop\n        /* \"#utility.yul\":1578:2883   */\n      pop\n        /* \"#utility.yul\":1472:2883   */\n      swap3\n      swap2\n      pop\n      pop\n      jump\t// out\n        /* \"#utility.yul\":2889:3129   */\n    tag_80:\n        /* \"#utility.yul\":3000:3010   */\n      0x00\n        /* \"#utility.yul\":3035:3123   */\n      tag_134\n        /* \"#utility.yul\":3119:3122   */\n      dup4\n        /* \"#utility.yul\":3111:3117   */\n      dup4\n        /* \"#utility.yul\":3035:3123   */\n      tag_79\n      jump\t// in\n    tag_134:\n        /* \"#utility.yul\":3021:3123   */\n      swap1\n      pop\n        /* \"#utility.yul\":2889:3129   */\n      swap3\n      swap2\n      pop\n      pop\n      jump\t// out\n        /* \"#utility.yul\":3135:3269   */\n    tag_81:\n        /* \"#utility.yul\":3226:3230   */\n      0x00\n        /* \"#utility.yul\":3258:3262   */\n      0x20\n        /* \"#utility.yul\":3253:3256   */\n      dup3\n        /* \"#utility.yul\":3249:3263   */\n      add\n        /* \"#utility.yul\":3241:3263   */\n      swap1\n      pop\n        /* \"#utility.yul\":3135:3269   */\n      swap2\n      swap1\n      pop\n      jump\t// out\n        /* \"#utility.yul\":3347:4426   */\n    tag_82:\n        /* \"#utility.yul\":3508:3511   */\n      0x00\n        /* \"#utility.yul\":3537:3612   */\n      tag_137\n        /* \"#utility.yul\":3606:3611   */\n      dup3\n        /* \"#utility.yul\":3537:3612   */\n      tag_71\n      jump\t// in\n    tag_137:\n        /* \"#utility.yul\":3628:3735   */\n      tag_138\n        /* \"#utility.yul\":3728:3734   */\n      dup2\n        /* \"#utility.yul\":3723:3726   */\n      dup6\n        /* \"#utility.yul\":3628:3735   */\n      tag_72\n      jump\t// in\n    tag_138:\n        /* \"#utility.yul\":3621:3735   */\n      swap4\n      pop\n        /* \"#utility.yul\":3761:3764   */\n      dup4\n        /* \"#utility.yul\":3806:3810   */\n      0x20\n        /* \"#utility.yul\":3798:3804   */\n      dup3\n        /* \"#utility.yul\":3794:3811   */\n      mul\n        /* \"#utility.yul\":3789:3792   */\n      dup6\n        /* \"#utility.yul\":3785:3812   */\n      add\n        /* \"#utility.yul\":3836:3913   */\n      tag_139\n        /* \"#utility.yul\":3907:3912   */\n      dup6\n        /* \"#utility.yul\":3836:3913   */\n      tag_73\n      jump\t// in\n    tag_139:\n        /* \"#utility.yul\":3936:3943   */\n      dup1\n        /* \"#utility.yul\":3967:3968   */\n      0x00\n        /* \"#utility.yul\":3952:4381   */\n    tag_140:\n        /* \"#utility.yul\":3977:3983   */\n      dup6\n        /* \"#utility.yul\":3974:3975   */\n      dup2\n        /* \"#utility.yul\":3971:3984   */\n      lt\n        /* \"#utility.yul\":3952:4381   */\n      iszero\n      tag_142\n      jumpi\n        /* \"#utility.yul\":4048:4057   */\n      dup5\n        /* \"#utility.yul\":4042:4046   */\n      dup5\n        /* \"#utility.yul\":4038:4058   */\n      sub\n        /* \"#utility.yul\":4033:4036   */\n      dup10\n        /* \"#utility.yul\":4026:4059   */\n      mstore\n        /* \"#utility.yul\":4099:4105   */\n      dup2\n        /* \"#utility.yul\":4093:4106   */\n      mload\n        /* \"#utility.yul\":4127:4233   */\n      tag_143\n        /* \"#utility.yul\":4228:4232   */\n      dup6\n        /* \"#utility.yul\":4213:4226   */\n      dup3\n        /* \"#utility.yul\":4127:4233   */\n      tag_80\n      jump\t// in\n    tag_143:\n        /* \"#utility.yul\":4119:4233   */\n      swap5\n      pop\n        /* \"#utility.yul\":4256:4337   */\n      tag_144\n        /* \"#utility.yul\":4330:4336   */\n      dup4\n        /* \"#utility.yul\":4256:4337   */\n      tag_81\n      jump\t// in\n    tag_144:\n        /* \"#utility.yul\":4246:4337   */\n      swap3\n      pop\n        /* \"#utility.yul\":4366:4370   */\n      0x20\n        /* \"#utility.yul\":4361:4364   */\n      dup11\n        /* \"#utility.yul\":4357:4371   */\n      add\n        /* \"#utility.yul\":4350:4371   */\n      swap10\n      pop\n        /* \"#utility.yul\":4012:4381   */\n      pop\n        /* \"#utility.yul\":3999:4000   */\n      0x01\n        /* \"#utility.yul\":3996:3997   */\n      dup2\n        /* \"#utility.yul\":3992:4001   */\n      add\n        /* \"#utility.yul\":3987:4001   */\n      swap1\n      pop\n        /* \"#utility.yul\":3952:4381   */\n      jump(tag_140)\n    tag_142:\n        /* \"#utility.yul\":3956:3970   */\n      pop\n        /* \"#utility.yul\":4397:4401   */\n      dup3\n        /* \"#utility.yul\":4390:4401   */\n      swap8\n      pop\n        /* \"#utility.yul\":4417:4420   */\n      dup8\n        /* \"#utility.yul\":4410:4420   */\n      swap6\n      pop\n        /* \"#utility.yul\":3513:4426   */\n      pop\n      pop\n      pop\n      pop\n      pop\n        /* \"#utility.yul\":3347:4426   */\n      swap3\n      swap2\n      pop\n      pop\n      jump\t// out\n        /* \"#utility.yul\":4432:4889   */\n    tag_8:\n        /* \"#utility.yul\":4617:4621   */\n      0x00\n        /* \"#utility.yul\":4655:4657   */\n      0x20\n        /* \"#utility.yul\":4644:4653   */\n      dup3\n        /* \"#utility.yul\":4640:4658   */\n      add\n        /* \"#utility.yul\":4632:4658   */\n      swap1\n      pop\n        /* \"#utility.yul\":4704:4713   */\n      dup2\n        /* \"#utility.yul\":4698:4702   */\n      dup2\n        /* \"#utility.yul\":4694:4714   */\n      sub\n        /* \"#utility.yul\":4690:4691   */\n      0x00\n        /* \"#utility.yul\":4679:4688   */\n      dup4\n        /* \"#utility.yul\":4675:4692   */\n      add\n        /* \"#utility.yul\":4668:4715   */\n      mstore\n        /* \"#utility.yul\":4732:4882   */\n      tag_146\n        /* \"#utility.yul\":4877:4881   */\n      dup2\n        /* \"#utility.yul\":4868:4874   */\n      dup5\n        /* \"#utility.yul\":4732:4882   */\n      tag_82\n      jump\t// in\n    tag_146:\n        /* \"#utility.yul\":4724:4882   */\n      swap1\n      pop\n        /* \"#utility.yul\":4432:4889   */\n      swap3\n      swap2\n      pop\n      pop\n      jump\t// out\n        /* \"#utility.yul\":4895:4970   */\n    tag_83:\n        /* \"#utility.yul\":4928:4934   */\n      0x00\n        /* \"#utility.yul\":4961:4963   */\n      0x40\n        /* \"#utility.yul\":4955:4964   */\n      mload\n        /* \"#utility.yul\":4945:4964   */\n      swap1\n      pop\n        /* \"#utility.yul\":4895:4970   */\n      swap1\n      jump\t// out\n        /* \"#utility.yul\":4976:5093   */\n    tag_84:\n        /* \"#utility.yul\":5085:5086   */\n      0x00\n        /* \"#utility.yul\":5082:5083   */\n      dup1\n        /* \"#utility.yul\":5075:5087   */\n      revert\n        /* \"#utility.yul\":5099:5216   */\n    tag_85:\n        /* \"#utility.yul\":5208:5209   */\n      0x00\n        /* \"#utility.yul\":5205:5206   */\n      dup1\n        /* \"#utility.yul\":5198:5210   */\n      revert\n        /* \"#utility.yul\":5222:5339   */\n    tag_86:\n        /* \"#utility.yul\":5331:5332   */\n      0x00\n        /* \"#utility.yul\":5328:5329   */\n      dup1\n        /* \"#utility.yul\":5321:5333   */\n      revert\n        /* \"#utility.yul\":5345:5462   */\n    tag_87:\n        /* \"#utility.yul\":5454:5455   */\n      0x00\n        /* \"#utility.yul\":5451:5452   */\n      dup1\n        /* \"#utility.yul\":5444:5456   */\n      revert\n        /* \"#utility.yul\":5468:5648   */\n    tag_16:\n        /* \"#utility.yul\":5516:5593   */\n      0x4e487b7100000000000000000000000000000000000000000000000000000000\n        /* \"#utility.yul\":5513:5514   */\n      0x00\n        /* \"#utility.yul\":5506:5594   */\n      mstore\n        /* \"#utility.yul\":5613:5617   */\n      0x41\n        /* \"#utility.yul\":5610:5611   */\n      0x04\n        /* \"#utility.yul\":5603:5618   */\n      mstore\n        /* \"#utility.yul\":5637:5641   */\n      0x24\n        /* \"#utility.yul\":5634:5635   */\n      0x00\n        /* \"#utility.yul\":5627:5642   */\n      revert\n        /* \"#utility.yul\":5654:5935   */\n    tag_88:\n        /* \"#utility.yul\":5737:5764   */\n      tag_154\n        /* \"#utility.yul\":5759:5763   */\n      dup3\n        /* \"#utility.yul\":5737:5764   */\n      tag_77\n      jump\t// in\n    tag_154:\n        /* \"#utility.yul\":5729:5735   */\n      dup2\n        /* \"#utility.yul\":5725:5765   */\n      add\n        /* \"#utility.yul\":5867:5873   */\n      dup2\n        /* \"#utility.yul\":5855:5865   */\n      dup2\n        /* \"#utility.yul\":5852:5874   */\n      lt\n        /* \"#utility.yul\":5831:5849   */\n      0xffffffffffffffff\n        /* \"#utility.yul\":5819:5829   */\n      dup3\n        /* \"#utility.yul\":5816:5850   */\n      gt\n        /* \"#utility.yul\":5813:5875   */\n      or\n        /* \"#utility.yul\":5810:5898   */\n      iszero\n      tag_155\n      jumpi\n        /* \"#utility.yul\":5878:5896   */\n      tag_156\n      tag_16\n      jump\t// in\n    tag_156:\n        /* \"#utility.yul\":5810:5898   */\n    tag_155:\n        /* \"#utility.yul\":5918:5928   */\n      dup1\n        /* \"#utility.yul\":5914:5916   */\n      0x40\n        /* \"#utility.yul\":5907:5929   */\n      mstore\n        /* \"#utility.yul\":5697:5935   */\n      pop\n        /* \"#utility.yul\":5654:5935   */\n      pop\n      pop\n      jump\t// out\n        /* \"#utility.yul\":5941:6070   */\n    tag_89:\n        /* \"#utility.yul\":5975:5981   */\n      0x00\n        /* \"#utility.yul\":6002:6022   */\n      tag_158\n      tag_83\n      jump\t// in\n    tag_158:\n        /* \"#utility.yul\":5992:6022   */\n      swap1\n      pop\n        /* \"#utility.yul\":6031:6064   */\n      tag_159\n        /* \"#utility.yul\":6059:6063   */\n      dup3\n        /* \"#utility.yul\":6051:6057   */\n      dup3\n        /* \"#utility.yul\":6031:6064   */\n      tag_88\n      jump\t// in\n    tag_159:\n        /* \"#utility.yul\":5941:6070   */\n      swap2\n      swap1\n      pop\n      jump\t// out\n        /* \"#utility.yul\":6076:6384   */\n    tag_90:\n        /* \"#utility.yul\":6138:6142   */\n      0x00\n        /* \"#utility.yul\":6228:6246   */\n      0xffffffffffffffff\n        /* \"#utility.yul\":6220:6226   */\n      dup3\n        /* \"#utility.yul\":6217:6247   */\n      gt\n        /* \"#utility.yul\":6214:6270   */\n      iszero\n      tag_161\n      jumpi\n        /* \"#utility.yul\":6250:6268   */\n      tag_162\n      tag_16\n      jump\t// in\n    tag_162:\n        /* \"#utility.yul\":6214:6270   */\n    tag_161:\n        /* \"#utility.yul\":6288:6317   */\n      tag_163\n        /* \"#utility.yul\":6310:6316   */\n      dup3\n        /* \"#utility.yul\":6288:6317   */\n      tag_77\n      jump\t// in\n    tag_163:\n        /* \"#utility.yul\":6280:6317   */\n      swap1\n      pop\n        /* \"#utility.yul\":6372:6376   */\n      0x20\n        /* \"#utility.yul\":6366:6370   */\n      dup2\n        /* \"#utility.yul\":6362:6377   */\n      add\n        /* \"#utility.yul\":6354:6377   */\n      swap1\n      pop\n        /* \"#utility.yul\":6076:6384   */\n      swap2\n      swap1\n      pop\n      jump\t// out\n        /* \"#utility.yul\":6390:6538   */\n    tag_91:\n        /* \"#utility.yul\":6488:6494   */\n      dup3\n        /* \"#utility.yul\":6483:6486   */\n      dup2\n        /* \"#utility.yul\":6478:6481   */\n      dup4\n        /* \"#utility.yul\":6465:6495   */\n      calldatacopy\n        /* \"#utility.yul\":6529:6530   */\n      0x00\n        /* \"#utility.yul\":6520:6526   */\n      dup4\n        /* \"#utility.yul\":6515:6518   */\n      dup4\n        /* \"#utility.yul\":6511:6527   */\n      add\n        /* \"#utility.yul\":6504:6531   */\n      mstore\n        /* \"#utility.yul\":6390:6538   */\n      pop\n      pop\n      pop\n      jump\t// out\n        /* \"#utility.yul\":6544:6969   */\n    tag_92:\n        /* \"#utility.yul\":6622:6627   */\n      0x00\n        /* \"#utility.yul\":6647:6713   */\n      tag_166\n        /* \"#utility.yul\":6663:6712   */\n      tag_167\n        /* \"#utility.yul\":6705:6711   */\n      dup5\n        /* \"#utility.yul\":6663:6712   */\n      tag_90\n      jump\t// in\n    tag_167:\n        /* \"#utility.yul\":6647:6713   */\n      tag_89\n      jump\t// in\n    tag_166:\n        /* \"#utility.yul\":6638:6713   */\n      swap1\n      pop\n        /* \"#utility.yul\":6736:6742   */\n      dup3\n        /* \"#utility.yul\":6729:6734   */\n      dup2\n        /* \"#utility.yul\":6722:6743   */\n      mstore\n        /* \"#utility.yul\":6774:6778   */\n      0x20\n        /* \"#utility.yul\":6767:6772   */\n      dup2\n        /* \"#utility.yul\":6763:6779   */\n      add\n        /* \"#utility.yul\":6812:6815   */\n      dup5\n        /* \"#utility.yul\":6803:6809   */\n      dup5\n        /* \"#utility.yul\":6798:6801   */\n      dup5\n        /* \"#utility.yul\":6794:6810   */\n      add\n        /* \"#utility.yul\":6791:6816   */\n      gt\n        /* \"#utility.yul\":6788:6900   */\n      iszero\n      tag_168\n      jumpi\n        /* \"#utility.yul\":6819:6898   */\n      tag_169\n      tag_87\n      jump\t// in\n    tag_169:\n        /* \"#utility.yul\":6788:6900   */\n    tag_168:\n        /* \"#utility.yul\":6909:6963   */\n      tag_170\n        /* \"#utility.yul\":6956:6962   */\n      dup5\n        /* \"#utility.yul\":6951:6954   */\n      dup3\n        /* \"#utility.yul\":6946:6949   */\n      dup6\n        /* \"#utility.yul\":6909:6963   */\n      tag_91\n      jump\t// in\n    tag_170:\n        /* \"#utility.yul\":6628:6969   */\n      pop\n        /* \"#utility.yul\":6544:6969   */\n      swap4\n      swap3\n      pop\n      pop\n      pop\n      jump\t// out\n        /* \"#utility.yul\":6989:7329   */\n    tag_93:\n        /* \"#utility.yul\":7045:7050   */\n      0x00\n        /* \"#utility.yul\":7094:7097   */\n      dup3\n        /* \"#utility.yul\":7087:7091   */\n      0x1f\n        /* \"#utility.yul\":7079:7085   */\n      dup4\n        /* \"#utility.yul\":7075:7092   */\n      add\n        /* \"#utility.yul\":7071:7098   */\n      slt\n        /* \"#utility.yul\":7061:7183   */\n      tag_172\n      jumpi\n        /* \"#utility.yul\":7102:7181   */\n      tag_173\n      tag_86\n      jump\t// in\n    tag_173:\n        /* \"#utility.yul\":7061:7183   */\n    tag_172:\n        /* \"#utility.yul\":7219:7225   */\n      dup2\n        /* \"#utility.yul\":7206:7226   */\n      calldataload\n        /* \"#utility.yul\":7244:7323   */\n      tag_174\n        /* \"#utility.yul\":7319:7322   */\n      dup5\n        /* \"#utility.yul\":7311:7317   */\n      dup3\n        /* \"#utility.yul\":7304:7308   */\n      0x20\n        /* \"#utility.yul\":7296:7302   */\n      dup7\n        /* \"#utility.yul\":7292:7309   */\n      add\n        /* \"#utility.yul\":7244:7323   */\n      tag_92\n      jump\t// in\n    tag_174:\n        /* \"#utility.yul\":7235:7323   */\n      swap2\n      pop\n        /* \"#utility.yul\":7051:7329   */\n      pop\n        /* \"#utility.yul\":6989:7329   */\n      swap3\n      swap2\n      pop\n      pop\n      jump\t// out\n        /* \"#utility.yul\":7335:9146   */\n    tag_11:\n        /* \"#utility.yul\":7480:7486   */\n      0x00\n        /* \"#utility.yul\":7488:7494   */\n      dup1\n        /* \"#utility.yul\":7496:7502   */\n      0x00\n        /* \"#utility.yul\":7504:7510   */\n      dup1\n        /* \"#utility.yul\":7512:7518   */\n      0x00\n        /* \"#utility.yul\":7561:7564   */\n      0xa0\n        /* \"#utility.yul\":7549:7558   */\n      dup7\n        /* \"#utility.yul\":7540:7547   */\n      dup9\n        /* \"#utility.yul\":7536:7559   */\n      sub\n        /* \"#utility.yul\":7532:7565   */\n      slt\n        /* \"#utility.yul\":7529:7649   */\n      iszero\n      tag_176\n      jumpi\n        /* \"#utility.yul\":7568:7647   */\n      tag_177\n      tag_84\n      jump\t// in\n    tag_177:\n        /* \"#utility.yul\":7529:7649   */\n    tag_176:\n        /* \"#utility.yul\":7716:7717   */\n      0x00\n        /* \"#utility.yul\":7705:7714   */\n      dup7\n        /* \"#utility.yul\":7701:7718   */\n      add\n        /* \"#utility.yul\":7688:7719   */\n      calldataload\n        /* \"#utility.yul\":7746:7764   */\n      0xffffffffffffffff\n        /* \"#utility.yul\":7738:7744   */\n      dup2\n        /* \"#utility.yul\":7735:7765   */\n      gt\n        /* \"#utility.yul\":7732:7849   */\n      iszero\n      tag_178\n      jumpi\n        /* \"#utility.yul\":7768:7847   */\n      tag_179\n      tag_85\n      jump\t// in\n    tag_179:\n        /* \"#utility.yul\":7732:7849   */\n    tag_178:\n        /* \"#utility.yul\":7873:7936   */\n      tag_180\n        /* \"#utility.yul\":7928:7935   */\n      dup9\n        /* \"#utility.yul\":7919:7925   */\n      dup3\n        /* \"#utility.yul\":7908:7917   */\n      dup10\n        /* \"#utility.yul\":7904:7926   */\n      add\n        /* \"#utility.yul\":7873:7936   */\n      tag_93\n      jump\t// in\n    tag_180:\n        /* \"#utility.yul\":7863:7936   */\n      swap6\n      pop\n        /* \"#utility.yul\":7659:7946   */\n      pop\n        /* \"#utility.yul\":8013:8015   */\n      0x20\n        /* \"#utility.yul\":8002:8011   */\n      dup7\n        /* \"#utility.yul\":7998:8016   */\n      add\n        /* \"#utility.yul\":7985:8017   */\n      calldataload\n        /* \"#utility.yul\":8044:8062   */\n      0xffffffffffffffff\n        /* \"#utility.yul\":8036:8042   */\n      dup2\n        /* \"#utility.yul\":8033:8063   */\n      gt\n        /* \"#utility.yul\":8030:8147   */\n      iszero\n      tag_181\n      jumpi\n        /* \"#utility.yul\":8066:8145   */\n      tag_182\n      tag_85\n      jump\t// in\n    tag_182:\n        /* \"#utility.yul\":8030:8147   */\n    tag_181:\n        /* \"#utility.yul\":8171:8234   */\n      tag_183\n        /* \"#utility.yul\":8226:8233   */\n      dup9\n        /* \"#utility.yul\":8217:8223   */\n      dup3\n        /* \"#utility.yul\":8206:8215   */\n      dup10\n        /* \"#utility.yul\":8202:8224   */\n      add\n        /* \"#utility.yul\":8171:8234   */\n      tag_93\n      jump\t// in\n    tag_183:\n        /* \"#utility.yul\":8161:8234   */\n      swap5\n      pop\n        /* \"#utility.yul\":7956:8244   */\n      pop\n        /* \"#utility.yul\":8311:8313   */\n      0x40\n        /* \"#utility.yul\":8300:8309   */\n      dup7\n        /* \"#utility.yul\":8296:8314   */\n      add\n        /* \"#utility.yul\":8283:8315   */\n      calldataload\n        /* \"#utility.yul\":8342:8360   */\n      0xffffffffffffffff\n        /* \"#utility.yul\":8334:8340   */\n      dup2\n        /* \"#utility.yul\":8331:8361   */\n      gt\n        /* \"#utility.yul\":8328:8445   */\n      iszero\n      tag_184\n      jumpi\n        /* \"#utility.yul\":8364:8443   */\n      tag_185\n      tag_85\n      jump\t// in\n    tag_185:\n        /* \"#utility.yul\":8328:8445   */\n    tag_184:\n        /* \"#utility.yul\":8469:8532   */\n      tag_186\n        /* \"#utility.yul\":8524:8531   */\n      dup9\n        /* \"#utility.yul\":8515:8521   */\n      dup3\n        /* \"#utility.yul\":8504:8513   */\n      dup10\n        /* \"#utility.yul\":8500:8522   */\n      add\n        /* \"#utility.yul\":8469:8532   */\n      tag_93\n      jump\t// in\n    tag_186:\n        /* \"#utility.yul\":8459:8532   */\n      swap4\n      pop\n        /* \"#utility.yul\":8254:8542   */\n      pop\n        /* \"#utility.yul\":8609:8611   */\n      0x60\n        /* \"#utility.yul\":8598:8607   */\n      dup7\n        /* \"#utility.yul\":8594:8612   */\n      add\n        /* \"#utility.yul\":8581:8613   */\n      calldataload\n        /* \"#utility.yul\":8640:8658   */\n      0xffffffffffffffff\n        /* \"#utility.yul\":8632:8638   */\n      dup2\n        /* \"#utility.yul\":8629:8659   */\n      gt\n        /* \"#utility.yul\":8626:8743   */\n      iszero\n      tag_187\n      jumpi\n        /* \"#utility.yul\":8662:8741   */\n      tag_188\n      tag_85\n      jump\t// in\n    tag_188:\n        /* \"#utility.yul\":8626:8743   */\n    tag_187:\n        /* \"#utility.yul\":8767:8830   */\n      tag_189\n        /* \"#utility.yul\":8822:8829   */\n      dup9\n        /* \"#utility.yul\":8813:8819   */\n      dup3\n        /* \"#utility.yul\":8802:8811   */\n      dup10\n        /* \"#utility.yul\":8798:8820   */\n      add\n        /* \"#utility.yul\":8767:8830   */\n      tag_93\n      jump\t// in\n    tag_189:\n        /* \"#utility.yul\":8757:8830   */\n      swap3\n      pop\n        /* \"#utility.yul\":8552:8840   */\n      pop\n        /* \"#utility.yul\":8907:8910   */\n      0x80\n        /* \"#utility.yul\":8896:8905   */\n      dup7\n        /* \"#utility.yul\":8892:8911   */\n      add\n        /* \"#utility.yul\":8879:8912   */\n      calldataload\n        /* \"#utility.yul\":8939:8957   */\n      0xffffffffffffffff\n        /* \"#utility.yul\":8931:8937   */\n      dup2\n        /* \"#utility.yul\":8928:8958   */\n      gt\n        /* \"#utility.yul\":8925:9042   */\n      iszero\n      tag_190\n      jumpi\n        /* \"#utility.yul\":8961:9040   */\n      tag_191\n      tag_85\n      jump\t// in\n    tag_191:\n        /* \"#utility.yul\":8925:9042   */\n    tag_190:\n        /* \"#utility.yul\":9066:9129   */\n      tag_192\n        /* \"#utility.yul\":9121:9128   */\n      dup9\n        /* \"#utility.yul\":9112:9118   */\n      dup3\n        /* \"#utility.yul\":9101:9110   */\n      dup10\n        /* \"#utility.yul\":9097:9119   */\n      add\n        /* \"#utility.yul\":9066:9129   */\n      tag_93\n      jump\t// in\n    tag_192:\n        /* \"#utility.yul\":9056:9129   */\n      swap2\n      pop\n        /* \"#utility.yul\":8850:9139   */\n      pop\n        /* \"#utility.yul\":7335:9146   */\n      swap3\n      swap6\n      pop\n      swap3\n      swap6\n      swap1\n      swap4\n      pop\n      jump\t// out\n        /* \"#utility.yul\":9152:9332   */\n    tag_26:\n        /* \"#utility.yul\":9200:9277   */\n      0x4e487b7100000000000000000000000000000000000000000000000000000000\n        /* \"#utility.yul\":9197:9198   */\n      0x00\n        /* \"#utility.yul\":9190:9278   */\n      mstore\n        /* \"#utility.yul\":9297:9301   */\n      0x32\n        /* \"#utility.yul\":9294:9295   */\n      0x04\n        /* \"#utility.yul\":9287:9302   */\n      mstore\n        /* \"#utility.yul\":9321:9325   */\n      0x24\n        /* \"#utility.yul\":9318:9319   */\n      0x00\n        /* \"#utility.yul\":9311:9326   */\n      revert\n        /* \"#utility.yul\":9338:9518   */\n    tag_94:\n        /* \"#utility.yul\":9386:9463   */\n      0x4e487b7100000000000000000000000000000000000000000000000000000000\n        /* \"#utility.yul\":9383:9384   */\n      0x00\n        /* \"#utility.yul\":9376:9464   */\n      mstore\n        /* \"#utility.yul\":9483:9487   */\n      0x22\n        /* \"#utility.yul\":9480:9481   */\n      0x04\n        /* \"#utility.yul\":9473:9488   */\n      mstore\n        /* \"#utility.yul\":9507:9511   */\n      0x24\n        /* \"#utility.yul\":9504:9505   */\n      0x00\n        /* \"#utility.yul\":9497:9512   */\n      revert\n        /* \"#utility.yul\":9524:9844   */\n    tag_31:\n        /* \"#utility.yul\":9568:9574   */\n      0x00\n        /* \"#utility.yul\":9605:9606   */\n      0x02\n        /* \"#utility.yul\":9599:9603   */\n      dup3\n        /* \"#utility.yul\":9595:9607   */\n      div\n        /* \"#utility.yul\":9585:9607   */\n      swap1\n      pop\n        /* \"#utility.yul\":9652:9653   */\n      0x01\n        /* \"#utility.yul\":9646:9650   */\n      dup3\n        /* \"#utility.yul\":9642:9654   */\n      and\n        /* \"#utility.yul\":9673:9691   */\n      dup1\n        /* \"#utility.yul\":9663:9744   */\n      tag_196\n      jumpi\n        /* \"#utility.yul\":9729:9733   */\n      0x7f\n        /* \"#utility.yul\":9721:9727   */\n      dup3\n        /* \"#utility.yul\":9717:9734   */\n      and\n        /* \"#utility.yul\":9707:9734   */\n      swap2\n      pop\n        /* \"#utility.yul\":9663:9744   */\n    tag_196:\n        /* \"#utility.yul\":9791:9793   */\n      0x20\n        /* \"#utility.yul\":9783:9789   */\n      dup3\n        /* \"#utility.yul\":9780:9794   */\n      lt\n        /* \"#utility.yul\":9760:9778   */\n      dup2\n        /* \"#utility.yul\":9757:9795   */\n      sub\n        /* \"#utility.yul\":9754:9838   */\n      tag_197\n      jumpi\n        /* \"#utility.yul\":9810:9828   */\n      tag_198\n      tag_94\n      jump\t// in\n    tag_198:\n        /* \"#utility.yul\":9754:9838   */\n    tag_197:\n        /* \"#utility.yul\":9575:9844   */\n      pop\n        /* \"#utility.yul\":9524:9844   */\n      swap2\n      swap1\n      pop\n      jump\t// out\n        /* \"#utility.yul\":9850:9998   */\n    tag_95:\n        /* \"#utility.yul\":9952:9963   */\n      0x00\n        /* \"#utility.yul\":9989:9992   */\n      dup2\n        /* \"#utility.yul\":9974:9992   */\n      swap1\n      pop\n        /* \"#utility.yul\":9850:9998   */\n      swap3\n      swap2\n      pop\n      pop\n      jump\t// out\n        /* \"#utility.yul\":10004:10145   */\n    tag_96:\n        /* \"#utility.yul\":10053:10057   */\n      0x00\n        /* \"#utility.yul\":10076:10079   */\n      dup2\n        /* \"#utility.yul\":10068:10079   */\n      swap1\n      pop\n        /* \"#utility.yul\":10099:10102   */\n      dup2\n        /* \"#utility.yul\":10096:10097   */\n      0x00\n        /* \"#utility.yul\":10089:10103   */\n      mstore\n        /* \"#utility.yul\":10133:10137   */\n      0x20\n        /* \"#utility.yul\":10130:10131   */\n      0x00\n        /* \"#utility.yul\":10120:10138   */\n      keccak256\n        /* \"#utility.yul\":10112:10138   */\n      swap1\n      pop\n        /* \"#utility.yul\":10004:10145   */\n      swap2\n      swap1\n      pop\n      jump\t// out\n        /* \"#utility.yul\":10175:11049   */\n    tag_97:\n        /* \"#utility.yul\":10278:10281   */\n      0x00\n        /* \"#utility.yul\":10315:10320   */\n      dup2\n        /* \"#utility.yul\":10309:10321   */\n      sload\n        /* \"#utility.yul\":10344:10380   */\n      tag_202\n        /* \"#utility.yul\":10370:10379   */\n      dup2\n        /* \"#utility.yul\":10344:10380   */\n      tag_31\n      jump\t// in\n    tag_202:\n        /* \"#utility.yul\":10396:10485   */\n      tag_203\n        /* \"#utility.yul\":10478:10484   */\n      dup2\n        /* \"#utility.yul\":10473:10476   */\n      dup7\n        /* \"#utility.yul\":10396:10485   */\n      tag_95\n      jump\t// in\n    tag_203:\n        /* \"#utility.yul\":10389:10485   */\n      swap5\n      pop\n        /* \"#utility.yul\":10516:10517   */\n      0x01\n        /* \"#utility.yul\":10505:10514   */\n      dup3\n        /* \"#utility.yul\":10501:10518   */\n      and\n        /* \"#utility.yul\":10532:10533   */\n      0x00\n        /* \"#utility.yul\":10527:10693   */\n      dup2\n      eq\n      tag_205\n      jumpi\n        /* \"#utility.yul\":10707:10708   */\n      0x01\n        /* \"#utility.yul\":10702:11043   */\n      dup2\n      eq\n      tag_206\n      jumpi\n        /* \"#utility.yul\":10494:11043   */\n      jump(tag_204)\n        /* \"#utility.yul\":10527:10693   */\n    tag_205:\n        /* \"#utility.yul\":10611:10615   */\n      0xff\n        /* \"#utility.yul\":10607:10616   */\n      not\n        /* \"#utility.yul\":10596:10605   */\n      dup4\n        /* \"#utility.yul\":10592:10617   */\n      and\n        /* \"#utility.yul\":10587:10590   */\n      dup7\n        /* \"#utility.yul\":10580:10618   */\n      mstore\n        /* \"#utility.yul\":10673:10679   */\n      dup2\n        /* \"#utility.yul\":10666:10680   */\n      iszero\n        /* \"#utility.yul\":10659:10681   */\n      iszero\n        /* \"#utility.yul\":10651:10657   */\n      dup3\n        /* \"#utility.yul\":10647:10682   */\n      mul\n        /* \"#utility.yul\":10642:10645   */\n      dup7\n        /* \"#utility.yul\":10638:10683   */\n      add\n        /* \"#utility.yul\":10631:10683   */\n      swap4\n      pop\n        /* \"#utility.yul\":10527:10693   */\n      jump(tag_204)\n        /* \"#utility.yul\":10702:11043   */\n    tag_206:\n        /* \"#utility.yul\":10769:10807   */\n      tag_207\n        /* \"#utility.yul\":10801:10806   */\n      dup6\n        /* \"#utility.yul\":10769:10807   */\n      tag_96\n      jump\t// in\n    tag_207:\n        /* \"#utility.yul\":10829:10830   */\n      0x00\n        /* \"#utility.yul\":10843:10997   */\n    tag_208:\n        /* \"#utility.yul\":10857:10863   */\n      dup4\n        /* \"#utility.yul\":10854:10855   */\n      dup2\n        /* \"#utility.yul\":10851:10864   */\n      lt\n        /* \"#utility.yul\":10843:10997   */\n      iszero\n      tag_210\n      jumpi\n        /* \"#utility.yul\":10931:10938   */\n      dup2\n        /* \"#utility.yul\":10925:10939   */\n      sload\n        /* \"#utility.yul\":10921:10922   */\n      dup2\n        /* \"#utility.yul\":10916:10919   */\n      dup10\n        /* \"#utility.yul\":10912:10923   */\n      add\n        /* \"#utility.yul\":10905:10940   */\n      mstore\n        /* \"#utility.yul\":10981:10982   */\n      0x01\n        /* \"#utility.yul\":10972:10979   */\n      dup3\n        /* \"#utility.yul\":10968:10983   */\n      add\n        /* \"#utility.yul\":10957:10983   */\n      swap2\n      pop\n        /* \"#utility.yul\":10879:10883   */\n      0x20\n        /* \"#utility.yul\":10876:10877   */\n      dup2\n        /* \"#utility.yul\":10872:10884   */\n      add\n        /* \"#utility.yul\":10867:10884   */\n      swap1\n      pop\n        /* \"#utility.yul\":10843:10997   */\n      jump(tag_208)\n    tag_210:\n        /* \"#utility.yul\":11026:11032   */\n      dup4\n        /* \"#utility.yul\":11021:11024   */\n      dup9\n        /* \"#utility.yul\":11017:11033   */\n      add\n        /* \"#utility.yul\":11010:11033   */\n      swap6\n      pop\n        /* \"#utility.yul\":10709:11043   */\n      pop\n      pop\n        /* \"#utility.yul\":10494:11043   */\n    tag_204:\n      pop\n        /* \"#utility.yul\":10282:11049   */\n      pop\n      pop\n        /* \"#utility.yul\":10175:11049   */\n      swap3\n      swap2\n      pop\n      pop\n      jump\t// out\n        /* \"#utility.yul\":11055:11324   */\n    tag_29:\n        /* \"#utility.yul\":11184:11187   */\n      0x00\n        /* \"#utility.yul\":11206:11298   */\n      tag_212\n        /* \"#utility.yul\":11294:11297   */\n      dup3\n        /* \"#utility.yul\":11285:11291   */\n      dup5\n        /* \"#utility.yul\":11206:11298   */\n      tag_97\n      jump\t// in\n    tag_212:\n        /* \"#utility.yul\":11199:11298   */\n      swap2\n      pop\n        /* \"#utility.yul\":11315:11318   */\n      dup2\n        /* \"#utility.yul\":11308:11318   */\n      swap1\n      pop\n        /* \"#utility.yul\":11055:11324   */\n      swap3\n      swap2\n      pop\n      pop\n      jump\t// out\n        /* \"#utility.yul\":11330:11720   */\n    tag_98:\n        /* \"#utility.yul\":11436:11439   */\n      0x00\n        /* \"#utility.yul\":11464:11503   */\n      tag_214\n        /* \"#utility.yul\":11497:11502   */\n      dup3\n        /* \"#utility.yul\":11464:11503   */\n      tag_74\n      jump\t// in\n    tag_214:\n        /* \"#utility.yul\":11519:11608   */\n      tag_215\n        /* \"#utility.yul\":11601:11607   */\n      dup2\n        /* \"#utility.yul\":11596:11599   */\n      dup6\n        /* \"#utility.yul\":11519:11608   */\n      tag_95\n      jump\t// in\n    tag_215:\n        /* \"#utility.yul\":11512:11608   */\n      swap4\n      pop\n        /* \"#utility.yul\":11617:11682   */\n      tag_216\n        /* \"#utility.yul\":11675:11681   */\n      dup2\n        /* \"#utility.yul\":11670:11673   */\n      dup6\n        /* \"#utility.yul\":11663:11667   */\n      0x20\n        /* \"#utility.yul\":11656:11661   */\n      dup7\n        /* \"#utility.yul\":11652:11668   */\n      add\n        /* \"#utility.yul\":11617:11682   */\n      tag_76\n      jump\t// in\n    tag_216:\n        /* \"#utility.yul\":11707:11713   */\n      dup1\n        /* \"#utility.yul\":11702:11705   */\n      dup5\n        /* \"#utility.yul\":11698:11714   */\n      add\n        /* \"#utility.yul\":11691:11714   */\n      swap2\n      pop\n        /* \"#utility.yul\":11440:11720   */\n      pop\n        /* \"#utility.yul\":11330:11720   */\n      swap3\n      swap2\n      pop\n      pop\n      jump\t// out\n        /* \"#utility.yul\":11726:12001   */\n    tag_62:\n        /* \"#utility.yul\":11858:11861   */\n      0x00\n        /* \"#utility.yul\":11880:11975   */\n      tag_218\n        /* \"#utility.yul\":11971:11974   */\n      dup3\n        /* \"#utility.yul\":11962:11968   */\n      dup5\n        /* \"#utility.yul\":11880:11975   */\n      tag_98\n      jump\t// in\n    tag_218:\n        /* \"#utility.yul\":11873:11975   */\n      swap2\n      pop\n        /* \"#utility.yul\":11992:11995   */\n      dup2\n        /* \"#utility.yul\":11985:11995   */\n      swap1\n      pop\n        /* \"#utility.yul\":11726:12001   */\n      swap3\n      swap2\n      pop\n      pop\n      jump\t// out\n        /* \"#utility.yul\":12007:12100   */\n    tag_99:\n        /* \"#utility.yul\":12044:12050   */\n      0x00\n        /* \"#utility.yul\":12091:12093   */\n      0x20\n        /* \"#utility.yul\":12086:12088   */\n      0x1f\n        /* \"#utility.yul\":12079:12084   */\n      dup4\n        /* \"#utility.yul\":12075:12089   */\n      add\n        /* \"#utility.yul\":12071:12094   */\n      div\n        /* \"#utility.yul\":12061:12094   */\n      swap1\n      pop\n        /* \"#utility.yul\":12007:12100   */\n      swap2\n      swap1\n      pop\n      jump\t// out\n        /* \"#utility.yul\":12106:12213   */\n    tag_100:\n        /* \"#utility.yul\":12150:12158   */\n      0x00\n        /* \"#utility.yul\":12200:12205   */\n      dup3\n        /* \"#utility.yul\":12194:12198   */\n      dup3\n        /* \"#utility.yul\":12190:12206   */\n      shl\n        /* \"#utility.yul\":12169:12206   */\n      swap1\n      pop\n        /* \"#utility.yul\":12106:12213   */\n      swap3\n      swap2\n      pop\n      pop\n      jump\t// out\n        /* \"#utility.yul\":12219:12612   */\n    tag_101:\n        /* \"#utility.yul\":12288:12294   */\n      0x00\n        /* \"#utility.yul\":12338:12339   */\n      0x08\n        /* \"#utility.yul\":12326:12336   */\n      dup4\n        /* \"#utility.yul\":12322:12340   */\n      mul\n        /* \"#utility.yul\":12361:12458   */\n      tag_222\n        /* \"#utility.yul\":12391:12457   */\n      0xffffffffffffffffffffffffffffffffffffffffffffffffffffffffffffffff\n        /* \"#utility.yul\":12380:12389   */\n      dup3\n        /* \"#utility.yul\":12361:12458   */\n      tag_100\n      jump\t// in\n    tag_222:\n        /* \"#utility.yul\":12479:12518   */\n      tag_223\n        /* \"#utility.yul\":12509:12517   */\n      dup7\n        /* \"#utility.yul\":12498:12507   */\n      dup4\n        /* \"#utility.yul\":12479:12518   */\n      tag_100\n      jump\t// in\n    tag_223:\n        /* \"#utility.yul\":12467:12518   */\n      swap6\n      pop\n        /* \"#utility.yul\":12551:12555   */\n      dup1\n        /* \"#utility.yul\":12547:12556   */\n      not\n        /* \"#utility.yul\":12540:12545   */\n      dup5\n        /* \"#utility.yul\":12536:12557   */\n      and\n        /* \"#utility.yul\":12527:12557   */\n      swap4\n      pop\n        /* \"#utility.yul\":12600:12604   */\n      dup1\n        /* \"#utility.yul\":12590:12598   */\n      dup7\n        /* \"#utility.yul\":12586:12605   */\n      and\n        /* \"#utility.yul\":12579:12584   */\n      dup5\n        /* \"#utility.yul\":12576:12606   */\n      or\n        /* \"#utility.yul\":12566:12606   */\n      swap3\n      pop\n        /* \"#utility.yul\":12295:12612   */\n      pop\n      pop\n        /* \"#utility.yul\":12219:12612   */\n      swap4\n      swap3\n      pop\n      pop\n      pop\n      jump\t// out\n        /* \"#utility.yul\":12618:12695   */\n    tag_102:\n        /* \"#utility.yul\":12655:12662   */\n      0x00\n        /* \"#utility.yul\":12684:12689   */\n      dup2\n        /* \"#utility.yul\":12673:12689   */\n      swap1\n      pop\n        /* \"#utility.yul\":12618:12695   */\n      swap2\n      swap1\n      pop\n      jump\t// out\n        /* \"#utility.yul\":12701:12761   */\n    tag_103:\n        /* \"#utility.yul\":12729:12732   */\n      0x00\n        /* \"#utility.yul\":12750:12755   */\n      dup2\n        /* \"#utility.yul\":12743:12755   */\n      swap1\n      pop\n        /* \"#utility.yul\":12701:12761   */\n      swap2\n      swap1\n      pop\n      jump\t// out\n        /* \"#utility.yul\":12767:12909   */\n    tag_104:\n        /* \"#utility.yul\":12817:12826   */\n      0x00\n        /* \"#utility.yul\":12850:12903   */\n      tag_227\n        /* \"#utility.yul\":12868:12902   */\n      tag_228\n        /* \"#utility.yul\":12877:12901   */\n      tag_229\n        /* \"#utility.yul\":12895:12900   */\n      dup5\n        /* \"#utility.yul\":12877:12901   */\n      tag_102\n      jump\t// in\n    tag_229:\n        /* \"#utility.yul\":12868:12902   */\n      tag_103\n      jump\t// in\n    tag_228:\n        /* \"#utility.yul\":12850:12903   */\n      tag_102\n      jump\t// in\n    tag_227:\n        /* \"#utility.yul\":12837:12903   */\n      swap1\n      pop\n        /* \"#utility.yul\":12767:12909   */\n      swap2\n      swap1\n      pop\n      jump\t// out\n        /* \"#utility.yul\":12915:12990   */\n    tag_105:\n        /* \"#utility.yul\":12958:12961   */\n      0x00\n        /* \"#utility.yul\":12979:12984   */\n      dup2\n        /* \"#utility.yul\":12972:12984   */\n      swap1\n      pop\n        /* \"#utility.yul\":12915:12990   */\n      swap2\n      swap1\n      pop\n      jump\t// out\n        /* \"#utility.yul\":12996:13265   */\n    tag_106:\n        /* \"#utility.yul\":13106:13145   */\n      tag_232\n        /* \"#utility.yul\":13137:13144   */\n      dup4\n        /* \"#utility.yul\":13106:13145   */\n      tag_104\n      jump\t// in\n    tag_232:\n        /* \"#utility.yul\":13167:13258   */\n      tag_233\n        /* \"#utility.yul\":13216:13257   */\n      tag_234\n        /* \"#utility.yul\":13240:13256   */\n      dup3\n        /* \"#utility.yul\":13216:13257   */\n      tag_105\n      jump\t// in\n    tag_234:\n        /* \"#utility.yul\":13208:13214   */\n      dup5\n        /* \"#utility.yul\":13201:13205   */\n      dup5\n        /* \"#utility.yul\":13195:13206   */\n      sload\n        /* \"#utility.yul\":13167:13258   */\n      tag_101\n      jump\t// in\n    tag_233:\n        /* \"#utility.yul\":13161:13165   */\n      dup3\n        /* \"#utility.yul\":13154:13259   */\n      sstore\n        /* \"#utility.yul\":13072:13265   */\n      pop\n        /* \"#utility.yul\":12996:13265   */\n      pop\n      pop\n      pop\n      jump\t// out\n        /* \"#utility.yul\":13271:13344   */\n    tag_107:\n        /* \"#utility.yul\":13316:13319   */\n      0x00\n        /* \"#utility.yul\":13271:13344   */\n      swap1\n      jump\t// out\n        /* \"#utility.yul\":13350:13539   */\n    tag_108:\n        /* \"#utility.yul\":13427:13459   */\n      tag_237\n      tag_107\n      jump\t// in\n    tag_237:\n        /* \"#utility.yul\":13468:13533   */\n      tag_238\n        /* \"#utility.yul\":13526:13532   */\n      dup2\n        /* \"#utility.yul\":13518:13524   */\n      dup5\n        /* \"#utility.yul\":13512:13516   */\n      dup5\n        /* \"#utility.yul\":13468:13533   */\n      tag_106\n      jump\t// in\n    tag_238:\n        /* \"#utility.yul\":13403:13539   */\n      pop\n        /* \"#utility.yul\":13350:13539   */\n      pop\n      pop\n      jump\t// out\n        /* \"#utility.yul\":13545:13731   */\n    tag_109:\n        /* \"#utility.yul\":13605:13725   */\n    tag_240:\n        /* \"#utility.yul\":13622:13625   */\n      dup2\n        /* \"#utility.yul\":13615:13620   */\n      dup2\n        /* \"#utility.yul\":13612:13626   */\n      lt\n        /* \"#utility.yul\":13605:13725   */\n      iszero\n      tag_242\n      jumpi\n        /* \"#utility.yul\":13676:13715   */\n      tag_243\n        /* \"#utility.yul\":13713:13714   */\n      0x00\n        /* \"#utility.yul\":13706:13711   */\n      dup3\n        /* \"#utility.yul\":13676:13715   */\n      tag_108\n      jump\t// in\n    tag_243:\n        /* \"#utility.yul\":13649:13650   */\n      0x01\n        /* \"#utility.yul\":13642:13647   */\n      dup2\n        /* \"#utility.yul\":13638:13651   */\n      add\n        /* \"#utility.yul\":13629:13651   */\n      swap1\n      pop\n        /* \"#utility.yul\":13605:13725   */\n      jump(tag_240)\n    tag_242:\n        /* \"#utility.yul\":13545:13731   */\n      pop\n      pop\n      jump\t// out\n        /* \"#utility.yul\":13737:14280   */\n    tag_110:\n        /* \"#utility.yul\":13838:13840   */\n      0x1f\n        /* \"#utility.yul\":13833:13836   */\n      dup3\n        /* \"#utility.yul\":13830:13841   */\n      gt\n        /* \"#utility.yul\":13827:14273   */\n      iszero\n      tag_245\n      jumpi\n        /* \"#utility.yul\":13872:13910   */\n      tag_246\n        /* \"#utility.yul\":13904:13909   */\n      dup2\n        /* \"#utility.yul\":13872:13910   */\n      tag_96\n      jump\t// in\n    tag_246:\n        /* \"#utility.yul\":13956:13985   */\n      tag_247\n        /* \"#utility.yul\":13974:13984   */\n      dup5\n        /* \"#utility.yul\":13956:13985   */\n      tag_99\n      jump\t// in\n    tag_247:\n        /* \"#utility.yul\":13946:13954   */\n      dup2\n        /* \"#utility.yul\":13942:13986   */\n      add\n        /* \"#utility.yul\":14139:14141   */\n      0x20\n        /* \"#utility.yul\":14127:14137   */\n      dup6\n        /* \"#utility.yul\":14124:14142   */\n      lt\n        /* \"#utility.yul\":14121:14170   */\n      iszero\n      tag_248\n      jumpi\n        /* \"#utility.yul\":14160:14168   */\n      dup2\n        /* \"#utility.yul\":14145:14168   */\n      swap1\n      pop\n        /* \"#utility.yul\":14121:14170   */\n    tag_248:\n        /* \"#utility.yul\":14183:14263   */\n      tag_249\n        /* \"#utility.yul\":14239:14261   */\n      tag_250\n        /* \"#utility.yul\":14257:14260   */\n      dup6\n        /* \"#utility.yul\":14239:14261   */\n      tag_99\n      jump\t// in\n    tag_250:\n        /* \"#utility.yul\":14229:14237   */\n      dup4\n        /* \"#utility.yul\":14225:14262   */\n      add\n        /* \"#utility.yul\":14212:14223   */\n      dup3\n        /* \"#utility.yul\":14183:14263   */\n      tag_109\n      jump\t// in\n    tag_249:\n        /* \"#utility.yul\":13842:14273   */\n      pop\n      pop\n        /* \"#utility.yul\":13827:14273   */\n    tag_245:\n        /* \"#utility.yul\":13737:14280   */\n      pop\n      pop\n      pop\n      jump\t// out\n        /* \"#utility.yul\":14286:14403   */\n    tag_111:\n        /* \"#utility.yul\":14340:14348   */\n      0x00\n        /* \"#utility.yul\":14390:14395   */\n      dup3\n        /* \"#utility.yul\":14384:14388   */\n      dup3\n        /* \"#utility.yul\":14380:14396   */\n      shr\n        /* \"#utility.yul\":14359:14396   */\n      swap1\n      pop\n        /* \"#utility.yul\":14286:14403   */\n      swap3\n      swap2\n      pop\n      pop\n      jump\t// out\n        /* \"#utility.yul\":14409:14578   */\n    tag_112:\n        /* \"#utility.yul\":14453:14459   */\n      0x00\n        /* \"#utility.yul\":14486:14537   */\n      tag_253\n        /* \"#utility.yul\":14534:14535   */\n      0x00\n        /* \"#utility.yul\":14530:14536   */\n      not\n        /* \"#utility.yul\":14522:14527   */\n      dup5\n        /* \"#utility.yul\":14519:14520   */\n      0x08\n        /* \"#utility.yul\":14515:14528   */\n      mul\n        /* \"#utility.yul\":14486:14537   */\n      tag_111\n      jump\t// in\n    tag_253:\n        /* \"#utility.yul\":14482:14538   */\n      not\n        /* \"#utility.yul\":14567:14571   */\n      dup1\n        /* \"#utility.yul\":14561:14565   */\n      dup4\n        /* \"#utility.yul\":14557:14572   */\n      and\n        /* \"#utility.yul\":14547:14572   */\n      swap2\n      pop\n        /* \"#utility.yul\":14460:14578   */\n      pop\n        /* \"#utility.yul\":14409:14578   */\n      swap3\n      swap2\n      pop\n      pop\n      jump\t// out\n        /* \"#utility.yul\":14583:14878   */\n    tag_113:\n        /* \"#utility.yul\":14659:14663   */\n      0x00\n        /* \"#utility.yul\":14805:14834   */\n      tag_255\n        /* \"#utility.yul\":14830:14833   */\n      dup4\n        /* \"#utility.yul\":14824:14828   */\n      dup4\n        /* \"#utility.yul\":14805:14834   */\n      tag_112\n      jump\t// in\n    tag_255:\n        /* \"#utility.yul\":14797:14834   */\n      swap2\n      pop\n        /* \"#utility.yul\":14867:14870   */\n      dup3\n        /* \"#utility.yul\":14864:14865   */\n      0x02\n        /* \"#utility.yul\":14860:14871   */\n      mul\n        /* \"#utility.yul\":14854:14858   */\n      dup3\n        /* \"#utility.yul\":14851:14872   */\n      or\n        /* \"#utility.yul\":14843:14872   */\n      swap1\n      pop\n        /* \"#utility.yul\":14583:14878   */\n      swap3\n      swap2\n      pop\n      pop\n      jump\t// out\n        /* \"#utility.yul\":14883:16278   */\n    tag_64:\n        /* \"#utility.yul\":15000:15037   */\n      tag_257\n        /* \"#utility.yul\":15033:15036   */\n      dup3\n        /* \"#utility.yul\":15000:15037   */\n      tag_74\n      jump\t// in\n    tag_257:\n        /* \"#utility.yul\":15102:15120   */\n      0xffffffffffffffff\n        /* \"#utility.yul\":15094:15100   */\n      dup2\n        /* \"#utility.yul\":15091:15121   */\n      gt\n        /* \"#utility.yul\":15088:15144   */\n      iszero\n      tag_258\n      jumpi\n        /* \"#utility.yul\":15124:15142   */\n      tag_259\n      tag_16\n      jump\t// in\n    tag_259:\n        /* \"#utility.yul\":15088:15144   */\n    tag_258:\n        /* \"#utility.yul\":15168:15206   */\n      tag_260\n        /* \"#utility.yul\":15200:15204   */\n      dup3\n        /* \"#utility.yul\":15194:15205   */\n      sload\n        /* \"#utility.yul\":15168:15206   */\n      tag_31\n      jump\t// in\n    tag_260:\n        /* \"#utility.yul\":15253:15320   */\n      tag_261\n        /* \"#utility.yul\":15313:15319   */\n      dup3\n        /* \"#utility.yul\":15305:15311   */\n      dup3\n        /* \"#utility.yul\":15299:15303   */\n      dup6\n        /* \"#utility.yul\":15253:15320   */\n      tag_110\n      jump\t// in\n    tag_261:\n        /* \"#utility.yul\":15347:15348   */\n      0x00\n        /* \"#utility.yul\":15371:15375   */\n      0x20\n        /* \"#utility.yul\":15358:15375   */\n      swap1\n      pop\n        /* \"#utility.yul\":15403:15405   */\n      0x1f\n        /* \"#utility.yul\":15395:15401   */\n      dup4\n        /* \"#utility.yul\":15392:15406   */\n      gt\n        /* \"#utility.yul\":15420:15421   */\n      0x01\n        /* \"#utility.yul\":15415:16033   */\n      dup2\n      eq\n      tag_263\n      jumpi\n        /* \"#utility.yul\":16077:16078   */\n      0x00\n        /* \"#utility.yul\":16094:16100   */\n      dup5\n        /* \"#utility.yul\":16091:16168   */\n      iszero\n      tag_264\n      jumpi\n        /* \"#utility.yul\":16143:16152   */\n      dup3\n        /* \"#utility.yul\":16138:16141   */\n      dup8\n        /* \"#utility.yul\":16134:16153   */\n      add\n        /* \"#utility.yul\":16128:16154   */\n      mload\n        /* \"#utility.yul\":16119:16154   */\n      swap1\n      pop\n        /* \"#utility.yul\":16091:16168   */\n    tag_264:\n        /* \"#utility.yul\":16194:16261   */\n      tag_265\n        /* \"#utility.yul\":16254:16260   */\n      dup6\n        /* \"#utility.yul\":16247:16252   */\n      dup3\n        /* \"#utility.yul\":16194:16261   */\n      tag_113\n      jump\t// in\n    tag_265:\n        /* \"#utility.yul\":16188:16192   */\n      dup7\n        /* \"#utility.yul\":16181:16262   */\n      sstore\n        /* \"#utility.yul\":16050:16272   */\n      pop\n        /* \"#utility.yul\":15385:16272   */\n      jump(tag_262)\n        /* \"#utility.yul\":15415:16033   */\n    tag_263:\n        /* \"#utility.yul\":15467:15471   */\n      0x1f\n        /* \"#utility.yul\":15463:15472   */\n      not\n        /* \"#utility.yul\":15455:15461   */\n      dup5\n        /* \"#utility.yul\":15451:15473   */\n      and\n        /* \"#utility.yul\":15501:15538   */\n      tag_266\n        /* \"#utility.yul\":15533:15537   */\n      dup7\n        /* \"#utility.yul\":15501:15538   */\n      tag_96\n      jump\t// in\n    tag_266:\n        /* \"#utility.yul\":15560:15561   */\n      0x00\n        /* \"#utility.yul\":15574:15782   */\n    tag_267:\n        /* \"#utility.yul\":15588:15595   */\n      dup3\n        /* \"#utility.yul\":15585:15586   */\n      dup2\n        /* \"#utility.yul\":15582:15596   */\n      lt\n        /* \"#utility.yul\":15574:15782   */\n      iszero\n      tag_269\n      jumpi\n        /* \"#utility.yul\":15667:15676   */\n      dup5\n        /* \"#utility.yul\":15662:15665   */\n      dup10\n        /* \"#utility.yul\":15658:15677   */\n      add\n        /* \"#utility.yul\":15652:15678   */\n      mload\n        /* \"#utility.yul\":15644:15650   */\n      dup3\n        /* \"#utility.yul\":15637:15679   */\n      sstore\n        /* \"#utility.yul\":15718:15719   */\n      0x01\n        /* \"#utility.yul\":15710:15716   */\n      dup3\n        /* \"#utility.yul\":15706:15720   */\n      add\n        /* \"#utility.yul\":15696:15720   */\n      swap2\n      pop\n        /* \"#utility.yul\":15765:15767   */\n      0x20\n        /* \"#utility.yul\":15754:15763   */\n      dup6\n        /* \"#utility.yul\":15750:15768   */\n      add\n        /* \"#utility.yul\":15737:15768   */\n      swap5\n      pop\n        /* \"#utility.yul\":15611:15615   */\n      0x20\n        /* \"#utility.yul\":15608:15609   */\n      dup2\n        /* \"#utility.yul\":15604:15616   */\n      add\n        /* \"#utility.yul\":15599:15616   */\n      swap1\n      pop\n        /* \"#utility.yul\":15574:15782   */\n      jump(tag_267)\n    tag_269:\n        /* \"#utility.yul\":15810:15816   */\n      dup7\n        /* \"#utility.yul\":15801:15808   */\n      dup4\n        /* \"#utility.yul\":15798:15817   */\n      lt\n        /* \"#utility.yul\":15795:15974   */\n      iszero\n      tag_270\n      jumpi\n        /* \"#utility.yul\":15868:15877   */\n      dup5\n        /* \"#utility.yul\":15863:15866   */\n      dup10\n        /* \"#utility.yul\":15859:15878   */\n      add\n        /* \"#utility.yul\":15853:15879   */\n      mload\n        /* \"#utility.yul\":15911:15959   */\n      tag_271\n        /* \"#utility.yul\":15953:15957   */\n      0x1f\n        /* \"#utility.yul\":15945:15951   */\n      dup10\n        /* \"#utility.yul\":15941:15958   */\n      and\n        /* \"#utility.yul\":15930:15939   */\n      dup3\n        /* \"#utility.yul\":15911:15959   */\n      tag_112\n      jump\t// in\n    tag_271:\n        /* \"#utility.yul\":15903:15909   */\n      dup4\n        /* \"#utility.yul\":15896:15960   */\n      sstore\n        /* \"#utility.yul\":15818:15974   */\n      pop\n        /* \"#utility.yul\":15795:15974   */\n    tag_270:\n        /* \"#utility.yul\":16020:16021   */\n      0x01\n        /* \"#utility.yul\":16016:16017   */\n      0x02\n        /* \"#utility.yul\":16008:16014   */\n      dup9\n        /* \"#utility.yul\":16004:16018   */\n      mul\n        /* \"#utility.yul\":16000:16022   */\n      add\n        /* \"#utility.yul\":15994:15998   */\n      dup9\n        /* \"#utility.yul\":15987:16023   */\n      sstore\n        /* \"#utility.yul\":15422:16033   */\n      pop\n      pop\n      pop\n        /* \"#utility.yul\":15385:16272   */\n    tag_262:\n      pop\n        /* \"#utility.yul\":14975:16278   */\n      pop\n      pop\n      pop\n        /* \"#utility.yul\":14883:16278   */\n      pop\n      pop\n      jump\t// out\n\n    auxdata: 0xa26469706673582212202ff839aac7f0cd42886799b835c663f33ed08494c79fa027c2e0f8b4024e37b464736f6c634300081a0033\n}\n",
				"bytecode": {
					"linkReferences": {},
					"object": "6080604052348015600e575f80fd5b50610da88061001c5f395ff3fe608060405234801561000f575f80fd5b5060043610610034575f3560e01c8063c17c5a4514610038578063e0f601e014610056575b5f80fd5b610040610072565b60405161004d919061072d565b60405180910390f35b610070600480360381019061006b919061088a565b610424565b005b60605f60018054905067ffffffffffffffff81111561009457610093610766565b5b6040519080825280602002602001820160405280156100cd57816020015b6100ba610544565b8152602001906001900390816100b25790505b5090505f5b60018054905081101561041c575f600182815481106100f4576100f361098d565b5b905f5260205f20016040516101099190610ab3565b90815260200160405180910390206040518060a00160405290815f82018054610131906109e7565b80601f016020809104026020016040519081016040528092919081815260200182805461015d906109e7565b80156101a85780601f1061017f576101008083540402835291602001916101a8565b820191905f5260205f20905b81548152906001019060200180831161018b57829003601f168201915b505050505081526020016001820180546101c1906109e7565b80601f01602080910402602001604051908101604052809291908181526020018280546101ed906109e7565b80156102385780601f1061020f57610100808354040283529160200191610238565b820191905f5260205f20905b81548152906001019060200180831161021b57829003601f168201915b50505050508152602001600282018054610251906109e7565b80601f016020809104026020016040519081016040528092919081815260200182805461027d906109e7565b80156102c85780601f1061029f576101008083540402835291602001916102c8565b820191905f5260205f20905b8154815290600101906020018083116102ab57829003601f168201915b505050505081526020016003820180546102e1906109e7565b80601f016020809104026020016040519081016040528092919081815260200182805461030d906109e7565b80156103585780601f1061032f57610100808354040283529160200191610358565b820191905f5260205f20905b81548152906001019060200180831161033b57829003601f168201915b50505050508152602001600482018054610371906109e7565b80601f016020809104026020016040519081016040528092919081815260200182805461039d906109e7565b80156103e85780601f106103bf576101008083540402835291602001916103e8565b820191905f5260205f20905b8154815290600101906020018083116103cb57829003601f168201915b5050505050815250508282815181106104045761040361098d565b5b602002602001018190525080806001019150506100d2565b508091505090565b5f82510361043e5760405180602001604052805f81525091505b5f8151036104585760405180602001604052805f81525090505b6040518060a00160405280868152602001858152602001848152602001838152602001828152505f8660405161048e9190610af9565b90815260200160405180910390205f820151815f0190816104af9190610ca3565b5060208201518160010190816104c59190610ca3565b5060408201518160020190816104db9190610ca3565b5060608201518160030190816104f19190610ca3565b5060808201518160040190816105079190610ca3565b50905050600185908060018154018082558091505060019003905f5260205f20015f90919091909150908161053c9190610ca3565b505050505050565b6040518060a0016040528060608152602001606081526020016060815260200160608152602001606081525090565b5f81519050919050565b5f82825260208201905092915050565b5f819050602082019050919050565b5f81519050919050565b5f82825260208201905092915050565b8281835e5f83830152505050565b5f601f19601f8301169050919050565b5f6105de8261059c565b6105e881856105a6565b93506105f88185602086016105b6565b610601816105c4565b840191505092915050565b5f60a083015f8301518482035f86015261062682826105d4565b9150506020830151848203602086015261064082826105d4565b9150506040830151848203604086015261065a82826105d4565b9150506060830151848203606086015261067482826105d4565b9150506080830151848203608086015261068e82826105d4565b9150508091505092915050565b5f6106a6838361060c565b905092915050565b5f602082019050919050565b5f6106c482610573565b6106ce818561057d565b9350836020820285016106e08561058d565b805f5b8581101561071b57848403895281516106fc858261069b565b9450610707836106ae565b925060208a019950506001810190506106e3565b50829750879550505050505092915050565b5f6020820190508181035f83015261074581846106ba565b905092915050565b5f604051905090565b5f80fd5b5f80fd5b5f80fd5b5f80fd5b7f4e487b71000000000000000000000000000000000000000000000000000000005f52604160045260245ffd5b61079c826105c4565b810181811067ffffffffffffffff821117156107bb576107ba610766565b5b80604052505050565b5f6107cd61074d565b90506107d98282610793565b919050565b5f67ffffffffffffffff8211156107f8576107f7610766565b5b610801826105c4565b9050602081019050919050565b828183375f83830152505050565b5f61082e610829846107de565b6107c4565b90508281526020810184848401111561084a57610849610762565b5b61085584828561080e565b509392505050565b5f82601f8301126108715761087061075e565b5b813561088184826020860161081c565b91505092915050565b5f805f805f60a086880312156108a3576108a2610756565b5b5f86013567ffffffffffffffff8111156108c0576108bf61075a565b5b6108cc8882890161085d565b955050602086013567ffffffffffffffff8111156108ed576108ec61075a565b5b6108f98882890161085d565b945050604086013567ffffffffffffffff81111561091a5761091961075a565b5b6109268882890161085d565b935050606086013567ffffffffffffffff8111156109475761094661075a565b5b6109538882890161085d565b925050608086013567ffffffffffffffff8111156109745761097361075a565b5b6109808882890161085d565b9150509295509295909350565b7f4e487b71000000000000000000000000000000000000000000000000000000005f52603260045260245ffd5b7f4e487b71000000000000000000000000000000000000000000000000000000005f52602260045260245ffd5b5f60028204905060018216806109fe57607f821691505b602082108103610a1157610a106109ba565b5b50919050565b5f81905092915050565b5f819050815f5260205f209050919050565b5f8154610a3f816109e7565b610a498186610a17565b9450600182165f8114610a635760018114610a7857610aaa565b60ff1983168652811515820286019350610aaa565b610a8185610a21565b5f5b83811015610aa257815481890152600182019150602081019050610a83565b838801955050505b50505092915050565b5f610abe8284610a33565b915081905092915050565b5f610ad38261059c565b610add8185610a17565b9350610aed8185602086016105b6565b80840191505092915050565b5f610b048284610ac9565b915081905092915050565b5f6020601f8301049050919050565b5f82821b905092915050565b5f60088302610b597fffffffffffffffffffffffffffffffffffffffffffffffffffffffffffffffff82610b1e565b610b638683610b1e565b95508019841693508086168417925050509392505050565b5f819050919050565b5f819050919050565b5f610ba7610ba2610b9d84610b7b565b610b84565b610b7b565b9050919050565b5f819050919050565b610bc083610b8d565b610bd4610bcc82610bae565b848454610b2a565b825550505050565b5f90565b610be8610bdc565b610bf3818484610bb7565b505050565b5b81811015610c1657610c0b5f82610be0565b600181019050610bf9565b5050565b601f821115610c5b57610c2c81610a21565b610c3584610b0f565b81016020851015610c44578190505b610c58610c5085610b0f565b830182610bf8565b50505b505050565b5f82821c905092915050565b5f610c7b5f1984600802610c60565b1980831691505092915050565b5f610c938383610c6c565b9150826002028217905092915050565b610cac8261059c565b67ffffffffffffffff811115610cc557610cc4610766565b5b610ccf82546109e7565b610cda828285610c1a565b5f60209050601f831160018114610d0b575f8415610cf9578287015190505b610d038582610c88565b865550610d6a565b601f198416610d1986610a21565b5f5b82811015610d4057848901518255600182019150602085019450602081019050610d1b565b86831015610d5d5784890151610d59601f891682610c6c565b8355505b6001600288020188555050505b50505050505056fea26469706673582212202ff839aac7f0cd42886799b835c663f33ed08494c79fa027c2e0f8b4024e37b464736f6c634300081a0033",
					"opcodes": "PUSH1 0x80 PUSH1 0x40 MSTORE CALLVALUE DUP1 ISZERO PUSH1 0xE JUMPI PUSH0 DUP1 REVERT JUMPDEST POP PUSH2 0xDA8 DUP1 PUSH2 0x1C PUSH0 CODECOPY PUSH0 RETURN INVALID PUSH1 0x80 PUSH1 0x40 MSTORE CALLVALUE DUP1 ISZERO PUSH2 0xF JUMPI PUSH0 DUP1 REVERT JUMPDEST POP PUSH1 0x4 CALLDATASIZE LT PUSH2 0x34 JUMPI PUSH0 CALLDATALOAD PUSH1 0xE0 SHR DUP1 PUSH4 0xC17C5A45 EQ PUSH2 0x38 JUMPI DUP1 PUSH4 0xE0F601E0 EQ PUSH2 0x56 JUMPI JUMPDEST PUSH0 DUP1 REVERT JUMPDEST PUSH2 0x40 PUSH2 0x72 JUMP JUMPDEST PUSH1 0x40 MLOAD PUSH2 0x4D SWAP2 SWAP1 PUSH2 0x72D JUMP JUMPDEST PUSH1 0x40 MLOAD DUP1 SWAP2 SUB SWAP1 RETURN JUMPDEST PUSH2 0x70 PUSH1 0x4 DUP1 CALLDATASIZE SUB DUP2 ADD SWAP1 PUSH2 0x6B SWAP2 SWAP1 PUSH2 0x88A JUMP JUMPDEST PUSH2 0x424 JUMP JUMPDEST STOP JUMPDEST PUSH1 0x60 PUSH0 PUSH1 0x1 DUP1 SLOAD SWAP1 POP PUSH8 0xFFFFFFFFFFFFFFFF DUP2 GT ISZERO PUSH2 0x94 JUMPI PUSH2 0x93 PUSH2 0x766 JUMP JUMPDEST JUMPDEST PUSH1 0x40 MLOAD SWAP1 DUP1 DUP3 MSTORE DUP1 PUSH1 0x20 MUL PUSH1 0x20 ADD DUP3 ADD PUSH1 0x40 MSTORE DUP1 ISZERO PUSH2 0xCD JUMPI DUP2 PUSH1 0x20 ADD JUMPDEST PUSH2 0xBA PUSH2 0x544 JUMP JUMPDEST DUP2 MSTORE PUSH1 0x20 ADD SWAP1 PUSH1 0x1 SWAP1 SUB SWAP1 DUP2 PUSH2 0xB2 JUMPI SWAP1 POP JUMPDEST POP SWAP1 POP PUSH0 JUMPDEST PUSH1 0x1 DUP1 SLOAD SWAP1 POP DUP2 LT ISZERO PUSH2 0x41C JUMPI PUSH0 PUSH1 0x1 DUP3 DUP2 SLOAD DUP2 LT PUSH2 0xF4 JUMPI PUSH2 0xF3 PUSH2 0x98D JUMP JUMPDEST JUMPDEST SWAP1 PUSH0 MSTORE PUSH1 0x20 PUSH0 KECCAK256 ADD PUSH1 0x40 MLOAD PUSH2 0x109 SWAP2 SWAP1 PUSH2 0xAB3 JUMP JUMPDEST SWAP1 DUP2 MSTORE PUSH1 0x20 ADD PUSH1 0x40 MLOAD DUP1 SWAP2 SUB SWAP1 KECCAK256 PUSH1 0x40 MLOAD DUP1 PUSH1 0xA0 ADD PUSH1 0x40 MSTORE SWAP1 DUP2 PUSH0 DUP3 ADD DUP1 SLOAD PUSH2 0x131 SWAP1 PUSH2 0x9E7 JUMP JUMPDEST DUP1 PUSH1 0x1F ADD PUSH1 0x20 DUP1 SWAP2 DIV MUL PUSH1 0x20 ADD PUSH1 0x40 MLOAD SWAP1 DUP2 ADD PUSH1 0x40 MSTORE DUP1 SWAP3 SWAP2 SWAP1 DUP2 DUP2 MSTORE PUSH1 0x20 ADD DUP3 DUP1 SLOAD PUSH2 0x15D SWAP1 PUSH2 0x9E7 JUMP JUMPDEST DUP1 ISZERO PUSH2 0x1A8 JUMPI DUP1 PUSH1 0x1F LT PUSH2 0x17F JUMPI PUSH2 0x100 DUP1 DUP4 SLOAD DIV MUL DUP4 MSTORE SWAP2 PUSH1 0x20 ADD SWAP2 PUSH2 0x1A8 JUMP JUMPDEST DUP3 ADD SWAP2 SWAP1 PUSH0 MSTORE PUSH1 0x20 PUSH0 KECCAK256 SWAP1 JUMPDEST DUP2 SLOAD DUP2 MSTORE SWAP1 PUSH1 0x1 ADD SWAP1 PUSH1 0x20 ADD DUP1 DUP4 GT PUSH2 0x18B JUMPI DUP3 SWAP1 SUB PUSH1 0x1F AND DUP3 ADD SWAP2 JUMPDEST POP POP POP POP POP DUP2 MSTORE PUSH1 0x20 ADD PUSH1 0x1 DUP3 ADD DUP1 SLOAD PUSH2 0x1C1 SWAP1 PUSH2 0x9E7 JUMP JUMPDEST DUP1 PUSH1 0x1F ADD PUSH1 0x20 DUP1 SWAP2 DIV MUL PUSH1 0x20 ADD PUSH1 0x40 MLOAD SWAP1 DUP2 ADD PUSH1 0x40 MSTORE DUP1 SWAP3 SWAP2 SWAP1 DUP2 DUP2 MSTORE PUSH1 0x20 ADD DUP3 DUP1 SLOAD PUSH2 0x1ED SWAP1 PUSH2 0x9E7 JUMP JUMPDEST DUP1 ISZERO PUSH2 0x238 JUMPI DUP1 PUSH1 0x1F LT PUSH2 0x20F JUMPI PUSH2 0x100 DUP1 DUP4 SLOAD DIV MUL DUP4 MSTORE SWAP2 PUSH1 0x20 ADD SWAP2 PUSH2 0x238 JUMP JUMPDEST DUP3 ADD SWAP2 SWAP1 PUSH0 MSTORE PUSH1 0x20 PUSH0 KECCAK256 SWAP1 JUMPDEST DUP2 SLOAD DUP2 MSTORE SWAP1 PUSH1 0x1 ADD SWAP1 PUSH1 0x20 ADD DUP1 DUP4 GT PUSH2 0x21B JUMPI DUP3 SWAP1 SUB PUSH1 0x1F AND DUP3 ADD SWAP2 JUMPDEST POP POP POP POP POP DUP2 MSTORE PUSH1 0x20 ADD PUSH1 0x2 DUP3 ADD DUP1 SLOAD PUSH2 0x251 SWAP1 PUSH2 0x9E7 JUMP JUMPDEST DUP1 PUSH1 0x1F ADD PUSH1 0x20 DUP1 SWAP2 DIV MUL PUSH1 0x20 ADD PUSH1 0x40 MLOAD SWAP1 DUP2 ADD PUSH1 0x40 MSTORE DUP1 SWAP3 SWAP2 SWAP1 DUP2 DUP2 MSTORE PUSH1 0x20 ADD DUP3 DUP1 SLOAD PUSH2 0x27D SWAP1 PUSH2 0x9E7 JUMP JUMPDEST DUP1 ISZERO PUSH2 0x2C8 JUMPI DUP1 PUSH1 0x1F LT PUSH2 0x29F JUMPI PUSH2 0x100 DUP1 DUP4 SLOAD DIV MUL DUP4 MSTORE SWAP2 PUSH1 0x20 ADD SWAP2 PUSH2 0x2C8 JUMP JUMPDEST DUP3 ADD SWAP2 SWAP1 PUSH0 MSTORE PUSH1 0x20 PUSH0 KECCAK256 SWAP1 JUMPDEST DUP2 SLOAD DUP2 MSTORE SWAP1 PUSH1 0x1 ADD SWAP1 PUSH1 0x20 ADD DUP1 DUP4 GT PUSH2 0x2AB JUMPI DUP3 SWAP1 SUB PUSH1 0x1F AND DUP3 ADD SWAP2 JUMPDEST POP POP POP POP POP DUP2 MSTORE PUSH1 0x20 ADD PUSH1 0x3 DUP3 ADD DUP1 SLOAD PUSH2 0x2E1 SWAP1 PUSH2 0x9E7 JUMP JUMPDEST DUP1 PUSH1 0x1F ADD PUSH1 0x20 DUP1 SWAP2 DIV MUL PUSH1 0x20 ADD PUSH1 0x40 MLOAD SWAP1 DUP2 ADD PUSH1 0x40 MSTORE DUP1 SWAP3 SWAP2 SWAP1 DUP2 DUP2 MSTORE PUSH1 0x20 ADD DUP3 DUP1 SLOAD PUSH2 0x30D SWAP1 PUSH2 0x9E7 JUMP JUMPDEST DUP1 ISZERO PUSH2 0x358 JUMPI DUP1 PUSH1 0x1F LT PUSH2 0x32F JUMPI PUSH2 0x100 DUP1 DUP4 SLOAD DIV MUL DUP4 MSTORE SWAP2 PUSH1 0x20 ADD SWAP2 PUSH2 0x358 JUMP JUMPDEST DUP3 ADD SWAP2 SWAP1 PUSH0 MSTORE PUSH1 0x20 PUSH0 KECCAK256 SWAP1 JUMPDEST DUP2 SLOAD DUP2 MSTORE SWAP1 PUSH1 0x1 ADD SWAP1 PUSH1 0x20 ADD DUP1 DUP4 GT PUSH2 0x33B JUMPI DUP3 SWAP1 SUB PUSH1 0x1F AND DUP3 ADD SWAP2 JUMPDEST POP POP POP POP POP DUP2 MSTORE PUSH1 0x20 ADD PUSH1 0x4 DUP3 ADD DUP1 SLOAD PUSH2 0x371 SWAP1 PUSH2 0x9E7 JUMP JUMPDEST DUP1 PUSH1 0x1F ADD PUSH1 0x20 DUP1 SWAP2 DIV MUL PUSH1 0x20 ADD PUSH1 0x40 MLOAD SWAP1 DUP2 ADD PUSH1 0x40 MSTORE DUP1 SWAP3 SWAP2 SWAP1 DUP2 DUP2 MSTORE PUSH1 0x20 ADD DUP3 DUP1 SLOAD PUSH2 0x39D SWAP1 PUSH2 0x9E7 JUMP JUMPDEST DUP1 ISZERO PUSH2 0x3E8 JUMPI DUP1 PUSH1 0x1F LT PUSH2 0x3BF JUMPI PUSH2 0x100 DUP1 DUP4 SLOAD DIV MUL DUP4 MSTORE SWAP2 PUSH1 0x20 ADD SWAP2 PUSH2 0x3E8 JUMP JUMPDEST DUP3 ADD SWAP2 SWAP1 PUSH0 MSTORE PUSH1 0x20 PUSH0 KECCAK256 SWAP1 JUMPDEST DUP2 SLOAD DUP2 MSTORE SWAP1 PUSH1 0x1 ADD SWAP1 PUSH1 0x20 ADD DUP1 DUP4 GT PUSH2 0x3CB JUMPI DUP3 SWAP1 SUB PUSH1 0x1F AND DUP3 ADD SWAP2 JUMPDEST POP POP POP POP POP DUP2 MSTORE POP POP DUP3 DUP3 DUP2 MLOAD DUP2 LT PUSH2 0x404 JUMPI PUSH2 0x403 PUSH2 0x98D JUMP JUMPDEST JUMPDEST PUSH1 0x20 MUL PUSH1 0x20 ADD ADD DUP2 SWAP1 MSTORE POP DUP1 DUP1 PUSH1 0x1 ADD SWAP2 POP POP PUSH2 0xD2 JUMP JUMPDEST POP DUP1 SWAP2 POP POP SWAP1 JUMP JUMPDEST PUSH0 DUP3 MLOAD SUB PUSH2 0x43E JUMPI PUSH1 0x40 MLOAD DUP1 PUSH1 0x20 ADD PUSH1 0x40 MSTORE DUP1 PUSH0 DUP2 MSTORE POP SWAP2 POP JUMPDEST PUSH0 DUP2 MLOAD SUB PUSH2 0x458 JUMPI PUSH1 0x40 MLOAD DUP1 PUSH1 0x20 ADD PUSH1 0x40 MSTORE DUP1 PUSH0 DUP2 MSTORE POP SWAP1 POP JUMPDEST PUSH1 0x40 MLOAD DUP1 PUSH1 0xA0 ADD PUSH1 0x40 MSTORE DUP1 DUP7 DUP2 MSTORE PUSH1 0x20 ADD DUP6 DUP2 MSTORE PUSH1 0x20 ADD DUP5 DUP2 MSTORE PUSH1 0x20 ADD DUP4 DUP2 MSTORE PUSH1 0x20 ADD DUP3 DUP2 MSTORE POP PUSH0 DUP7 PUSH1 0x40 MLOAD PUSH2 0x48E SWAP2 SWAP1 PUSH2 0xAF9 JUMP JUMPDEST SWAP1 DUP2 MSTORE PUSH1 0x20 ADD PUSH1 0x40 MLOAD DUP1 SWAP2 SUB SWAP1 KECCAK256 PUSH0 DUP3 ADD MLOAD DUP2 PUSH0 ADD SWAP1 DUP2 PUSH2 0x4AF SWAP2 SWAP1 PUSH2 0xCA3 JUMP JUMPDEST POP PUSH1 0x20 DUP3 ADD MLOAD DUP2 PUSH1 0x1 ADD SWAP1 DUP2 PUSH2 0x4C5 SWAP2 SWAP1 PUSH2 0xCA3 JUMP JUMPDEST POP PUSH1 0x40 DUP3 ADD MLOAD DUP2 PUSH1 0x2 ADD SWAP1 DUP2 PUSH2 0x4DB SWAP2 SWAP1 PUSH2 0xCA3 JUMP JUMPDEST POP PUSH1 0x60 DUP3 ADD MLOAD DUP2 PUSH1 0x3 ADD SWAP1 DUP2 PUSH2 0x4F1 SWAP2 SWAP1 PUSH2 0xCA3 JUMP JUMPDEST POP PUSH1 0x80 DUP3 ADD MLOAD DUP2 PUSH1 0x4 ADD SWAP1 DUP2 PUSH2 0x507 SWAP2 SWAP1 PUSH2 0xCA3 JUMP JUMPDEST POP SWAP1 POP POP PUSH1 0x1 DUP6 SWAP1 DUP1 PUSH1 0x1 DUP2 SLOAD ADD DUP1 DUP3 SSTORE DUP1 SWAP2 POP POP PUSH1 0x1 SWAP1 SUB SWAP1 PUSH0 MSTORE PUSH1 0x20 PUSH0 KECCAK256 ADD PUSH0 SWAP1 SWAP2 SWAP1 SWAP2 SWAP1 SWAP2 POP SWAP1 DUP2 PUSH2 0x53C SWAP2 SWAP1 PUSH2 0xCA3 JUMP JUMPDEST POP POP POP POP POP POP JUMP JUMPDEST PUSH1 0x40 MLOAD DUP1 PUSH1 0xA0 ADD PUSH1 0x40 MSTORE DUP1 PUSH1 0x60 DUP2 MSTORE PUSH1 0x20 ADD PUSH1 0x60 DUP2 MSTORE PUSH1 0x20 ADD PUSH1 0x60 DUP2 MSTORE PUSH1 0x20 ADD PUSH1 0x60 DUP2 MSTORE PUSH1 0x20 ADD PUSH1 0x60 DUP2 MSTORE POP SWAP1 JUMP JUMPDEST PUSH0 DUP2 MLOAD SWAP1 POP SWAP2 SWAP1 POP JUMP JUMPDEST PUSH0 DUP3 DUP3 MSTORE PUSH1 0x20 DUP3 ADD SWAP1 POP SWAP3 SWAP2 POP POP JUMP JUMPDEST PUSH0 DUP2 SWAP1 POP PUSH1 0x20 DUP3 ADD SWAP1 POP SWAP2 SWAP1 POP JUMP JUMPDEST PUSH0 DUP2 MLOAD SWAP1 POP SWAP2 SWAP1 POP JUMP JUMPDEST PUSH0 DUP3 DUP3 MSTORE PUSH1 0x20 DUP3 ADD SWAP1 POP SWAP3 SWAP2 POP POP JUMP JUMPDEST DUP3 DUP2 DUP4 MCOPY PUSH0 DUP4 DUP4 ADD MSTORE POP POP POP JUMP JUMPDEST PUSH0 PUSH1 0x1F NOT PUSH1 0x1F DUP4 ADD AND SWAP1 POP SWAP2 SWAP1 POP JUMP JUMPDEST PUSH0 PUSH2 0x5DE DUP3 PUSH2 0x59C JUMP JUMPDEST PUSH2 0x5E8 DUP2 DUP6 PUSH2 0x5A6 JUMP JUMPDEST SWAP4 POP PUSH2 0x5F8 DUP2 DUP6 PUSH1 0x20 DUP7 ADD PUSH2 0x5B6 JUMP JUMPDEST PUSH2 0x601 DUP2 PUSH2 0x5C4 JUMP JUMPDEST DUP5 ADD SWAP2 POP POP SWAP3 SWAP2 POP POP JUMP JUMPDEST PUSH0 PUSH1 0xA0 DUP4 ADD PUSH0 DUP4 ADD MLOAD DUP5 DUP3 SUB PUSH0 DUP7 ADD MSTORE PUSH2 0x626 DUP3 DUP3 PUSH2 0x5D4 JUMP JUMPDEST SWAP2 POP POP PUSH1 0x20 DUP4 ADD MLOAD DUP5 DUP3 SUB PUSH1 0x20 DUP7 ADD MSTORE PUSH2 0x640 DUP3 DUP3 PUSH2 0x5D4 JUMP JUMPDEST SWAP2 POP POP PUSH1 0x40 DUP4 ADD MLOAD DUP5 DUP3 SUB PUSH1 0x40 DUP7 ADD MSTORE PUSH2 0x65A DUP3 DUP3 PUSH2 0x5D4 JUMP JUMPDEST SWAP2 POP POP PUSH1 0x60 DUP4 ADD MLOAD DUP5 DUP3 SUB PUSH1 0x60 DUP7 ADD MSTORE PUSH2 0x674 DUP3 DUP3 PUSH2 0x5D4 JUMP JUMPDEST SWAP2 POP POP PUSH1 0x80 DUP4 ADD MLOAD DUP5 DUP3 SUB PUSH1 0x80 DUP7 ADD MSTORE PUSH2 0x68E DUP3 DUP3 PUSH2 0x5D4 JUMP JUMPDEST SWAP2 POP POP DUP1 SWAP2 POP POP SWAP3 SWAP2 POP POP JUMP JUMPDEST PUSH0 PUSH2 0x6A6 DUP4 DUP4 PUSH2 0x60C JUMP JUMPDEST SWAP1 POP SWAP3 SWAP2 POP POP JUMP JUMPDEST PUSH0 PUSH1 0x20 DUP3 ADD SWAP1 POP SWAP2 SWAP1 POP JUMP JUMPDEST PUSH0 PUSH2 0x6C4 DUP3 PUSH2 0x573 JUMP JUMPDEST PUSH2 0x6CE DUP2 DUP6 PUSH2 0x57D JUMP JUMPDEST SWAP4 POP DUP4 PUSH1 0x20 DUP3 MUL DUP6 ADD PUSH2 0x6E0 DUP6 PUSH2 0x58D JUMP JUMPDEST DUP1 PUSH0 JUMPDEST DUP6 DUP2 LT ISZERO PUSH2 0x71B JUMPI DUP5 DUP5 SUB DUP10 MSTORE DUP2 MLOAD PUSH2 0x6FC DUP6 DUP3 PUSH2 0x69B JUMP JUMPDEST SWAP5 POP PUSH2 0x707 DUP4 PUSH2 0x6AE JUMP JUMPDEST SWAP3 POP PUSH1 0x20 DUP11 ADD SWAP10 POP POP PUSH1 0x1 DUP2 ADD SWAP1 POP PUSH2 0x6E3 JUMP JUMPDEST POP DUP3 SWAP8 POP DUP8 SWAP6 POP POP POP POP POP POP SWAP3 SWAP2 POP POP JUMP JUMPDEST PUSH0 PUSH1 0x20 DUP3 ADD SWAP1 POP DUP2 DUP2 SUB PUSH0 DUP4 ADD MSTORE PUSH2 0x745 DUP2 DUP5 PUSH2 0x6BA JUMP JUMPDEST SWAP1 POP SWAP3 SWAP2 POP POP JUMP JUMPDEST PUSH0 PUSH1 0x40 MLOAD SWAP1 POP SWAP1 JUMP JUMPDEST PUSH0 DUP1 REVERT JUMPDEST PUSH0 DUP1 REVERT JUMPDEST PUSH0 DUP1 REVERT JUMPDEST PUSH0 DUP1 REVERT JUMPDEST PUSH32 0x4E487B7100000000000000000000000000000000000000000000000000000000 PUSH0 MSTORE PUSH1 0x41 PUSH1 0x4 MSTORE PUSH1 0x24 PUSH0 REVERT JUMPDEST PUSH2 0x79C DUP3 PUSH2 0x5C4 JUMP JUMPDEST DUP2 ADD DUP2 DUP2 LT PUSH8 0xFFFFFFFFFFFFFFFF DUP3 GT OR ISZERO PUSH2 0x7BB JUMPI PUSH2 0x7BA PUSH2 0x766 JUMP JUMPDEST JUMPDEST DUP1 PUSH1 0x40 MSTORE POP POP POP JUMP JUMPDEST PUSH0 PUSH2 0x7CD PUSH2 0x74D JUMP JUMPDEST SWAP1 POP PUSH2 0x7D9 DUP3 DUP3 PUSH2 0x793 JUMP JUMPDEST SWAP2 SWAP1 POP JUMP JUMPDEST PUSH0 PUSH8 0xFFFFFFFFFFFFFFFF DUP3 GT ISZERO PUSH2 0x7F8 JUMPI PUSH2 0x7F7 PUSH2 0x766 JUMP JUMPDEST JUMPDEST PUSH2 0x801 DUP3 PUSH2 0x5C4 JUMP JUMPDEST SWAP1 POP PUSH1 0x20 DUP2 ADD SWAP1 POP SWAP2 SWAP1 POP JUMP JUMPDEST DUP3 DUP2 DUP4 CALLDATACOPY PUSH0 DUP4 DUP4 ADD MSTORE POP POP POP JUMP JUMPDEST PUSH0 PUSH2 0x82E PUSH2 0x829 DUP5 PUSH2 0x7DE JUMP JUMPDEST PUSH2 0x7C4 JUMP JUMPDEST SWAP1 POP DUP3 DUP2 MSTORE PUSH1 0x20 DUP2 ADD DUP5 DUP5 DUP5 ADD GT ISZERO PUSH2 0x84A JUMPI PUSH2 0x849 PUSH2 0x762 JUMP JUMPDEST JUMPDEST PUSH2 0x855 DUP5 DUP3 DUP6 PUSH2 0x80E JUMP JUMPDEST POP SWAP4 SWAP3 POP POP POP JUMP JUMPDEST PUSH0 DUP3 PUSH1 0x1F DUP4 ADD SLT PUSH2 0x871 JUMPI PUSH2 0x870 PUSH2 0x75E JUMP JUMPDEST JUMPDEST DUP2 CALLDATALOAD PUSH2 0x881 DUP5 DUP3 PUSH1 0x20 DUP7 ADD PUSH2 0x81C JUMP JUMPDEST SWAP2 POP POP SWAP3 SWAP2 POP POP JUMP JUMPDEST PUSH0 DUP1 PUSH0 DUP1 PUSH0 PUSH1 0xA0 DUP7 DUP9 SUB SLT ISZERO PUSH2 0x8A3 JUMPI PUSH2 0x8A2 PUSH2 0x756 JUMP JUMPDEST JUMPDEST PUSH0 DUP7 ADD CALLDATALOAD PUSH8 0xFFFFFFFFFFFFFFFF DUP2 GT ISZERO PUSH2 0x8C0 JUMPI PUSH2 0x8BF PUSH2 0x75A JUMP JUMPDEST JUMPDEST PUSH2 0x8CC DUP9 DUP3 DUP10 ADD PUSH2 0x85D JUMP JUMPDEST SWAP6 POP POP PUSH1 0x20 DUP7 ADD CALLDATALOAD PUSH8 0xFFFFFFFFFFFFFFFF DUP2 GT ISZERO PUSH2 0x8ED JUMPI PUSH2 0x8EC PUSH2 0x75A JUMP JUMPDEST JUMPDEST PUSH2 0x8F9 DUP9 DUP3 DUP10 ADD PUSH2 0x85D JUMP JUMPDEST SWAP5 POP POP PUSH1 0x40 DUP7 ADD CALLDATALOAD PUSH8 0xFFFFFFFFFFFFFFFF DUP2 GT ISZERO PUSH2 0x91A JUMPI PUSH2 0x919 PUSH2 0x75A JUMP JUMPDEST JUMPDEST PUSH2 0x926 DUP9 DUP3 DUP10 ADD PUSH2 0x85D JUMP JUMPDEST SWAP4 POP POP PUSH1 0x60 DUP7 ADD CALLDATALOAD PUSH8 0xFFFFFFFFFFFFFFFF DUP2 GT ISZERO PUSH2 0x947 JUMPI PUSH2 0x946 PUSH2 0x75A JUMP JUMPDEST JUMPDEST PUSH2 0x953 DUP9 DUP3 DUP10 ADD PUSH2 0x85D JUMP JUMPDEST SWAP3 POP POP PUSH1 0x80 DUP7 ADD CALLDATALOAD PUSH8 0xFFFFFFFFFFFFFFFF DUP2 GT ISZERO PUSH2 0x974 JUMPI PUSH2 0x973 PUSH2 0x75A JUMP JUMPDEST JUMPDEST PUSH2 0x980 DUP9 DUP3 DUP10 ADD PUSH2 0x85D JUMP JUMPDEST SWAP2 POP POP SWAP3 SWAP6 POP SWAP3 SWAP6 SWAP1 SWAP4 POP JUMP JUMPDEST PUSH32 0x4E487B7100000000000000000000000000000000000000000000000000000000 PUSH0 MSTORE PUSH1 0x32 PUSH1 0x4 MSTORE PUSH1 0x24 PUSH0 REVERT JUMPDEST PUSH32 0x4E487B7100000000000000000000000000000000000000000000000000000000 PUSH0 MSTORE PUSH1 0x22 PUSH1 0x4 MSTORE PUSH1 0x24 PUSH0 REVERT JUMPDEST PUSH0 PUSH1 0x2 DUP3 DIV SWAP1 POP PUSH1 0x1 DUP3 AND DUP1 PUSH2 0x9FE JUMPI PUSH1 0x7F DUP3 AND SWAP2 POP JUMPDEST PUSH1 0x20 DUP3 LT DUP2 SUB PUSH2 0xA11 JUMPI PUSH2 0xA10 PUSH2 0x9BA JUMP JUMPDEST JUMPDEST POP SWAP2 SWAP1 POP JUMP JUMPDEST PUSH0 DUP2 SWAP1 POP SWAP3 SWAP2 POP POP JUMP JUMPDEST PUSH0 DUP2 SWAP1 POP DUP2 PUSH0 MSTORE PUSH1 0x20 PUSH0 KECCAK256 SWAP1 POP SWAP2 SWAP1 POP JUMP JUMPDEST PUSH0 DUP2 SLOAD PUSH2 0xA3F DUP2 PUSH2 0x9E7 JUMP JUMPDEST PUSH2 0xA49 DUP2 DUP7 PUSH2 0xA17 JUMP JUMPDEST SWAP5 POP PUSH1 0x1 DUP3 AND PUSH0 DUP2 EQ PUSH2 0xA63 JUMPI PUSH1 0x1 DUP2 EQ PUSH2 0xA78 JUMPI PUSH2 0xAAA JUMP JUMPDEST PUSH1 0xFF NOT DUP4 AND DUP7 MSTORE DUP2 ISZERO ISZERO DUP3 MUL DUP7 ADD SWAP4 POP PUSH2 0xAAA JUMP JUMPDEST PUSH2 0xA81 DUP6 PUSH2 0xA21 JUMP JUMPDEST PUSH0 JUMPDEST DUP4 DUP2 LT ISZERO PUSH2 0xAA2 JUMPI DUP2 SLOAD DUP2 DUP10 ADD MSTORE PUSH1 0x1 DUP3 ADD SWAP2 POP PUSH1 0x20 DUP2 ADD SWAP1 POP PUSH2 0xA83 JUMP JUMPDEST DUP4 DUP9 ADD SWAP6 POP POP POP JUMPDEST POP POP POP SWAP3 SWAP2 POP POP JUMP JUMPDEST PUSH0 PUSH2 0xABE DUP3 DUP5 PUSH2 0xA33 JUMP JUMPDEST SWAP2 POP DUP2 SWAP1 POP SWAP3 SWAP2 POP POP JUMP JUMPDEST PUSH0 PUSH2 0xAD3 DUP3 PUSH2 0x59C JUMP JUMPDEST PUSH2 0xADD DUP2 DUP6 PUSH2 0xA17 JUMP JUMPDEST SWAP4 POP PUSH2 0xAED DUP2 DUP6 PUSH1 0x20 DUP7 ADD PUSH2 0x5B6 JUMP JUMPDEST DUP1 DUP5 ADD SWAP2 POP POP SWAP3 SWAP2 POP POP JUMP JUMPDEST PUSH0 PUSH2 0xB04 DUP3 DUP5 PUSH2 0xAC9 JUMP JUMPDEST SWAP2 POP DUP2 SWAP1 POP SWAP3 SWAP2 POP POP JUMP JUMPDEST PUSH0 PUSH1 0x20 PUSH1 0x1F DUP4 ADD DIV SWAP1 POP SWAP2 SWAP1 POP JUMP JUMPDEST PUSH0 DUP3 DUP3 SHL SWAP1 POP SWAP3 SWAP2 POP POP JUMP JUMPDEST PUSH0 PUSH1 0x8 DUP4 MUL PUSH2 0xB59 PUSH32 0xFFFFFFFFFFFFFFFFFFFFFFFFFFFFFFFFFFFFFFFFFFFFFFFFFFFFFFFFFFFFFFFF DUP3 PUSH2 0xB1E JUMP JUMPDEST PUSH2 0xB63 DUP7 DUP4 PUSH2 0xB1E JUMP JUMPDEST SWAP6 POP DUP1 NOT DUP5 AND SWAP4 POP DUP1 DUP7 AND DUP5 OR SWAP3 POP POP POP SWAP4 SWAP3 POP POP POP JUMP JUMPDEST PUSH0 DUP2 SWAP1 POP SWAP2 SWAP1 POP JUMP JUMPDEST PUSH0 DUP2 SWAP1 POP SWAP2 SWAP1 POP JUMP JUMPDEST PUSH0 PUSH2 0xBA7 PUSH2 0xBA2 PUSH2 0xB9D DUP5 PUSH2 0xB7B JUMP JUMPDEST PUSH2 0xB84 JUMP JUMPDEST PUSH2 0xB7B JUMP JUMPDEST SWAP1 POP SWAP2 SWAP1 POP JUMP JUMPDEST PUSH0 DUP2 SWAP1 POP SWAP2 SWAP1 POP JUMP JUMPDEST PUSH2 0xBC0 DUP4 PUSH2 0xB8D JUMP JUMPDEST PUSH2 0xBD4 PUSH2 0xBCC DUP3 PUSH2 0xBAE JUMP JUMPDEST DUP5 DUP5 SLOAD PUSH2 0xB2A JUMP JUMPDEST DUP3 SSTORE POP POP POP POP JUMP JUMPDEST PUSH0 SWAP1 JUMP JUMPDEST PUSH2 0xBE8 PUSH2 0xBDC JUMP JUMPDEST PUSH2 0xBF3 DUP2 DUP5 DUP5 PUSH2 0xBB7 JUMP JUMPDEST POP POP POP JUMP JUMPDEST JUMPDEST DUP2 DUP2 LT ISZERO PUSH2 0xC16 JUMPI PUSH2 0xC0B PUSH0 DUP3 PUSH2 0xBE0 JUMP JUMPDEST PUSH1 0x1 DUP2 ADD SWAP1 POP PUSH2 0xBF9 JUMP JUMPDEST POP POP JUMP JUMPDEST PUSH1 0x1F DUP3 GT ISZERO PUSH2 0xC5B JUMPI PUSH2 0xC2C DUP2 PUSH2 0xA21 JUMP JUMPDEST PUSH2 0xC35 DUP5 PUSH2 0xB0F JUMP JUMPDEST DUP2 ADD PUSH1 0x20 DUP6 LT ISZERO PUSH2 0xC44 JUMPI DUP2 SWAP1 POP JUMPDEST PUSH2 0xC58 PUSH2 0xC50 DUP6 PUSH2 0xB0F JUMP JUMPDEST DUP4 ADD DUP3 PUSH2 0xBF8 JUMP JUMPDEST POP POP JUMPDEST POP POP POP JUMP JUMPDEST PUSH0 DUP3 DUP3 SHR SWAP1 POP SWAP3 SWAP2 POP POP JUMP JUMPDEST PUSH0 PUSH2 0xC7B PUSH0 NOT DUP5 PUSH1 0x8 MUL PUSH2 0xC60 JUMP JUMPDEST NOT DUP1 DUP4 AND SWAP2 POP POP SWAP3 SWAP2 POP POP JUMP JUMPDEST PUSH0 PUSH2 0xC93 DUP4 DUP4 PUSH2 0xC6C JUMP JUMPDEST SWAP2 POP DUP3 PUSH1 0x2 MUL DUP3 OR SWAP1 POP SWAP3 SWAP2 POP POP JUMP JUMPDEST PUSH2 0xCAC DUP3 PUSH2 0x59C JUMP JUMPDEST PUSH8 0xFFFFFFFFFFFFFFFF DUP2 GT ISZERO PUSH2 0xCC5 JUMPI PUSH2 0xCC4 PUSH2 0x766 JUMP JUMPDEST JUMPDEST PUSH2 0xCCF DUP3 SLOAD PUSH2 0x9E7 JUMP JUMPDEST PUSH2 0xCDA DUP3 DUP3 DUP6 PUSH2 0xC1A JUMP JUMPDEST PUSH0 PUSH1 0x20 SWAP1 POP PUSH1 0x1F DUP4 GT PUSH1 0x1 DUP2 EQ PUSH2 0xD0B JUMPI PUSH0 DUP5 ISZERO PUSH2 0xCF9 JUMPI DUP3 DUP8 ADD MLOAD SWAP1 POP JUMPDEST PUSH2 0xD03 DUP6 DUP3 PUSH2 0xC88 JUMP JUMPDEST DUP7 SSTORE POP PUSH2 0xD6A JUMP JUMPDEST PUSH1 0x1F NOT DUP5 AND PUSH2 0xD19 DUP7 PUSH2 0xA21 JUMP JUMPDEST PUSH0 JUMPDEST DUP3 DUP2 LT ISZERO PUSH2 0xD40 JUMPI DUP5 DUP10 ADD MLOAD DUP3 SSTORE PUSH1 0x1 DUP3 ADD SWAP2 POP PUSH1 0x20 DUP6 ADD SWAP5 POP PUSH1 0x20 DUP2 ADD SWAP1 POP PUSH2 0xD1B JUMP JUMPDEST DUP7 DUP4 LT ISZERO PUSH2 0xD5D JUMPI DUP5 DUP10 ADD MLOAD PUSH2 0xD59 PUSH1 0x1F DUP10 AND DUP3 PUSH2 0xC6C JUMP JUMPDEST DUP4 SSTORE POP JUMPDEST PUSH1 0x1 PUSH1 0x2 DUP9 MUL ADD DUP9 SSTORE POP POP POP JUMPDEST POP POP POP POP POP POP JUMP INVALID LOG2 PUSH5 0x6970667358 0x22 SLT KECCAK256 0x2F 0xF8 CODECOPY 0xAA 0xC7 CREATE 0xCD TIMESTAMP DUP9 PUSH8 0x99B835C663F33ED0 DUP5 SWAP5 0xC7 SWAP16 LOG0 0x27 0xC2 0xE0 0xF8 0xB4 MUL 0x4E CALLDATACOPY 0xB4 PUSH5 0x736F6C6343 STOP ADDMOD BYTE STOP CALLER "
				},
				"gasEstimates": {
					"creation": {
						"codeDepositCost": "699200",
						"executionCost": "732",
						"totalCost": "699932"
					},
					"external": {
						"createMatch(string,string,string,string,string)": "infinite",
						"getAllMatches()": "infinite"
					}
				},
				"methodIdentifiers": {
					"createMatch(string,string,string,string,string)": "e0f601e0",
					"getAllMatches()": "c17c5a45"
				}
			},
			"storageLayout": {
				"storage": [
					{
						"astId": 17,
						"contract": "server.sol:FootballBetting",
						"label": "matches",
						"offset": 0,
						"slot": "0",
						"type": "t_mapping(t_string_memory_ptr,t_struct(Match)12_storage)"
					},
					{
						"astId": 20,
						"contract": "server.sol:FootballBetting",
						"label": "matchIds",
						"offset": 0,
						"slot": "1",
						"type": "t_array(t_string_storage)dyn_storage"
					}
				],
				"types": {
					"t_array(t_string_storage)dyn_storage": {
						"base": "t_string_storage",
						"encoding": "dynamic_array",
						"label": "string[]",
						"numberOfBytes": "32"
					},
					"t_mapping(t_string_memory_ptr,t_struct(Match)12_storage)": {
						"encoding": "mapping",
						"key": "t_string_memory_ptr",
						"label": "mapping(string => struct FootballBetting.Match)",
						"numberOfBytes": "32",
						"value": "t_struct(Match)12_storage"
					},
					"t_string_memory_ptr": {
						"encoding": "bytes",
						"label": "string",
						"numberOfBytes": "32"
					},
					"t_string_storage": {
						"encoding": "bytes",
						"label": "string",
						"numberOfBytes": "32"
					},
					"t_struct(Match)12_storage": {
						"encoding": "inplace",
						"label": "struct FootballBetting.Match",
						"members": [
							{
								"astId": 3,
								"contract": "server.sol:FootballBetting",
								"label": "id",
								"offset": 0,
								"slot": "0",
								"type": "t_string_storage"
							},
							{
								"astId": 5,
								"contract": "server.sol:FootballBetting",
								"label": "homeTeam",
								"offset": 0,
								"slot": "1",
								"type": "t_string_storage"
							},
							{
								"astId": 7,
								"contract": "server.sol:FootballBetting",
								"label": "awayTeam",
								"offset": 0,
								"slot": "2",
								"type": "t_string_storage"
							},
							{
								"astId": 9,
								"contract": "server.sol:FootballBetting",
								"label": "score",
								"offset": 0,
								"slot": "3",
								"type": "t_string_storage"
							},
							{
								"astId": 11,
								"contract": "server.sol:FootballBetting",
								"label": "startTimestamp",
								"offset": 0,
								"slot": "4",
								"type": "t_string_storage"
							}
						],
						"numberOfBytes": "160"
					}
				}
			},
			"userdoc": {
				"kind": "user",
				"methods": {},
				"version": 1
			}
		}
	}
}