{
	"server.sol": {
		"FootballBetting": {
			"abi": [
				{
					"inputs": [],
					"stateMutability": "nonpayable",
					"type": "constructor"
				},
				{
					"inputs": [
						{
							"internalType": "uint8",
							"name": "_id",
							"type": "uint8"
						},
						{
							"internalType": "string",
							"name": "_home",
							"type": "string"
						},
						{
							"internalType": "string",
							"name": "_away",
							"type": "string"
						},
						{
							"internalType": "string",
							"name": "_score",
							"type": "string"
						},
						{
							"internalType": "uint256",
							"name": "_timestamp",
							"type": "uint256"
						}
					],
					"name": "createMatch",
					"outputs": [],
					"stateMutability": "nonpayable",
					"type": "function"
				},
				{
					"inputs": [],
					"name": "getAllMatches",
					"outputs": [
						{
							"components": [
								{
									"internalType": "uint8",
									"name": "id",
									"type": "uint8"
								},
								{
									"internalType": "string",
									"name": "homeTeam",
									"type": "string"
								},
								{
									"internalType": "string",
									"name": "awayTeam",
									"type": "string"
								},
								{
									"internalType": "string",
									"name": "score",
									"type": "string"
								},
								{
									"internalType": "uint256",
									"name": "startTimestamp",
									"type": "uint256"
								}
							],
							"internalType": "struct FootballBetting.Match[]",
							"name": "",
							"type": "tuple[]"
						}
					],
					"stateMutability": "view",
					"type": "function"
				},
				{
					"inputs": [],
					"name": "getMyBets",
					"outputs": [
						{
							"components": [
								{
									"internalType": "uint256",
									"name": "amount",
									"type": "uint256"
								},
								{
									"internalType": "uint8",
									"name": "team",
									"type": "uint8"
								}
							],
							"internalType": "struct FootballBetting.Bet[]",
							"name": "",
							"type": "tuple[]"
						}
					],
					"stateMutability": "view",
					"type": "function"
				},
				{
					"inputs": [
						{
							"internalType": "uint8",
							"name": "_matchId",
							"type": "uint8"
						},
						{
							"internalType": "uint8",
							"name": "_team",
							"type": "uint8"
						}
					],
					"name": "placeBet",
					"outputs": [],
					"stateMutability": "payable",
					"type": "function"
				}
			],
			"devdoc": {
				"kind": "dev",
				"methods": {},
				"version": 1
			},
			"evm": {
				"assembly": "    /* \"server.sol\":57:2632  contract FootballBetting {... */\n  mstore(0x40, 0x80)\n    /* \"server.sol\":117:208  constructor() {... */\n  callvalue\n  dup1\n  iszero\n  tag_1\n  jumpi\n  0x00\n  dup1\n  revert\ntag_1:\n  pop\n    /* \"server.sol\":149:159  msg.sender */\n  caller\n    /* \"server.sol\":141:146  owner */\n  0x00\n  dup1\n    /* \"server.sol\":141:159  owner = msg.sender */\n  0x0100\n  exp\n  dup2\n  sload\n  dup2\n  0xffffffffffffffffffffffffffffffffffffffff\n  mul\n  not\n  and\n  swap1\n  dup4\n  0xffffffffffffffffffffffffffffffffffffffff\n  and\n  mul\n  or\n  swap1\n  sstore\n  pop\n    /* \"server.sol\":57:2632  contract FootballBetting {... */\n  dataSize(sub_0)\n  dup1\n  dataOffset(sub_0)\n  0x00\n  codecopy\n  0x00\n  return\nstop\n\nsub_0: assembly {\n        /* \"server.sol\":57:2632  contract FootballBetting {... */\n      mstore(0x40, 0x80)\n      jumpi(tag_1, lt(calldatasize, 0x04))\n      shr(0xe0, calldataload(0x00))\n      dup1\n      0x5f382303\n      eq\n      tag_2\n      jumpi\n      dup1\n      0x99535bd7\n      eq\n      tag_3\n      jumpi\n      dup1\n      0xa648567b\n      eq\n      tag_4\n      jumpi\n      dup1\n      0xc17c5a45\n      eq\n      tag_5\n      jumpi\n    tag_1:\n      0x00\n      dup1\n      revert\n        /* \"server.sol\":978:1575  function createMatch(... */\n    tag_2:\n      callvalue\n      dup1\n      iszero\n      tag_6\n      jumpi\n      0x00\n      dup1\n      revert\n    tag_6:\n      pop\n      tag_7\n      0x04\n      dup1\n      calldatasize\n      sub\n      dup2\n      add\n      swap1\n      tag_8\n      swap2\n      swap1\n      tag_9\n      jump\t// in\n    tag_8:\n      tag_10\n      jump\t// in\n    tag_7:\n      stop\n        /* \"server.sol\":2344:2630  function getMyBets() public view returns (Bet[] memory) {... */\n    tag_3:\n      callvalue\n      dup1\n      iszero\n      tag_11\n      jumpi\n      0x00\n      dup1\n      revert\n    tag_11:\n      pop\n      tag_12\n      tag_13\n      jump\t// in\n    tag_12:\n      mload(0x40)\n      tag_14\n      swap2\n      swap1\n      tag_15\n      jump\t// in\n    tag_14:\n      mload(0x40)\n      dup1\n      swap2\n      sub\n      swap1\n      return\n        /* \"server.sol\":1903:2308  function placeBet(uint8 _matchId, uint8 _team) public payable {... */\n    tag_4:\n      tag_16\n      0x04\n      dup1\n      calldatasize\n      sub\n      dup2\n      add\n      swap1\n      tag_17\n      swap2\n      swap1\n      tag_18\n      jump\t// in\n    tag_17:\n      tag_19\n      jump\t// in\n    tag_16:\n      stop\n        /* \"server.sol\":1616:1870  function getAllMatches() public view returns (Match[] memory) {... */\n    tag_5:\n      callvalue\n      dup1\n      iszero\n      tag_20\n      jumpi\n      0x00\n      dup1\n      revert\n    tag_20:\n      pop\n      tag_21\n      tag_22\n      jump\t// in\n    tag_21:\n      mload(0x40)\n      tag_23\n      swap2\n      swap1\n      tag_24\n      jump\t// in\n    tag_23:\n      mload(0x40)\n      dup1\n      swap2\n      sub\n      swap1\n      return\n        /* \"server.sol\":978:1575  function createMatch(... */\n    tag_10:\n        /* \"server.sol\":267:272  owner */\n      0x00\n      dup1\n      sload\n      swap1\n      0x0100\n      exp\n      swap1\n      div\n      0xffffffffffffffffffffffffffffffffffffffff\n      and\n        /* \"server.sol\":253:272  msg.sender == owner */\n      0xffffffffffffffffffffffffffffffffffffffff\n      and\n        /* \"server.sol\":253:263  msg.sender */\n      caller\n        /* \"server.sol\":253:272  msg.sender == owner */\n      0xffffffffffffffffffffffffffffffffffffffff\n      and\n      eq\n        /* \"server.sol\":245:317  require(msg.sender == owner, \"Seul l'admin peut appeler cette fonction\") */\n      tag_26\n      jumpi\n      mload(0x40)\n      0x08c379a000000000000000000000000000000000000000000000000000000000\n      dup2\n      mstore\n      0x04\n      add\n      tag_27\n      swap1\n      tag_28\n      jump\t// in\n    tag_27:\n      mload(0x40)\n      dup1\n      swap2\n      sub\n      swap1\n      revert\n    tag_26:\n        /* \"server.sol\":1215:1216  0 */\n      0x00\n        /* \"server.sol\":1182:1189  matches */\n      0x01\n        /* \"server.sol\":1182:1194  matches[_id] */\n      0x00\n        /* \"server.sol\":1190:1193  _id */\n      dup8\n        /* \"server.sol\":1182:1194  matches[_id] */\n      0xff\n      and\n      0xff\n      and\n      dup2\n      mstore\n      0x20\n      add\n      swap1\n      dup2\n      mstore\n      0x20\n      add\n      0x00\n      keccak256\n        /* \"server.sol\":1182:1203  matches[_id].homeTeam */\n      0x01\n      add\n        /* \"server.sol\":1176:1211  bytes(matches[_id].homeTeam).length */\n      dup1\n      sload\n      tag_30\n      swap1\n      tag_31\n      jump\t// in\n    tag_30:\n      swap1\n      pop\n        /* \"server.sol\":1176:1216  bytes(matches[_id].homeTeam).length == 0 */\n      eq\n        /* \"server.sol\":1168:1240  require(bytes(matches[_id].homeTeam).length == 0, \"Match deja existant\") */\n      tag_32\n      jumpi\n      mload(0x40)\n      0x08c379a000000000000000000000000000000000000000000000000000000000\n      dup2\n      mstore\n      0x04\n      add\n      tag_33\n      swap1\n      tag_34\n      jump\t// in\n    tag_33:\n      mload(0x40)\n      dup1\n      swap2\n      sub\n      swap1\n      revert\n    tag_32:\n        /* \"server.sol\":1279:1280  0 */\n      0x00\n        /* \"server.sol\":1261:1267  _score */\n      dup3\n        /* \"server.sol\":1255:1275  bytes(_score).length */\n      mload\n        /* \"server.sol\":1255:1280  bytes(_score).length == 0 */\n      sub\n        /* \"server.sol\":1251:1318  if (bytes(_score).length == 0) {... */\n      tag_35\n      jumpi\n        /* \"server.sol\":1296:1307  _score = \"\" */\n      mload(0x40)\n      dup1\n      0x20\n      add\n      0x40\n      mstore\n      dup1\n      0x00\n      dup2\n      mstore\n      pop\n      swap2\n      pop\n        /* \"server.sol\":1251:1318  if (bytes(_score).length == 0) {... */\n    tag_35:\n        /* \"server.sol\":1343:1539  Match({... */\n      mload(0x40)\n      dup1\n      0xa0\n      add\n      0x40\n      mstore\n      dup1\n        /* \"server.sol\":1367:1370  _id */\n      dup7\n        /* \"server.sol\":1343:1539  Match({... */\n      0xff\n      and\n      dup2\n      mstore\n      0x20\n      add\n        /* \"server.sol\":1394:1399  _home */\n      dup6\n        /* \"server.sol\":1343:1539  Match({... */\n      dup2\n      mstore\n      0x20\n      add\n        /* \"server.sol\":1423:1428  _away */\n      dup5\n        /* \"server.sol\":1343:1539  Match({... */\n      dup2\n      mstore\n      0x20\n      add\n        /* \"server.sol\":1473:1474  0 */\n      0x00\n        /* \"server.sol\":1455:1461  _score */\n      dup5\n        /* \"server.sol\":1449:1469  bytes(_score).length */\n      mload\n        /* \"server.sol\":1449:1474  bytes(_score).length == 0 */\n      eq\n        /* \"server.sol\":1449:1488  bytes(_score).length == 0 ? \"\" : _score */\n      tag_36\n      jumpi\n        /* \"server.sol\":1482:1488  _score */\n      dup4\n        /* \"server.sol\":1449:1488  bytes(_score).length == 0 ? \"\" : _score */\n      jump(tag_37)\n    tag_36:\n      mload(0x40)\n      dup1\n      0x20\n      add\n      0x40\n      mstore\n      dup1\n      0x00\n      dup2\n      mstore\n      pop\n    tag_37:\n        /* \"server.sol\":1343:1539  Match({... */\n      dup2\n      mstore\n      0x20\n      add\n        /* \"server.sol\":1518:1528  _timestamp */\n      dup3\n        /* \"server.sol\":1343:1539  Match({... */\n      dup2\n      mstore\n      pop\n        /* \"server.sol\":1328:1335  matches */\n      0x01\n        /* \"server.sol\":1328:1340  matches[_id] */\n      0x00\n        /* \"server.sol\":1336:1339  _id */\n      dup8\n        /* \"server.sol\":1328:1340  matches[_id] */\n      0xff\n      and\n      0xff\n      and\n      dup2\n      mstore\n      0x20\n      add\n      swap1\n      dup2\n      mstore\n      0x20\n      add\n      0x00\n      keccak256\n        /* \"server.sol\":1328:1539  matches[_id] = Match({... */\n      0x00\n      dup3\n      add\n      mload\n      dup2\n      0x00\n      add\n      exp(0x0100, 0x00)\n      dup2\n      sload\n      dup2\n      0xff\n      mul\n      not\n      and\n      swap1\n      dup4\n      0xff\n      and\n      mul\n      or\n      swap1\n      sstore\n      pop\n      0x20\n      dup3\n      add\n      mload\n      dup2\n      0x01\n      add\n      swap1\n      dup2\n      tag_38\n      swap2\n      swap1\n      tag_39\n      jump\t// in\n    tag_38:\n      pop\n      0x40\n      dup3\n      add\n      mload\n      dup2\n      0x02\n      add\n      swap1\n      dup2\n      tag_40\n      swap2\n      swap1\n      tag_39\n      jump\t// in\n    tag_40:\n      pop\n      0x60\n      dup3\n      add\n      mload\n      dup2\n      0x03\n      add\n      swap1\n      dup2\n      tag_41\n      swap2\n      swap1\n      tag_39\n      jump\t// in\n    tag_41:\n      pop\n      0x80\n      dup3\n      add\n      mload\n      dup2\n      0x04\n      add\n      sstore\n      swap1\n      pop\n      pop\n        /* \"server.sol\":1550:1558  matchIds */\n      0x02\n        /* \"server.sol\":1564:1567  _id */\n      dup6\n        /* \"server.sol\":1550:1568  matchIds.push(_id) */\n      swap1\n      dup1\n      0x01\n      dup2\n      sload\n      add\n      dup1\n      dup3\n      sstore\n      dup1\n      swap2\n      pop\n      pop\n      0x01\n      swap1\n      sub\n      swap1\n      0x00\n      mstore\n      keccak256(0x00, 0x20)\n      swap1\n      0x20\n      swap2\n      dup3\n      dup3\n      div\n      add\n      swap2\n      swap1\n      mod\n      swap1\n      swap2\n      swap1\n      swap2\n      swap1\n      swap2\n      0x0100\n      exp\n      dup2\n      sload\n      dup2\n      0xff\n      mul\n      not\n      and\n      swap1\n      dup4\n      0xff\n      and\n      mul\n      or\n      swap1\n      sstore\n      pop\n        /* \"server.sol\":978:1575  function createMatch(... */\n      pop\n      pop\n      pop\n      pop\n      pop\n      jump\t// out\n        /* \"server.sol\":2344:2630  function getMyBets() public view returns (Bet[] memory) {... */\n    tag_13:\n        /* \"server.sol\":2386:2398  Bet[] memory */\n      0x60\n        /* \"server.sol\":2410:2428  uint8[] memory ids */\n      0x00\n        /* \"server.sol\":2431:2439  userBets */\n      0x04\n        /* \"server.sol\":2431:2451  userBets[msg.sender] */\n      0x00\n        /* \"server.sol\":2440:2450  msg.sender */\n      caller\n        /* \"server.sol\":2431:2451  userBets[msg.sender] */\n      0xffffffffffffffffffffffffffffffffffffffff\n      and\n      0xffffffffffffffffffffffffffffffffffffffff\n      and\n      dup2\n      mstore\n      0x20\n      add\n      swap1\n      dup2\n      mstore\n      0x20\n      add\n      0x00\n      keccak256\n        /* \"server.sol\":2410:2451  uint8[] memory ids = userBets[msg.sender] */\n      dup1\n      sload\n      dup1\n      0x20\n      mul\n      0x20\n      add\n      mload(0x40)\n      swap1\n      dup2\n      add\n      0x40\n      mstore\n      dup1\n      swap3\n      swap2\n      swap1\n      dup2\n      dup2\n      mstore\n      0x20\n      add\n      dup3\n      dup1\n      sload\n      dup1\n      iszero\n      tag_44\n      jumpi\n      0x20\n      mul\n      dup3\n      add\n      swap2\n      swap1\n      0x00\n      mstore\n      keccak256(0x00, 0x20)\n      swap1\n      0x00\n      swap1\n    tag_45:\n      dup3\n      dup3\n      swap1\n      sload\n      swap1\n      0x0100\n      exp\n      swap1\n      div\n      0xff\n      and\n      0xff\n      and\n      dup2\n      mstore\n      0x20\n      add\n      swap1\n      0x01\n      add\n      swap1\n      0x20\n      dup3\n      0x00\n      add\n      div\n      swap3\n      dup4\n      add\n      swap3\n      0x01\n      sub\n      dup3\n      mul\n      swap2\n      pop\n      dup1\n      dup5\n      gt\n      tag_45\n      jumpi\n      swap1\n      pop\n    tag_44:\n      pop\n      pop\n      pop\n      pop\n      pop\n      swap1\n      pop\n        /* \"server.sol\":2461:2476  Bet[] memory my */\n      0x00\n        /* \"server.sol\":2489:2492  ids */\n      dup2\n        /* \"server.sol\":2489:2499  ids.length */\n      mload\n        /* \"server.sol\":2479:2500  new Bet[](ids.length) */\n      0xffffffffffffffff\n      dup2\n      gt\n      iszero\n      tag_46\n      jumpi\n      tag_47\n      tag_48\n      jump\t// in\n    tag_47:\n    tag_46:\n      mload(0x40)\n      swap1\n      dup1\n      dup3\n      mstore\n      dup1\n      0x20\n      mul\n      0x20\n      add\n      dup3\n      add\n      0x40\n      mstore\n      dup1\n      iszero\n      tag_49\n      jumpi\n      dup2\n      0x20\n      add\n    tag_50:\n      tag_51\n      tag_52\n      jump\t// in\n    tag_51:\n      dup2\n      mstore\n      0x20\n      add\n      swap1\n      0x01\n      swap1\n      sub\n      swap1\n      dup2\n      tag_50\n      jumpi\n      swap1\n      pop\n    tag_49:\n      pop\n        /* \"server.sol\":2461:2500  Bet[] memory my = new Bet[](ids.length) */\n      swap1\n      pop\n        /* \"server.sol\":2515:2521  uint i */\n      0x00\n        /* \"server.sol\":2510:2605  for (uint i = 0; i < ids.length; i++) {... */\n    tag_53:\n        /* \"server.sol\":2531:2534  ids */\n      dup3\n        /* \"server.sol\":2531:2541  ids.length */\n      mload\n        /* \"server.sol\":2527:2528  i */\n      dup2\n        /* \"server.sol\":2527:2541  i < ids.length */\n      lt\n        /* \"server.sol\":2510:2605  for (uint i = 0; i < ids.length; i++) {... */\n      iszero\n      tag_54\n      jumpi\n        /* \"server.sol\":2570:2574  bets */\n      0x03\n        /* \"server.sol\":2570:2582  bets[ids[i]] */\n      0x00\n        /* \"server.sol\":2575:2578  ids */\n      dup5\n        /* \"server.sol\":2579:2580  i */\n      dup4\n        /* \"server.sol\":2575:2581  ids[i] */\n      dup2\n      mload\n      dup2\n      lt\n      tag_56\n      jumpi\n      tag_57\n      tag_58\n      jump\t// in\n    tag_57:\n    tag_56:\n      0x20\n      mul\n      0x20\n      add\n      add\n      mload\n        /* \"server.sol\":2570:2582  bets[ids[i]] */\n      0xff\n      and\n      0xff\n      and\n      dup2\n      mstore\n      0x20\n      add\n      swap1\n      dup2\n      mstore\n      0x20\n      add\n      0x00\n      keccak256\n        /* \"server.sol\":2570:2594  bets[ids[i]][msg.sender] */\n      0x00\n        /* \"server.sol\":2583:2593  msg.sender */\n      caller\n        /* \"server.sol\":2570:2594  bets[ids[i]][msg.sender] */\n      0xffffffffffffffffffffffffffffffffffffffff\n      and\n      0xffffffffffffffffffffffffffffffffffffffff\n      and\n      dup2\n      mstore\n      0x20\n      add\n      swap1\n      dup2\n      mstore\n      0x20\n      add\n      0x00\n      keccak256\n        /* \"server.sol\":2562:2594  my[i] = bets[ids[i]][msg.sender] */\n      mload(0x40)\n      dup1\n      0x40\n      add\n      0x40\n      mstore\n      swap1\n      dup2\n      0x00\n      dup3\n      add\n      sload\n      dup2\n      mstore\n      0x20\n      add\n      0x01\n      dup3\n      add\n      0x00\n      swap1\n      sload\n      swap1\n      0x0100\n      exp\n      swap1\n      div\n      0xff\n      and\n      0xff\n      and\n      0xff\n      and\n      dup2\n      mstore\n      pop\n      pop\n        /* \"server.sol\":2562:2564  my */\n      dup3\n        /* \"server.sol\":2565:2566  i */\n      dup3\n        /* \"server.sol\":2562:2567  my[i] */\n      dup2\n      mload\n      dup2\n      lt\n      tag_59\n      jumpi\n      tag_60\n      tag_58\n      jump\t// in\n    tag_60:\n    tag_59:\n      0x20\n      mul\n      0x20\n      add\n      add\n        /* \"server.sol\":2562:2594  my[i] = bets[ids[i]][msg.sender] */\n      dup2\n      swap1\n      mstore\n      pop\n        /* \"server.sol\":2543:2546  i++ */\n      dup1\n      dup1\n      0x01\n      add\n      swap2\n      pop\n      pop\n        /* \"server.sol\":2510:2605  for (uint i = 0; i < ids.length; i++) {... */\n      jump(tag_53)\n    tag_54:\n      pop\n        /* \"server.sol\":2621:2623  my */\n      dup1\n        /* \"server.sol\":2614:2623  return my */\n      swap3\n      pop\n      pop\n      pop\n        /* \"server.sol\":2344:2630  function getMyBets() public view returns (Bet[] memory) {... */\n      swap1\n      jump\t// out\n        /* \"server.sol\":1903:2308  function placeBet(uint8 _matchId, uint8 _team) public payable {... */\n    tag_19:\n        /* \"server.sol\":1995:1996  0 */\n      0x00\n        /* \"server.sol\":1983:1992  msg.value */\n      callvalue\n        /* \"server.sol\":1983:1996  msg.value > 0 */\n      gt\n        /* \"server.sol\":1975:2013  require(msg.value > 0, \"Mise requise\") */\n      tag_62\n      jumpi\n      mload(0x40)\n      0x08c379a000000000000000000000000000000000000000000000000000000000\n      dup2\n      mstore\n      0x04\n      add\n      tag_63\n      swap1\n      tag_64\n      jump\t// in\n    tag_63:\n      mload(0x40)\n      dup1\n      swap2\n      sub\n      swap1\n      revert\n    tag_62:\n        /* \"server.sol\":2040:2041  2 */\n      0x02\n        /* \"server.sol\":2031:2036  _team */\n      dup2\n        /* \"server.sol\":2031:2041  _team <= 2 */\n      0xff\n      and\n      gt\n      iszero\n        /* \"server.sol\":2023:2060  require(_team <= 2, \"Choix invalide\") */\n      tag_65\n      jumpi\n      mload(0x40)\n      0x08c379a000000000000000000000000000000000000000000000000000000000\n      dup2\n      mstore\n      0x04\n      add\n      tag_66\n      swap1\n      tag_67\n      jump\t// in\n    tag_66:\n      mload(0x40)\n      dup1\n      swap2\n      sub\n      swap1\n      revert\n    tag_65:\n        /* \"server.sol\":2122:2123  0 */\n      0x00\n        /* \"server.sol\":2084:2091  matches */\n      0x01\n        /* \"server.sol\":2084:2101  matches[_matchId] */\n      0x00\n        /* \"server.sol\":2092:2100  _matchId */\n      dup5\n        /* \"server.sol\":2084:2101  matches[_matchId] */\n      0xff\n      and\n      0xff\n      and\n      dup2\n      mstore\n      0x20\n      add\n      swap1\n      dup2\n      mstore\n      0x20\n      add\n      0x00\n      keccak256\n        /* \"server.sol\":2084:2110  matches[_matchId].homeTeam */\n      0x01\n      add\n        /* \"server.sol\":2078:2118  bytes(matches[_matchId].homeTeam).length */\n      dup1\n      sload\n      tag_68\n      swap1\n      tag_31\n      jump\t// in\n    tag_68:\n      swap1\n      pop\n        /* \"server.sol\":2078:2123  bytes(matches[_matchId].homeTeam).length != 0 */\n      sub\n        /* \"server.sol\":2070:2144  require(bytes(matches[_matchId].homeTeam).length != 0, \"Match inexistant\") */\n      tag_69\n      jumpi\n      mload(0x40)\n      0x08c379a000000000000000000000000000000000000000000000000000000000\n      dup2\n      mstore\n      0x04\n      add\n      tag_70\n      swap1\n      tag_71\n      jump\t// in\n    tag_70:\n      mload(0x40)\n      dup1\n      swap2\n      sub\n      swap1\n      revert\n    tag_69:\n        /* \"server.sol\":2184:2255  Bet({... */\n      mload(0x40)\n      dup1\n      0x40\n      add\n      0x40\n      mstore\n      dup1\n        /* \"server.sol\":2210:2219  msg.value */\n      callvalue\n        /* \"server.sol\":2184:2255  Bet({... */\n      dup2\n      mstore\n      0x20\n      add\n        /* \"server.sol\":2239:2244  _team */\n      dup3\n        /* \"server.sol\":2184:2255  Bet({... */\n      0xff\n      and\n      dup2\n      mstore\n      pop\n        /* \"server.sol\":2155:2159  bets */\n      0x03\n        /* \"server.sol\":2155:2169  bets[_matchId] */\n      0x00\n        /* \"server.sol\":2160:2168  _matchId */\n      dup5\n        /* \"server.sol\":2155:2169  bets[_matchId] */\n      0xff\n      and\n      0xff\n      and\n      dup2\n      mstore\n      0x20\n      add\n      swap1\n      dup2\n      mstore\n      0x20\n      add\n      0x00\n      keccak256\n        /* \"server.sol\":2155:2181  bets[_matchId][msg.sender] */\n      0x00\n        /* \"server.sol\":2170:2180  msg.sender */\n      caller\n        /* \"server.sol\":2155:2181  bets[_matchId][msg.sender] */\n      0xffffffffffffffffffffffffffffffffffffffff\n      and\n      0xffffffffffffffffffffffffffffffffffffffff\n      and\n      dup2\n      mstore\n      0x20\n      add\n      swap1\n      dup2\n      mstore\n      0x20\n      add\n      0x00\n      keccak256\n        /* \"server.sol\":2155:2255  bets[_matchId][msg.sender] = Bet({... */\n      0x00\n      dup3\n      add\n      mload\n      dup2\n      0x00\n      add\n      sstore\n      0x20\n      dup3\n      add\n      mload\n      dup2\n      0x01\n      add\n      exp(0x0100, 0x00)\n      dup2\n      sload\n      dup2\n      0xff\n      mul\n      not\n      and\n      swap1\n      dup4\n      0xff\n      and\n      mul\n      or\n      swap1\n      sstore\n      pop\n      swap1\n      pop\n      pop\n        /* \"server.sol\":2266:2274  userBets */\n      0x04\n        /* \"server.sol\":2266:2286  userBets[msg.sender] */\n      0x00\n        /* \"server.sol\":2275:2285  msg.sender */\n      caller\n        /* \"server.sol\":2266:2286  userBets[msg.sender] */\n      0xffffffffffffffffffffffffffffffffffffffff\n      and\n      0xffffffffffffffffffffffffffffffffffffffff\n      and\n      dup2\n      mstore\n      0x20\n      add\n      swap1\n      dup2\n      mstore\n      0x20\n      add\n      0x00\n      keccak256\n        /* \"server.sol\":2292:2300  _matchId */\n      dup3\n        /* \"server.sol\":2266:2301  userBets[msg.sender].push(_matchId) */\n      swap1\n      dup1\n      0x01\n      dup2\n      sload\n      add\n      dup1\n      dup3\n      sstore\n      dup1\n      swap2\n      pop\n      pop\n      0x01\n      swap1\n      sub\n      swap1\n      0x00\n      mstore\n      keccak256(0x00, 0x20)\n      swap1\n      0x20\n      swap2\n      dup3\n      dup3\n      div\n      add\n      swap2\n      swap1\n      mod\n      swap1\n      swap2\n      swap1\n      swap2\n      swap1\n      swap2\n      0x0100\n      exp\n      dup2\n      sload\n      dup2\n      0xff\n      mul\n      not\n      and\n      swap1\n      dup4\n      0xff\n      and\n      mul\n      or\n      swap1\n      sstore\n      pop\n        /* \"server.sol\":1903:2308  function placeBet(uint8 _matchId, uint8 _team) public payable {... */\n      pop\n      pop\n      jump\t// out\n        /* \"server.sol\":1616:1870  function getAllMatches() public view returns (Match[] memory) {... */\n    tag_22:\n        /* \"server.sol\":1662:1676  Match[] memory */\n      0x60\n        /* \"server.sol\":1688:1706  Match[] memory all */\n      0x00\n        /* \"server.sol\":1721:1729  matchIds */\n      0x02\n        /* \"server.sol\":1721:1736  matchIds.length */\n      dup1\n      sload\n      swap1\n      pop\n        /* \"server.sol\":1709:1737  new Match[](matchIds.length) */\n      0xffffffffffffffff\n      dup2\n      gt\n      iszero\n      tag_74\n      jumpi\n      tag_75\n      tag_48\n      jump\t// in\n    tag_75:\n    tag_74:\n      mload(0x40)\n      swap1\n      dup1\n      dup3\n      mstore\n      dup1\n      0x20\n      mul\n      0x20\n      add\n      dup3\n      add\n      0x40\n      mstore\n      dup1\n      iszero\n      tag_76\n      jumpi\n      dup2\n      0x20\n      add\n    tag_77:\n      tag_78\n      tag_79\n      jump\t// in\n    tag_78:\n      dup2\n      mstore\n      0x20\n      add\n      swap1\n      0x01\n      swap1\n      sub\n      swap1\n      dup2\n      tag_77\n      jumpi\n      swap1\n      pop\n    tag_76:\n      pop\n        /* \"server.sol\":1688:1737  Match[] memory all = new Match[](matchIds.length) */\n      swap1\n      pop\n        /* \"server.sol\":1752:1758  uint i */\n      0x00\n        /* \"server.sol\":1747:1844  for (uint i = 0; i < matchIds.length; i++) {... */\n    tag_80:\n        /* \"server.sol\":1768:1776  matchIds */\n      0x02\n        /* \"server.sol\":1768:1783  matchIds.length */\n      dup1\n      sload\n      swap1\n      pop\n        /* \"server.sol\":1764:1765  i */\n      dup2\n        /* \"server.sol\":1764:1783  i < matchIds.length */\n      lt\n        /* \"server.sol\":1747:1844  for (uint i = 0; i < matchIds.length; i++) {... */\n      iszero\n      tag_81\n      jumpi\n        /* \"server.sol\":1813:1820  matches */\n      0x01\n        /* \"server.sol\":1813:1833  matches[matchIds[i]] */\n      0x00\n        /* \"server.sol\":1821:1829  matchIds */\n      0x02\n        /* \"server.sol\":1830:1831  i */\n      dup4\n        /* \"server.sol\":1821:1832  matchIds[i] */\n      dup2\n      sload\n      dup2\n      lt\n      tag_83\n      jumpi\n      tag_84\n      tag_58\n      jump\t// in\n    tag_84:\n    tag_83:\n      swap1\n      0x00\n      mstore\n      keccak256(0x00, 0x20)\n      swap1\n      0x20\n      swap2\n      dup3\n      dup3\n      div\n      add\n      swap2\n      swap1\n      mod\n      swap1\n      sload\n      swap1\n      0x0100\n      exp\n      swap1\n      div\n      0xff\n      and\n        /* \"server.sol\":1813:1833  matches[matchIds[i]] */\n      0xff\n      and\n      0xff\n      and\n      dup2\n      mstore\n      0x20\n      add\n      swap1\n      dup2\n      mstore\n      0x20\n      add\n      0x00\n      keccak256\n        /* \"server.sol\":1804:1833  all[i] = matches[matchIds[i]] */\n      mload(0x40)\n      dup1\n      0xa0\n      add\n      0x40\n      mstore\n      swap1\n      dup2\n      0x00\n      dup3\n      add\n      0x00\n      swap1\n      sload\n      swap1\n      0x0100\n      exp\n      swap1\n      div\n      0xff\n      and\n      0xff\n      and\n      0xff\n      and\n      dup2\n      mstore\n      0x20\n      add\n      0x01\n      dup3\n      add\n      dup1\n      sload\n      tag_86\n      swap1\n      tag_31\n      jump\t// in\n    tag_86:\n      dup1\n      0x1f\n      add\n      0x20\n      dup1\n      swap2\n      div\n      mul\n      0x20\n      add\n      mload(0x40)\n      swap1\n      dup2\n      add\n      0x40\n      mstore\n      dup1\n      swap3\n      swap2\n      swap1\n      dup2\n      dup2\n      mstore\n      0x20\n      add\n      dup3\n      dup1\n      sload\n      tag_87\n      swap1\n      tag_31\n      jump\t// in\n    tag_87:\n      dup1\n      iszero\n      tag_88\n      jumpi\n      dup1\n      0x1f\n      lt\n      tag_89\n      jumpi\n      0x0100\n      dup1\n      dup4\n      sload\n      div\n      mul\n      dup4\n      mstore\n      swap2\n      0x20\n      add\n      swap2\n      jump(tag_88)\n    tag_89:\n      dup3\n      add\n      swap2\n      swap1\n      0x00\n      mstore\n      keccak256(0x00, 0x20)\n      swap1\n    tag_90:\n      dup2\n      sload\n      dup2\n      mstore\n      swap1\n      0x01\n      add\n      swap1\n      0x20\n      add\n      dup1\n      dup4\n      gt\n      tag_90\n      jumpi\n      dup3\n      swap1\n      sub\n      0x1f\n      and\n      dup3\n      add\n      swap2\n    tag_88:\n      pop\n      pop\n      pop\n      pop\n      pop\n      dup2\n      mstore\n      0x20\n      add\n      0x02\n      dup3\n      add\n      dup1\n      sload\n      tag_91\n      swap1\n      tag_31\n      jump\t// in\n    tag_91:\n      dup1\n      0x1f\n      add\n      0x20\n      dup1\n      swap2\n      div\n      mul\n      0x20\n      add\n      mload(0x40)\n      swap1\n      dup2\n      add\n      0x40\n      mstore\n      dup1\n      swap3\n      swap2\n      swap1\n      dup2\n      dup2\n      mstore\n      0x20\n      add\n      dup3\n      dup1\n      sload\n      tag_92\n      swap1\n      tag_31\n      jump\t// in\n    tag_92:\n      dup1\n      iszero\n      tag_93\n      jumpi\n      dup1\n      0x1f\n      lt\n      tag_94\n      jumpi\n      0x0100\n      dup1\n      dup4\n      sload\n      div\n      mul\n      dup4\n      mstore\n      swap2\n      0x20\n      add\n      swap2\n      jump(tag_93)\n    tag_94:\n      dup3\n      add\n      swap2\n      swap1\n      0x00\n      mstore\n      keccak256(0x00, 0x20)\n      swap1\n    tag_95:\n      dup2\n      sload\n      dup2\n      mstore\n      swap1\n      0x01\n      add\n      swap1\n      0x20\n      add\n      dup1\n      dup4\n      gt\n      tag_95\n      jumpi\n      dup3\n      swap1\n      sub\n      0x1f\n      and\n      dup3\n      add\n      swap2\n    tag_93:\n      pop\n      pop\n      pop\n      pop\n      pop\n      dup2\n      mstore\n      0x20\n      add\n      0x03\n      dup3\n      add\n      dup1\n      sload\n      tag_96\n      swap1\n      tag_31\n      jump\t// in\n    tag_96:\n      dup1\n      0x1f\n      add\n      0x20\n      dup1\n      swap2\n      div\n      mul\n      0x20\n      add\n      mload(0x40)\n      swap1\n      dup2\n      add\n      0x40\n      mstore\n      dup1\n      swap3\n      swap2\n      swap1\n      dup2\n      dup2\n      mstore\n      0x20\n      add\n      dup3\n      dup1\n      sload\n      tag_97\n      swap1\n      tag_31\n      jump\t// in\n    tag_97:\n      dup1\n      iszero\n      tag_98\n      jumpi\n      dup1\n      0x1f\n      lt\n      tag_99\n      jumpi\n      0x0100\n      dup1\n      dup4\n      sload\n      div\n      mul\n      dup4\n      mstore\n      swap2\n      0x20\n      add\n      swap2\n      jump(tag_98)\n    tag_99:\n      dup3\n      add\n      swap2\n      swap1\n      0x00\n      mstore\n      keccak256(0x00, 0x20)\n      swap1\n    tag_100:\n      dup2\n      sload\n      dup2\n      mstore\n      swap1\n      0x01\n      add\n      swap1\n      0x20\n      add\n      dup1\n      dup4\n      gt\n      tag_100\n      jumpi\n      dup3\n      swap1\n      sub\n      0x1f\n      and\n      dup3\n      add\n      swap2\n    tag_98:\n      pop\n      pop\n      pop\n      pop\n      pop\n      dup2\n      mstore\n      0x20\n      add\n      0x04\n      dup3\n      add\n      sload\n      dup2\n      mstore\n      pop\n      pop\n        /* \"server.sol\":1804:1807  all */\n      dup3\n        /* \"server.sol\":1808:1809  i */\n      dup3\n        /* \"server.sol\":1804:1810  all[i] */\n      dup2\n      mload\n      dup2\n      lt\n      tag_101\n      jumpi\n      tag_102\n      tag_58\n      jump\t// in\n    tag_102:\n    tag_101:\n      0x20\n      mul\n      0x20\n      add\n      add\n        /* \"server.sol\":1804:1833  all[i] = matches[matchIds[i]] */\n      dup2\n      swap1\n      mstore\n      pop\n        /* \"server.sol\":1785:1788  i++ */\n      dup1\n      dup1\n      0x01\n      add\n      swap2\n      pop\n      pop\n        /* \"server.sol\":1747:1844  for (uint i = 0; i < matchIds.length; i++) {... */\n      jump(tag_80)\n    tag_81:\n      pop\n        /* \"server.sol\":1860:1863  all */\n      dup1\n        /* \"server.sol\":1853:1863  return all */\n      swap2\n      pop\n      pop\n        /* \"server.sol\":1616:1870  function getAllMatches() public view returns (Match[] memory) {... */\n      swap1\n      jump\t// out\n    tag_52:\n      mload(0x40)\n      dup1\n      0x40\n      add\n      0x40\n      mstore\n      dup1\n      0x00\n      dup2\n      mstore\n      0x20\n      add\n      and(0xff, 0x00)\n      dup2\n      mstore\n      pop\n      swap1\n      jump\t// out\n    tag_79:\n      mload(0x40)\n      dup1\n      0xa0\n      add\n      0x40\n      mstore\n      dup1\n      and(0xff, 0x00)\n      dup2\n      mstore\n      0x20\n      add\n      0x60\n      dup2\n      mstore\n      0x20\n      add\n      0x60\n      dup2\n      mstore\n      0x20\n      add\n      0x60\n      dup2\n      mstore\n      0x20\n      add\n      0x00\n      dup2\n      mstore\n      pop\n      swap1\n      jump\t// out\n        /* \"#utility.yul\":7:82   */\n    tag_103:\n        /* \"#utility.yul\":40:46   */\n      0x00\n        /* \"#utility.yul\":73:75   */\n      0x40\n        /* \"#utility.yul\":67:76   */\n      mload\n        /* \"#utility.yul\":57:76   */\n      swap1\n      pop\n        /* \"#utility.yul\":7:82   */\n      swap1\n      jump\t// out\n        /* \"#utility.yul\":88:205   */\n    tag_104:\n        /* \"#utility.yul\":197:198   */\n      0x00\n        /* \"#utility.yul\":194:195   */\n      dup1\n        /* \"#utility.yul\":187:199   */\n      revert\n        /* \"#utility.yul\":211:328   */\n    tag_105:\n        /* \"#utility.yul\":320:321   */\n      0x00\n        /* \"#utility.yul\":317:318   */\n      dup1\n        /* \"#utility.yul\":310:322   */\n      revert\n        /* \"#utility.yul\":334:420   */\n    tag_106:\n        /* \"#utility.yul\":369:376   */\n      0x00\n        /* \"#utility.yul\":409:413   */\n      0xff\n        /* \"#utility.yul\":402:407   */\n      dup3\n        /* \"#utility.yul\":398:414   */\n      and\n        /* \"#utility.yul\":387:414   */\n      swap1\n      pop\n        /* \"#utility.yul\":334:420   */\n      swap2\n      swap1\n      pop\n      jump\t// out\n        /* \"#utility.yul\":426:544   */\n    tag_107:\n        /* \"#utility.yul\":497:519   */\n      tag_174\n        /* \"#utility.yul\":513:518   */\n      dup2\n        /* \"#utility.yul\":497:519   */\n      tag_106\n      jump\t// in\n    tag_174:\n        /* \"#utility.yul\":490:495   */\n      dup2\n        /* \"#utility.yul\":487:520   */\n      eq\n        /* \"#utility.yul\":477:538   */\n      tag_175\n      jumpi\n        /* \"#utility.yul\":534:535   */\n      0x00\n        /* \"#utility.yul\":531:532   */\n      dup1\n        /* \"#utility.yul\":524:536   */\n      revert\n        /* \"#utility.yul\":477:538   */\n    tag_175:\n        /* \"#utility.yul\":426:544   */\n      pop\n      jump\t// out\n        /* \"#utility.yul\":550:685   */\n    tag_108:\n        /* \"#utility.yul\":594:599   */\n      0x00\n        /* \"#utility.yul\":632:638   */\n      dup2\n        /* \"#utility.yul\":619:639   */\n      calldataload\n        /* \"#utility.yul\":610:639   */\n      swap1\n      pop\n        /* \"#utility.yul\":648:679   */\n      tag_177\n        /* \"#utility.yul\":673:678   */\n      dup2\n        /* \"#utility.yul\":648:679   */\n      tag_107\n      jump\t// in\n    tag_177:\n        /* \"#utility.yul\":550:685   */\n      swap3\n      swap2\n      pop\n      pop\n      jump\t// out\n        /* \"#utility.yul\":691:808   */\n    tag_109:\n        /* \"#utility.yul\":800:801   */\n      0x00\n        /* \"#utility.yul\":797:798   */\n      dup1\n        /* \"#utility.yul\":790:802   */\n      revert\n        /* \"#utility.yul\":814:931   */\n    tag_110:\n        /* \"#utility.yul\":923:924   */\n      0x00\n        /* \"#utility.yul\":920:921   */\n      dup1\n        /* \"#utility.yul\":913:925   */\n      revert\n        /* \"#utility.yul\":937:1039   */\n    tag_111:\n        /* \"#utility.yul\":978:984   */\n      0x00\n        /* \"#utility.yul\":1029:1031   */\n      0x1f\n        /* \"#utility.yul\":1025:1032   */\n      not\n        /* \"#utility.yul\":1020:1022   */\n      0x1f\n        /* \"#utility.yul\":1013:1018   */\n      dup4\n        /* \"#utility.yul\":1009:1023   */\n      add\n        /* \"#utility.yul\":1005:1033   */\n      and\n        /* \"#utility.yul\":995:1033   */\n      swap1\n      pop\n        /* \"#utility.yul\":937:1039   */\n      swap2\n      swap1\n      pop\n      jump\t// out\n        /* \"#utility.yul\":1045:1225   */\n    tag_48:\n        /* \"#utility.yul\":1093:1170   */\n      0x4e487b7100000000000000000000000000000000000000000000000000000000\n        /* \"#utility.yul\":1090:1091   */\n      0x00\n        /* \"#utility.yul\":1083:1171   */\n      mstore\n        /* \"#utility.yul\":1190:1194   */\n      0x41\n        /* \"#utility.yul\":1187:1188   */\n      0x04\n        /* \"#utility.yul\":1180:1195   */\n      mstore\n        /* \"#utility.yul\":1214:1218   */\n      0x24\n        /* \"#utility.yul\":1211:1212   */\n      0x00\n        /* \"#utility.yul\":1204:1219   */\n      revert\n        /* \"#utility.yul\":1231:1512   */\n    tag_112:\n        /* \"#utility.yul\":1314:1341   */\n      tag_183\n        /* \"#utility.yul\":1336:1340   */\n      dup3\n        /* \"#utility.yul\":1314:1341   */\n      tag_111\n      jump\t// in\n    tag_183:\n        /* \"#utility.yul\":1306:1312   */\n      dup2\n        /* \"#utility.yul\":1302:1342   */\n      add\n        /* \"#utility.yul\":1444:1450   */\n      dup2\n        /* \"#utility.yul\":1432:1442   */\n      dup2\n        /* \"#utility.yul\":1429:1451   */\n      lt\n        /* \"#utility.yul\":1408:1426   */\n      0xffffffffffffffff\n        /* \"#utility.yul\":1396:1406   */\n      dup3\n        /* \"#utility.yul\":1393:1427   */\n      gt\n        /* \"#utility.yul\":1390:1452   */\n      or\n        /* \"#utility.yul\":1387:1475   */\n      iszero\n      tag_184\n      jumpi\n        /* \"#utility.yul\":1455:1473   */\n      tag_185\n      tag_48\n      jump\t// in\n    tag_185:\n        /* \"#utility.yul\":1387:1475   */\n    tag_184:\n        /* \"#utility.yul\":1495:1505   */\n      dup1\n        /* \"#utility.yul\":1491:1493   */\n      0x40\n        /* \"#utility.yul\":1484:1506   */\n      mstore\n        /* \"#utility.yul\":1274:1512   */\n      pop\n        /* \"#utility.yul\":1231:1512   */\n      pop\n      pop\n      jump\t// out\n        /* \"#utility.yul\":1518:1647   */\n    tag_113:\n        /* \"#utility.yul\":1552:1558   */\n      0x00\n        /* \"#utility.yul\":1579:1599   */\n      tag_187\n      tag_103\n      jump\t// in\n    tag_187:\n        /* \"#utility.yul\":1569:1599   */\n      swap1\n      pop\n        /* \"#utility.yul\":1608:1641   */\n      tag_188\n        /* \"#utility.yul\":1636:1640   */\n      dup3\n        /* \"#utility.yul\":1628:1634   */\n      dup3\n        /* \"#utility.yul\":1608:1641   */\n      tag_112\n      jump\t// in\n    tag_188:\n        /* \"#utility.yul\":1518:1647   */\n      swap2\n      swap1\n      pop\n      jump\t// out\n        /* \"#utility.yul\":1653:1961   */\n    tag_114:\n        /* \"#utility.yul\":1715:1719   */\n      0x00\n        /* \"#utility.yul\":1805:1823   */\n      0xffffffffffffffff\n        /* \"#utility.yul\":1797:1803   */\n      dup3\n        /* \"#utility.yul\":1794:1824   */\n      gt\n        /* \"#utility.yul\":1791:1847   */\n      iszero\n      tag_190\n      jumpi\n        /* \"#utility.yul\":1827:1845   */\n      tag_191\n      tag_48\n      jump\t// in\n    tag_191:\n        /* \"#utility.yul\":1791:1847   */\n    tag_190:\n        /* \"#utility.yul\":1865:1894   */\n      tag_192\n        /* \"#utility.yul\":1887:1893   */\n      dup3\n        /* \"#utility.yul\":1865:1894   */\n      tag_111\n      jump\t// in\n    tag_192:\n        /* \"#utility.yul\":1857:1894   */\n      swap1\n      pop\n        /* \"#utility.yul\":1949:1953   */\n      0x20\n        /* \"#utility.yul\":1943:1947   */\n      dup2\n        /* \"#utility.yul\":1939:1954   */\n      add\n        /* \"#utility.yul\":1931:1954   */\n      swap1\n      pop\n        /* \"#utility.yul\":1653:1961   */\n      swap2\n      swap1\n      pop\n      jump\t// out\n        /* \"#utility.yul\":1967:2115   */\n    tag_115:\n        /* \"#utility.yul\":2065:2071   */\n      dup3\n        /* \"#utility.yul\":2060:2063   */\n      dup2\n        /* \"#utility.yul\":2055:2058   */\n      dup4\n        /* \"#utility.yul\":2042:2072   */\n      calldatacopy\n        /* \"#utility.yul\":2106:2107   */\n      0x00\n        /* \"#utility.yul\":2097:2103   */\n      dup4\n        /* \"#utility.yul\":2092:2095   */\n      dup4\n        /* \"#utility.yul\":2088:2104   */\n      add\n        /* \"#utility.yul\":2081:2108   */\n      mstore\n        /* \"#utility.yul\":1967:2115   */\n      pop\n      pop\n      pop\n      jump\t// out\n        /* \"#utility.yul\":2121:2546   */\n    tag_116:\n        /* \"#utility.yul\":2199:2204   */\n      0x00\n        /* \"#utility.yul\":2224:2290   */\n      tag_195\n        /* \"#utility.yul\":2240:2289   */\n      tag_196\n        /* \"#utility.yul\":2282:2288   */\n      dup5\n        /* \"#utility.yul\":2240:2289   */\n      tag_114\n      jump\t// in\n    tag_196:\n        /* \"#utility.yul\":2224:2290   */\n      tag_113\n      jump\t// in\n    tag_195:\n        /* \"#utility.yul\":2215:2290   */\n      swap1\n      pop\n        /* \"#utility.yul\":2313:2319   */\n      dup3\n        /* \"#utility.yul\":2306:2311   */\n      dup2\n        /* \"#utility.yul\":2299:2320   */\n      mstore\n        /* \"#utility.yul\":2351:2355   */\n      0x20\n        /* \"#utility.yul\":2344:2349   */\n      dup2\n        /* \"#utility.yul\":2340:2356   */\n      add\n        /* \"#utility.yul\":2389:2392   */\n      dup5\n        /* \"#utility.yul\":2380:2386   */\n      dup5\n        /* \"#utility.yul\":2375:2378   */\n      dup5\n        /* \"#utility.yul\":2371:2387   */\n      add\n        /* \"#utility.yul\":2368:2393   */\n      gt\n        /* \"#utility.yul\":2365:2477   */\n      iszero\n      tag_197\n      jumpi\n        /* \"#utility.yul\":2396:2475   */\n      tag_198\n      tag_110\n      jump\t// in\n    tag_198:\n        /* \"#utility.yul\":2365:2477   */\n    tag_197:\n        /* \"#utility.yul\":2486:2540   */\n      tag_199\n        /* \"#utility.yul\":2533:2539   */\n      dup5\n        /* \"#utility.yul\":2528:2531   */\n      dup3\n        /* \"#utility.yul\":2523:2526   */\n      dup6\n        /* \"#utility.yul\":2486:2540   */\n      tag_115\n      jump\t// in\n    tag_199:\n        /* \"#utility.yul\":2205:2546   */\n      pop\n        /* \"#utility.yul\":2121:2546   */\n      swap4\n      swap3\n      pop\n      pop\n      pop\n      jump\t// out\n        /* \"#utility.yul\":2566:2906   */\n    tag_117:\n        /* \"#utility.yul\":2622:2627   */\n      0x00\n        /* \"#utility.yul\":2671:2674   */\n      dup3\n        /* \"#utility.yul\":2664:2668   */\n      0x1f\n        /* \"#utility.yul\":2656:2662   */\n      dup4\n        /* \"#utility.yul\":2652:2669   */\n      add\n        /* \"#utility.yul\":2648:2675   */\n      slt\n        /* \"#utility.yul\":2638:2760   */\n      tag_201\n      jumpi\n        /* \"#utility.yul\":2679:2758   */\n      tag_202\n      tag_109\n      jump\t// in\n    tag_202:\n        /* \"#utility.yul\":2638:2760   */\n    tag_201:\n        /* \"#utility.yul\":2796:2802   */\n      dup2\n        /* \"#utility.yul\":2783:2803   */\n      calldataload\n        /* \"#utility.yul\":2821:2900   */\n      tag_203\n        /* \"#utility.yul\":2896:2899   */\n      dup5\n        /* \"#utility.yul\":2888:2894   */\n      dup3\n        /* \"#utility.yul\":2881:2885   */\n      0x20\n        /* \"#utility.yul\":2873:2879   */\n      dup7\n        /* \"#utility.yul\":2869:2886   */\n      add\n        /* \"#utility.yul\":2821:2900   */\n      tag_116\n      jump\t// in\n    tag_203:\n        /* \"#utility.yul\":2812:2900   */\n      swap2\n      pop\n        /* \"#utility.yul\":2628:2906   */\n      pop\n        /* \"#utility.yul\":2566:2906   */\n      swap3\n      swap2\n      pop\n      pop\n      jump\t// out\n        /* \"#utility.yul\":2912:2989   */\n    tag_118:\n        /* \"#utility.yul\":2949:2956   */\n      0x00\n        /* \"#utility.yul\":2978:2983   */\n      dup2\n        /* \"#utility.yul\":2967:2983   */\n      swap1\n      pop\n        /* \"#utility.yul\":2912:2989   */\n      swap2\n      swap1\n      pop\n      jump\t// out\n        /* \"#utility.yul\":2995:3117   */\n    tag_119:\n        /* \"#utility.yul\":3068:3092   */\n      tag_206\n        /* \"#utility.yul\":3086:3091   */\n      dup2\n        /* \"#utility.yul\":3068:3092   */\n      tag_118\n      jump\t// in\n    tag_206:\n        /* \"#utility.yul\":3061:3066   */\n      dup2\n        /* \"#utility.yul\":3058:3093   */\n      eq\n        /* \"#utility.yul\":3048:3111   */\n      tag_207\n      jumpi\n        /* \"#utility.yul\":3107:3108   */\n      0x00\n        /* \"#utility.yul\":3104:3105   */\n      dup1\n        /* \"#utility.yul\":3097:3109   */\n      revert\n        /* \"#utility.yul\":3048:3111   */\n    tag_207:\n        /* \"#utility.yul\":2995:3117   */\n      pop\n      jump\t// out\n        /* \"#utility.yul\":3123:3262   */\n    tag_120:\n        /* \"#utility.yul\":3169:3174   */\n      0x00\n        /* \"#utility.yul\":3207:3213   */\n      dup2\n        /* \"#utility.yul\":3194:3214   */\n      calldataload\n        /* \"#utility.yul\":3185:3214   */\n      swap1\n      pop\n        /* \"#utility.yul\":3223:3256   */\n      tag_209\n        /* \"#utility.yul\":3250:3255   */\n      dup2\n        /* \"#utility.yul\":3223:3256   */\n      tag_119\n      jump\t// in\n    tag_209:\n        /* \"#utility.yul\":3123:3262   */\n      swap3\n      swap2\n      pop\n      pop\n      jump\t// out\n        /* \"#utility.yul\":3268:4715   */\n    tag_9:\n        /* \"#utility.yul\":3391:3397   */\n      0x00\n        /* \"#utility.yul\":3399:3405   */\n      dup1\n        /* \"#utility.yul\":3407:3413   */\n      0x00\n        /* \"#utility.yul\":3415:3421   */\n      dup1\n        /* \"#utility.yul\":3423:3429   */\n      0x00\n        /* \"#utility.yul\":3472:3475   */\n      0xa0\n        /* \"#utility.yul\":3460:3469   */\n      dup7\n        /* \"#utility.yul\":3451:3458   */\n      dup9\n        /* \"#utility.yul\":3447:3470   */\n      sub\n        /* \"#utility.yul\":3443:3476   */\n      slt\n        /* \"#utility.yul\":3440:3560   */\n      iszero\n      tag_211\n      jumpi\n        /* \"#utility.yul\":3479:3558   */\n      tag_212\n      tag_104\n      jump\t// in\n    tag_212:\n        /* \"#utility.yul\":3440:3560   */\n    tag_211:\n        /* \"#utility.yul\":3599:3600   */\n      0x00\n        /* \"#utility.yul\":3624:3675   */\n      tag_213\n        /* \"#utility.yul\":3667:3674   */\n      dup9\n        /* \"#utility.yul\":3658:3664   */\n      dup3\n        /* \"#utility.yul\":3647:3656   */\n      dup10\n        /* \"#utility.yul\":3643:3665   */\n      add\n        /* \"#utility.yul\":3624:3675   */\n      tag_108\n      jump\t// in\n    tag_213:\n        /* \"#utility.yul\":3614:3675   */\n      swap6\n      pop\n        /* \"#utility.yul\":3570:3685   */\n      pop\n        /* \"#utility.yul\":3752:3754   */\n      0x20\n        /* \"#utility.yul\":3741:3750   */\n      dup7\n        /* \"#utility.yul\":3737:3755   */\n      add\n        /* \"#utility.yul\":3724:3756   */\n      calldataload\n        /* \"#utility.yul\":3783:3801   */\n      0xffffffffffffffff\n        /* \"#utility.yul\":3775:3781   */\n      dup2\n        /* \"#utility.yul\":3772:3802   */\n      gt\n        /* \"#utility.yul\":3769:3886   */\n      iszero\n      tag_214\n      jumpi\n        /* \"#utility.yul\":3805:3884   */\n      tag_215\n      tag_105\n      jump\t// in\n    tag_215:\n        /* \"#utility.yul\":3769:3886   */\n    tag_214:\n        /* \"#utility.yul\":3910:3973   */\n      tag_216\n        /* \"#utility.yul\":3965:3972   */\n      dup9\n        /* \"#utility.yul\":3956:3962   */\n      dup3\n        /* \"#utility.yul\":3945:3954   */\n      dup10\n        /* \"#utility.yul\":3941:3963   */\n      add\n        /* \"#utility.yul\":3910:3973   */\n      tag_117\n      jump\t// in\n    tag_216:\n        /* \"#utility.yul\":3900:3973   */\n      swap5\n      pop\n        /* \"#utility.yul\":3695:3983   */\n      pop\n        /* \"#utility.yul\":4050:4052   */\n      0x40\n        /* \"#utility.yul\":4039:4048   */\n      dup7\n        /* \"#utility.yul\":4035:4053   */\n      add\n        /* \"#utility.yul\":4022:4054   */\n      calldataload\n        /* \"#utility.yul\":4081:4099   */\n      0xffffffffffffffff\n        /* \"#utility.yul\":4073:4079   */\n      dup2\n        /* \"#utility.yul\":4070:4100   */\n      gt\n        /* \"#utility.yul\":4067:4184   */\n      iszero\n      tag_217\n      jumpi\n        /* \"#utility.yul\":4103:4182   */\n      tag_218\n      tag_105\n      jump\t// in\n    tag_218:\n        /* \"#utility.yul\":4067:4184   */\n    tag_217:\n        /* \"#utility.yul\":4208:4271   */\n      tag_219\n        /* \"#utility.yul\":4263:4270   */\n      dup9\n        /* \"#utility.yul\":4254:4260   */\n      dup3\n        /* \"#utility.yul\":4243:4252   */\n      dup10\n        /* \"#utility.yul\":4239:4261   */\n      add\n        /* \"#utility.yul\":4208:4271   */\n      tag_117\n      jump\t// in\n    tag_219:\n        /* \"#utility.yul\":4198:4271   */\n      swap4\n      pop\n        /* \"#utility.yul\":3993:4281   */\n      pop\n        /* \"#utility.yul\":4348:4350   */\n      0x60\n        /* \"#utility.yul\":4337:4346   */\n      dup7\n        /* \"#utility.yul\":4333:4351   */\n      add\n        /* \"#utility.yul\":4320:4352   */\n      calldataload\n        /* \"#utility.yul\":4379:4397   */\n      0xffffffffffffffff\n        /* \"#utility.yul\":4371:4377   */\n      dup2\n        /* \"#utility.yul\":4368:4398   */\n      gt\n        /* \"#utility.yul\":4365:4482   */\n      iszero\n      tag_220\n      jumpi\n        /* \"#utility.yul\":4401:4480   */\n      tag_221\n      tag_105\n      jump\t// in\n    tag_221:\n        /* \"#utility.yul\":4365:4482   */\n    tag_220:\n        /* \"#utility.yul\":4506:4569   */\n      tag_222\n        /* \"#utility.yul\":4561:4568   */\n      dup9\n        /* \"#utility.yul\":4552:4558   */\n      dup3\n        /* \"#utility.yul\":4541:4550   */\n      dup10\n        /* \"#utility.yul\":4537:4559   */\n      add\n        /* \"#utility.yul\":4506:4569   */\n      tag_117\n      jump\t// in\n    tag_222:\n        /* \"#utility.yul\":4496:4569   */\n      swap3\n      pop\n        /* \"#utility.yul\":4291:4579   */\n      pop\n        /* \"#utility.yul\":4618:4621   */\n      0x80\n        /* \"#utility.yul\":4645:4698   */\n      tag_223\n        /* \"#utility.yul\":4690:4697   */\n      dup9\n        /* \"#utility.yul\":4681:4687   */\n      dup3\n        /* \"#utility.yul\":4670:4679   */\n      dup10\n        /* \"#utility.yul\":4666:4688   */\n      add\n        /* \"#utility.yul\":4645:4698   */\n      tag_120\n      jump\t// in\n    tag_223:\n        /* \"#utility.yul\":4635:4698   */\n      swap2\n      pop\n        /* \"#utility.yul\":4589:4708   */\n      pop\n        /* \"#utility.yul\":3268:4715   */\n      swap3\n      swap6\n      pop\n      swap3\n      swap6\n      swap1\n      swap4\n      pop\n      jump\t// out\n        /* \"#utility.yul\":4721:4854   */\n    tag_121:\n        /* \"#utility.yul\":4807:4813   */\n      0x00\n        /* \"#utility.yul\":4841:4846   */\n      dup2\n        /* \"#utility.yul\":4835:4847   */\n      mload\n        /* \"#utility.yul\":4825:4847   */\n      swap1\n      pop\n        /* \"#utility.yul\":4721:4854   */\n      swap2\n      swap1\n      pop\n      jump\t// out\n        /* \"#utility.yul\":4860:5063   */\n    tag_122:\n        /* \"#utility.yul\":4978:4989   */\n      0x00\n        /* \"#utility.yul\":5012:5018   */\n      dup3\n        /* \"#utility.yul\":5007:5010   */\n      dup3\n        /* \"#utility.yul\":5000:5019   */\n      mstore\n        /* \"#utility.yul\":5052:5056   */\n      0x20\n        /* \"#utility.yul\":5047:5050   */\n      dup3\n        /* \"#utility.yul\":5043:5057   */\n      add\n        /* \"#utility.yul\":5028:5057   */\n      swap1\n      pop\n        /* \"#utility.yul\":4860:5063   */\n      swap3\n      swap2\n      pop\n      pop\n      jump\t// out\n        /* \"#utility.yul\":5069:5220   */\n    tag_123:\n        /* \"#utility.yul\":5155:5159   */\n      0x00\n        /* \"#utility.yul\":5178:5181   */\n      dup2\n        /* \"#utility.yul\":5170:5181   */\n      swap1\n      pop\n        /* \"#utility.yul\":5208:5212   */\n      0x20\n        /* \"#utility.yul\":5203:5206   */\n      dup3\n        /* \"#utility.yul\":5199:5213   */\n      add\n        /* \"#utility.yul\":5191:5213   */\n      swap1\n      pop\n        /* \"#utility.yul\":5069:5220   */\n      swap2\n      swap1\n      pop\n      jump\t// out\n        /* \"#utility.yul\":5226:5334   */\n    tag_124:\n        /* \"#utility.yul\":5303:5327   */\n      tag_228\n        /* \"#utility.yul\":5321:5326   */\n      dup2\n        /* \"#utility.yul\":5303:5327   */\n      tag_118\n      jump\t// in\n    tag_228:\n        /* \"#utility.yul\":5298:5301   */\n      dup3\n        /* \"#utility.yul\":5291:5328   */\n      mstore\n        /* \"#utility.yul\":5226:5334   */\n      pop\n      pop\n      jump\t// out\n        /* \"#utility.yul\":5340:5442   */\n    tag_125:\n        /* \"#utility.yul\":5413:5435   */\n      tag_230\n        /* \"#utility.yul\":5429:5434   */\n      dup2\n        /* \"#utility.yul\":5413:5435   */\n      tag_106\n      jump\t// in\n    tag_230:\n        /* \"#utility.yul\":5408:5411   */\n      dup3\n        /* \"#utility.yul\":5401:5436   */\n      mstore\n        /* \"#utility.yul\":5340:5442   */\n      pop\n      pop\n      jump\t// out\n        /* \"#utility.yul\":5512:5995   */\n    tag_126:\n        /* \"#utility.yul\":5637:5641   */\n      0x40\n        /* \"#utility.yul\":5632:5635   */\n      dup3\n        /* \"#utility.yul\":5628:5642   */\n      add\n        /* \"#utility.yul\":5726:5730   */\n      0x00\n        /* \"#utility.yul\":5719:5724   */\n      dup3\n        /* \"#utility.yul\":5715:5731   */\n      add\n        /* \"#utility.yul\":5709:5732   */\n      mload\n        /* \"#utility.yul\":5745:5808   */\n      tag_232\n        /* \"#utility.yul\":5802:5806   */\n      0x00\n        /* \"#utility.yul\":5797:5800   */\n      dup6\n        /* \"#utility.yul\":5793:5807   */\n      add\n        /* \"#utility.yul\":5779:5791   */\n      dup3\n        /* \"#utility.yul\":5745:5808   */\n      tag_124\n      jump\t// in\n    tag_232:\n        /* \"#utility.yul\":5652:5818   */\n      pop\n        /* \"#utility.yul\":5900:5904   */\n      0x20\n        /* \"#utility.yul\":5893:5898   */\n      dup3\n        /* \"#utility.yul\":5889:5905   */\n      add\n        /* \"#utility.yul\":5883:5906   */\n      mload\n        /* \"#utility.yul\":5919:5978   */\n      tag_233\n        /* \"#utility.yul\":5972:5976   */\n      0x20\n        /* \"#utility.yul\":5967:5970   */\n      dup6\n        /* \"#utility.yul\":5963:5977   */\n      add\n        /* \"#utility.yul\":5949:5961   */\n      dup3\n        /* \"#utility.yul\":5919:5978   */\n      tag_125\n      jump\t// in\n    tag_233:\n        /* \"#utility.yul\":5828:5988   */\n      pop\n        /* \"#utility.yul\":5606:5995   */\n      pop\n        /* \"#utility.yul\":5512:5995   */\n      pop\n      pop\n      jump\t// out\n        /* \"#utility.yul\":6001:6256   */\n    tag_127:\n        /* \"#utility.yul\":6108:6118   */\n      0x00\n        /* \"#utility.yul\":6129:6213   */\n      tag_235\n        /* \"#utility.yul\":6209:6212   */\n      dup4\n        /* \"#utility.yul\":6201:6207   */\n      dup4\n        /* \"#utility.yul\":6129:6213   */\n      tag_126\n      jump\t// in\n    tag_235:\n        /* \"#utility.yul\":6245:6249   */\n      0x40\n        /* \"#utility.yul\":6240:6243   */\n      dup4\n        /* \"#utility.yul\":6236:6250   */\n      add\n        /* \"#utility.yul\":6222:6250   */\n      swap1\n      pop\n        /* \"#utility.yul\":6001:6256   */\n      swap3\n      swap2\n      pop\n      pop\n      jump\t// out\n        /* \"#utility.yul\":6262:6394   */\n    tag_128:\n        /* \"#utility.yul\":6351:6355   */\n      0x00\n        /* \"#utility.yul\":6383:6387   */\n      0x20\n        /* \"#utility.yul\":6378:6381   */\n      dup3\n        /* \"#utility.yul\":6374:6388   */\n      add\n        /* \"#utility.yul\":6366:6388   */\n      swap1\n      pop\n        /* \"#utility.yul\":6262:6394   */\n      swap2\n      swap1\n      pop\n      jump\t// out\n        /* \"#utility.yul\":6468:7352   */\n    tag_129:\n        /* \"#utility.yul\":6625:6628   */\n      0x00\n        /* \"#utility.yul\":6654:6727   */\n      tag_238\n        /* \"#utility.yul\":6721:6726   */\n      dup3\n        /* \"#utility.yul\":6654:6727   */\n      tag_121\n      jump\t// in\n    tag_238:\n        /* \"#utility.yul\":6743:6848   */\n      tag_239\n        /* \"#utility.yul\":6841:6847   */\n      dup2\n        /* \"#utility.yul\":6836:6839   */\n      dup6\n        /* \"#utility.yul\":6743:6848   */\n      tag_122\n      jump\t// in\n    tag_239:\n        /* \"#utility.yul\":6736:6848   */\n      swap4\n      pop\n        /* \"#utility.yul\":6872:6947   */\n      tag_240\n        /* \"#utility.yul\":6941:6946   */\n      dup4\n        /* \"#utility.yul\":6872:6947   */\n      tag_123\n      jump\t// in\n    tag_240:\n        /* \"#utility.yul\":6970:6977   */\n      dup1\n        /* \"#utility.yul\":7001:7002   */\n      0x00\n        /* \"#utility.yul\":6986:7327   */\n    tag_241:\n        /* \"#utility.yul\":7011:7017   */\n      dup4\n        /* \"#utility.yul\":7008:7009   */\n      dup2\n        /* \"#utility.yul\":7005:7018   */\n      lt\n        /* \"#utility.yul\":6986:7327   */\n      iszero\n      tag_243\n      jumpi\n        /* \"#utility.yul\":7087:7093   */\n      dup2\n        /* \"#utility.yul\":7081:7094   */\n      mload\n        /* \"#utility.yul\":7114:7215   */\n      tag_244\n        /* \"#utility.yul\":7211:7214   */\n      dup9\n        /* \"#utility.yul\":7196:7209   */\n      dup3\n        /* \"#utility.yul\":7114:7215   */\n      tag_127\n      jump\t// in\n    tag_244:\n        /* \"#utility.yul\":7107:7215   */\n      swap8\n      pop\n        /* \"#utility.yul\":7238:7317   */\n      tag_245\n        /* \"#utility.yul\":7310:7316   */\n      dup4\n        /* \"#utility.yul\":7238:7317   */\n      tag_128\n      jump\t// in\n    tag_245:\n        /* \"#utility.yul\":7228:7317   */\n      swap3\n      pop\n        /* \"#utility.yul\":7046:7327   */\n      pop\n        /* \"#utility.yul\":7033:7034   */\n      0x01\n        /* \"#utility.yul\":7030:7031   */\n      dup2\n        /* \"#utility.yul\":7026:7035   */\n      add\n        /* \"#utility.yul\":7021:7035   */\n      swap1\n      pop\n        /* \"#utility.yul\":6986:7327   */\n      jump(tag_241)\n    tag_243:\n        /* \"#utility.yul\":6990:7004   */\n      pop\n        /* \"#utility.yul\":7343:7346   */\n      dup6\n        /* \"#utility.yul\":7336:7346   */\n      swap4\n      pop\n        /* \"#utility.yul\":6630:7352   */\n      pop\n      pop\n      pop\n        /* \"#utility.yul\":6468:7352   */\n      swap3\n      swap2\n      pop\n      pop\n      jump\t// out\n        /* \"#utility.yul\":7358:7807   */\n    tag_15:\n        /* \"#utility.yul\":7539:7543   */\n      0x00\n        /* \"#utility.yul\":7577:7579   */\n      0x20\n        /* \"#utility.yul\":7566:7575   */\n      dup3\n        /* \"#utility.yul\":7562:7580   */\n      add\n        /* \"#utility.yul\":7554:7580   */\n      swap1\n      pop\n        /* \"#utility.yul\":7626:7635   */\n      dup2\n        /* \"#utility.yul\":7620:7624   */\n      dup2\n        /* \"#utility.yul\":7616:7636   */\n      sub\n        /* \"#utility.yul\":7612:7613   */\n      0x00\n        /* \"#utility.yul\":7601:7610   */\n      dup4\n        /* \"#utility.yul\":7597:7614   */\n      add\n        /* \"#utility.yul\":7590:7637   */\n      mstore\n        /* \"#utility.yul\":7654:7800   */\n      tag_247\n        /* \"#utility.yul\":7795:7799   */\n      dup2\n        /* \"#utility.yul\":7786:7792   */\n      dup5\n        /* \"#utility.yul\":7654:7800   */\n      tag_129\n      jump\t// in\n    tag_247:\n        /* \"#utility.yul\":7646:7800   */\n      swap1\n      pop\n        /* \"#utility.yul\":7358:7807   */\n      swap3\n      swap2\n      pop\n      pop\n      jump\t// out\n        /* \"#utility.yul\":7813:8279   */\n    tag_18:\n        /* \"#utility.yul\":7877:7883   */\n      0x00\n        /* \"#utility.yul\":7885:7891   */\n      dup1\n        /* \"#utility.yul\":7934:7936   */\n      0x40\n        /* \"#utility.yul\":7922:7931   */\n      dup4\n        /* \"#utility.yul\":7913:7920   */\n      dup6\n        /* \"#utility.yul\":7909:7932   */\n      sub\n        /* \"#utility.yul\":7905:7937   */\n      slt\n        /* \"#utility.yul\":7902:8021   */\n      iszero\n      tag_249\n      jumpi\n        /* \"#utility.yul\":7940:8019   */\n      tag_250\n      tag_104\n      jump\t// in\n    tag_250:\n        /* \"#utility.yul\":7902:8021   */\n    tag_249:\n        /* \"#utility.yul\":8060:8061   */\n      0x00\n        /* \"#utility.yul\":8085:8136   */\n      tag_251\n        /* \"#utility.yul\":8128:8135   */\n      dup6\n        /* \"#utility.yul\":8119:8125   */\n      dup3\n        /* \"#utility.yul\":8108:8117   */\n      dup7\n        /* \"#utility.yul\":8104:8126   */\n      add\n        /* \"#utility.yul\":8085:8136   */\n      tag_108\n      jump\t// in\n    tag_251:\n        /* \"#utility.yul\":8075:8136   */\n      swap3\n      pop\n        /* \"#utility.yul\":8031:8146   */\n      pop\n        /* \"#utility.yul\":8185:8187   */\n      0x20\n        /* \"#utility.yul\":8211:8262   */\n      tag_252\n        /* \"#utility.yul\":8254:8261   */\n      dup6\n        /* \"#utility.yul\":8245:8251   */\n      dup3\n        /* \"#utility.yul\":8234:8243   */\n      dup7\n        /* \"#utility.yul\":8230:8252   */\n      add\n        /* \"#utility.yul\":8211:8262   */\n      tag_108\n      jump\t// in\n    tag_252:\n        /* \"#utility.yul\":8201:8262   */\n      swap2\n      pop\n        /* \"#utility.yul\":8156:8272   */\n      pop\n        /* \"#utility.yul\":7813:8279   */\n      swap3\n      pop\n      swap3\n      swap1\n      pop\n      jump\t// out\n        /* \"#utility.yul\":8285:8420   */\n    tag_130:\n        /* \"#utility.yul\":8373:8379   */\n      0x00\n        /* \"#utility.yul\":8407:8412   */\n      dup2\n        /* \"#utility.yul\":8401:8413   */\n      mload\n        /* \"#utility.yul\":8391:8413   */\n      swap1\n      pop\n        /* \"#utility.yul\":8285:8420   */\n      swap2\n      swap1\n      pop\n      jump\t// out\n        /* \"#utility.yul\":8426:8631   */\n    tag_131:\n        /* \"#utility.yul\":8546:8557   */\n      0x00\n        /* \"#utility.yul\":8580:8586   */\n      dup3\n        /* \"#utility.yul\":8575:8578   */\n      dup3\n        /* \"#utility.yul\":8568:8587   */\n      mstore\n        /* \"#utility.yul\":8620:8624   */\n      0x20\n        /* \"#utility.yul\":8615:8618   */\n      dup3\n        /* \"#utility.yul\":8611:8625   */\n      add\n        /* \"#utility.yul\":8596:8625   */\n      swap1\n      pop\n        /* \"#utility.yul\":8426:8631   */\n      swap3\n      swap2\n      pop\n      pop\n      jump\t// out\n        /* \"#utility.yul\":8637:8790   */\n    tag_132:\n        /* \"#utility.yul\":8725:8729   */\n      0x00\n        /* \"#utility.yul\":8748:8751   */\n      dup2\n        /* \"#utility.yul\":8740:8751   */\n      swap1\n      pop\n        /* \"#utility.yul\":8778:8782   */\n      0x20\n        /* \"#utility.yul\":8773:8776   */\n      dup3\n        /* \"#utility.yul\":8769:8783   */\n      add\n        /* \"#utility.yul\":8761:8783   */\n      swap1\n      pop\n        /* \"#utility.yul\":8637:8790   */\n      swap2\n      swap1\n      pop\n      jump\t// out\n        /* \"#utility.yul\":8796:8895   */\n    tag_133:\n        /* \"#utility.yul\":8848:8854   */\n      0x00\n        /* \"#utility.yul\":8882:8887   */\n      dup2\n        /* \"#utility.yul\":8876:8888   */\n      mload\n        /* \"#utility.yul\":8866:8888   */\n      swap1\n      pop\n        /* \"#utility.yul\":8796:8895   */\n      swap2\n      swap1\n      pop\n      jump\t// out\n        /* \"#utility.yul\":8901:9060   */\n    tag_134:\n        /* \"#utility.yul\":8975:8986   */\n      0x00\n        /* \"#utility.yul\":9009:9015   */\n      dup3\n        /* \"#utility.yul\":9004:9007   */\n      dup3\n        /* \"#utility.yul\":8997:9016   */\n      mstore\n        /* \"#utility.yul\":9049:9053   */\n      0x20\n        /* \"#utility.yul\":9044:9047   */\n      dup3\n        /* \"#utility.yul\":9040:9054   */\n      add\n        /* \"#utility.yul\":9025:9054   */\n      swap1\n      pop\n        /* \"#utility.yul\":8901:9060   */\n      swap3\n      swap2\n      pop\n      pop\n      jump\t// out\n        /* \"#utility.yul\":9066:9205   */\n    tag_135:\n        /* \"#utility.yul\":9155:9161   */\n      dup3\n        /* \"#utility.yul\":9150:9153   */\n      dup2\n        /* \"#utility.yul\":9145:9148   */\n      dup4\n        /* \"#utility.yul\":9139:9162   */\n      mcopy\n        /* \"#utility.yul\":9196:9197   */\n      0x00\n        /* \"#utility.yul\":9187:9193   */\n      dup4\n        /* \"#utility.yul\":9182:9185   */\n      dup4\n        /* \"#utility.yul\":9178:9194   */\n      add\n        /* \"#utility.yul\":9171:9198   */\n      mstore\n        /* \"#utility.yul\":9066:9205   */\n      pop\n      pop\n      pop\n      jump\t// out\n        /* \"#utility.yul\":9211:9568   */\n    tag_136:\n        /* \"#utility.yul\":9289:9292   */\n      0x00\n        /* \"#utility.yul\":9317:9356   */\n      tag_260\n        /* \"#utility.yul\":9350:9355   */\n      dup3\n        /* \"#utility.yul\":9317:9356   */\n      tag_133\n      jump\t// in\n    tag_260:\n        /* \"#utility.yul\":9372:9433   */\n      tag_261\n        /* \"#utility.yul\":9426:9432   */\n      dup2\n        /* \"#utility.yul\":9421:9424   */\n      dup6\n        /* \"#utility.yul\":9372:9433   */\n      tag_134\n      jump\t// in\n    tag_261:\n        /* \"#utility.yul\":9365:9433   */\n      swap4\n      pop\n        /* \"#utility.yul\":9442:9507   */\n      tag_262\n        /* \"#utility.yul\":9500:9506   */\n      dup2\n        /* \"#utility.yul\":9495:9498   */\n      dup6\n        /* \"#utility.yul\":9488:9492   */\n      0x20\n        /* \"#utility.yul\":9481:9486   */\n      dup7\n        /* \"#utility.yul\":9477:9493   */\n      add\n        /* \"#utility.yul\":9442:9507   */\n      tag_135\n      jump\t// in\n    tag_262:\n        /* \"#utility.yul\":9532:9561   */\n      tag_263\n        /* \"#utility.yul\":9554:9560   */\n      dup2\n        /* \"#utility.yul\":9532:9561   */\n      tag_111\n      jump\t// in\n    tag_263:\n        /* \"#utility.yul\":9527:9530   */\n      dup5\n        /* \"#utility.yul\":9523:9562   */\n      add\n        /* \"#utility.yul\":9516:9562   */\n      swap2\n      pop\n        /* \"#utility.yul\":9293:9568   */\n      pop\n        /* \"#utility.yul\":9211:9568   */\n      swap3\n      swap2\n      pop\n      pop\n      jump\t// out\n        /* \"#utility.yul\":9642:10907   */\n    tag_137:\n        /* \"#utility.yul\":9743:9746   */\n      0x00\n        /* \"#utility.yul\":9779:9783   */\n      0xa0\n        /* \"#utility.yul\":9774:9777   */\n      dup4\n        /* \"#utility.yul\":9770:9784   */\n      add\n        /* \"#utility.yul\":9864:9868   */\n      0x00\n        /* \"#utility.yul\":9857:9862   */\n      dup4\n        /* \"#utility.yul\":9853:9869   */\n      add\n        /* \"#utility.yul\":9847:9870   */\n      mload\n        /* \"#utility.yul\":9883:9942   */\n      tag_265\n        /* \"#utility.yul\":9936:9940   */\n      0x00\n        /* \"#utility.yul\":9931:9934   */\n      dup7\n        /* \"#utility.yul\":9927:9941   */\n      add\n        /* \"#utility.yul\":9913:9925   */\n      dup3\n        /* \"#utility.yul\":9883:9942   */\n      tag_125\n      jump\t// in\n    tag_265:\n        /* \"#utility.yul\":9794:9952   */\n      pop\n        /* \"#utility.yul\":10038:10042   */\n      0x20\n        /* \"#utility.yul\":10031:10036   */\n      dup4\n        /* \"#utility.yul\":10027:10043   */\n      add\n        /* \"#utility.yul\":10021:10044   */\n      mload\n        /* \"#utility.yul\":10091:10094   */\n      dup5\n        /* \"#utility.yul\":10085:10089   */\n      dup3\n        /* \"#utility.yul\":10081:10095   */\n      sub\n        /* \"#utility.yul\":10074:10078   */\n      0x20\n        /* \"#utility.yul\":10069:10072   */\n      dup7\n        /* \"#utility.yul\":10065:10079   */\n      add\n        /* \"#utility.yul\":10058:10096   */\n      mstore\n        /* \"#utility.yul\":10117:10190   */\n      tag_266\n        /* \"#utility.yul\":10185:10189   */\n      dup3\n        /* \"#utility.yul\":10171:10183   */\n      dup3\n        /* \"#utility.yul\":10117:10190   */\n      tag_136\n      jump\t// in\n    tag_266:\n        /* \"#utility.yul\":10109:10190   */\n      swap2\n      pop\n        /* \"#utility.yul\":9962:10201   */\n      pop\n        /* \"#utility.yul\":10287:10291   */\n      0x40\n        /* \"#utility.yul\":10280:10285   */\n      dup4\n        /* \"#utility.yul\":10276:10292   */\n      add\n        /* \"#utility.yul\":10270:10293   */\n      mload\n        /* \"#utility.yul\":10340:10343   */\n      dup5\n        /* \"#utility.yul\":10334:10338   */\n      dup3\n        /* \"#utility.yul\":10330:10344   */\n      sub\n        /* \"#utility.yul\":10323:10327   */\n      0x40\n        /* \"#utility.yul\":10318:10321   */\n      dup7\n        /* \"#utility.yul\":10314:10328   */\n      add\n        /* \"#utility.yul\":10307:10345   */\n      mstore\n        /* \"#utility.yul\":10366:10439   */\n      tag_267\n        /* \"#utility.yul\":10434:10438   */\n      dup3\n        /* \"#utility.yul\":10420:10432   */\n      dup3\n        /* \"#utility.yul\":10366:10439   */\n      tag_136\n      jump\t// in\n    tag_267:\n        /* \"#utility.yul\":10358:10439   */\n      swap2\n      pop\n        /* \"#utility.yul\":10211:10450   */\n      pop\n        /* \"#utility.yul\":10533:10537   */\n      0x60\n        /* \"#utility.yul\":10526:10531   */\n      dup4\n        /* \"#utility.yul\":10522:10538   */\n      add\n        /* \"#utility.yul\":10516:10539   */\n      mload\n        /* \"#utility.yul\":10586:10589   */\n      dup5\n        /* \"#utility.yul\":10580:10584   */\n      dup3\n        /* \"#utility.yul\":10576:10590   */\n      sub\n        /* \"#utility.yul\":10569:10573   */\n      0x60\n        /* \"#utility.yul\":10564:10567   */\n      dup7\n        /* \"#utility.yul\":10560:10574   */\n      add\n        /* \"#utility.yul\":10553:10591   */\n      mstore\n        /* \"#utility.yul\":10612:10685   */\n      tag_268\n        /* \"#utility.yul\":10680:10684   */\n      dup3\n        /* \"#utility.yul\":10666:10678   */\n      dup3\n        /* \"#utility.yul\":10612:10685   */\n      tag_136\n      jump\t// in\n    tag_268:\n        /* \"#utility.yul\":10604:10685   */\n      swap2\n      pop\n        /* \"#utility.yul\":10460:10696   */\n      pop\n        /* \"#utility.yul\":10788:10792   */\n      0x80\n        /* \"#utility.yul\":10781:10786   */\n      dup4\n        /* \"#utility.yul\":10777:10793   */\n      add\n        /* \"#utility.yul\":10771:10794   */\n      mload\n        /* \"#utility.yul\":10807:10870   */\n      tag_269\n        /* \"#utility.yul\":10864:10868   */\n      0x80\n        /* \"#utility.yul\":10859:10862   */\n      dup7\n        /* \"#utility.yul\":10855:10869   */\n      add\n        /* \"#utility.yul\":10841:10853   */\n      dup3\n        /* \"#utility.yul\":10807:10870   */\n      tag_124\n      jump\t// in\n    tag_269:\n        /* \"#utility.yul\":10706:10880   */\n      pop\n        /* \"#utility.yul\":10897:10901   */\n      dup1\n        /* \"#utility.yul\":10890:10901   */\n      swap2\n      pop\n        /* \"#utility.yul\":9748:10907   */\n      pop\n        /* \"#utility.yul\":9642:10907   */\n      swap3\n      swap2\n      pop\n      pop\n      jump\t// out\n        /* \"#utility.yul\":10913:11153   */\n    tag_138:\n        /* \"#utility.yul\":11024:11034   */\n      0x00\n        /* \"#utility.yul\":11059:11147   */\n      tag_271\n        /* \"#utility.yul\":11143:11146   */\n      dup4\n        /* \"#utility.yul\":11135:11141   */\n      dup4\n        /* \"#utility.yul\":11059:11147   */\n      tag_137\n      jump\t// in\n    tag_271:\n        /* \"#utility.yul\":11045:11147   */\n      swap1\n      pop\n        /* \"#utility.yul\":10913:11153   */\n      swap3\n      swap2\n      pop\n      pop\n      jump\t// out\n        /* \"#utility.yul\":11159:11293   */\n    tag_139:\n        /* \"#utility.yul\":11250:11254   */\n      0x00\n        /* \"#utility.yul\":11282:11286   */\n      0x20\n        /* \"#utility.yul\":11277:11280   */\n      dup3\n        /* \"#utility.yul\":11273:11287   */\n      add\n        /* \"#utility.yul\":11265:11287   */\n      swap1\n      pop\n        /* \"#utility.yul\":11159:11293   */\n      swap2\n      swap1\n      pop\n      jump\t// out\n        /* \"#utility.yul\":11371:12450   */\n    tag_140:\n        /* \"#utility.yul\":11532:11535   */\n      0x00\n        /* \"#utility.yul\":11561:11636   */\n      tag_274\n        /* \"#utility.yul\":11630:11635   */\n      dup3\n        /* \"#utility.yul\":11561:11636   */\n      tag_130\n      jump\t// in\n    tag_274:\n        /* \"#utility.yul\":11652:11759   */\n      tag_275\n        /* \"#utility.yul\":11752:11758   */\n      dup2\n        /* \"#utility.yul\":11747:11750   */\n      dup6\n        /* \"#utility.yul\":11652:11759   */\n      tag_131\n      jump\t// in\n    tag_275:\n        /* \"#utility.yul\":11645:11759   */\n      swap4\n      pop\n        /* \"#utility.yul\":11785:11788   */\n      dup4\n        /* \"#utility.yul\":11830:11834   */\n      0x20\n        /* \"#utility.yul\":11822:11828   */\n      dup3\n        /* \"#utility.yul\":11818:11835   */\n      mul\n        /* \"#utility.yul\":11813:11816   */\n      dup6\n        /* \"#utility.yul\":11809:11836   */\n      add\n        /* \"#utility.yul\":11860:11937   */\n      tag_276\n        /* \"#utility.yul\":11931:11936   */\n      dup6\n        /* \"#utility.yul\":11860:11937   */\n      tag_132\n      jump\t// in\n    tag_276:\n        /* \"#utility.yul\":11960:11967   */\n      dup1\n        /* \"#utility.yul\":11991:11992   */\n      0x00\n        /* \"#utility.yul\":11976:12405   */\n    tag_277:\n        /* \"#utility.yul\":12001:12007   */\n      dup6\n        /* \"#utility.yul\":11998:11999   */\n      dup2\n        /* \"#utility.yul\":11995:12008   */\n      lt\n        /* \"#utility.yul\":11976:12405   */\n      iszero\n      tag_279\n      jumpi\n        /* \"#utility.yul\":12072:12081   */\n      dup5\n        /* \"#utility.yul\":12066:12070   */\n      dup5\n        /* \"#utility.yul\":12062:12082   */\n      sub\n        /* \"#utility.yul\":12057:12060   */\n      dup10\n        /* \"#utility.yul\":12050:12083   */\n      mstore\n        /* \"#utility.yul\":12123:12129   */\n      dup2\n        /* \"#utility.yul\":12117:12130   */\n      mload\n        /* \"#utility.yul\":12151:12257   */\n      tag_280\n        /* \"#utility.yul\":12252:12256   */\n      dup6\n        /* \"#utility.yul\":12237:12250   */\n      dup3\n        /* \"#utility.yul\":12151:12257   */\n      tag_138\n      jump\t// in\n    tag_280:\n        /* \"#utility.yul\":12143:12257   */\n      swap5\n      pop\n        /* \"#utility.yul\":12280:12361   */\n      tag_281\n        /* \"#utility.yul\":12354:12360   */\n      dup4\n        /* \"#utility.yul\":12280:12361   */\n      tag_139\n      jump\t// in\n    tag_281:\n        /* \"#utility.yul\":12270:12361   */\n      swap3\n      pop\n        /* \"#utility.yul\":12390:12394   */\n      0x20\n        /* \"#utility.yul\":12385:12388   */\n      dup11\n        /* \"#utility.yul\":12381:12395   */\n      add\n        /* \"#utility.yul\":12374:12395   */\n      swap10\n      pop\n        /* \"#utility.yul\":12036:12405   */\n      pop\n        /* \"#utility.yul\":12023:12024   */\n      0x01\n        /* \"#utility.yul\":12020:12021   */\n      dup2\n        /* \"#utility.yul\":12016:12025   */\n      add\n        /* \"#utility.yul\":12011:12025   */\n      swap1\n      pop\n        /* \"#utility.yul\":11976:12405   */\n      jump(tag_277)\n    tag_279:\n        /* \"#utility.yul\":11980:11994   */\n      pop\n        /* \"#utility.yul\":12421:12425   */\n      dup3\n        /* \"#utility.yul\":12414:12425   */\n      swap8\n      pop\n        /* \"#utility.yul\":12441:12444   */\n      dup8\n        /* \"#utility.yul\":12434:12444   */\n      swap6\n      pop\n        /* \"#utility.yul\":11537:12450   */\n      pop\n      pop\n      pop\n      pop\n      pop\n        /* \"#utility.yul\":11371:12450   */\n      swap3\n      swap2\n      pop\n      pop\n      jump\t// out\n        /* \"#utility.yul\":12456:12913   */\n    tag_24:\n        /* \"#utility.yul\":12641:12645   */\n      0x00\n        /* \"#utility.yul\":12679:12681   */\n      0x20\n        /* \"#utility.yul\":12668:12677   */\n      dup3\n        /* \"#utility.yul\":12664:12682   */\n      add\n        /* \"#utility.yul\":12656:12682   */\n      swap1\n      pop\n        /* \"#utility.yul\":12728:12737   */\n      dup2\n        /* \"#utility.yul\":12722:12726   */\n      dup2\n        /* \"#utility.yul\":12718:12738   */\n      sub\n        /* \"#utility.yul\":12714:12715   */\n      0x00\n        /* \"#utility.yul\":12703:12712   */\n      dup4\n        /* \"#utility.yul\":12699:12716   */\n      add\n        /* \"#utility.yul\":12692:12739   */\n      mstore\n        /* \"#utility.yul\":12756:12906   */\n      tag_283\n        /* \"#utility.yul\":12901:12905   */\n      dup2\n        /* \"#utility.yul\":12892:12898   */\n      dup5\n        /* \"#utility.yul\":12756:12906   */\n      tag_140\n      jump\t// in\n    tag_283:\n        /* \"#utility.yul\":12748:12906   */\n      swap1\n      pop\n        /* \"#utility.yul\":12456:12913   */\n      swap3\n      swap2\n      pop\n      pop\n      jump\t// out\n        /* \"#utility.yul\":12919:13088   */\n    tag_141:\n        /* \"#utility.yul\":13003:13014   */\n      0x00\n        /* \"#utility.yul\":13037:13043   */\n      dup3\n        /* \"#utility.yul\":13032:13035   */\n      dup3\n        /* \"#utility.yul\":13025:13044   */\n      mstore\n        /* \"#utility.yul\":13077:13081   */\n      0x20\n        /* \"#utility.yul\":13072:13075   */\n      dup3\n        /* \"#utility.yul\":13068:13082   */\n      add\n        /* \"#utility.yul\":13053:13082   */\n      swap1\n      pop\n        /* \"#utility.yul\":12919:13088   */\n      swap3\n      swap2\n      pop\n      pop\n      jump\t// out\n        /* \"#utility.yul\":13094:13321   */\n    tag_142:\n        /* \"#utility.yul\":13234:13268   */\n      0x5365756c206c2761646d696e207065757420617070656c657220636574746520\n        /* \"#utility.yul\":13230:13231   */\n      0x00\n        /* \"#utility.yul\":13222:13228   */\n      dup3\n        /* \"#utility.yul\":13218:13232   */\n      add\n        /* \"#utility.yul\":13211:13269   */\n      mstore\n        /* \"#utility.yul\":13303:13313   */\n      0x666f6e6374696f6e000000000000000000000000000000000000000000000000\n        /* \"#utility.yul\":13298:13300   */\n      0x20\n        /* \"#utility.yul\":13290:13296   */\n      dup3\n        /* \"#utility.yul\":13286:13301   */\n      add\n        /* \"#utility.yul\":13279:13314   */\n      mstore\n        /* \"#utility.yul\":13094:13321   */\n      pop\n      jump\t// out\n        /* \"#utility.yul\":13327:13693   */\n    tag_143:\n        /* \"#utility.yul\":13469:13472   */\n      0x00\n        /* \"#utility.yul\":13490:13557   */\n      tag_287\n        /* \"#utility.yul\":13554:13556   */\n      0x28\n        /* \"#utility.yul\":13549:13552   */\n      dup4\n        /* \"#utility.yul\":13490:13557   */\n      tag_141\n      jump\t// in\n    tag_287:\n        /* \"#utility.yul\":13483:13557   */\n      swap2\n      pop\n        /* \"#utility.yul\":13566:13659   */\n      tag_288\n        /* \"#utility.yul\":13655:13658   */\n      dup3\n        /* \"#utility.yul\":13566:13659   */\n      tag_142\n      jump\t// in\n    tag_288:\n        /* \"#utility.yul\":13684:13686   */\n      0x40\n        /* \"#utility.yul\":13679:13682   */\n      dup3\n        /* \"#utility.yul\":13675:13687   */\n      add\n        /* \"#utility.yul\":13668:13687   */\n      swap1\n      pop\n        /* \"#utility.yul\":13327:13693   */\n      swap2\n      swap1\n      pop\n      jump\t// out\n        /* \"#utility.yul\":13699:14118   */\n    tag_28:\n        /* \"#utility.yul\":13865:13869   */\n      0x00\n        /* \"#utility.yul\":13903:13905   */\n      0x20\n        /* \"#utility.yul\":13892:13901   */\n      dup3\n        /* \"#utility.yul\":13888:13906   */\n      add\n        /* \"#utility.yul\":13880:13906   */\n      swap1\n      pop\n        /* \"#utility.yul\":13952:13961   */\n      dup2\n        /* \"#utility.yul\":13946:13950   */\n      dup2\n        /* \"#utility.yul\":13942:13962   */\n      sub\n        /* \"#utility.yul\":13938:13939   */\n      0x00\n        /* \"#utility.yul\":13927:13936   */\n      dup4\n        /* \"#utility.yul\":13923:13940   */\n      add\n        /* \"#utility.yul\":13916:13963   */\n      mstore\n        /* \"#utility.yul\":13980:14111   */\n      tag_290\n        /* \"#utility.yul\":14106:14110   */\n      dup2\n        /* \"#utility.yul\":13980:14111   */\n      tag_143\n      jump\t// in\n    tag_290:\n        /* \"#utility.yul\":13972:14111   */\n      swap1\n      pop\n        /* \"#utility.yul\":13699:14118   */\n      swap2\n      swap1\n      pop\n      jump\t// out\n        /* \"#utility.yul\":14124:14304   */\n    tag_144:\n        /* \"#utility.yul\":14172:14249   */\n      0x4e487b7100000000000000000000000000000000000000000000000000000000\n        /* \"#utility.yul\":14169:14170   */\n      0x00\n        /* \"#utility.yul\":14162:14250   */\n      mstore\n        /* \"#utility.yul\":14269:14273   */\n      0x22\n        /* \"#utility.yul\":14266:14267   */\n      0x04\n        /* \"#utility.yul\":14259:14274   */\n      mstore\n        /* \"#utility.yul\":14293:14297   */\n      0x24\n        /* \"#utility.yul\":14290:14291   */\n      0x00\n        /* \"#utility.yul\":14283:14298   */\n      revert\n        /* \"#utility.yul\":14310:14630   */\n    tag_31:\n        /* \"#utility.yul\":14354:14360   */\n      0x00\n        /* \"#utility.yul\":14391:14392   */\n      0x02\n        /* \"#utility.yul\":14385:14389   */\n      dup3\n        /* \"#utility.yul\":14381:14393   */\n      div\n        /* \"#utility.yul\":14371:14393   */\n      swap1\n      pop\n        /* \"#utility.yul\":14438:14439   */\n      0x01\n        /* \"#utility.yul\":14432:14436   */\n      dup3\n        /* \"#utility.yul\":14428:14440   */\n      and\n        /* \"#utility.yul\":14459:14477   */\n      dup1\n        /* \"#utility.yul\":14449:14530   */\n      tag_293\n      jumpi\n        /* \"#utility.yul\":14515:14519   */\n      0x7f\n        /* \"#utility.yul\":14507:14513   */\n      dup3\n        /* \"#utility.yul\":14503:14520   */\n      and\n        /* \"#utility.yul\":14493:14520   */\n      swap2\n      pop\n        /* \"#utility.yul\":14449:14530   */\n    tag_293:\n        /* \"#utility.yul\":14577:14579   */\n      0x20\n        /* \"#utility.yul\":14569:14575   */\n      dup3\n        /* \"#utility.yul\":14566:14580   */\n      lt\n        /* \"#utility.yul\":14546:14564   */\n      dup2\n        /* \"#utility.yul\":14543:14581   */\n      sub\n        /* \"#utility.yul\":14540:14624   */\n      tag_294\n      jumpi\n        /* \"#utility.yul\":14596:14614   */\n      tag_295\n      tag_144\n      jump\t// in\n    tag_295:\n        /* \"#utility.yul\":14540:14624   */\n    tag_294:\n        /* \"#utility.yul\":14361:14630   */\n      pop\n        /* \"#utility.yul\":14310:14630   */\n      swap2\n      swap1\n      pop\n      jump\t// out\n        /* \"#utility.yul\":14636:14805   */\n    tag_145:\n        /* \"#utility.yul\":14776:14797   */\n      0x4d617463682064656a61206578697374616e7400000000000000000000000000\n        /* \"#utility.yul\":14772:14773   */\n      0x00\n        /* \"#utility.yul\":14764:14770   */\n      dup3\n        /* \"#utility.yul\":14760:14774   */\n      add\n        /* \"#utility.yul\":14753:14798   */\n      mstore\n        /* \"#utility.yul\":14636:14805   */\n      pop\n      jump\t// out\n        /* \"#utility.yul\":14811:15177   */\n    tag_146:\n        /* \"#utility.yul\":14953:14956   */\n      0x00\n        /* \"#utility.yul\":14974:15041   */\n      tag_298\n        /* \"#utility.yul\":15038:15040   */\n      0x13\n        /* \"#utility.yul\":15033:15036   */\n      dup4\n        /* \"#utility.yul\":14974:15041   */\n      tag_141\n      jump\t// in\n    tag_298:\n        /* \"#utility.yul\":14967:15041   */\n      swap2\n      pop\n        /* \"#utility.yul\":15050:15143   */\n      tag_299\n        /* \"#utility.yul\":15139:15142   */\n      dup3\n        /* \"#utility.yul\":15050:15143   */\n      tag_145\n      jump\t// in\n    tag_299:\n        /* \"#utility.yul\":15168:15170   */\n      0x20\n        /* \"#utility.yul\":15163:15166   */\n      dup3\n        /* \"#utility.yul\":15159:15171   */\n      add\n        /* \"#utility.yul\":15152:15171   */\n      swap1\n      pop\n        /* \"#utility.yul\":14811:15177   */\n      swap2\n      swap1\n      pop\n      jump\t// out\n        /* \"#utility.yul\":15183:15602   */\n    tag_34:\n        /* \"#utility.yul\":15349:15353   */\n      0x00\n        /* \"#utility.yul\":15387:15389   */\n      0x20\n        /* \"#utility.yul\":15376:15385   */\n      dup3\n        /* \"#utility.yul\":15372:15390   */\n      add\n        /* \"#utility.yul\":15364:15390   */\n      swap1\n      pop\n        /* \"#utility.yul\":15436:15445   */\n      dup2\n        /* \"#utility.yul\":15430:15434   */\n      dup2\n        /* \"#utility.yul\":15426:15446   */\n      sub\n        /* \"#utility.yul\":15422:15423   */\n      0x00\n        /* \"#utility.yul\":15411:15420   */\n      dup4\n        /* \"#utility.yul\":15407:15424   */\n      add\n        /* \"#utility.yul\":15400:15447   */\n      mstore\n        /* \"#utility.yul\":15464:15595   */\n      tag_301\n        /* \"#utility.yul\":15590:15594   */\n      dup2\n        /* \"#utility.yul\":15464:15595   */\n      tag_146\n      jump\t// in\n    tag_301:\n        /* \"#utility.yul\":15456:15595   */\n      swap1\n      pop\n        /* \"#utility.yul\":15183:15602   */\n      swap2\n      swap1\n      pop\n      jump\t// out\n        /* \"#utility.yul\":15608:15749   */\n    tag_147:\n        /* \"#utility.yul\":15657:15661   */\n      0x00\n        /* \"#utility.yul\":15680:15683   */\n      dup2\n        /* \"#utility.yul\":15672:15683   */\n      swap1\n      pop\n        /* \"#utility.yul\":15703:15706   */\n      dup2\n        /* \"#utility.yul\":15700:15701   */\n      0x00\n        /* \"#utility.yul\":15693:15707   */\n      mstore\n        /* \"#utility.yul\":15737:15741   */\n      0x20\n        /* \"#utility.yul\":15734:15735   */\n      0x00\n        /* \"#utility.yul\":15724:15742   */\n      keccak256\n        /* \"#utility.yul\":15716:15742   */\n      swap1\n      pop\n        /* \"#utility.yul\":15608:15749   */\n      swap2\n      swap1\n      pop\n      jump\t// out\n        /* \"#utility.yul\":15755:15848   */\n    tag_148:\n        /* \"#utility.yul\":15792:15798   */\n      0x00\n        /* \"#utility.yul\":15839:15841   */\n      0x20\n        /* \"#utility.yul\":15834:15836   */\n      0x1f\n        /* \"#utility.yul\":15827:15832   */\n      dup4\n        /* \"#utility.yul\":15823:15837   */\n      add\n        /* \"#utility.yul\":15819:15842   */\n      div\n        /* \"#utility.yul\":15809:15842   */\n      swap1\n      pop\n        /* \"#utility.yul\":15755:15848   */\n      swap2\n      swap1\n      pop\n      jump\t// out\n        /* \"#utility.yul\":15854:15961   */\n    tag_149:\n        /* \"#utility.yul\":15898:15906   */\n      0x00\n        /* \"#utility.yul\":15948:15953   */\n      dup3\n        /* \"#utility.yul\":15942:15946   */\n      dup3\n        /* \"#utility.yul\":15938:15954   */\n      shl\n        /* \"#utility.yul\":15917:15954   */\n      swap1\n      pop\n        /* \"#utility.yul\":15854:15961   */\n      swap3\n      swap2\n      pop\n      pop\n      jump\t// out\n        /* \"#utility.yul\":15967:16360   */\n    tag_150:\n        /* \"#utility.yul\":16036:16042   */\n      0x00\n        /* \"#utility.yul\":16086:16087   */\n      0x08\n        /* \"#utility.yul\":16074:16084   */\n      dup4\n        /* \"#utility.yul\":16070:16088   */\n      mul\n        /* \"#utility.yul\":16109:16206   */\n      tag_306\n        /* \"#utility.yul\":16139:16205   */\n      0xffffffffffffffffffffffffffffffffffffffffffffffffffffffffffffffff\n        /* \"#utility.yul\":16128:16137   */\n      dup3\n        /* \"#utility.yul\":16109:16206   */\n      tag_149\n      jump\t// in\n    tag_306:\n        /* \"#utility.yul\":16227:16266   */\n      tag_307\n        /* \"#utility.yul\":16257:16265   */\n      dup7\n        /* \"#utility.yul\":16246:16255   */\n      dup4\n        /* \"#utility.yul\":16227:16266   */\n      tag_149\n      jump\t// in\n    tag_307:\n        /* \"#utility.yul\":16215:16266   */\n      swap6\n      pop\n        /* \"#utility.yul\":16299:16303   */\n      dup1\n        /* \"#utility.yul\":16295:16304   */\n      not\n        /* \"#utility.yul\":16288:16293   */\n      dup5\n        /* \"#utility.yul\":16284:16305   */\n      and\n        /* \"#utility.yul\":16275:16305   */\n      swap4\n      pop\n        /* \"#utility.yul\":16348:16352   */\n      dup1\n        /* \"#utility.yul\":16338:16346   */\n      dup7\n        /* \"#utility.yul\":16334:16353   */\n      and\n        /* \"#utility.yul\":16327:16332   */\n      dup5\n        /* \"#utility.yul\":16324:16354   */\n      or\n        /* \"#utility.yul\":16314:16354   */\n      swap3\n      pop\n        /* \"#utility.yul\":16043:16360   */\n      pop\n      pop\n        /* \"#utility.yul\":15967:16360   */\n      swap4\n      swap3\n      pop\n      pop\n      pop\n      jump\t// out\n        /* \"#utility.yul\":16366:16426   */\n    tag_151:\n        /* \"#utility.yul\":16394:16397   */\n      0x00\n        /* \"#utility.yul\":16415:16420   */\n      dup2\n        /* \"#utility.yul\":16408:16420   */\n      swap1\n      pop\n        /* \"#utility.yul\":16366:16426   */\n      swap2\n      swap1\n      pop\n      jump\t// out\n        /* \"#utility.yul\":16432:16574   */\n    tag_152:\n        /* \"#utility.yul\":16482:16491   */\n      0x00\n        /* \"#utility.yul\":16515:16568   */\n      tag_310\n        /* \"#utility.yul\":16533:16567   */\n      tag_311\n        /* \"#utility.yul\":16542:16566   */\n      tag_312\n        /* \"#utility.yul\":16560:16565   */\n      dup5\n        /* \"#utility.yul\":16542:16566   */\n      tag_118\n      jump\t// in\n    tag_312:\n        /* \"#utility.yul\":16533:16567   */\n      tag_151\n      jump\t// in\n    tag_311:\n        /* \"#utility.yul\":16515:16568   */\n      tag_118\n      jump\t// in\n    tag_310:\n        /* \"#utility.yul\":16502:16568   */\n      swap1\n      pop\n        /* \"#utility.yul\":16432:16574   */\n      swap2\n      swap1\n      pop\n      jump\t// out\n        /* \"#utility.yul\":16580:16655   */\n    tag_153:\n        /* \"#utility.yul\":16623:16626   */\n      0x00\n        /* \"#utility.yul\":16644:16649   */\n      dup2\n        /* \"#utility.yul\":16637:16649   */\n      swap1\n      pop\n        /* \"#utility.yul\":16580:16655   */\n      swap2\n      swap1\n      pop\n      jump\t// out\n        /* \"#utility.yul\":16661:16930   */\n    tag_154:\n        /* \"#utility.yul\":16771:16810   */\n      tag_315\n        /* \"#utility.yul\":16802:16809   */\n      dup4\n        /* \"#utility.yul\":16771:16810   */\n      tag_152\n      jump\t// in\n    tag_315:\n        /* \"#utility.yul\":16832:16923   */\n      tag_316\n        /* \"#utility.yul\":16881:16922   */\n      tag_317\n        /* \"#utility.yul\":16905:16921   */\n      dup3\n        /* \"#utility.yul\":16881:16922   */\n      tag_153\n      jump\t// in\n    tag_317:\n        /* \"#utility.yul\":16873:16879   */\n      dup5\n        /* \"#utility.yul\":16866:16870   */\n      dup5\n        /* \"#utility.yul\":16860:16871   */\n      sload\n        /* \"#utility.yul\":16832:16923   */\n      tag_150\n      jump\t// in\n    tag_316:\n        /* \"#utility.yul\":16826:16830   */\n      dup3\n        /* \"#utility.yul\":16819:16924   */\n      sstore\n        /* \"#utility.yul\":16737:16930   */\n      pop\n        /* \"#utility.yul\":16661:16930   */\n      pop\n      pop\n      pop\n      jump\t// out\n        /* \"#utility.yul\":16936:17009   */\n    tag_155:\n        /* \"#utility.yul\":16981:16984   */\n      0x00\n        /* \"#utility.yul\":16936:17009   */\n      swap1\n      jump\t// out\n        /* \"#utility.yul\":17015:17204   */\n    tag_156:\n        /* \"#utility.yul\":17092:17124   */\n      tag_320\n      tag_155\n      jump\t// in\n    tag_320:\n        /* \"#utility.yul\":17133:17198   */\n      tag_321\n        /* \"#utility.yul\":17191:17197   */\n      dup2\n        /* \"#utility.yul\":17183:17189   */\n      dup5\n        /* \"#utility.yul\":17177:17181   */\n      dup5\n        /* \"#utility.yul\":17133:17198   */\n      tag_154\n      jump\t// in\n    tag_321:\n        /* \"#utility.yul\":17068:17204   */\n      pop\n        /* \"#utility.yul\":17015:17204   */\n      pop\n      pop\n      jump\t// out\n        /* \"#utility.yul\":17210:17396   */\n    tag_157:\n        /* \"#utility.yul\":17270:17390   */\n    tag_323:\n        /* \"#utility.yul\":17287:17290   */\n      dup2\n        /* \"#utility.yul\":17280:17285   */\n      dup2\n        /* \"#utility.yul\":17277:17291   */\n      lt\n        /* \"#utility.yul\":17270:17390   */\n      iszero\n      tag_325\n      jumpi\n        /* \"#utility.yul\":17341:17380   */\n      tag_326\n        /* \"#utility.yul\":17378:17379   */\n      0x00\n        /* \"#utility.yul\":17371:17376   */\n      dup3\n        /* \"#utility.yul\":17341:17380   */\n      tag_156\n      jump\t// in\n    tag_326:\n        /* \"#utility.yul\":17314:17315   */\n      0x01\n        /* \"#utility.yul\":17307:17312   */\n      dup2\n        /* \"#utility.yul\":17303:17316   */\n      add\n        /* \"#utility.yul\":17294:17316   */\n      swap1\n      pop\n        /* \"#utility.yul\":17270:17390   */\n      jump(tag_323)\n    tag_325:\n        /* \"#utility.yul\":17210:17396   */\n      pop\n      pop\n      jump\t// out\n        /* \"#utility.yul\":17402:17945   */\n    tag_158:\n        /* \"#utility.yul\":17503:17505   */\n      0x1f\n        /* \"#utility.yul\":17498:17501   */\n      dup3\n        /* \"#utility.yul\":17495:17506   */\n      gt\n        /* \"#utility.yul\":17492:17938   */\n      iszero\n      tag_328\n      jumpi\n        /* \"#utility.yul\":17537:17575   */\n      tag_329\n        /* \"#utility.yul\":17569:17574   */\n      dup2\n        /* \"#utility.yul\":17537:17575   */\n      tag_147\n      jump\t// in\n    tag_329:\n        /* \"#utility.yul\":17621:17650   */\n      tag_330\n        /* \"#utility.yul\":17639:17649   */\n      dup5\n        /* \"#utility.yul\":17621:17650   */\n      tag_148\n      jump\t// in\n    tag_330:\n        /* \"#utility.yul\":17611:17619   */\n      dup2\n        /* \"#utility.yul\":17607:17651   */\n      add\n        /* \"#utility.yul\":17804:17806   */\n      0x20\n        /* \"#utility.yul\":17792:17802   */\n      dup6\n        /* \"#utility.yul\":17789:17807   */\n      lt\n        /* \"#utility.yul\":17786:17835   */\n      iszero\n      tag_331\n      jumpi\n        /* \"#utility.yul\":17825:17833   */\n      dup2\n        /* \"#utility.yul\":17810:17833   */\n      swap1\n      pop\n        /* \"#utility.yul\":17786:17835   */\n    tag_331:\n        /* \"#utility.yul\":17848:17928   */\n      tag_332\n        /* \"#utility.yul\":17904:17926   */\n      tag_333\n        /* \"#utility.yul\":17922:17925   */\n      dup6\n        /* \"#utility.yul\":17904:17926   */\n      tag_148\n      jump\t// in\n    tag_333:\n        /* \"#utility.yul\":17894:17902   */\n      dup4\n        /* \"#utility.yul\":17890:17927   */\n      add\n        /* \"#utility.yul\":17877:17888   */\n      dup3\n        /* \"#utility.yul\":17848:17928   */\n      tag_157\n      jump\t// in\n    tag_332:\n        /* \"#utility.yul\":17507:17938   */\n      pop\n      pop\n        /* \"#utility.yul\":17492:17938   */\n    tag_328:\n        /* \"#utility.yul\":17402:17945   */\n      pop\n      pop\n      pop\n      jump\t// out\n        /* \"#utility.yul\":17951:18068   */\n    tag_159:\n        /* \"#utility.yul\":18005:18013   */\n      0x00\n        /* \"#utility.yul\":18055:18060   */\n      dup3\n        /* \"#utility.yul\":18049:18053   */\n      dup3\n        /* \"#utility.yul\":18045:18061   */\n      shr\n        /* \"#utility.yul\":18024:18061   */\n      swap1\n      pop\n        /* \"#utility.yul\":17951:18068   */\n      swap3\n      swap2\n      pop\n      pop\n      jump\t// out\n        /* \"#utility.yul\":18074:18243   */\n    tag_160:\n        /* \"#utility.yul\":18118:18124   */\n      0x00\n        /* \"#utility.yul\":18151:18202   */\n      tag_336\n        /* \"#utility.yul\":18199:18200   */\n      0x00\n        /* \"#utility.yul\":18195:18201   */\n      not\n        /* \"#utility.yul\":18187:18192   */\n      dup5\n        /* \"#utility.yul\":18184:18185   */\n      0x08\n        /* \"#utility.yul\":18180:18193   */\n      mul\n        /* \"#utility.yul\":18151:18202   */\n      tag_159\n      jump\t// in\n    tag_336:\n        /* \"#utility.yul\":18147:18203   */\n      not\n        /* \"#utility.yul\":18232:18236   */\n      dup1\n        /* \"#utility.yul\":18226:18230   */\n      dup4\n        /* \"#utility.yul\":18222:18237   */\n      and\n        /* \"#utility.yul\":18212:18237   */\n      swap2\n      pop\n        /* \"#utility.yul\":18125:18243   */\n      pop\n        /* \"#utility.yul\":18074:18243   */\n      swap3\n      swap2\n      pop\n      pop\n      jump\t// out\n        /* \"#utility.yul\":18248:18543   */\n    tag_161:\n        /* \"#utility.yul\":18324:18328   */\n      0x00\n        /* \"#utility.yul\":18470:18499   */\n      tag_338\n        /* \"#utility.yul\":18495:18498   */\n      dup4\n        /* \"#utility.yul\":18489:18493   */\n      dup4\n        /* \"#utility.yul\":18470:18499   */\n      tag_160\n      jump\t// in\n    tag_338:\n        /* \"#utility.yul\":18462:18499   */\n      swap2\n      pop\n        /* \"#utility.yul\":18532:18535   */\n      dup3\n        /* \"#utility.yul\":18529:18530   */\n      0x02\n        /* \"#utility.yul\":18525:18536   */\n      mul\n        /* \"#utility.yul\":18519:18523   */\n      dup3\n        /* \"#utility.yul\":18516:18537   */\n      or\n        /* \"#utility.yul\":18508:18537   */\n      swap1\n      pop\n        /* \"#utility.yul\":18248:18543   */\n      swap3\n      swap2\n      pop\n      pop\n      jump\t// out\n        /* \"#utility.yul\":18548:19943   */\n    tag_39:\n        /* \"#utility.yul\":18665:18702   */\n      tag_340\n        /* \"#utility.yul\":18698:18701   */\n      dup3\n        /* \"#utility.yul\":18665:18702   */\n      tag_133\n      jump\t// in\n    tag_340:\n        /* \"#utility.yul\":18767:18785   */\n      0xffffffffffffffff\n        /* \"#utility.yul\":18759:18765   */\n      dup2\n        /* \"#utility.yul\":18756:18786   */\n      gt\n        /* \"#utility.yul\":18753:18809   */\n      iszero\n      tag_341\n      jumpi\n        /* \"#utility.yul\":18789:18807   */\n      tag_342\n      tag_48\n      jump\t// in\n    tag_342:\n        /* \"#utility.yul\":18753:18809   */\n    tag_341:\n        /* \"#utility.yul\":18833:18871   */\n      tag_343\n        /* \"#utility.yul\":18865:18869   */\n      dup3\n        /* \"#utility.yul\":18859:18870   */\n      sload\n        /* \"#utility.yul\":18833:18871   */\n      tag_31\n      jump\t// in\n    tag_343:\n        /* \"#utility.yul\":18918:18985   */\n      tag_344\n        /* \"#utility.yul\":18978:18984   */\n      dup3\n        /* \"#utility.yul\":18970:18976   */\n      dup3\n        /* \"#utility.yul\":18964:18968   */\n      dup6\n        /* \"#utility.yul\":18918:18985   */\n      tag_158\n      jump\t// in\n    tag_344:\n        /* \"#utility.yul\":19012:19013   */\n      0x00\n        /* \"#utility.yul\":19036:19040   */\n      0x20\n        /* \"#utility.yul\":19023:19040   */\n      swap1\n      pop\n        /* \"#utility.yul\":19068:19070   */\n      0x1f\n        /* \"#utility.yul\":19060:19066   */\n      dup4\n        /* \"#utility.yul\":19057:19071   */\n      gt\n        /* \"#utility.yul\":19085:19086   */\n      0x01\n        /* \"#utility.yul\":19080:19698   */\n      dup2\n      eq\n      tag_346\n      jumpi\n        /* \"#utility.yul\":19742:19743   */\n      0x00\n        /* \"#utility.yul\":19759:19765   */\n      dup5\n        /* \"#utility.yul\":19756:19833   */\n      iszero\n      tag_347\n      jumpi\n        /* \"#utility.yul\":19808:19817   */\n      dup3\n        /* \"#utility.yul\":19803:19806   */\n      dup8\n        /* \"#utility.yul\":19799:19818   */\n      add\n        /* \"#utility.yul\":19793:19819   */\n      mload\n        /* \"#utility.yul\":19784:19819   */\n      swap1\n      pop\n        /* \"#utility.yul\":19756:19833   */\n    tag_347:\n        /* \"#utility.yul\":19859:19926   */\n      tag_348\n        /* \"#utility.yul\":19919:19925   */\n      dup6\n        /* \"#utility.yul\":19912:19917   */\n      dup3\n        /* \"#utility.yul\":19859:19926   */\n      tag_161\n      jump\t// in\n    tag_348:\n        /* \"#utility.yul\":19853:19857   */\n      dup7\n        /* \"#utility.yul\":19846:19927   */\n      sstore\n        /* \"#utility.yul\":19715:19937   */\n      pop\n        /* \"#utility.yul\":19050:19937   */\n      jump(tag_345)\n        /* \"#utility.yul\":19080:19698   */\n    tag_346:\n        /* \"#utility.yul\":19132:19136   */\n      0x1f\n        /* \"#utility.yul\":19128:19137   */\n      not\n        /* \"#utility.yul\":19120:19126   */\n      dup5\n        /* \"#utility.yul\":19116:19138   */\n      and\n        /* \"#utility.yul\":19166:19203   */\n      tag_349\n        /* \"#utility.yul\":19198:19202   */\n      dup7\n        /* \"#utility.yul\":19166:19203   */\n      tag_147\n      jump\t// in\n    tag_349:\n        /* \"#utility.yul\":19225:19226   */\n      0x00\n        /* \"#utility.yul\":19239:19447   */\n    tag_350:\n        /* \"#utility.yul\":19253:19260   */\n      dup3\n        /* \"#utility.yul\":19250:19251   */\n      dup2\n        /* \"#utility.yul\":19247:19261   */\n      lt\n        /* \"#utility.yul\":19239:19447   */\n      iszero\n      tag_352\n      jumpi\n        /* \"#utility.yul\":19332:19341   */\n      dup5\n        /* \"#utility.yul\":19327:19330   */\n      dup10\n        /* \"#utility.yul\":19323:19342   */\n      add\n        /* \"#utility.yul\":19317:19343   */\n      mload\n        /* \"#utility.yul\":19309:19315   */\n      dup3\n        /* \"#utility.yul\":19302:19344   */\n      sstore\n        /* \"#utility.yul\":19383:19384   */\n      0x01\n        /* \"#utility.yul\":19375:19381   */\n      dup3\n        /* \"#utility.yul\":19371:19385   */\n      add\n        /* \"#utility.yul\":19361:19385   */\n      swap2\n      pop\n        /* \"#utility.yul\":19430:19432   */\n      0x20\n        /* \"#utility.yul\":19419:19428   */\n      dup6\n        /* \"#utility.yul\":19415:19433   */\n      add\n        /* \"#utility.yul\":19402:19433   */\n      swap5\n      pop\n        /* \"#utility.yul\":19276:19280   */\n      0x20\n        /* \"#utility.yul\":19273:19274   */\n      dup2\n        /* \"#utility.yul\":19269:19281   */\n      add\n        /* \"#utility.yul\":19264:19281   */\n      swap1\n      pop\n        /* \"#utility.yul\":19239:19447   */\n      jump(tag_350)\n    tag_352:\n        /* \"#utility.yul\":19475:19481   */\n      dup7\n        /* \"#utility.yul\":19466:19473   */\n      dup4\n        /* \"#utility.yul\":19463:19482   */\n      lt\n        /* \"#utility.yul\":19460:19639   */\n      iszero\n      tag_353\n      jumpi\n        /* \"#utility.yul\":19533:19542   */\n      dup5\n        /* \"#utility.yul\":19528:19531   */\n      dup10\n        /* \"#utility.yul\":19524:19543   */\n      add\n        /* \"#utility.yul\":19518:19544   */\n      mload\n        /* \"#utility.yul\":19576:19624   */\n      tag_354\n        /* \"#utility.yul\":19618:19622   */\n      0x1f\n        /* \"#utility.yul\":19610:19616   */\n      dup10\n        /* \"#utility.yul\":19606:19623   */\n      and\n        /* \"#utility.yul\":19595:19604   */\n      dup3\n        /* \"#utility.yul\":19576:19624   */\n      tag_160\n      jump\t// in\n    tag_354:\n        /* \"#utility.yul\":19568:19574   */\n      dup4\n        /* \"#utility.yul\":19561:19625   */\n      sstore\n        /* \"#utility.yul\":19483:19639   */\n      pop\n        /* \"#utility.yul\":19460:19639   */\n    tag_353:\n        /* \"#utility.yul\":19685:19686   */\n      0x01\n        /* \"#utility.yul\":19681:19682   */\n      0x02\n        /* \"#utility.yul\":19673:19679   */\n      dup9\n        /* \"#utility.yul\":19669:19683   */\n      mul\n        /* \"#utility.yul\":19665:19687   */\n      add\n        /* \"#utility.yul\":19659:19663   */\n      dup9\n        /* \"#utility.yul\":19652:19688   */\n      sstore\n        /* \"#utility.yul\":19087:19698   */\n      pop\n      pop\n      pop\n        /* \"#utility.yul\":19050:19937   */\n    tag_345:\n      pop\n        /* \"#utility.yul\":18640:19943   */\n      pop\n      pop\n      pop\n        /* \"#utility.yul\":18548:19943   */\n      pop\n      pop\n      jump\t// out\n        /* \"#utility.yul\":19949:20129   */\n    tag_58:\n        /* \"#utility.yul\":19997:20074   */\n      0x4e487b7100000000000000000000000000000000000000000000000000000000\n        /* \"#utility.yul\":19994:19995   */\n      0x00\n        /* \"#utility.yul\":19987:20075   */\n      mstore\n        /* \"#utility.yul\":20094:20098   */\n      0x32\n        /* \"#utility.yul\":20091:20092   */\n      0x04\n        /* \"#utility.yul\":20084:20099   */\n      mstore\n        /* \"#utility.yul\":20118:20122   */\n      0x24\n        /* \"#utility.yul\":20115:20116   */\n      0x00\n        /* \"#utility.yul\":20108:20123   */\n      revert\n        /* \"#utility.yul\":20135:20297   */\n    tag_162:\n        /* \"#utility.yul\":20275:20289   */\n      0x4d69736520726571756973650000000000000000000000000000000000000000\n        /* \"#utility.yul\":20271:20272   */\n      0x00\n        /* \"#utility.yul\":20263:20269   */\n      dup3\n        /* \"#utility.yul\":20259:20273   */\n      add\n        /* \"#utility.yul\":20252:20290   */\n      mstore\n        /* \"#utility.yul\":20135:20297   */\n      pop\n      jump\t// out\n        /* \"#utility.yul\":20303:20669   */\n    tag_163:\n        /* \"#utility.yul\":20445:20448   */\n      0x00\n        /* \"#utility.yul\":20466:20533   */\n      tag_358\n        /* \"#utility.yul\":20530:20532   */\n      0x0c\n        /* \"#utility.yul\":20525:20528   */\n      dup4\n        /* \"#utility.yul\":20466:20533   */\n      tag_141\n      jump\t// in\n    tag_358:\n        /* \"#utility.yul\":20459:20533   */\n      swap2\n      pop\n        /* \"#utility.yul\":20542:20635   */\n      tag_359\n        /* \"#utility.yul\":20631:20634   */\n      dup3\n        /* \"#utility.yul\":20542:20635   */\n      tag_162\n      jump\t// in\n    tag_359:\n        /* \"#utility.yul\":20660:20662   */\n      0x20\n        /* \"#utility.yul\":20655:20658   */\n      dup3\n        /* \"#utility.yul\":20651:20663   */\n      add\n        /* \"#utility.yul\":20644:20663   */\n      swap1\n      pop\n        /* \"#utility.yul\":20303:20669   */\n      swap2\n      swap1\n      pop\n      jump\t// out\n        /* \"#utility.yul\":20675:21094   */\n    tag_64:\n        /* \"#utility.yul\":20841:20845   */\n      0x00\n        /* \"#utility.yul\":20879:20881   */\n      0x20\n        /* \"#utility.yul\":20868:20877   */\n      dup3\n        /* \"#utility.yul\":20864:20882   */\n      add\n        /* \"#utility.yul\":20856:20882   */\n      swap1\n      pop\n        /* \"#utility.yul\":20928:20937   */\n      dup2\n        /* \"#utility.yul\":20922:20926   */\n      dup2\n        /* \"#utility.yul\":20918:20938   */\n      sub\n        /* \"#utility.yul\":20914:20915   */\n      0x00\n        /* \"#utility.yul\":20903:20912   */\n      dup4\n        /* \"#utility.yul\":20899:20916   */\n      add\n        /* \"#utility.yul\":20892:20939   */\n      mstore\n        /* \"#utility.yul\":20956:21087   */\n      tag_361\n        /* \"#utility.yul\":21082:21086   */\n      dup2\n        /* \"#utility.yul\":20956:21087   */\n      tag_163\n      jump\t// in\n    tag_361:\n        /* \"#utility.yul\":20948:21087   */\n      swap1\n      pop\n        /* \"#utility.yul\":20675:21094   */\n      swap2\n      swap1\n      pop\n      jump\t// out\n        /* \"#utility.yul\":21100:21264   */\n    tag_164:\n        /* \"#utility.yul\":21240:21256   */\n      0x43686f697820696e76616c696465000000000000000000000000000000000000\n        /* \"#utility.yul\":21236:21237   */\n      0x00\n        /* \"#utility.yul\":21228:21234   */\n      dup3\n        /* \"#utility.yul\":21224:21238   */\n      add\n        /* \"#utility.yul\":21217:21257   */\n      mstore\n        /* \"#utility.yul\":21100:21264   */\n      pop\n      jump\t// out\n        /* \"#utility.yul\":21270:21636   */\n    tag_165:\n        /* \"#utility.yul\":21412:21415   */\n      0x00\n        /* \"#utility.yul\":21433:21500   */\n      tag_364\n        /* \"#utility.yul\":21497:21499   */\n      0x0e\n        /* \"#utility.yul\":21492:21495   */\n      dup4\n        /* \"#utility.yul\":21433:21500   */\n      tag_141\n      jump\t// in\n    tag_364:\n        /* \"#utility.yul\":21426:21500   */\n      swap2\n      pop\n        /* \"#utility.yul\":21509:21602   */\n      tag_365\n        /* \"#utility.yul\":21598:21601   */\n      dup3\n        /* \"#utility.yul\":21509:21602   */\n      tag_164\n      jump\t// in\n    tag_365:\n        /* \"#utility.yul\":21627:21629   */\n      0x20\n        /* \"#utility.yul\":21622:21625   */\n      dup3\n        /* \"#utility.yul\":21618:21630   */\n      add\n        /* \"#utility.yul\":21611:21630   */\n      swap1\n      pop\n        /* \"#utility.yul\":21270:21636   */\n      swap2\n      swap1\n      pop\n      jump\t// out\n        /* \"#utility.yul\":21642:22061   */\n    tag_67:\n        /* \"#utility.yul\":21808:21812   */\n      0x00\n        /* \"#utility.yul\":21846:21848   */\n      0x20\n        /* \"#utility.yul\":21835:21844   */\n      dup3\n        /* \"#utility.yul\":21831:21849   */\n      add\n        /* \"#utility.yul\":21823:21849   */\n      swap1\n      pop\n        /* \"#utility.yul\":21895:21904   */\n      dup2\n        /* \"#utility.yul\":21889:21893   */\n      dup2\n        /* \"#utility.yul\":21885:21905   */\n      sub\n        /* \"#utility.yul\":21881:21882   */\n      0x00\n        /* \"#utility.yul\":21870:21879   */\n      dup4\n        /* \"#utility.yul\":21866:21883   */\n      add\n        /* \"#utility.yul\":21859:21906   */\n      mstore\n        /* \"#utility.yul\":21923:22054   */\n      tag_367\n        /* \"#utility.yul\":22049:22053   */\n      dup2\n        /* \"#utility.yul\":21923:22054   */\n      tag_165\n      jump\t// in\n    tag_367:\n        /* \"#utility.yul\":21915:22054   */\n      swap1\n      pop\n        /* \"#utility.yul\":21642:22061   */\n      swap2\n      swap1\n      pop\n      jump\t// out\n        /* \"#utility.yul\":22067:22233   */\n    tag_166:\n        /* \"#utility.yul\":22207:22225   */\n      0x4d6174636820696e6578697374616e7400000000000000000000000000000000\n        /* \"#utility.yul\":22203:22204   */\n      0x00\n        /* \"#utility.yul\":22195:22201   */\n      dup3\n        /* \"#utility.yul\":22191:22205   */\n      add\n        /* \"#utility.yul\":22184:22226   */\n      mstore\n        /* \"#utility.yul\":22067:22233   */\n      pop\n      jump\t// out\n        /* \"#utility.yul\":22239:22605   */\n    tag_167:\n        /* \"#utility.yul\":22381:22384   */\n      0x00\n        /* \"#utility.yul\":22402:22469   */\n      tag_370\n        /* \"#utility.yul\":22466:22468   */\n      0x10\n        /* \"#utility.yul\":22461:22464   */\n      dup4\n        /* \"#utility.yul\":22402:22469   */\n      tag_141\n      jump\t// in\n    tag_370:\n        /* \"#utility.yul\":22395:22469   */\n      swap2\n      pop\n        /* \"#utility.yul\":22478:22571   */\n      tag_371\n        /* \"#utility.yul\":22567:22570   */\n      dup3\n        /* \"#utility.yul\":22478:22571   */\n      tag_166\n      jump\t// in\n    tag_371:\n        /* \"#utility.yul\":22596:22598   */\n      0x20\n        /* \"#utility.yul\":22591:22594   */\n      dup3\n        /* \"#utility.yul\":22587:22599   */\n      add\n        /* \"#utility.yul\":22580:22599   */\n      swap1\n      pop\n        /* \"#utility.yul\":22239:22605   */\n      swap2\n      swap1\n      pop\n      jump\t// out\n        /* \"#utility.yul\":22611:23030   */\n    tag_71:\n        /* \"#utility.yul\":22777:22781   */\n      0x00\n        /* \"#utility.yul\":22815:22817   */\n      0x20\n        /* \"#utility.yul\":22804:22813   */\n      dup3\n        /* \"#utility.yul\":22800:22818   */\n      add\n        /* \"#utility.yul\":22792:22818   */\n      swap1\n      pop\n        /* \"#utility.yul\":22864:22873   */\n      dup2\n        /* \"#utility.yul\":22858:22862   */\n      dup2\n        /* \"#utility.yul\":22854:22874   */\n      sub\n        /* \"#utility.yul\":22850:22851   */\n      0x00\n        /* \"#utility.yul\":22839:22848   */\n      dup4\n        /* \"#utility.yul\":22835:22852   */\n      add\n        /* \"#utility.yul\":22828:22875   */\n      mstore\n        /* \"#utility.yul\":22892:23023   */\n      tag_373\n        /* \"#utility.yul\":23018:23022   */\n      dup2\n        /* \"#utility.yul\":22892:23023   */\n      tag_167\n      jump\t// in\n    tag_373:\n        /* \"#utility.yul\":22884:23023   */\n      swap1\n      pop\n        /* \"#utility.yul\":22611:23030   */\n      swap2\n      swap1\n      pop\n      jump\t// out\n\n    auxdata: 0xa26469706673582212208f5d1dacfeff21736da8893e6261193fc9e4315e34238816c6735828a469ea0964736f6c634300081a0033\n}\n",
				"bytecode": {
					"linkReferences": {},
					"object": "6080604052348015600e575f80fd5b50335f806101000a81548173ffffffffffffffffffffffffffffffffffffffff021916908373ffffffffffffffffffffffffffffffffffffffff1602179055506114f78061005b5f395ff3fe60806040526004361061003e575f3560e01c80635f3823031461004257806399535bd71461006a578063a648567b14610094578063c17c5a45146100b0575b5f80fd5b34801561004d575f80fd5b5061006860048036038101906100639190610bb5565b6100da565b005b348015610075575f80fd5b5061007e6102fe565b60405161008b9190610d73565b60405180910390f35b6100ae60048036038101906100a99190610d93565b6104e4565b005b3480156100bb575f80fd5b506100c46106ec565b6040516100d19190610f6d565b60405180910390f35b5f8054906101000a900473ffffffffffffffffffffffffffffffffffffffff1673ffffffffffffffffffffffffffffffffffffffff163373ffffffffffffffffffffffffffffffffffffffff1614610167576040517f08c379a000000000000000000000000000000000000000000000000000000000815260040161015e9061100d565b60405180910390fd5b5f60015f8760ff1660ff1681526020019081526020015f20600101805461018d90611058565b9050146101cf576040517f08c379a00000000000000000000000000000000000000000000000000000000081526004016101c6906110d2565b60405180910390fd5b5f8251036101e95760405180602001604052805f81525091505b6040518060a001604052808660ff1681526020018581526020018481526020015f8451146102175783610227565b60405180602001604052805f8152505b81526020018281525060015f8760ff1660ff1681526020019081526020015f205f820151815f015f6101000a81548160ff021916908360ff160217905550602082015181600101908161027a919061128d565b506040820151816002019081610290919061128d565b5060608201518160030190816102a6919061128d565b5060808201518160040155905050600285908060018154018082558091505060019003905f5260205f2090602091828204019190069091909190916101000a81548160ff021916908360ff1602179055505050505050565b60605f60045f3373ffffffffffffffffffffffffffffffffffffffff1673ffffffffffffffffffffffffffffffffffffffff1681526020019081526020015f208054806020026020016040519081016040528092919081815260200182805480156103aa57602002820191905f5260205f20905f905b82829054906101000a900460ff1660ff16815260200190600101906020825f010492830192600103820291508084116103745790505b505050505090505f815167ffffffffffffffff8111156103cd576103cc610a5e565b5b60405190808252806020026020018201604052801561040657816020015b6103f36109b4565b8152602001906001900390816103eb5790505b5090505f5b82518110156104db5760035f84838151811061042a5761042961135c565b5b602002602001015160ff1660ff1681526020019081526020015f205f3373ffffffffffffffffffffffffffffffffffffffff1673ffffffffffffffffffffffffffffffffffffffff1681526020019081526020015f206040518060400160405290815f8201548152602001600182015f9054906101000a900460ff1660ff1660ff16815250508282815181106104c3576104c261135c565b5b6020026020010181905250808060010191505061040b565b50809250505090565b5f3411610526576040517f08c379a000000000000000000000000000000000000000000000000000000000815260040161051d906113d3565b60405180910390fd5b60028160ff16111561056d576040517f08c379a00000000000000000000000000000000000000000000000000000000081526004016105649061143b565b60405180910390fd5b5f60015f8460ff1660ff1681526020019081526020015f20600101805461059390611058565b9050036105d5576040517f08c379a00000000000000000000000000000000000000000000000000000000081526004016105cc906114a3565b60405180910390fd5b60405180604001604052803481526020018260ff1681525060035f8460ff1660ff1681526020019081526020015f205f3373ffffffffffffffffffffffffffffffffffffffff1673ffffffffffffffffffffffffffffffffffffffff1681526020019081526020015f205f820151815f01556020820151816001015f6101000a81548160ff021916908360ff16021790555090505060045f3373ffffffffffffffffffffffffffffffffffffffff1673ffffffffffffffffffffffffffffffffffffffff1681526020019081526020015f2082908060018154018082558091505060019003905f5260205f2090602091828204019190069091909190916101000a81548160ff021916908360ff1602179055505050565b60605f60028054905067ffffffffffffffff81111561070e5761070d610a5e565b5b60405190808252806020026020018201604052801561074757816020015b6107346109cf565b81526020019060019003908161072c5790505b5090505f5b6002805490508110156109ac5760015f600283815481106107705761076f61135c565b5b905f5260205f2090602091828204019190069054906101000a900460ff1660ff1660ff1681526020019081526020015f206040518060a00160405290815f82015f9054906101000a900460ff1660ff1660ff1681526020016001820180546107d790611058565b80601f016020809104026020016040519081016040528092919081815260200182805461080390611058565b801561084e5780601f106108255761010080835404028352916020019161084e565b820191905f5260205f20905b81548152906001019060200180831161083157829003601f168201915b5050505050815260200160028201805461086790611058565b80601f016020809104026020016040519081016040528092919081815260200182805461089390611058565b80156108de5780601f106108b5576101008083540402835291602001916108de565b820191905f5260205f20905b8154815290600101906020018083116108c157829003601f168201915b505050505081526020016003820180546108f790611058565b80601f016020809104026020016040519081016040528092919081815260200182805461092390611058565b801561096e5780601f106109455761010080835404028352916020019161096e565b820191905f5260205f20905b81548152906001019060200180831161095157829003601f168201915b505050505081526020016004820154815250508282815181106109945761099361135c565b5b6020026020010181905250808060010191505061074c565b508091505090565b60405180604001604052805f81526020015f60ff1681525090565b6040518060a001604052805f60ff1681526020016060815260200160608152602001606081526020015f81525090565b5f604051905090565b5f80fd5b5f80fd5b5f60ff82169050919050565b610a2581610a10565b8114610a2f575f80fd5b50565b5f81359050610a4081610a1c565b92915050565b5f80fd5b5f80fd5b5f601f19601f8301169050919050565b7f4e487b71000000000000000000000000000000000000000000000000000000005f52604160045260245ffd5b610a9482610a4e565b810181811067ffffffffffffffff82111715610ab357610ab2610a5e565b5b80604052505050565b5f610ac56109ff565b9050610ad18282610a8b565b919050565b5f67ffffffffffffffff821115610af057610aef610a5e565b5b610af982610a4e565b9050602081019050919050565b828183375f83830152505050565b5f610b26610b2184610ad6565b610abc565b905082815260208101848484011115610b4257610b41610a4a565b5b610b4d848285610b06565b509392505050565b5f82601f830112610b6957610b68610a46565b5b8135610b79848260208601610b14565b91505092915050565b5f819050919050565b610b9481610b82565b8114610b9e575f80fd5b50565b5f81359050610baf81610b8b565b92915050565b5f805f805f60a08688031215610bce57610bcd610a08565b5b5f610bdb88828901610a32565b955050602086013567ffffffffffffffff811115610bfc57610bfb610a0c565b5b610c0888828901610b55565b945050604086013567ffffffffffffffff811115610c2957610c28610a0c565b5b610c3588828901610b55565b935050606086013567ffffffffffffffff811115610c5657610c55610a0c565b5b610c6288828901610b55565b9250506080610c7388828901610ba1565b9150509295509295909350565b5f81519050919050565b5f82825260208201905092915050565b5f819050602082019050919050565b610cb281610b82565b82525050565b610cc181610a10565b82525050565b604082015f820151610cdb5f850182610ca9565b506020820151610cee6020850182610cb8565b50505050565b5f610cff8383610cc7565b60408301905092915050565b5f602082019050919050565b5f610d2182610c80565b610d2b8185610c8a565b9350610d3683610c9a565b805f5b83811015610d66578151610d4d8882610cf4565b9750610d5883610d0b565b925050600181019050610d39565b5085935050505092915050565b5f6020820190508181035f830152610d8b8184610d17565b905092915050565b5f8060408385031215610da957610da8610a08565b5b5f610db685828601610a32565b9250506020610dc785828601610a32565b9150509250929050565b5f81519050919050565b5f82825260208201905092915050565b5f819050602082019050919050565b5f81519050919050565b5f82825260208201905092915050565b8281835e5f83830152505050565b5f610e2c82610dfa565b610e368185610e04565b9350610e46818560208601610e14565b610e4f81610a4e565b840191505092915050565b5f60a083015f830151610e6f5f860182610cb8565b5060208301518482036020860152610e878282610e22565b91505060408301518482036040860152610ea18282610e22565b91505060608301518482036060860152610ebb8282610e22565b9150506080830151610ed06080860182610ca9565b508091505092915050565b5f610ee68383610e5a565b905092915050565b5f602082019050919050565b5f610f0482610dd1565b610f0e8185610ddb565b935083602082028501610f2085610deb565b805f5b85811015610f5b5784840389528151610f3c8582610edb565b9450610f4783610eee565b925060208a01995050600181019050610f23565b50829750879550505050505092915050565b5f6020820190508181035f830152610f858184610efa565b905092915050565b5f82825260208201905092915050565b7f5365756c206c2761646d696e207065757420617070656c6572206365747465205f8201527f666f6e6374696f6e000000000000000000000000000000000000000000000000602082015250565b5f610ff7602883610f8d565b915061100282610f9d565b604082019050919050565b5f6020820190508181035f83015261102481610feb565b9050919050565b7f4e487b71000000000000000000000000000000000000000000000000000000005f52602260045260245ffd5b5f600282049050600182168061106f57607f821691505b6020821081036110825761108161102b565b5b50919050565b7f4d617463682064656a61206578697374616e74000000000000000000000000005f82015250565b5f6110bc601383610f8d565b91506110c782611088565b602082019050919050565b5f6020820190508181035f8301526110e9816110b0565b9050919050565b5f819050815f5260205f209050919050565b5f6020601f8301049050919050565b5f82821b905092915050565b5f6008830261114c7fffffffffffffffffffffffffffffffffffffffffffffffffffffffffffffffff82611111565b6111568683611111565b95508019841693508086168417925050509392505050565b5f819050919050565b5f61119161118c61118784610b82565b61116e565b610b82565b9050919050565b5f819050919050565b6111aa83611177565b6111be6111b682611198565b84845461111d565b825550505050565b5f90565b6111d26111c6565b6111dd8184846111a1565b505050565b5b81811015611200576111f55f826111ca565b6001810190506111e3565b5050565b601f82111561124557611216816110f0565b61121f84611102565b8101602085101561122e578190505b61124261123a85611102565b8301826111e2565b50505b505050565b5f82821c905092915050565b5f6112655f198460080261124a565b1980831691505092915050565b5f61127d8383611256565b9150826002028217905092915050565b61129682610dfa565b67ffffffffffffffff8111156112af576112ae610a5e565b5b6112b98254611058565b6112c4828285611204565b5f60209050601f8311600181146112f5575f84156112e3578287015190505b6112ed8582611272565b865550611354565b601f198416611303866110f0565b5f5b8281101561132a57848901518255600182019150602085019450602081019050611305565b868310156113475784890151611343601f891682611256565b8355505b6001600288020188555050505b505050505050565b7f4e487b71000000000000000000000000000000000000000000000000000000005f52603260045260245ffd5b7f4d697365207265717569736500000000000000000000000000000000000000005f82015250565b5f6113bd600c83610f8d565b91506113c882611389565b602082019050919050565b5f6020820190508181035f8301526113ea816113b1565b9050919050565b7f43686f697820696e76616c6964650000000000000000000000000000000000005f82015250565b5f611425600e83610f8d565b9150611430826113f1565b602082019050919050565b5f6020820190508181035f83015261145281611419565b9050919050565b7f4d6174636820696e6578697374616e74000000000000000000000000000000005f82015250565b5f61148d601083610f8d565b915061149882611459565b602082019050919050565b5f6020820190508181035f8301526114ba81611481565b905091905056fea26469706673582212208f5d1dacfeff21736da8893e6261193fc9e4315e34238816c6735828a469ea0964736f6c634300081a0033",
					"opcodes": "PUSH1 0x80 PUSH1 0x40 MSTORE CALLVALUE DUP1 ISZERO PUSH1 0xE JUMPI PUSH0 DUP1 REVERT JUMPDEST POP CALLER PUSH0 DUP1 PUSH2 0x100 EXP DUP2 SLOAD DUP2 PUSH20 0xFFFFFFFFFFFFFFFFFFFFFFFFFFFFFFFFFFFFFFFF MUL NOT AND SWAP1 DUP4 PUSH20 0xFFFFFFFFFFFFFFFFFFFFFFFFFFFFFFFFFFFFFFFF AND MUL OR SWAP1 SSTORE POP PUSH2 0x14F7 DUP1 PUSH2 0x5B PUSH0 CODECOPY PUSH0 RETURN INVALID PUSH1 0x80 PUSH1 0x40 MSTORE PUSH1 0x4 CALLDATASIZE LT PUSH2 0x3E JUMPI PUSH0 CALLDATALOAD PUSH1 0xE0 SHR DUP1 PUSH4 0x5F382303 EQ PUSH2 0x42 JUMPI DUP1 PUSH4 0x99535BD7 EQ PUSH2 0x6A JUMPI DUP1 PUSH4 0xA648567B EQ PUSH2 0x94 JUMPI DUP1 PUSH4 0xC17C5A45 EQ PUSH2 0xB0 JUMPI JUMPDEST PUSH0 DUP1 REVERT JUMPDEST CALLVALUE DUP1 ISZERO PUSH2 0x4D JUMPI PUSH0 DUP1 REVERT JUMPDEST POP PUSH2 0x68 PUSH1 0x4 DUP1 CALLDATASIZE SUB DUP2 ADD SWAP1 PUSH2 0x63 SWAP2 SWAP1 PUSH2 0xBB5 JUMP JUMPDEST PUSH2 0xDA JUMP JUMPDEST STOP JUMPDEST CALLVALUE DUP1 ISZERO PUSH2 0x75 JUMPI PUSH0 DUP1 REVERT JUMPDEST POP PUSH2 0x7E PUSH2 0x2FE JUMP JUMPDEST PUSH1 0x40 MLOAD PUSH2 0x8B SWAP2 SWAP1 PUSH2 0xD73 JUMP JUMPDEST PUSH1 0x40 MLOAD DUP1 SWAP2 SUB SWAP1 RETURN JUMPDEST PUSH2 0xAE PUSH1 0x4 DUP1 CALLDATASIZE SUB DUP2 ADD SWAP1 PUSH2 0xA9 SWAP2 SWAP1 PUSH2 0xD93 JUMP JUMPDEST PUSH2 0x4E4 JUMP JUMPDEST STOP JUMPDEST CALLVALUE DUP1 ISZERO PUSH2 0xBB JUMPI PUSH0 DUP1 REVERT JUMPDEST POP PUSH2 0xC4 PUSH2 0x6EC JUMP JUMPDEST PUSH1 0x40 MLOAD PUSH2 0xD1 SWAP2 SWAP1 PUSH2 0xF6D JUMP JUMPDEST PUSH1 0x40 MLOAD DUP1 SWAP2 SUB SWAP1 RETURN JUMPDEST PUSH0 DUP1 SLOAD SWAP1 PUSH2 0x100 EXP SWAP1 DIV PUSH20 0xFFFFFFFFFFFFFFFFFFFFFFFFFFFFFFFFFFFFFFFF AND PUSH20 0xFFFFFFFFFFFFFFFFFFFFFFFFFFFFFFFFFFFFFFFF AND CALLER PUSH20 0xFFFFFFFFFFFFFFFFFFFFFFFFFFFFFFFFFFFFFFFF AND EQ PUSH2 0x167 JUMPI PUSH1 0x40 MLOAD PUSH32 0x8C379A000000000000000000000000000000000000000000000000000000000 DUP2 MSTORE PUSH1 0x4 ADD PUSH2 0x15E SWAP1 PUSH2 0x100D JUMP JUMPDEST PUSH1 0x40 MLOAD DUP1 SWAP2 SUB SWAP1 REVERT JUMPDEST PUSH0 PUSH1 0x1 PUSH0 DUP8 PUSH1 0xFF AND PUSH1 0xFF AND DUP2 MSTORE PUSH1 0x20 ADD SWAP1 DUP2 MSTORE PUSH1 0x20 ADD PUSH0 KECCAK256 PUSH1 0x1 ADD DUP1 SLOAD PUSH2 0x18D SWAP1 PUSH2 0x1058 JUMP JUMPDEST SWAP1 POP EQ PUSH2 0x1CF JUMPI PUSH1 0x40 MLOAD PUSH32 0x8C379A000000000000000000000000000000000000000000000000000000000 DUP2 MSTORE PUSH1 0x4 ADD PUSH2 0x1C6 SWAP1 PUSH2 0x10D2 JUMP JUMPDEST PUSH1 0x40 MLOAD DUP1 SWAP2 SUB SWAP1 REVERT JUMPDEST PUSH0 DUP3 MLOAD SUB PUSH2 0x1E9 JUMPI PUSH1 0x40 MLOAD DUP1 PUSH1 0x20 ADD PUSH1 0x40 MSTORE DUP1 PUSH0 DUP2 MSTORE POP SWAP2 POP JUMPDEST PUSH1 0x40 MLOAD DUP1 PUSH1 0xA0 ADD PUSH1 0x40 MSTORE DUP1 DUP7 PUSH1 0xFF AND DUP2 MSTORE PUSH1 0x20 ADD DUP6 DUP2 MSTORE PUSH1 0x20 ADD DUP5 DUP2 MSTORE PUSH1 0x20 ADD PUSH0 DUP5 MLOAD EQ PUSH2 0x217 JUMPI DUP4 PUSH2 0x227 JUMP JUMPDEST PUSH1 0x40 MLOAD DUP1 PUSH1 0x20 ADD PUSH1 0x40 MSTORE DUP1 PUSH0 DUP2 MSTORE POP JUMPDEST DUP2 MSTORE PUSH1 0x20 ADD DUP3 DUP2 MSTORE POP PUSH1 0x1 PUSH0 DUP8 PUSH1 0xFF AND PUSH1 0xFF AND DUP2 MSTORE PUSH1 0x20 ADD SWAP1 DUP2 MSTORE PUSH1 0x20 ADD PUSH0 KECCAK256 PUSH0 DUP3 ADD MLOAD DUP2 PUSH0 ADD PUSH0 PUSH2 0x100 EXP DUP2 SLOAD DUP2 PUSH1 0xFF MUL NOT AND SWAP1 DUP4 PUSH1 0xFF AND MUL OR SWAP1 SSTORE POP PUSH1 0x20 DUP3 ADD MLOAD DUP2 PUSH1 0x1 ADD SWAP1 DUP2 PUSH2 0x27A SWAP2 SWAP1 PUSH2 0x128D JUMP JUMPDEST POP PUSH1 0x40 DUP3 ADD MLOAD DUP2 PUSH1 0x2 ADD SWAP1 DUP2 PUSH2 0x290 SWAP2 SWAP1 PUSH2 0x128D JUMP JUMPDEST POP PUSH1 0x60 DUP3 ADD MLOAD DUP2 PUSH1 0x3 ADD SWAP1 DUP2 PUSH2 0x2A6 SWAP2 SWAP1 PUSH2 0x128D JUMP JUMPDEST POP PUSH1 0x80 DUP3 ADD MLOAD DUP2 PUSH1 0x4 ADD SSTORE SWAP1 POP POP PUSH1 0x2 DUP6 SWAP1 DUP1 PUSH1 0x1 DUP2 SLOAD ADD DUP1 DUP3 SSTORE DUP1 SWAP2 POP POP PUSH1 0x1 SWAP1 SUB SWAP1 PUSH0 MSTORE PUSH1 0x20 PUSH0 KECCAK256 SWAP1 PUSH1 0x20 SWAP2 DUP3 DUP3 DIV ADD SWAP2 SWAP1 MOD SWAP1 SWAP2 SWAP1 SWAP2 SWAP1 SWAP2 PUSH2 0x100 EXP DUP2 SLOAD DUP2 PUSH1 0xFF MUL NOT AND SWAP1 DUP4 PUSH1 0xFF AND MUL OR SWAP1 SSTORE POP POP POP POP POP POP JUMP JUMPDEST PUSH1 0x60 PUSH0 PUSH1 0x4 PUSH0 CALLER PUSH20 0xFFFFFFFFFFFFFFFFFFFFFFFFFFFFFFFFFFFFFFFF AND PUSH20 0xFFFFFFFFFFFFFFFFFFFFFFFFFFFFFFFFFFFFFFFF AND DUP2 MSTORE PUSH1 0x20 ADD SWAP1 DUP2 MSTORE PUSH1 0x20 ADD PUSH0 KECCAK256 DUP1 SLOAD DUP1 PUSH1 0x20 MUL PUSH1 0x20 ADD PUSH1 0x40 MLOAD SWAP1 DUP2 ADD PUSH1 0x40 MSTORE DUP1 SWAP3 SWAP2 SWAP1 DUP2 DUP2 MSTORE PUSH1 0x20 ADD DUP3 DUP1 SLOAD DUP1 ISZERO PUSH2 0x3AA JUMPI PUSH1 0x20 MUL DUP3 ADD SWAP2 SWAP1 PUSH0 MSTORE PUSH1 0x20 PUSH0 KECCAK256 SWAP1 PUSH0 SWAP1 JUMPDEST DUP3 DUP3 SWAP1 SLOAD SWAP1 PUSH2 0x100 EXP SWAP1 DIV PUSH1 0xFF AND PUSH1 0xFF AND DUP2 MSTORE PUSH1 0x20 ADD SWAP1 PUSH1 0x1 ADD SWAP1 PUSH1 0x20 DUP3 PUSH0 ADD DIV SWAP3 DUP4 ADD SWAP3 PUSH1 0x1 SUB DUP3 MUL SWAP2 POP DUP1 DUP5 GT PUSH2 0x374 JUMPI SWAP1 POP JUMPDEST POP POP POP POP POP SWAP1 POP PUSH0 DUP2 MLOAD PUSH8 0xFFFFFFFFFFFFFFFF DUP2 GT ISZERO PUSH2 0x3CD JUMPI PUSH2 0x3CC PUSH2 0xA5E JUMP JUMPDEST JUMPDEST PUSH1 0x40 MLOAD SWAP1 DUP1 DUP3 MSTORE DUP1 PUSH1 0x20 MUL PUSH1 0x20 ADD DUP3 ADD PUSH1 0x40 MSTORE DUP1 ISZERO PUSH2 0x406 JUMPI DUP2 PUSH1 0x20 ADD JUMPDEST PUSH2 0x3F3 PUSH2 0x9B4 JUMP JUMPDEST DUP2 MSTORE PUSH1 0x20 ADD SWAP1 PUSH1 0x1 SWAP1 SUB SWAP1 DUP2 PUSH2 0x3EB JUMPI SWAP1 POP JUMPDEST POP SWAP1 POP PUSH0 JUMPDEST DUP3 MLOAD DUP2 LT ISZERO PUSH2 0x4DB JUMPI PUSH1 0x3 PUSH0 DUP5 DUP4 DUP2 MLOAD DUP2 LT PUSH2 0x42A JUMPI PUSH2 0x429 PUSH2 0x135C JUMP JUMPDEST JUMPDEST PUSH1 0x20 MUL PUSH1 0x20 ADD ADD MLOAD PUSH1 0xFF AND PUSH1 0xFF AND DUP2 MSTORE PUSH1 0x20 ADD SWAP1 DUP2 MSTORE PUSH1 0x20 ADD PUSH0 KECCAK256 PUSH0 CALLER PUSH20 0xFFFFFFFFFFFFFFFFFFFFFFFFFFFFFFFFFFFFFFFF AND PUSH20 0xFFFFFFFFFFFFFFFFFFFFFFFFFFFFFFFFFFFFFFFF AND DUP2 MSTORE PUSH1 0x20 ADD SWAP1 DUP2 MSTORE PUSH1 0x20 ADD PUSH0 KECCAK256 PUSH1 0x40 MLOAD DUP1 PUSH1 0x40 ADD PUSH1 0x40 MSTORE SWAP1 DUP2 PUSH0 DUP3 ADD SLOAD DUP2 MSTORE PUSH1 0x20 ADD PUSH1 0x1 DUP3 ADD PUSH0 SWAP1 SLOAD SWAP1 PUSH2 0x100 EXP SWAP1 DIV PUSH1 0xFF AND PUSH1 0xFF AND PUSH1 0xFF AND DUP2 MSTORE POP POP DUP3 DUP3 DUP2 MLOAD DUP2 LT PUSH2 0x4C3 JUMPI PUSH2 0x4C2 PUSH2 0x135C JUMP JUMPDEST JUMPDEST PUSH1 0x20 MUL PUSH1 0x20 ADD ADD DUP2 SWAP1 MSTORE POP DUP1 DUP1 PUSH1 0x1 ADD SWAP2 POP POP PUSH2 0x40B JUMP JUMPDEST POP DUP1 SWAP3 POP POP POP SWAP1 JUMP JUMPDEST PUSH0 CALLVALUE GT PUSH2 0x526 JUMPI PUSH1 0x40 MLOAD PUSH32 0x8C379A000000000000000000000000000000000000000000000000000000000 DUP2 MSTORE PUSH1 0x4 ADD PUSH2 0x51D SWAP1 PUSH2 0x13D3 JUMP JUMPDEST PUSH1 0x40 MLOAD DUP1 SWAP2 SUB SWAP1 REVERT JUMPDEST PUSH1 0x2 DUP2 PUSH1 0xFF AND GT ISZERO PUSH2 0x56D JUMPI PUSH1 0x40 MLOAD PUSH32 0x8C379A000000000000000000000000000000000000000000000000000000000 DUP2 MSTORE PUSH1 0x4 ADD PUSH2 0x564 SWAP1 PUSH2 0x143B JUMP JUMPDEST PUSH1 0x40 MLOAD DUP1 SWAP2 SUB SWAP1 REVERT JUMPDEST PUSH0 PUSH1 0x1 PUSH0 DUP5 PUSH1 0xFF AND PUSH1 0xFF AND DUP2 MSTORE PUSH1 0x20 ADD SWAP1 DUP2 MSTORE PUSH1 0x20 ADD PUSH0 KECCAK256 PUSH1 0x1 ADD DUP1 SLOAD PUSH2 0x593 SWAP1 PUSH2 0x1058 JUMP JUMPDEST SWAP1 POP SUB PUSH2 0x5D5 JUMPI PUSH1 0x40 MLOAD PUSH32 0x8C379A000000000000000000000000000000000000000000000000000000000 DUP2 MSTORE PUSH1 0x4 ADD PUSH2 0x5CC SWAP1 PUSH2 0x14A3 JUMP JUMPDEST PUSH1 0x40 MLOAD DUP1 SWAP2 SUB SWAP1 REVERT JUMPDEST PUSH1 0x40 MLOAD DUP1 PUSH1 0x40 ADD PUSH1 0x40 MSTORE DUP1 CALLVALUE DUP2 MSTORE PUSH1 0x20 ADD DUP3 PUSH1 0xFF AND DUP2 MSTORE POP PUSH1 0x3 PUSH0 DUP5 PUSH1 0xFF AND PUSH1 0xFF AND DUP2 MSTORE PUSH1 0x20 ADD SWAP1 DUP2 MSTORE PUSH1 0x20 ADD PUSH0 KECCAK256 PUSH0 CALLER PUSH20 0xFFFFFFFFFFFFFFFFFFFFFFFFFFFFFFFFFFFFFFFF AND PUSH20 0xFFFFFFFFFFFFFFFFFFFFFFFFFFFFFFFFFFFFFFFF AND DUP2 MSTORE PUSH1 0x20 ADD SWAP1 DUP2 MSTORE PUSH1 0x20 ADD PUSH0 KECCAK256 PUSH0 DUP3 ADD MLOAD DUP2 PUSH0 ADD SSTORE PUSH1 0x20 DUP3 ADD MLOAD DUP2 PUSH1 0x1 ADD PUSH0 PUSH2 0x100 EXP DUP2 SLOAD DUP2 PUSH1 0xFF MUL NOT AND SWAP1 DUP4 PUSH1 0xFF AND MUL OR SWAP1 SSTORE POP SWAP1 POP POP PUSH1 0x4 PUSH0 CALLER PUSH20 0xFFFFFFFFFFFFFFFFFFFFFFFFFFFFFFFFFFFFFFFF AND PUSH20 0xFFFFFFFFFFFFFFFFFFFFFFFFFFFFFFFFFFFFFFFF AND DUP2 MSTORE PUSH1 0x20 ADD SWAP1 DUP2 MSTORE PUSH1 0x20 ADD PUSH0 KECCAK256 DUP3 SWAP1 DUP1 PUSH1 0x1 DUP2 SLOAD ADD DUP1 DUP3 SSTORE DUP1 SWAP2 POP POP PUSH1 0x1 SWAP1 SUB SWAP1 PUSH0 MSTORE PUSH1 0x20 PUSH0 KECCAK256 SWAP1 PUSH1 0x20 SWAP2 DUP3 DUP3 DIV ADD SWAP2 SWAP1 MOD SWAP1 SWAP2 SWAP1 SWAP2 SWAP1 SWAP2 PUSH2 0x100 EXP DUP2 SLOAD DUP2 PUSH1 0xFF MUL NOT AND SWAP1 DUP4 PUSH1 0xFF AND MUL OR SWAP1 SSTORE POP POP POP JUMP JUMPDEST PUSH1 0x60 PUSH0 PUSH1 0x2 DUP1 SLOAD SWAP1 POP PUSH8 0xFFFFFFFFFFFFFFFF DUP2 GT ISZERO PUSH2 0x70E JUMPI PUSH2 0x70D PUSH2 0xA5E JUMP JUMPDEST JUMPDEST PUSH1 0x40 MLOAD SWAP1 DUP1 DUP3 MSTORE DUP1 PUSH1 0x20 MUL PUSH1 0x20 ADD DUP3 ADD PUSH1 0x40 MSTORE DUP1 ISZERO PUSH2 0x747 JUMPI DUP2 PUSH1 0x20 ADD JUMPDEST PUSH2 0x734 PUSH2 0x9CF JUMP JUMPDEST DUP2 MSTORE PUSH1 0x20 ADD SWAP1 PUSH1 0x1 SWAP1 SUB SWAP1 DUP2 PUSH2 0x72C JUMPI SWAP1 POP JUMPDEST POP SWAP1 POP PUSH0 JUMPDEST PUSH1 0x2 DUP1 SLOAD SWAP1 POP DUP2 LT ISZERO PUSH2 0x9AC JUMPI PUSH1 0x1 PUSH0 PUSH1 0x2 DUP4 DUP2 SLOAD DUP2 LT PUSH2 0x770 JUMPI PUSH2 0x76F PUSH2 0x135C JUMP JUMPDEST JUMPDEST SWAP1 PUSH0 MSTORE PUSH1 0x20 PUSH0 KECCAK256 SWAP1 PUSH1 0x20 SWAP2 DUP3 DUP3 DIV ADD SWAP2 SWAP1 MOD SWAP1 SLOAD SWAP1 PUSH2 0x100 EXP SWAP1 DIV PUSH1 0xFF AND PUSH1 0xFF AND PUSH1 0xFF AND DUP2 MSTORE PUSH1 0x20 ADD SWAP1 DUP2 MSTORE PUSH1 0x20 ADD PUSH0 KECCAK256 PUSH1 0x40 MLOAD DUP1 PUSH1 0xA0 ADD PUSH1 0x40 MSTORE SWAP1 DUP2 PUSH0 DUP3 ADD PUSH0 SWAP1 SLOAD SWAP1 PUSH2 0x100 EXP SWAP1 DIV PUSH1 0xFF AND PUSH1 0xFF AND PUSH1 0xFF AND DUP2 MSTORE PUSH1 0x20 ADD PUSH1 0x1 DUP3 ADD DUP1 SLOAD PUSH2 0x7D7 SWAP1 PUSH2 0x1058 JUMP JUMPDEST DUP1 PUSH1 0x1F ADD PUSH1 0x20 DUP1 SWAP2 DIV MUL PUSH1 0x20 ADD PUSH1 0x40 MLOAD SWAP1 DUP2 ADD PUSH1 0x40 MSTORE DUP1 SWAP3 SWAP2 SWAP1 DUP2 DUP2 MSTORE PUSH1 0x20 ADD DUP3 DUP1 SLOAD PUSH2 0x803 SWAP1 PUSH2 0x1058 JUMP JUMPDEST DUP1 ISZERO PUSH2 0x84E JUMPI DUP1 PUSH1 0x1F LT PUSH2 0x825 JUMPI PUSH2 0x100 DUP1 DUP4 SLOAD DIV MUL DUP4 MSTORE SWAP2 PUSH1 0x20 ADD SWAP2 PUSH2 0x84E JUMP JUMPDEST DUP3 ADD SWAP2 SWAP1 PUSH0 MSTORE PUSH1 0x20 PUSH0 KECCAK256 SWAP1 JUMPDEST DUP2 SLOAD DUP2 MSTORE SWAP1 PUSH1 0x1 ADD SWAP1 PUSH1 0x20 ADD DUP1 DUP4 GT PUSH2 0x831 JUMPI DUP3 SWAP1 SUB PUSH1 0x1F AND DUP3 ADD SWAP2 JUMPDEST POP POP POP POP POP DUP2 MSTORE PUSH1 0x20 ADD PUSH1 0x2 DUP3 ADD DUP1 SLOAD PUSH2 0x867 SWAP1 PUSH2 0x1058 JUMP JUMPDEST DUP1 PUSH1 0x1F ADD PUSH1 0x20 DUP1 SWAP2 DIV MUL PUSH1 0x20 ADD PUSH1 0x40 MLOAD SWAP1 DUP2 ADD PUSH1 0x40 MSTORE DUP1 SWAP3 SWAP2 SWAP1 DUP2 DUP2 MSTORE PUSH1 0x20 ADD DUP3 DUP1 SLOAD PUSH2 0x893 SWAP1 PUSH2 0x1058 JUMP JUMPDEST DUP1 ISZERO PUSH2 0x8DE JUMPI DUP1 PUSH1 0x1F LT PUSH2 0x8B5 JUMPI PUSH2 0x100 DUP1 DUP4 SLOAD DIV MUL DUP4 MSTORE SWAP2 PUSH1 0x20 ADD SWAP2 PUSH2 0x8DE JUMP JUMPDEST DUP3 ADD SWAP2 SWAP1 PUSH0 MSTORE PUSH1 0x20 PUSH0 KECCAK256 SWAP1 JUMPDEST DUP2 SLOAD DUP2 MSTORE SWAP1 PUSH1 0x1 ADD SWAP1 PUSH1 0x20 ADD DUP1 DUP4 GT PUSH2 0x8C1 JUMPI DUP3 SWAP1 SUB PUSH1 0x1F AND DUP3 ADD SWAP2 JUMPDEST POP POP POP POP POP DUP2 MSTORE PUSH1 0x20 ADD PUSH1 0x3 DUP3 ADD DUP1 SLOAD PUSH2 0x8F7 SWAP1 PUSH2 0x1058 JUMP JUMPDEST DUP1 PUSH1 0x1F ADD PUSH1 0x20 DUP1 SWAP2 DIV MUL PUSH1 0x20 ADD PUSH1 0x40 MLOAD SWAP1 DUP2 ADD PUSH1 0x40 MSTORE DUP1 SWAP3 SWAP2 SWAP1 DUP2 DUP2 MSTORE PUSH1 0x20 ADD DUP3 DUP1 SLOAD PUSH2 0x923 SWAP1 PUSH2 0x1058 JUMP JUMPDEST DUP1 ISZERO PUSH2 0x96E JUMPI DUP1 PUSH1 0x1F LT PUSH2 0x945 JUMPI PUSH2 0x100 DUP1 DUP4 SLOAD DIV MUL DUP4 MSTORE SWAP2 PUSH1 0x20 ADD SWAP2 PUSH2 0x96E JUMP JUMPDEST DUP3 ADD SWAP2 SWAP1 PUSH0 MSTORE PUSH1 0x20 PUSH0 KECCAK256 SWAP1 JUMPDEST DUP2 SLOAD DUP2 MSTORE SWAP1 PUSH1 0x1 ADD SWAP1 PUSH1 0x20 ADD DUP1 DUP4 GT PUSH2 0x951 JUMPI DUP3 SWAP1 SUB PUSH1 0x1F AND DUP3 ADD SWAP2 JUMPDEST POP POP POP POP POP DUP2 MSTORE PUSH1 0x20 ADD PUSH1 0x4 DUP3 ADD SLOAD DUP2 MSTORE POP POP DUP3 DUP3 DUP2 MLOAD DUP2 LT PUSH2 0x994 JUMPI PUSH2 0x993 PUSH2 0x135C JUMP JUMPDEST JUMPDEST PUSH1 0x20 MUL PUSH1 0x20 ADD ADD DUP2 SWAP1 MSTORE POP DUP1 DUP1 PUSH1 0x1 ADD SWAP2 POP POP PUSH2 0x74C JUMP JUMPDEST POP DUP1 SWAP2 POP POP SWAP1 JUMP JUMPDEST PUSH1 0x40 MLOAD DUP1 PUSH1 0x40 ADD PUSH1 0x40 MSTORE DUP1 PUSH0 DUP2 MSTORE PUSH1 0x20 ADD PUSH0 PUSH1 0xFF AND DUP2 MSTORE POP SWAP1 JUMP JUMPDEST PUSH1 0x40 MLOAD DUP1 PUSH1 0xA0 ADD PUSH1 0x40 MSTORE DUP1 PUSH0 PUSH1 0xFF AND DUP2 MSTORE PUSH1 0x20 ADD PUSH1 0x60 DUP2 MSTORE PUSH1 0x20 ADD PUSH1 0x60 DUP2 MSTORE PUSH1 0x20 ADD PUSH1 0x60 DUP2 MSTORE PUSH1 0x20 ADD PUSH0 DUP2 MSTORE POP SWAP1 JUMP JUMPDEST PUSH0 PUSH1 0x40 MLOAD SWAP1 POP SWAP1 JUMP JUMPDEST PUSH0 DUP1 REVERT JUMPDEST PUSH0 DUP1 REVERT JUMPDEST PUSH0 PUSH1 0xFF DUP3 AND SWAP1 POP SWAP2 SWAP1 POP JUMP JUMPDEST PUSH2 0xA25 DUP2 PUSH2 0xA10 JUMP JUMPDEST DUP2 EQ PUSH2 0xA2F JUMPI PUSH0 DUP1 REVERT JUMPDEST POP JUMP JUMPDEST PUSH0 DUP2 CALLDATALOAD SWAP1 POP PUSH2 0xA40 DUP2 PUSH2 0xA1C JUMP JUMPDEST SWAP3 SWAP2 POP POP JUMP JUMPDEST PUSH0 DUP1 REVERT JUMPDEST PUSH0 DUP1 REVERT JUMPDEST PUSH0 PUSH1 0x1F NOT PUSH1 0x1F DUP4 ADD AND SWAP1 POP SWAP2 SWAP1 POP JUMP JUMPDEST PUSH32 0x4E487B7100000000000000000000000000000000000000000000000000000000 PUSH0 MSTORE PUSH1 0x41 PUSH1 0x4 MSTORE PUSH1 0x24 PUSH0 REVERT JUMPDEST PUSH2 0xA94 DUP3 PUSH2 0xA4E JUMP JUMPDEST DUP2 ADD DUP2 DUP2 LT PUSH8 0xFFFFFFFFFFFFFFFF DUP3 GT OR ISZERO PUSH2 0xAB3 JUMPI PUSH2 0xAB2 PUSH2 0xA5E JUMP JUMPDEST JUMPDEST DUP1 PUSH1 0x40 MSTORE POP POP POP JUMP JUMPDEST PUSH0 PUSH2 0xAC5 PUSH2 0x9FF JUMP JUMPDEST SWAP1 POP PUSH2 0xAD1 DUP3 DUP3 PUSH2 0xA8B JUMP JUMPDEST SWAP2 SWAP1 POP JUMP JUMPDEST PUSH0 PUSH8 0xFFFFFFFFFFFFFFFF DUP3 GT ISZERO PUSH2 0xAF0 JUMPI PUSH2 0xAEF PUSH2 0xA5E JUMP JUMPDEST JUMPDEST PUSH2 0xAF9 DUP3 PUSH2 0xA4E JUMP JUMPDEST SWAP1 POP PUSH1 0x20 DUP2 ADD SWAP1 POP SWAP2 SWAP1 POP JUMP JUMPDEST DUP3 DUP2 DUP4 CALLDATACOPY PUSH0 DUP4 DUP4 ADD MSTORE POP POP POP JUMP JUMPDEST PUSH0 PUSH2 0xB26 PUSH2 0xB21 DUP5 PUSH2 0xAD6 JUMP JUMPDEST PUSH2 0xABC JUMP JUMPDEST SWAP1 POP DUP3 DUP2 MSTORE PUSH1 0x20 DUP2 ADD DUP5 DUP5 DUP5 ADD GT ISZERO PUSH2 0xB42 JUMPI PUSH2 0xB41 PUSH2 0xA4A JUMP JUMPDEST JUMPDEST PUSH2 0xB4D DUP5 DUP3 DUP6 PUSH2 0xB06 JUMP JUMPDEST POP SWAP4 SWAP3 POP POP POP JUMP JUMPDEST PUSH0 DUP3 PUSH1 0x1F DUP4 ADD SLT PUSH2 0xB69 JUMPI PUSH2 0xB68 PUSH2 0xA46 JUMP JUMPDEST JUMPDEST DUP2 CALLDATALOAD PUSH2 0xB79 DUP5 DUP3 PUSH1 0x20 DUP7 ADD PUSH2 0xB14 JUMP JUMPDEST SWAP2 POP POP SWAP3 SWAP2 POP POP JUMP JUMPDEST PUSH0 DUP2 SWAP1 POP SWAP2 SWAP1 POP JUMP JUMPDEST PUSH2 0xB94 DUP2 PUSH2 0xB82 JUMP JUMPDEST DUP2 EQ PUSH2 0xB9E JUMPI PUSH0 DUP1 REVERT JUMPDEST POP JUMP JUMPDEST PUSH0 DUP2 CALLDATALOAD SWAP1 POP PUSH2 0xBAF DUP2 PUSH2 0xB8B JUMP JUMPDEST SWAP3 SWAP2 POP POP JUMP JUMPDEST PUSH0 DUP1 PUSH0 DUP1 PUSH0 PUSH1 0xA0 DUP7 DUP9 SUB SLT ISZERO PUSH2 0xBCE JUMPI PUSH2 0xBCD PUSH2 0xA08 JUMP JUMPDEST JUMPDEST PUSH0 PUSH2 0xBDB DUP9 DUP3 DUP10 ADD PUSH2 0xA32 JUMP JUMPDEST SWAP6 POP POP PUSH1 0x20 DUP7 ADD CALLDATALOAD PUSH8 0xFFFFFFFFFFFFFFFF DUP2 GT ISZERO PUSH2 0xBFC JUMPI PUSH2 0xBFB PUSH2 0xA0C JUMP JUMPDEST JUMPDEST PUSH2 0xC08 DUP9 DUP3 DUP10 ADD PUSH2 0xB55 JUMP JUMPDEST SWAP5 POP POP PUSH1 0x40 DUP7 ADD CALLDATALOAD PUSH8 0xFFFFFFFFFFFFFFFF DUP2 GT ISZERO PUSH2 0xC29 JUMPI PUSH2 0xC28 PUSH2 0xA0C JUMP JUMPDEST JUMPDEST PUSH2 0xC35 DUP9 DUP3 DUP10 ADD PUSH2 0xB55 JUMP JUMPDEST SWAP4 POP POP PUSH1 0x60 DUP7 ADD CALLDATALOAD PUSH8 0xFFFFFFFFFFFFFFFF DUP2 GT ISZERO PUSH2 0xC56 JUMPI PUSH2 0xC55 PUSH2 0xA0C JUMP JUMPDEST JUMPDEST PUSH2 0xC62 DUP9 DUP3 DUP10 ADD PUSH2 0xB55 JUMP JUMPDEST SWAP3 POP POP PUSH1 0x80 PUSH2 0xC73 DUP9 DUP3 DUP10 ADD PUSH2 0xBA1 JUMP JUMPDEST SWAP2 POP POP SWAP3 SWAP6 POP SWAP3 SWAP6 SWAP1 SWAP4 POP JUMP JUMPDEST PUSH0 DUP2 MLOAD SWAP1 POP SWAP2 SWAP1 POP JUMP JUMPDEST PUSH0 DUP3 DUP3 MSTORE PUSH1 0x20 DUP3 ADD SWAP1 POP SWAP3 SWAP2 POP POP JUMP JUMPDEST PUSH0 DUP2 SWAP1 POP PUSH1 0x20 DUP3 ADD SWAP1 POP SWAP2 SWAP1 POP JUMP JUMPDEST PUSH2 0xCB2 DUP2 PUSH2 0xB82 JUMP JUMPDEST DUP3 MSTORE POP POP JUMP JUMPDEST PUSH2 0xCC1 DUP2 PUSH2 0xA10 JUMP JUMPDEST DUP3 MSTORE POP POP JUMP JUMPDEST PUSH1 0x40 DUP3 ADD PUSH0 DUP3 ADD MLOAD PUSH2 0xCDB PUSH0 DUP6 ADD DUP3 PUSH2 0xCA9 JUMP JUMPDEST POP PUSH1 0x20 DUP3 ADD MLOAD PUSH2 0xCEE PUSH1 0x20 DUP6 ADD DUP3 PUSH2 0xCB8 JUMP JUMPDEST POP POP POP POP JUMP JUMPDEST PUSH0 PUSH2 0xCFF DUP4 DUP4 PUSH2 0xCC7 JUMP JUMPDEST PUSH1 0x40 DUP4 ADD SWAP1 POP SWAP3 SWAP2 POP POP JUMP JUMPDEST PUSH0 PUSH1 0x20 DUP3 ADD SWAP1 POP SWAP2 SWAP1 POP JUMP JUMPDEST PUSH0 PUSH2 0xD21 DUP3 PUSH2 0xC80 JUMP JUMPDEST PUSH2 0xD2B DUP2 DUP6 PUSH2 0xC8A JUMP JUMPDEST SWAP4 POP PUSH2 0xD36 DUP4 PUSH2 0xC9A JUMP JUMPDEST DUP1 PUSH0 JUMPDEST DUP4 DUP2 LT ISZERO PUSH2 0xD66 JUMPI DUP2 MLOAD PUSH2 0xD4D DUP9 DUP3 PUSH2 0xCF4 JUMP JUMPDEST SWAP8 POP PUSH2 0xD58 DUP4 PUSH2 0xD0B JUMP JUMPDEST SWAP3 POP POP PUSH1 0x1 DUP2 ADD SWAP1 POP PUSH2 0xD39 JUMP JUMPDEST POP DUP6 SWAP4 POP POP POP POP SWAP3 SWAP2 POP POP JUMP JUMPDEST PUSH0 PUSH1 0x20 DUP3 ADD SWAP1 POP DUP2 DUP2 SUB PUSH0 DUP4 ADD MSTORE PUSH2 0xD8B DUP2 DUP5 PUSH2 0xD17 JUMP JUMPDEST SWAP1 POP SWAP3 SWAP2 POP POP JUMP JUMPDEST PUSH0 DUP1 PUSH1 0x40 DUP4 DUP6 SUB SLT ISZERO PUSH2 0xDA9 JUMPI PUSH2 0xDA8 PUSH2 0xA08 JUMP JUMPDEST JUMPDEST PUSH0 PUSH2 0xDB6 DUP6 DUP3 DUP7 ADD PUSH2 0xA32 JUMP JUMPDEST SWAP3 POP POP PUSH1 0x20 PUSH2 0xDC7 DUP6 DUP3 DUP7 ADD PUSH2 0xA32 JUMP JUMPDEST SWAP2 POP POP SWAP3 POP SWAP3 SWAP1 POP JUMP JUMPDEST PUSH0 DUP2 MLOAD SWAP1 POP SWAP2 SWAP1 POP JUMP JUMPDEST PUSH0 DUP3 DUP3 MSTORE PUSH1 0x20 DUP3 ADD SWAP1 POP SWAP3 SWAP2 POP POP JUMP JUMPDEST PUSH0 DUP2 SWAP1 POP PUSH1 0x20 DUP3 ADD SWAP1 POP SWAP2 SWAP1 POP JUMP JUMPDEST PUSH0 DUP2 MLOAD SWAP1 POP SWAP2 SWAP1 POP JUMP JUMPDEST PUSH0 DUP3 DUP3 MSTORE PUSH1 0x20 DUP3 ADD SWAP1 POP SWAP3 SWAP2 POP POP JUMP JUMPDEST DUP3 DUP2 DUP4 MCOPY PUSH0 DUP4 DUP4 ADD MSTORE POP POP POP JUMP JUMPDEST PUSH0 PUSH2 0xE2C DUP3 PUSH2 0xDFA JUMP JUMPDEST PUSH2 0xE36 DUP2 DUP6 PUSH2 0xE04 JUMP JUMPDEST SWAP4 POP PUSH2 0xE46 DUP2 DUP6 PUSH1 0x20 DUP7 ADD PUSH2 0xE14 JUMP JUMPDEST PUSH2 0xE4F DUP2 PUSH2 0xA4E JUMP JUMPDEST DUP5 ADD SWAP2 POP POP SWAP3 SWAP2 POP POP JUMP JUMPDEST PUSH0 PUSH1 0xA0 DUP4 ADD PUSH0 DUP4 ADD MLOAD PUSH2 0xE6F PUSH0 DUP7 ADD DUP3 PUSH2 0xCB8 JUMP JUMPDEST POP PUSH1 0x20 DUP4 ADD MLOAD DUP5 DUP3 SUB PUSH1 0x20 DUP7 ADD MSTORE PUSH2 0xE87 DUP3 DUP3 PUSH2 0xE22 JUMP JUMPDEST SWAP2 POP POP PUSH1 0x40 DUP4 ADD MLOAD DUP5 DUP3 SUB PUSH1 0x40 DUP7 ADD MSTORE PUSH2 0xEA1 DUP3 DUP3 PUSH2 0xE22 JUMP JUMPDEST SWAP2 POP POP PUSH1 0x60 DUP4 ADD MLOAD DUP5 DUP3 SUB PUSH1 0x60 DUP7 ADD MSTORE PUSH2 0xEBB DUP3 DUP3 PUSH2 0xE22 JUMP JUMPDEST SWAP2 POP POP PUSH1 0x80 DUP4 ADD MLOAD PUSH2 0xED0 PUSH1 0x80 DUP7 ADD DUP3 PUSH2 0xCA9 JUMP JUMPDEST POP DUP1 SWAP2 POP POP SWAP3 SWAP2 POP POP JUMP JUMPDEST PUSH0 PUSH2 0xEE6 DUP4 DUP4 PUSH2 0xE5A JUMP JUMPDEST SWAP1 POP SWAP3 SWAP2 POP POP JUMP JUMPDEST PUSH0 PUSH1 0x20 DUP3 ADD SWAP1 POP SWAP2 SWAP1 POP JUMP JUMPDEST PUSH0 PUSH2 0xF04 DUP3 PUSH2 0xDD1 JUMP JUMPDEST PUSH2 0xF0E DUP2 DUP6 PUSH2 0xDDB JUMP JUMPDEST SWAP4 POP DUP4 PUSH1 0x20 DUP3 MUL DUP6 ADD PUSH2 0xF20 DUP6 PUSH2 0xDEB JUMP JUMPDEST DUP1 PUSH0 JUMPDEST DUP6 DUP2 LT ISZERO PUSH2 0xF5B JUMPI DUP5 DUP5 SUB DUP10 MSTORE DUP2 MLOAD PUSH2 0xF3C DUP6 DUP3 PUSH2 0xEDB JUMP JUMPDEST SWAP5 POP PUSH2 0xF47 DUP4 PUSH2 0xEEE JUMP JUMPDEST SWAP3 POP PUSH1 0x20 DUP11 ADD SWAP10 POP POP PUSH1 0x1 DUP2 ADD SWAP1 POP PUSH2 0xF23 JUMP JUMPDEST POP DUP3 SWAP8 POP DUP8 SWAP6 POP POP POP POP POP POP SWAP3 SWAP2 POP POP JUMP JUMPDEST PUSH0 PUSH1 0x20 DUP3 ADD SWAP1 POP DUP2 DUP2 SUB PUSH0 DUP4 ADD MSTORE PUSH2 0xF85 DUP2 DUP5 PUSH2 0xEFA JUMP JUMPDEST SWAP1 POP SWAP3 SWAP2 POP POP JUMP JUMPDEST PUSH0 DUP3 DUP3 MSTORE PUSH1 0x20 DUP3 ADD SWAP1 POP SWAP3 SWAP2 POP POP JUMP JUMPDEST PUSH32 0x5365756C206C2761646D696E207065757420617070656C657220636574746520 PUSH0 DUP3 ADD MSTORE PUSH32 0x666F6E6374696F6E000000000000000000000000000000000000000000000000 PUSH1 0x20 DUP3 ADD MSTORE POP JUMP JUMPDEST PUSH0 PUSH2 0xFF7 PUSH1 0x28 DUP4 PUSH2 0xF8D JUMP JUMPDEST SWAP2 POP PUSH2 0x1002 DUP3 PUSH2 0xF9D JUMP JUMPDEST PUSH1 0x40 DUP3 ADD SWAP1 POP SWAP2 SWAP1 POP JUMP JUMPDEST PUSH0 PUSH1 0x20 DUP3 ADD SWAP1 POP DUP2 DUP2 SUB PUSH0 DUP4 ADD MSTORE PUSH2 0x1024 DUP2 PUSH2 0xFEB JUMP JUMPDEST SWAP1 POP SWAP2 SWAP1 POP JUMP JUMPDEST PUSH32 0x4E487B7100000000000000000000000000000000000000000000000000000000 PUSH0 MSTORE PUSH1 0x22 PUSH1 0x4 MSTORE PUSH1 0x24 PUSH0 REVERT JUMPDEST PUSH0 PUSH1 0x2 DUP3 DIV SWAP1 POP PUSH1 0x1 DUP3 AND DUP1 PUSH2 0x106F JUMPI PUSH1 0x7F DUP3 AND SWAP2 POP JUMPDEST PUSH1 0x20 DUP3 LT DUP2 SUB PUSH2 0x1082 JUMPI PUSH2 0x1081 PUSH2 0x102B JUMP JUMPDEST JUMPDEST POP SWAP2 SWAP1 POP JUMP JUMPDEST PUSH32 0x4D617463682064656A61206578697374616E7400000000000000000000000000 PUSH0 DUP3 ADD MSTORE POP JUMP JUMPDEST PUSH0 PUSH2 0x10BC PUSH1 0x13 DUP4 PUSH2 0xF8D JUMP JUMPDEST SWAP2 POP PUSH2 0x10C7 DUP3 PUSH2 0x1088 JUMP JUMPDEST PUSH1 0x20 DUP3 ADD SWAP1 POP SWAP2 SWAP1 POP JUMP JUMPDEST PUSH0 PUSH1 0x20 DUP3 ADD SWAP1 POP DUP2 DUP2 SUB PUSH0 DUP4 ADD MSTORE PUSH2 0x10E9 DUP2 PUSH2 0x10B0 JUMP JUMPDEST SWAP1 POP SWAP2 SWAP1 POP JUMP JUMPDEST PUSH0 DUP2 SWAP1 POP DUP2 PUSH0 MSTORE PUSH1 0x20 PUSH0 KECCAK256 SWAP1 POP SWAP2 SWAP1 POP JUMP JUMPDEST PUSH0 PUSH1 0x20 PUSH1 0x1F DUP4 ADD DIV SWAP1 POP SWAP2 SWAP1 POP JUMP JUMPDEST PUSH0 DUP3 DUP3 SHL SWAP1 POP SWAP3 SWAP2 POP POP JUMP JUMPDEST PUSH0 PUSH1 0x8 DUP4 MUL PUSH2 0x114C PUSH32 0xFFFFFFFFFFFFFFFFFFFFFFFFFFFFFFFFFFFFFFFFFFFFFFFFFFFFFFFFFFFFFFFF DUP3 PUSH2 0x1111 JUMP JUMPDEST PUSH2 0x1156 DUP7 DUP4 PUSH2 0x1111 JUMP JUMPDEST SWAP6 POP DUP1 NOT DUP5 AND SWAP4 POP DUP1 DUP7 AND DUP5 OR SWAP3 POP POP POP SWAP4 SWAP3 POP POP POP JUMP JUMPDEST PUSH0 DUP2 SWAP1 POP SWAP2 SWAP1 POP JUMP JUMPDEST PUSH0 PUSH2 0x1191 PUSH2 0x118C PUSH2 0x1187 DUP5 PUSH2 0xB82 JUMP JUMPDEST PUSH2 0x116E JUMP JUMPDEST PUSH2 0xB82 JUMP JUMPDEST SWAP1 POP SWAP2 SWAP1 POP JUMP JUMPDEST PUSH0 DUP2 SWAP1 POP SWAP2 SWAP1 POP JUMP JUMPDEST PUSH2 0x11AA DUP4 PUSH2 0x1177 JUMP JUMPDEST PUSH2 0x11BE PUSH2 0x11B6 DUP3 PUSH2 0x1198 JUMP JUMPDEST DUP5 DUP5 SLOAD PUSH2 0x111D JUMP JUMPDEST DUP3 SSTORE POP POP POP POP JUMP JUMPDEST PUSH0 SWAP1 JUMP JUMPDEST PUSH2 0x11D2 PUSH2 0x11C6 JUMP JUMPDEST PUSH2 0x11DD DUP2 DUP5 DUP5 PUSH2 0x11A1 JUMP JUMPDEST POP POP POP JUMP JUMPDEST JUMPDEST DUP2 DUP2 LT ISZERO PUSH2 0x1200 JUMPI PUSH2 0x11F5 PUSH0 DUP3 PUSH2 0x11CA JUMP JUMPDEST PUSH1 0x1 DUP2 ADD SWAP1 POP PUSH2 0x11E3 JUMP JUMPDEST POP POP JUMP JUMPDEST PUSH1 0x1F DUP3 GT ISZERO PUSH2 0x1245 JUMPI PUSH2 0x1216 DUP2 PUSH2 0x10F0 JUMP JUMPDEST PUSH2 0x121F DUP5 PUSH2 0x1102 JUMP JUMPDEST DUP2 ADD PUSH1 0x20 DUP6 LT ISZERO PUSH2 0x122E JUMPI DUP2 SWAP1 POP JUMPDEST PUSH2 0x1242 PUSH2 0x123A DUP6 PUSH2 0x1102 JUMP JUMPDEST DUP4 ADD DUP3 PUSH2 0x11E2 JUMP JUMPDEST POP POP JUMPDEST POP POP POP JUMP JUMPDEST PUSH0 DUP3 DUP3 SHR SWAP1 POP SWAP3 SWAP2 POP POP JUMP JUMPDEST PUSH0 PUSH2 0x1265 PUSH0 NOT DUP5 PUSH1 0x8 MUL PUSH2 0x124A JUMP JUMPDEST NOT DUP1 DUP4 AND SWAP2 POP POP SWAP3 SWAP2 POP POP JUMP JUMPDEST PUSH0 PUSH2 0x127D DUP4 DUP4 PUSH2 0x1256 JUMP JUMPDEST SWAP2 POP DUP3 PUSH1 0x2 MUL DUP3 OR SWAP1 POP SWAP3 SWAP2 POP POP JUMP JUMPDEST PUSH2 0x1296 DUP3 PUSH2 0xDFA JUMP JUMPDEST PUSH8 0xFFFFFFFFFFFFFFFF DUP2 GT ISZERO PUSH2 0x12AF JUMPI PUSH2 0x12AE PUSH2 0xA5E JUMP JUMPDEST JUMPDEST PUSH2 0x12B9 DUP3 SLOAD PUSH2 0x1058 JUMP JUMPDEST PUSH2 0x12C4 DUP3 DUP3 DUP6 PUSH2 0x1204 JUMP JUMPDEST PUSH0 PUSH1 0x20 SWAP1 POP PUSH1 0x1F DUP4 GT PUSH1 0x1 DUP2 EQ PUSH2 0x12F5 JUMPI PUSH0 DUP5 ISZERO PUSH2 0x12E3 JUMPI DUP3 DUP8 ADD MLOAD SWAP1 POP JUMPDEST PUSH2 0x12ED DUP6 DUP3 PUSH2 0x1272 JUMP JUMPDEST DUP7 SSTORE POP PUSH2 0x1354 JUMP JUMPDEST PUSH1 0x1F NOT DUP5 AND PUSH2 0x1303 DUP7 PUSH2 0x10F0 JUMP JUMPDEST PUSH0 JUMPDEST DUP3 DUP2 LT ISZERO PUSH2 0x132A JUMPI DUP5 DUP10 ADD MLOAD DUP3 SSTORE PUSH1 0x1 DUP3 ADD SWAP2 POP PUSH1 0x20 DUP6 ADD SWAP5 POP PUSH1 0x20 DUP2 ADD SWAP1 POP PUSH2 0x1305 JUMP JUMPDEST DUP7 DUP4 LT ISZERO PUSH2 0x1347 JUMPI DUP5 DUP10 ADD MLOAD PUSH2 0x1343 PUSH1 0x1F DUP10 AND DUP3 PUSH2 0x1256 JUMP JUMPDEST DUP4 SSTORE POP JUMPDEST PUSH1 0x1 PUSH1 0x2 DUP9 MUL ADD DUP9 SSTORE POP POP POP JUMPDEST POP POP POP POP POP POP JUMP JUMPDEST PUSH32 0x4E487B7100000000000000000000000000000000000000000000000000000000 PUSH0 MSTORE PUSH1 0x32 PUSH1 0x4 MSTORE PUSH1 0x24 PUSH0 REVERT JUMPDEST PUSH32 0x4D69736520726571756973650000000000000000000000000000000000000000 PUSH0 DUP3 ADD MSTORE POP JUMP JUMPDEST PUSH0 PUSH2 0x13BD PUSH1 0xC DUP4 PUSH2 0xF8D JUMP JUMPDEST SWAP2 POP PUSH2 0x13C8 DUP3 PUSH2 0x1389 JUMP JUMPDEST PUSH1 0x20 DUP3 ADD SWAP1 POP SWAP2 SWAP1 POP JUMP JUMPDEST PUSH0 PUSH1 0x20 DUP3 ADD SWAP1 POP DUP2 DUP2 SUB PUSH0 DUP4 ADD MSTORE PUSH2 0x13EA DUP2 PUSH2 0x13B1 JUMP JUMPDEST SWAP1 POP SWAP2 SWAP1 POP JUMP JUMPDEST PUSH32 0x43686F697820696E76616C696465000000000000000000000000000000000000 PUSH0 DUP3 ADD MSTORE POP JUMP JUMPDEST PUSH0 PUSH2 0x1425 PUSH1 0xE DUP4 PUSH2 0xF8D JUMP JUMPDEST SWAP2 POP PUSH2 0x1430 DUP3 PUSH2 0x13F1 JUMP JUMPDEST PUSH1 0x20 DUP3 ADD SWAP1 POP SWAP2 SWAP1 POP JUMP JUMPDEST PUSH0 PUSH1 0x20 DUP3 ADD SWAP1 POP DUP2 DUP2 SUB PUSH0 DUP4 ADD MSTORE PUSH2 0x1452 DUP2 PUSH2 0x1419 JUMP JUMPDEST SWAP1 POP SWAP2 SWAP1 POP JUMP JUMPDEST PUSH32 0x4D6174636820696E6578697374616E7400000000000000000000000000000000 PUSH0 DUP3 ADD MSTORE POP JUMP JUMPDEST PUSH0 PUSH2 0x148D PUSH1 0x10 DUP4 PUSH2 0xF8D JUMP JUMPDEST SWAP2 POP PUSH2 0x1498 DUP3 PUSH2 0x1459 JUMP JUMPDEST PUSH1 0x20 DUP3 ADD SWAP1 POP SWAP2 SWAP1 POP JUMP JUMPDEST PUSH0 PUSH1 0x20 DUP3 ADD SWAP1 POP DUP2 DUP2 SUB PUSH0 DUP4 ADD MSTORE PUSH2 0x14BA DUP2 PUSH2 0x1481 JUMP JUMPDEST SWAP1 POP SWAP2 SWAP1 POP JUMP INVALID LOG2 PUSH5 0x6970667358 0x22 SLT KECCAK256 DUP16 TSTORE SAR 0xAC INVALID SELFDESTRUCT 0x21 PUSH20 0x6DA8893E6261193FC9E4315E34238816C6735828 LOG4 PUSH10 0xEA0964736F6C63430008 BYTE STOP CALLER "
				},
				"gasEstimates": {
					"creation": {
						"codeDepositCost": "1073400",
						"executionCost": "25377",
						"totalCost": "1098777"
					},
					"external": {
						"createMatch(uint8,string,string,string,uint256)": "infinite",
						"getAllMatches()": "infinite",
						"getMyBets()": "infinite",
						"placeBet(uint8,uint8)": "infinite"
					}
				},
				"methodIdentifiers": {
					"createMatch(uint8,string,string,string,uint256)": "5f382303",
					"getAllMatches()": "c17c5a45",
					"getMyBets()": "99535bd7",
					"placeBet(uint8,uint8)": "a648567b"
				}
			},
			"storageLayout": {
				"storage": [
					{
						"astId": 3,
						"contract": "server.sol:FootballBetting",
						"label": "owner",
						"offset": 0,
						"slot": "0",
						"type": "t_address"
					},
					{
						"astId": 40,
						"contract": "server.sol:FootballBetting",
						"label": "matches",
						"offset": 0,
						"slot": "1",
						"type": "t_mapping(t_uint8,t_struct(Match)35_storage)"
					},
					{
						"astId": 43,
						"contract": "server.sol:FootballBetting",
						"label": "matchIds",
						"offset": 0,
						"slot": "2",
						"type": "t_array(t_uint8)dyn_storage"
					},
					{
						"astId": 55,
						"contract": "server.sol:FootballBetting",
						"label": "bets",
						"offset": 0,
						"slot": "3",
						"type": "t_mapping(t_uint8,t_mapping(t_address,t_struct(Bet)48_storage))"
					},
					{
						"astId": 60,
						"contract": "server.sol:FootballBetting",
						"label": "userBets",
						"offset": 0,
						"slot": "4",
						"type": "t_mapping(t_address,t_array(t_uint8)dyn_storage)"
					}
				],
				"types": {
					"t_address": {
						"encoding": "inplace",
						"label": "address",
						"numberOfBytes": "20"
					},
					"t_array(t_uint8)dyn_storage": {
						"base": "t_uint8",
						"encoding": "dynamic_array",
						"label": "uint8[]",
						"numberOfBytes": "32"
					},
					"t_mapping(t_address,t_array(t_uint8)dyn_storage)": {
						"encoding": "mapping",
						"key": "t_address",
						"label": "mapping(address => uint8[])",
						"numberOfBytes": "32",
						"value": "t_array(t_uint8)dyn_storage"
					},
					"t_mapping(t_address,t_struct(Bet)48_storage)": {
						"encoding": "mapping",
						"key": "t_address",
						"label": "mapping(address => struct FootballBetting.Bet)",
						"numberOfBytes": "32",
						"value": "t_struct(Bet)48_storage"
					},
					"t_mapping(t_uint8,t_mapping(t_address,t_struct(Bet)48_storage))": {
						"encoding": "mapping",
						"key": "t_uint8",
						"label": "mapping(uint8 => mapping(address => struct FootballBetting.Bet))",
						"numberOfBytes": "32",
						"value": "t_mapping(t_address,t_struct(Bet)48_storage)"
					},
					"t_mapping(t_uint8,t_struct(Match)35_storage)": {
						"encoding": "mapping",
						"key": "t_uint8",
						"label": "mapping(uint8 => struct FootballBetting.Match)",
						"numberOfBytes": "32",
						"value": "t_struct(Match)35_storage"
					},
					"t_string_storage": {
						"encoding": "bytes",
						"label": "string",
						"numberOfBytes": "32"
					},
					"t_struct(Bet)48_storage": {
						"encoding": "inplace",
						"label": "struct FootballBetting.Bet",
						"members": [
							{
								"astId": 45,
								"contract": "server.sol:FootballBetting",
								"label": "amount",
								"offset": 0,
								"slot": "0",
								"type": "t_uint256"
							},
							{
								"astId": 47,
								"contract": "server.sol:FootballBetting",
								"label": "team",
								"offset": 0,
								"slot": "1",
								"type": "t_uint8"
							}
						],
						"numberOfBytes": "64"
					},
					"t_struct(Match)35_storage": {
						"encoding": "inplace",
						"label": "struct FootballBetting.Match",
						"members": [
							{
								"astId": 26,
								"contract": "server.sol:FootballBetting",
								"label": "id",
								"offset": 0,
								"slot": "0",
								"type": "t_uint8"
							},
							{
								"astId": 28,
								"contract": "server.sol:FootballBetting",
								"label": "homeTeam",
								"offset": 0,
								"slot": "1",
								"type": "t_string_storage"
							},
							{
								"astId": 30,
								"contract": "server.sol:FootballBetting",
								"label": "awayTeam",
								"offset": 0,
								"slot": "2",
								"type": "t_string_storage"
							},
							{
								"astId": 32,
								"contract": "server.sol:FootballBetting",
								"label": "score",
								"offset": 0,
								"slot": "3",
								"type": "t_string_storage"
							},
							{
								"astId": 34,
								"contract": "server.sol:FootballBetting",
								"label": "startTimestamp",
								"offset": 0,
								"slot": "4",
								"type": "t_uint256"
							}
						],
						"numberOfBytes": "160"
					},
					"t_uint256": {
						"encoding": "inplace",
						"label": "uint256",
						"numberOfBytes": "32"
					},
					"t_uint8": {
						"encoding": "inplace",
						"label": "uint8",
						"numberOfBytes": "1"
					}
				}
			},
			"userdoc": {
				"kind": "user",
				"methods": {},
				"version": 1
			}
		}
	}
}