{
	"data": {
		"bytecode": {
			"linkReferences": {},
			"object": "6080604052348015600e575f80fd5b50335f806101000a81548173ffffffffffffffffffffffffffffffffffffffff021916908373ffffffffffffffffffffffffffffffffffffffff16021790555060015f60156101000a81548160ff02191690836001811115607057606f6094565b5b021790555060055f60146101000a81548160ff021916908360ff16021790555060c1565b7f4e487b71000000000000000000000000000000000000000000000000000000005f52602160045260245ffd5b612c96806100ce5f395ff3fe60806040526004361061009b575f3560e01c8063c17c5a4511610063578063c17c5a451461014d578063cb002cf514610177578063d19ce9f51461019f578063d575fe64146101b5578063e10b020c146101df578063f5251cf3146101f55761009b565b80630ee1b33d1461009f57806315ac534d146100c757806357899342146100dd57806399535bd714610107578063a648567b14610131575b5f80fd5b3480156100aa575f80fd5b506100c560048036038101906100c09190611d8b565b61020b565b005b3480156100d2575f80fd5b506100db61032c565b005b3480156100e8575f80fd5b506100f16103e5565b6040516100fe9190611e58565b60405180910390f35b348015610112575f80fd5b5061011b6103fa565b6040516101289190611fa4565b60405180910390f35b61014b60048036038101906101469190611fe7565b6105fe565b005b348015610158575f80fd5b50610161610ace565b60405161016e9190612327565b60405180910390f35b348015610182575f80fd5b5061019d60048036038101906101989190612347565b610e50565b005b3480156101aa575f80fd5b506101b36110fd565b005b3480156101c0575f80fd5b506101c9611277565b6040516101d691906123de565b60405180910390f35b3480156101ea575f80fd5b506101f3611289565b005b348015610200575f80fd5b50610209611341565b005b5f8054906101000a900473ffffffffffffffffffffffffffffffffffffffff1673ffffffffffffffffffffffffffffffffffffffff163373ffffffffffffffffffffffffffffffffffffffff1614610298576040517f08c379a000000000000000000000000000000000000000000000000000000000815260040161028f90612477565b60405180910390fd5b5f60015f8460ff1660ff1681526020019081526020015f2060010180546102be906124c2565b905003610300576040517f08c379a00000000000000000000000000000000000000000000000000000000081526004016102f79061253c565b60405180910390fd5b8060015f8460ff1660ff1681526020019081526020015f20600301908161032791906126f7565b505050565b5f8054906101000a900473ffffffffffffffffffffffffffffffffffffffff1673ffffffffffffffffffffffffffffffffffffffff163373ffffffffffffffffffffffffffffffffffffffff16146103b9576040517f08c379a00000000000000000000000000000000000000000000000000000000081526004016103b090612477565b60405180910390fd5b60015f60156101000a81548160ff021916908360018111156103de576103dd611de5565b5b0217905550565b5f8060159054906101000a900460ff16905090565b60605f60045f3373ffffffffffffffffffffffffffffffffffffffff1673ffffffffffffffffffffffffffffffffffffffff1681526020019081526020015f208054806020026020016040519081016040528092919081815260200182805480156104a657602002820191905f5260205f20905f905b82829054906101000a900460ff1660ff16815260200190600101906020825f010492830192600103820291508084116104705790505b505050505090505f815167ffffffffffffffff8111156104c9576104c8611c67565b5b60405190808252806020026020018201604052801561050257816020015b6104ef611a70565b8152602001906001900390816104e75790505b5090505f5b82518110156105f55760035f848381518110610526576105256127c6565b5b602002602001015160ff1660ff1681526020019081526020015f205f3373ffffffffffffffffffffffffffffffffffffffff1673ffffffffffffffffffffffffffffffffffffffff1681526020019081526020015f206040518060400160405290815f8201548152602001600182015f9054906101000a900460ff1660028111156105b4576105b3611de5565b5b60028111156105c6576105c5611de5565b5b815250508282815181106105dd576105dc6127c6565b5b60200260200101819052508080600101915050610507565b50809250505090565b5f3411610640576040517f08c379a00000000000000000000000000000000000000000000000000000000081526004016106379061283d565b60405180910390fd5b600281600281111561065557610654611de5565b5b60ff161115610699576040517f08c379a0000000000000000000000000000000000000000000000000000000008152600401610690906128a5565b60405180910390fd5b5f60015f8460ff1660ff1681526020019081526020015f2060010180546106bf906124c2565b905003610701576040517f08c379a00000000000000000000000000000000000000000000000000000000081526004016106f89061253c565b60405180910390fd5b5f600181111561071457610713611de5565b5b5f60159054906101000a900460ff16600181111561073557610734611de5565b5b14610775576040517f08c379a000000000000000000000000000000000000000000000000000000000815260040161076c90612933565b60405180910390fd5b60015f8360ff1660ff1681526020019081526020015f206008015f9054906101000a900460ff16156107dc576040517f08c379a00000000000000000000000000000000000000000000000000000000081526004016107d3906129c1565b60405180910390fd5b5f60015f8460ff1660ff1681526020019081526020015f2090506001600281111561080a57610809611de5565b5b82600281111561081d5761081c611de5565b5b036108415734816004015f8282546108359190612a0c565b925050819055506108a7565b60028081111561085457610853611de5565b5b82600281111561086757610866611de5565b5b0361088b5734816005015f82825461087f9190612a0c565b925050819055506108a6565b34816006015f82825461089e9190612a0c565b925050819055505b5b5f60035f8560ff1660ff1681526020019081526020015f205f3373ffffffffffffffffffffffffffffffffffffffff1673ffffffffffffffffffffffffffffffffffffffff1681526020019081526020015f205f015403610965578060070133908060018154018082558091505060019003905f5260205f20015f9091909190916101000a81548173ffffffffffffffffffffffffffffffffffffffff021916908373ffffffffffffffffffffffffffffffffffffffff1602179055505b3460035f8560ff1660ff1681526020019081526020015f205f3373ffffffffffffffffffffffffffffffffffffffff1673ffffffffffffffffffffffffffffffffffffffff1681526020019081526020015f205f015f8282546109c89190612a0c565b925050819055508160035f8560ff1660ff1681526020019081526020015f205f3373ffffffffffffffffffffffffffffffffffffffff1673ffffffffffffffffffffffffffffffffffffffff1681526020019081526020015f206001015f6101000a81548160ff02191690836002811115610a4657610a45611de5565b5b021790555060045f3373ffffffffffffffffffffffffffffffffffffffff1673ffffffffffffffffffffffffffffffffffffffff1681526020019081526020015f2083908060018154018082558091505060019003905f5260205f2090602091828204019190069091909190916101000a81548160ff021916908360ff160217905550505050565b60605f60028054905067ffffffffffffffff811115610af057610aef611c67565b5b604051908082528060200260200182016040528015610b2957816020015b610b16611a9a565b815260200190600190039081610b0e5790505b5090505f5b600280549050811015610e485760015f60028381548110610b5257610b516127c6565b5b905f5260205f2090602091828204019190069054906101000a900460ff1660ff1660ff1681526020019081526020015f20604051806101200160405290815f82015f9054906101000a900460ff1660ff1660ff168152602001600182018054610bba906124c2565b80601f0160208091040260200160405190810160405280929190818152602001828054610be6906124c2565b8015610c315780601f10610c0857610100808354040283529160200191610c31565b820191905f5260205f20905b815481529060010190602001808311610c1457829003601f168201915b50505050508152602001600282018054610c4a906124c2565b80601f0160208091040260200160405190810160405280929190818152602001828054610c76906124c2565b8015610cc15780601f10610c9857610100808354040283529160200191610cc1565b820191905f5260205f20905b815481529060010190602001808311610ca457829003601f168201915b50505050508152602001600382018054610cda906124c2565b80601f0160208091040260200160405190810160405280929190818152602001828054610d06906124c2565b8015610d515780601f10610d2857610100808354040283529160200191610d51565b820191905f5260205f20905b815481529060010190602001808311610d3457829003601f168201915b5050505050815260200160048201548152602001600582015481526020016006820154815260200160078201805480602002602001604051908101604052809291908181526020018280548015610dfa57602002820191905f5260205f20905b815f9054906101000a900473ffffffffffffffffffffffffffffffffffffffff1673ffffffffffffffffffffffffffffffffffffffff1681526020019060010190808311610db1575b50505050508152602001600882015f9054906101000a900460ff161515151581525050828281518110610e3057610e2f6127c6565b5b60200260200101819052508080600101915050610b2e565b508091505090565b5f8054906101000a900473ffffffffffffffffffffffffffffffffffffffff1673ffffffffffffffffffffffffffffffffffffffff163373ffffffffffffffffffffffffffffffffffffffff1614610edd576040517f08c379a0000000000000000000000000000000000000000000000000000000008152600401610ed490612477565b60405180910390fd5b5f60015f8560ff1660ff1681526020019081526020015f206001018054610f03906124c2565b905014610f45576040517f08c379a0000000000000000000000000000000000000000000000000000000008152600401610f3c90612aaf565b60405180910390fd5b6040518061012001604052808460ff16815260200183815260200182815260200160405180602001604052805f81525081526020015f81526020015f81526020015f81526020015f67ffffffffffffffff811115610fa657610fa5611c67565b5b604051908082528060200260200182016040528015610fd45781602001602082028036833780820191505090505b5081526020015f151581525060015f8560ff1660ff1681526020019081526020015f205f820151815f015f6101000a81548160ff021916908360ff160217905550602082015181600101908161102a91906126f7565b50604082015181600201908161104091906126f7565b50606082015181600301908161105691906126f7565b506080820151816004015560a0820151816005015560c0820151816006015560e0820151816007019080519060200190611091929190611ae6565b50610100820151816008015f6101000a81548160ff021916908315150217905550905050600283908060018154018082558091505060019003905f5260205f2090602091828204019190069091909190916101000a81548160ff021916908360ff160217905550505050565b5f8054906101000a900473ffffffffffffffffffffffffffffffffffffffff1673ffffffffffffffffffffffffffffffffffffffff163373ffffffffffffffffffffffffffffffffffffffff161461118a576040517f08c379a000000000000000000000000000000000000000000000000000000000815260040161118190612477565b60405180910390fd5b5f5b6002805490508110156112675760015f600283815481106111b0576111af6127c6565b5b905f5260205f2090602091828204019190069054906101000a900460ff1660ff1660ff1681526020019081526020015f205f8082015f6101000a81549060ff0219169055600182015f6112039190611b6d565b600282015f6112129190611b6d565b600382015f6112219190611b6d565b600482015f9055600582015f9055600682015f9055600782015f6112459190611baa565b600882015f6101000a81549060ff02191690555050808060010191505061118c565b5060025f6112759190611bc8565b565b5f60149054906101000a900460ff1681565b5f8054906101000a900473ffffffffffffffffffffffffffffffffffffffff1673ffffffffffffffffffffffffffffffffffffffff163373ffffffffffffffffffffffffffffffffffffffff1614611316576040517f08c379a000000000000000000000000000000000000000000000000000000000815260040161130d90612477565b60405180910390fd5b5f8060156101000a81548160ff0219169083600181111561133a57611339611de5565b5b0217905550565b5f8054906101000a900473ffffffffffffffffffffffffffffffffffffffff1673ffffffffffffffffffffffffffffffffffffffff163373ffffffffffffffffffffffffffffffffffffffff16146113ce576040517f08c379a00000000000000000000000000000000000000000000000000000000081526004016113c590612477565b60405180910390fd5b6001808111156113e1576113e0611de5565b5b5f60159054906101000a900460ff16600181111561140257611401611de5565b5b14611442576040517f08c379a000000000000000000000000000000000000000000000000000000000815260040161143990612b3d565b60405180910390fd5b5f5b6002805490508110156114fc575f60028281548110611466576114656127c6565b5b905f5260205f2090602091828204019190069054906101000a900460ff1690505f60015f8360ff1660ff1681526020019081526020015f2060030180546114ac906124c2565b90501180156114df575060015f8260ff1660ff1681526020019081526020015f206008015f9054906101000a900460ff16155b156114ee576114ed816114ff565b5b508080600101915050611444565b50565b5f60015f8360ff1660ff1681526020019081526020015f2090506001816008015f6101000a81548160ff0219169083151502179055505f805f6115cb84600301805461154a906124c2565b80601f0160208091040260200160405190810160405280929190818152602001828054611576906124c2565b80156115c15780601f10611598576101008083540402835291602001916115c1565b820191905f5260205f20905b8154815290600101906020018083116115a457829003601f168201915b5050505050611921565b925092509250806115df575050505061191e565b5f8260ff168460ff1611156115f75760019050611613565b8360ff168360ff16111561160e5760029050611612565b5f90505b5b5f85600601548660050154876004015461162d9190612a0c565b6116379190612a0c565b90505f810361164b5750505050505061191e565b5f60645f60149054906101000a900460ff1660ff168361166b9190612b5b565b6116759190612bc9565b90505f81836116849190612bf9565b90505f6001600281111561169b5761169a611de5565b5b8560028111156116ae576116ad611de5565b5b036116bf57886004015490506116ff565b6002808111156116d2576116d1611de5565b5b8560028111156116e5576116e4611de5565b5b036116f657886005015490506116fe565b886006015490505b5b5f8111156118a8575f5b89600701805490508110156118a6575f8a600701828154811061172f5761172e6127c6565b5b905f5260205f20015f9054906101000a900473ffffffffffffffffffffffffffffffffffffffff1690505f60035f8e60ff1660ff1681526020019081526020015f205f8373ffffffffffffffffffffffffffffffffffffffff1673ffffffffffffffffffffffffffffffffffffffff1681526020019081526020015f206040518060400160405290815f8201548152602001600182015f9054906101000a900460ff1660028111156117e4576117e3611de5565b5b60028111156117f6576117f5611de5565b5b81525050905087600281111561180f5761180e611de5565b5b8160200151600281111561182657611825611de5565b5b03611897575f8486835f015161183c9190612b5b565b6118469190612bc9565b90505f811115611895578273ffffffffffffffffffffffffffffffffffffffff166108fc8290811502906040515f60405180830381858888f19350505050158015611893573d5f803e3d5ffd5b505b505b50508080600101915050611709565b505b5f831115611914575f8054906101000a900473ffffffffffffffffffffffffffffffffffffffff1673ffffffffffffffffffffffffffffffffffffffff166108fc8490811502906040515f60405180830381858888f19350505050158015611912573d5f803e3d5ffd5b505b5050505050505050505b50565b5f805f808490506003815114158061199957507f2d0000000000000000000000000000000000000000000000000000000000000081600181518110611969576119686127c6565b5b602001015160f81c60f81b7effffffffffffffffffffffffffffffffffffffffffffffffffffffffffffff191614155b156119ad575f805f93509350935050611a69565b5f815f815181106119c1576119c06127c6565b5b602001015160f81c60f81b60f81c90505f826002815181106119e6576119e56127c6565b5b602001015160f81c60f81b60f81c905060308260ff161080611a0b575060398260ff16115b80611a19575060308160ff16105b80611a27575060398160ff16115b15611a3d575f805f955095509550505050611a69565b603082611a4a9190612c2c565b9550603081611a599190612c2c565b9450858560019550955095505050505b9193909250565b60405180604001604052805f81526020015f6002811115611a9457611a93611de5565b5b81525090565b6040518061012001604052805f60ff1681526020016060815260200160608152602001606081526020015f81526020015f81526020015f8152602001606081526020015f151581525090565b828054828255905f5260205f20908101928215611b5c579160200282015b82811115611b5b578251825f6101000a81548173ffffffffffffffffffffffffffffffffffffffff021916908373ffffffffffffffffffffffffffffffffffffffff16021790555091602001919060010190611b04565b5b509050611b699190611bed565b5090565b508054611b79906124c2565b5f825580601f10611b8a5750611ba7565b601f0160209004905f5260205f2090810190611ba69190611bed565b5b50565b5080545f8255905f5260205f2090810190611bc59190611bed565b50565b5080545f8255601f0160209004905f5260205f2090810190611bea9190611bed565b50565b5b80821115611c04575f815f905550600101611bee565b5090565b5f604051905090565b5f80fd5b5f80fd5b5f60ff82169050919050565b611c2e81611c19565b8114611c38575f80fd5b50565b5f81359050611c4981611c25565b92915050565b5f80fd5b5f80fd5b5f601f19601f8301169050919050565b7f4e487b71000000000000000000000000000000000000000000000000000000005f52604160045260245ffd5b611c9d82611c57565b810181811067ffffffffffffffff82111715611cbc57611cbb611c67565b5b80604052505050565b5f611cce611c08565b9050611cda8282611c94565b919050565b5f67ffffffffffffffff821115611cf957611cf8611c67565b5b611d0282611c57565b9050602081019050919050565b828183375f83830152505050565b5f611d2f611d2a84611cdf565b611cc5565b905082815260208101848484011115611d4b57611d4a611c53565b5b611d56848285611d0f565b509392505050565b5f82601f830112611d7257611d71611c4f565b5b8135611d82848260208601611d1d565b91505092915050565b5f8060408385031215611da157611da0611c11565b5b5f611dae85828601611c3b565b925050602083013567ffffffffffffffff811115611dcf57611dce611c15565b5b611ddb85828601611d5e565b9150509250929050565b7f4e487b71000000000000000000000000000000000000000000000000000000005f52602160045260245ffd5b60028110611e2357611e22611de5565b5b50565b5f819050611e3382611e12565b919050565b5f611e4282611e26565b9050919050565b611e5281611e38565b82525050565b5f602082019050611e6b5f830184611e49565b92915050565b5f81519050919050565b5f82825260208201905092915050565b5f819050602082019050919050565b5f819050919050565b611eac81611e9a565b82525050565b60038110611ec357611ec2611de5565b5b50565b5f819050611ed382611eb2565b919050565b5f611ee282611ec6565b9050919050565b611ef281611ed8565b82525050565b604082015f820151611f0c5f850182611ea3565b506020820151611f1f6020850182611ee9565b50505050565b5f611f308383611ef8565b60408301905092915050565b5f602082019050919050565b5f611f5282611e71565b611f5c8185611e7b565b9350611f6783611e8b565b805f5b83811015611f97578151611f7e8882611f25565b9750611f8983611f3c565b925050600181019050611f6a565b5085935050505092915050565b5f6020820190508181035f830152611fbc8184611f48565b905092915050565b60038110611fd0575f80fd5b50565b5f81359050611fe181611fc4565b92915050565b5f8060408385031215611ffd57611ffc611c11565b5b5f61200a85828601611c3b565b925050602061201b85828601611fd3565b9150509250929050565b5f81519050919050565b5f82825260208201905092915050565b5f819050602082019050919050565b61205781611c19565b82525050565b5f81519050919050565b5f82825260208201905092915050565b8281835e5f83830152505050565b5f61208f8261205d565b6120998185612067565b93506120a9818560208601612077565b6120b281611c57565b840191505092915050565b5f81519050919050565b5f82825260208201905092915050565b5f819050602082019050919050565b5f73ffffffffffffffffffffffffffffffffffffffff82169050919050565b5f61210f826120e6565b9050919050565b61211f81612105565b82525050565b5f6121308383612116565b60208301905092915050565b5f602082019050919050565b5f612152826120bd565b61215c81856120c7565b9350612167836120d7565b805f5b8381101561219757815161217e8882612125565b97506121898361213c565b92505060018101905061216a565b5085935050505092915050565b5f8115159050919050565b6121b8816121a4565b82525050565b5f61012083015f8301516121d45f86018261204e565b50602083015184820360208601526121ec8282612085565b915050604083015184820360408601526122068282612085565b915050606083015184820360608601526122208282612085565b91505060808301516122356080860182611ea3565b5060a083015161224860a0860182611ea3565b5060c083015161225b60c0860182611ea3565b5060e083015184820360e08601526122738282612148565b91505061010083015161228a6101008601826121af565b508091505092915050565b5f6122a083836121be565b905092915050565b5f602082019050919050565b5f6122be82612025565b6122c8818561202f565b9350836020820285016122da8561203f565b805f5b8581101561231557848403895281516122f68582612295565b9450612301836122a8565b925060208a019950506001810190506122dd565b50829750879550505050505092915050565b5f6020820190508181035f83015261233f81846122b4565b905092915050565b5f805f6060848603121561235e5761235d611c11565b5b5f61236b86828701611c3b565b935050602084013567ffffffffffffffff81111561238c5761238b611c15565b5b61239886828701611d5e565b925050604084013567ffffffffffffffff8111156123b9576123b8611c15565b5b6123c586828701611d5e565b9150509250925092565b6123d881611c19565b82525050565b5f6020820190506123f15f8301846123cf565b92915050565b5f82825260208201905092915050565b7f4f6e6c79207468652061646d696e2063616e2063616c6c20746869732066756e5f8201527f6374696f6e000000000000000000000000000000000000000000000000000000602082015250565b5f6124616025836123f7565b915061246c82612407565b604082019050919050565b5f6020820190508181035f83015261248e81612455565b9050919050565b7f4e487b71000000000000000000000000000000000000000000000000000000005f52602260045260245ffd5b5f60028204905060018216806124d957607f821691505b6020821081036124ec576124eb612495565b5b50919050565b7f4d6174636820646f6573206e6f742065786973740000000000000000000000005f82015250565b5f6125266014836123f7565b9150612531826124f2565b602082019050919050565b5f6020820190508181035f8301526125538161251a565b9050919050565b5f819050815f5260205f209050919050565b5f6020601f8301049050919050565b5f82821b905092915050565b5f600883026125b67fffffffffffffffffffffffffffffffffffffffffffffffffffffffffffffffff8261257b565b6125c0868361257b565b95508019841693508086168417925050509392505050565b5f819050919050565b5f6125fb6125f66125f184611e9a565b6125d8565b611e9a565b9050919050565b5f819050919050565b612614836125e1565b61262861262082612602565b848454612587565b825550505050565b5f90565b61263c612630565b61264781848461260b565b505050565b5b8181101561266a5761265f5f82612634565b60018101905061264d565b5050565b601f8211156126af576126808161255a565b6126898461256c565b81016020851015612698578190505b6126ac6126a48561256c565b83018261264c565b50505b505050565b5f82821c905092915050565b5f6126cf5f19846008026126b4565b1980831691505092915050565b5f6126e783836126c0565b9150826002028217905092915050565b6127008261205d565b67ffffffffffffffff81111561271957612718611c67565b5b61272382546124c2565b61272e82828561266e565b5f60209050601f83116001811461275f575f841561274d578287015190505b61275785826126dc565b8655506127be565b601f19841661276d8661255a565b5f5b828110156127945784890151825560018201915060208501945060208101905061276f565b868310156127b157848901516127ad601f8916826126c0565b8355505b6001600288020188555050505b505050505050565b7f4e487b71000000000000000000000000000000000000000000000000000000005f52603260045260245ffd5b7f412062657420616d6f756e7420697320726571756972656400000000000000005f82015250565b5f6128276018836123f7565b9150612832826127f3565b602082019050919050565b5f6020820190508181035f8301526128548161281b565b9050919050565b7f496e76616c6964207465616d2073656c656374696f6e000000000000000000005f82015250565b5f61288f6016836123f7565b915061289a8261285b565b602082019050919050565b5f6020820190508181035f8301526128bc81612883565b9050919050565b7f42657474696e672069732063757272656e746c7920636c6f73656420666f72205f8201527f616c6c206d617463686573000000000000000000000000000000000000000000602082015250565b5f61291d602b836123f7565b9150612928826128c3565b604082019050919050565b5f6020820190508181035f83015261294a81612911565b9050919050565b7f54686973206d617463682068617320616c7265616479206265656e20736574745f8201527f6c65640000000000000000000000000000000000000000000000000000000000602082015250565b5f6129ab6023836123f7565b91506129b682612951565b604082019050919050565b5f6020820190508181035f8301526129d88161299f565b9050919050565b7f4e487b71000000000000000000000000000000000000000000000000000000005f52601160045260245ffd5b5f612a1682611e9a565b9150612a2183611e9a565b9250828201905080821115612a3957612a386129df565b5b92915050565b7f4d617463682077697468207468697320494420616c72656164792065786973745f8201527f7300000000000000000000000000000000000000000000000000000000000000602082015250565b5f612a996021836123f7565b9150612aa482612a3f565b604082019050919050565b5f6020820190508181035f830152612ac681612a8d565b9050919050565b7f42657474696e67206d75737420626520636c6f73656420746f20736574746c655f8201527f206d617463686573000000000000000000000000000000000000000000000000602082015250565b5f612b276028836123f7565b9150612b3282612acd565b604082019050919050565b5f6020820190508181035f830152612b5481612b1b565b9050919050565b5f612b6582611e9a565b9150612b7083611e9a565b9250828202612b7e81611e9a565b91508282048414831517612b9557612b946129df565b5b5092915050565b7f4e487b71000000000000000000000000000000000000000000000000000000005f52601260045260245ffd5b5f612bd382611e9a565b9150612bde83611e9a565b925082612bee57612bed612b9c565b5b828204905092915050565b5f612c0382611e9a565b9150612c0e83611e9a565b9250828203905081811115612c2657612c256129df565b5b92915050565b5f612c3682611c19565b9150612c4183611c19565b9250828203905060ff811115612c5a57612c596129df565b5b9291505056fea2646970667358221220c0c28bdd6ef24947e5424df073dc7905a4a404be7eed01d9b9f3f9f2eb8b5ead64736f6c634300081a0033",
			"opcodes": "PUSH1 0x80 PUSH1 0x40 MSTORE CALLVALUE DUP1 ISZERO PUSH1 0xE JUMPI PUSH0 DUP1 REVERT JUMPDEST POP CALLER PUSH0 DUP1 PUSH2 0x100 EXP DUP2 SLOAD DUP2 PUSH20 0xFFFFFFFFFFFFFFFFFFFFFFFFFFFFFFFFFFFFFFFF MUL NOT AND SWAP1 DUP4 PUSH20 0xFFFFFFFFFFFFFFFFFFFFFFFFFFFFFFFFFFFFFFFF AND MUL OR SWAP1 SSTORE POP PUSH1 0x1 PUSH0 PUSH1 0x15 PUSH2 0x100 EXP DUP2 SLOAD DUP2 PUSH1 0xFF MUL NOT AND SWAP1 DUP4 PUSH1 0x1 DUP2 GT ISZERO PUSH1 0x70 JUMPI PUSH1 0x6F PUSH1 0x94 JUMP JUMPDEST JUMPDEST MUL OR SWAP1 SSTORE POP PUSH1 0x5 PUSH0 PUSH1 0x14 PUSH2 0x100 EXP DUP2 SLOAD DUP2 PUSH1 0xFF MUL NOT AND SWAP1 DUP4 PUSH1 0xFF AND MUL OR SWAP1 SSTORE POP PUSH1 0xC1 JUMP JUMPDEST PUSH32 0x4E487B7100000000000000000000000000000000000000000000000000000000 PUSH0 MSTORE PUSH1 0x21 PUSH1 0x4 MSTORE PUSH1 0x24 PUSH0 REVERT JUMPDEST PUSH2 0x2C96 DUP1 PUSH2 0xCE PUSH0 CODECOPY PUSH0 RETURN INVALID PUSH1 0x80 PUSH1 0x40 MSTORE PUSH1 0x4 CALLDATASIZE LT PUSH2 0x9B JUMPI PUSH0 CALLDATALOAD PUSH1 0xE0 SHR DUP1 PUSH4 0xC17C5A45 GT PUSH2 0x63 JUMPI DUP1 PUSH4 0xC17C5A45 EQ PUSH2 0x14D JUMPI DUP1 PUSH4 0xCB002CF5 EQ PUSH2 0x177 JUMPI DUP1 PUSH4 0xD19CE9F5 EQ PUSH2 0x19F JUMPI DUP1 PUSH4 0xD575FE64 EQ PUSH2 0x1B5 JUMPI DUP1 PUSH4 0xE10B020C EQ PUSH2 0x1DF JUMPI DUP1 PUSH4 0xF5251CF3 EQ PUSH2 0x1F5 JUMPI PUSH2 0x9B JUMP JUMPDEST DUP1 PUSH4 0xEE1B33D EQ PUSH2 0x9F JUMPI DUP1 PUSH4 0x15AC534D EQ PUSH2 0xC7 JUMPI DUP1 PUSH4 0x57899342 EQ PUSH2 0xDD JUMPI DUP1 PUSH4 0x99535BD7 EQ PUSH2 0x107 JUMPI DUP1 PUSH4 0xA648567B EQ PUSH2 0x131 JUMPI JUMPDEST PUSH0 DUP1 REVERT JUMPDEST CALLVALUE DUP1 ISZERO PUSH2 0xAA JUMPI PUSH0 DUP1 REVERT JUMPDEST POP PUSH2 0xC5 PUSH1 0x4 DUP1 CALLDATASIZE SUB DUP2 ADD SWAP1 PUSH2 0xC0 SWAP2 SWAP1 PUSH2 0x1D8B JUMP JUMPDEST PUSH2 0x20B JUMP JUMPDEST STOP JUMPDEST CALLVALUE DUP1 ISZERO PUSH2 0xD2 JUMPI PUSH0 DUP1 REVERT JUMPDEST POP PUSH2 0xDB PUSH2 0x32C JUMP JUMPDEST STOP JUMPDEST CALLVALUE DUP1 ISZERO PUSH2 0xE8 JUMPI PUSH0 DUP1 REVERT JUMPDEST POP PUSH2 0xF1 PUSH2 0x3E5 JUMP JUMPDEST PUSH1 0x40 MLOAD PUSH2 0xFE SWAP2 SWAP1 PUSH2 0x1E58 JUMP JUMPDEST PUSH1 0x40 MLOAD DUP1 SWAP2 SUB SWAP1 RETURN JUMPDEST CALLVALUE DUP1 ISZERO PUSH2 0x112 JUMPI PUSH0 DUP1 REVERT JUMPDEST POP PUSH2 0x11B PUSH2 0x3FA JUMP JUMPDEST PUSH1 0x40 MLOAD PUSH2 0x128 SWAP2 SWAP1 PUSH2 0x1FA4 JUMP JUMPDEST PUSH1 0x40 MLOAD DUP1 SWAP2 SUB SWAP1 RETURN JUMPDEST PUSH2 0x14B PUSH1 0x4 DUP1 CALLDATASIZE SUB DUP2 ADD SWAP1 PUSH2 0x146 SWAP2 SWAP1 PUSH2 0x1FE7 JUMP JUMPDEST PUSH2 0x5FE JUMP JUMPDEST STOP JUMPDEST CALLVALUE DUP1 ISZERO PUSH2 0x158 JUMPI PUSH0 DUP1 REVERT JUMPDEST POP PUSH2 0x161 PUSH2 0xACE JUMP JUMPDEST PUSH1 0x40 MLOAD PUSH2 0x16E SWAP2 SWAP1 PUSH2 0x2327 JUMP JUMPDEST PUSH1 0x40 MLOAD DUP1 SWAP2 SUB SWAP1 RETURN JUMPDEST CALLVALUE DUP1 ISZERO PUSH2 0x182 JUMPI PUSH0 DUP1 REVERT JUMPDEST POP PUSH2 0x19D PUSH1 0x4 DUP1 CALLDATASIZE SUB DUP2 ADD SWAP1 PUSH2 0x198 SWAP2 SWAP1 PUSH2 0x2347 JUMP JUMPDEST PUSH2 0xE50 JUMP JUMPDEST STOP JUMPDEST CALLVALUE DUP1 ISZERO PUSH2 0x1AA JUMPI PUSH0 DUP1 REVERT JUMPDEST POP PUSH2 0x1B3 PUSH2 0x10FD JUMP JUMPDEST STOP JUMPDEST CALLVALUE DUP1 ISZERO PUSH2 0x1C0 JUMPI PUSH0 DUP1 REVERT JUMPDEST POP PUSH2 0x1C9 PUSH2 0x1277 JUMP JUMPDEST PUSH1 0x40 MLOAD PUSH2 0x1D6 SWAP2 SWAP1 PUSH2 0x23DE JUMP JUMPDEST PUSH1 0x40 MLOAD DUP1 SWAP2 SUB SWAP1 RETURN JUMPDEST CALLVALUE DUP1 ISZERO PUSH2 0x1EA JUMPI PUSH0 DUP1 REVERT JUMPDEST POP PUSH2 0x1F3 PUSH2 0x1289 JUMP JUMPDEST STOP JUMPDEST CALLVALUE DUP1 ISZERO PUSH2 0x200 JUMPI PUSH0 DUP1 REVERT JUMPDEST POP PUSH2 0x209 PUSH2 0x1341 JUMP JUMPDEST STOP JUMPDEST PUSH0 DUP1 SLOAD SWAP1 PUSH2 0x100 EXP SWAP1 DIV PUSH20 0xFFFFFFFFFFFFFFFFFFFFFFFFFFFFFFFFFFFFFFFF AND PUSH20 0xFFFFFFFFFFFFFFFFFFFFFFFFFFFFFFFFFFFFFFFF AND CALLER PUSH20 0xFFFFFFFFFFFFFFFFFFFFFFFFFFFFFFFFFFFFFFFF AND EQ PUSH2 0x298 JUMPI PUSH1 0x40 MLOAD PUSH32 0x8C379A000000000000000000000000000000000000000000000000000000000 DUP2 MSTORE PUSH1 0x4 ADD PUSH2 0x28F SWAP1 PUSH2 0x2477 JUMP JUMPDEST PUSH1 0x40 MLOAD DUP1 SWAP2 SUB SWAP1 REVERT JUMPDEST PUSH0 PUSH1 0x1 PUSH0 DUP5 PUSH1 0xFF AND PUSH1 0xFF AND DUP2 MSTORE PUSH1 0x20 ADD SWAP1 DUP2 MSTORE PUSH1 0x20 ADD PUSH0 KECCAK256 PUSH1 0x1 ADD DUP1 SLOAD PUSH2 0x2BE SWAP1 PUSH2 0x24C2 JUMP JUMPDEST SWAP1 POP SUB PUSH2 0x300 JUMPI PUSH1 0x40 MLOAD PUSH32 0x8C379A000000000000000000000000000000000000000000000000000000000 DUP2 MSTORE PUSH1 0x4 ADD PUSH2 0x2F7 SWAP1 PUSH2 0x253C JUMP JUMPDEST PUSH1 0x40 MLOAD DUP1 SWAP2 SUB SWAP1 REVERT JUMPDEST DUP1 PUSH1 0x1 PUSH0 DUP5 PUSH1 0xFF AND PUSH1 0xFF AND DUP2 MSTORE PUSH1 0x20 ADD SWAP1 DUP2 MSTORE PUSH1 0x20 ADD PUSH0 KECCAK256 PUSH1 0x3 ADD SWAP1 DUP2 PUSH2 0x327 SWAP2 SWAP1 PUSH2 0x26F7 JUMP JUMPDEST POP POP POP JUMP JUMPDEST PUSH0 DUP1 SLOAD SWAP1 PUSH2 0x100 EXP SWAP1 DIV PUSH20 0xFFFFFFFFFFFFFFFFFFFFFFFFFFFFFFFFFFFFFFFF AND PUSH20 0xFFFFFFFFFFFFFFFFFFFFFFFFFFFFFFFFFFFFFFFF AND CALLER PUSH20 0xFFFFFFFFFFFFFFFFFFFFFFFFFFFFFFFFFFFFFFFF AND EQ PUSH2 0x3B9 JUMPI PUSH1 0x40 MLOAD PUSH32 0x8C379A000000000000000000000000000000000000000000000000000000000 DUP2 MSTORE PUSH1 0x4 ADD PUSH2 0x3B0 SWAP1 PUSH2 0x2477 JUMP JUMPDEST PUSH1 0x40 MLOAD DUP1 SWAP2 SUB SWAP1 REVERT JUMPDEST PUSH1 0x1 PUSH0 PUSH1 0x15 PUSH2 0x100 EXP DUP2 SLOAD DUP2 PUSH1 0xFF MUL NOT AND SWAP1 DUP4 PUSH1 0x1 DUP2 GT ISZERO PUSH2 0x3DE JUMPI PUSH2 0x3DD PUSH2 0x1DE5 JUMP JUMPDEST JUMPDEST MUL OR SWAP1 SSTORE POP JUMP JUMPDEST PUSH0 DUP1 PUSH1 0x15 SWAP1 SLOAD SWAP1 PUSH2 0x100 EXP SWAP1 DIV PUSH1 0xFF AND SWAP1 POP SWAP1 JUMP JUMPDEST PUSH1 0x60 PUSH0 PUSH1 0x4 PUSH0 CALLER PUSH20 0xFFFFFFFFFFFFFFFFFFFFFFFFFFFFFFFFFFFFFFFF AND PUSH20 0xFFFFFFFFFFFFFFFFFFFFFFFFFFFFFFFFFFFFFFFF AND DUP2 MSTORE PUSH1 0x20 ADD SWAP1 DUP2 MSTORE PUSH1 0x20 ADD PUSH0 KECCAK256 DUP1 SLOAD DUP1 PUSH1 0x20 MUL PUSH1 0x20 ADD PUSH1 0x40 MLOAD SWAP1 DUP2 ADD PUSH1 0x40 MSTORE DUP1 SWAP3 SWAP2 SWAP1 DUP2 DUP2 MSTORE PUSH1 0x20 ADD DUP3 DUP1 SLOAD DUP1 ISZERO PUSH2 0x4A6 JUMPI PUSH1 0x20 MUL DUP3 ADD SWAP2 SWAP1 PUSH0 MSTORE PUSH1 0x20 PUSH0 KECCAK256 SWAP1 PUSH0 SWAP1 JUMPDEST DUP3 DUP3 SWAP1 SLOAD SWAP1 PUSH2 0x100 EXP SWAP1 DIV PUSH1 0xFF AND PUSH1 0xFF AND DUP2 MSTORE PUSH1 0x20 ADD SWAP1 PUSH1 0x1 ADD SWAP1 PUSH1 0x20 DUP3 PUSH0 ADD DIV SWAP3 DUP4 ADD SWAP3 PUSH1 0x1 SUB DUP3 MUL SWAP2 POP DUP1 DUP5 GT PUSH2 0x470 JUMPI SWAP1 POP JUMPDEST POP POP POP POP POP SWAP1 POP PUSH0 DUP2 MLOAD PUSH8 0xFFFFFFFFFFFFFFFF DUP2 GT ISZERO PUSH2 0x4C9 JUMPI PUSH2 0x4C8 PUSH2 0x1C67 JUMP JUMPDEST JUMPDEST PUSH1 0x40 MLOAD SWAP1 DUP1 DUP3 MSTORE DUP1 PUSH1 0x20 MUL PUSH1 0x20 ADD DUP3 ADD PUSH1 0x40 MSTORE DUP1 ISZERO PUSH2 0x502 JUMPI DUP2 PUSH1 0x20 ADD JUMPDEST PUSH2 0x4EF PUSH2 0x1A70 JUMP JUMPDEST DUP2 MSTORE PUSH1 0x20 ADD SWAP1 PUSH1 0x1 SWAP1 SUB SWAP1 DUP2 PUSH2 0x4E7 JUMPI SWAP1 POP JUMPDEST POP SWAP1 POP PUSH0 JUMPDEST DUP3 MLOAD DUP2 LT ISZERO PUSH2 0x5F5 JUMPI PUSH1 0x3 PUSH0 DUP5 DUP4 DUP2 MLOAD DUP2 LT PUSH2 0x526 JUMPI PUSH2 0x525 PUSH2 0x27C6 JUMP JUMPDEST JUMPDEST PUSH1 0x20 MUL PUSH1 0x20 ADD ADD MLOAD PUSH1 0xFF AND PUSH1 0xFF AND DUP2 MSTORE PUSH1 0x20 ADD SWAP1 DUP2 MSTORE PUSH1 0x20 ADD PUSH0 KECCAK256 PUSH0 CALLER PUSH20 0xFFFFFFFFFFFFFFFFFFFFFFFFFFFFFFFFFFFFFFFF AND PUSH20 0xFFFFFFFFFFFFFFFFFFFFFFFFFFFFFFFFFFFFFFFF AND DUP2 MSTORE PUSH1 0x20 ADD SWAP1 DUP2 MSTORE PUSH1 0x20 ADD PUSH0 KECCAK256 PUSH1 0x40 MLOAD DUP1 PUSH1 0x40 ADD PUSH1 0x40 MSTORE SWAP1 DUP2 PUSH0 DUP3 ADD SLOAD DUP2 MSTORE PUSH1 0x20 ADD PUSH1 0x1 DUP3 ADD PUSH0 SWAP1 SLOAD SWAP1 PUSH2 0x100 EXP SWAP1 DIV PUSH1 0xFF AND PUSH1 0x2 DUP2 GT ISZERO PUSH2 0x5B4 JUMPI PUSH2 0x5B3 PUSH2 0x1DE5 JUMP JUMPDEST JUMPDEST PUSH1 0x2 DUP2 GT ISZERO PUSH2 0x5C6 JUMPI PUSH2 0x5C5 PUSH2 0x1DE5 JUMP JUMPDEST JUMPDEST DUP2 MSTORE POP POP DUP3 DUP3 DUP2 MLOAD DUP2 LT PUSH2 0x5DD JUMPI PUSH2 0x5DC PUSH2 0x27C6 JUMP JUMPDEST JUMPDEST PUSH1 0x20 MUL PUSH1 0x20 ADD ADD DUP2 SWAP1 MSTORE POP DUP1 DUP1 PUSH1 0x1 ADD SWAP2 POP POP PUSH2 0x507 JUMP JUMPDEST POP DUP1 SWAP3 POP POP POP SWAP1 JUMP JUMPDEST PUSH0 CALLVALUE GT PUSH2 0x640 JUMPI PUSH1 0x40 MLOAD PUSH32 0x8C379A000000000000000000000000000000000000000000000000000000000 DUP2 MSTORE PUSH1 0x4 ADD PUSH2 0x637 SWAP1 PUSH2 0x283D JUMP JUMPDEST PUSH1 0x40 MLOAD DUP1 SWAP2 SUB SWAP1 REVERT JUMPDEST PUSH1 0x2 DUP2 PUSH1 0x2 DUP2 GT ISZERO PUSH2 0x655 JUMPI PUSH2 0x654 PUSH2 0x1DE5 JUMP JUMPDEST JUMPDEST PUSH1 0xFF AND GT ISZERO PUSH2 0x699 JUMPI PUSH1 0x40 MLOAD PUSH32 0x8C379A000000000000000000000000000000000000000000000000000000000 DUP2 MSTORE PUSH1 0x4 ADD PUSH2 0x690 SWAP1 PUSH2 0x28A5 JUMP JUMPDEST PUSH1 0x40 MLOAD DUP1 SWAP2 SUB SWAP1 REVERT JUMPDEST PUSH0 PUSH1 0x1 PUSH0 DUP5 PUSH1 0xFF AND PUSH1 0xFF AND DUP2 MSTORE PUSH1 0x20 ADD SWAP1 DUP2 MSTORE PUSH1 0x20 ADD PUSH0 KECCAK256 PUSH1 0x1 ADD DUP1 SLOAD PUSH2 0x6BF SWAP1 PUSH2 0x24C2 JUMP JUMPDEST SWAP1 POP SUB PUSH2 0x701 JUMPI PUSH1 0x40 MLOAD PUSH32 0x8C379A000000000000000000000000000000000000000000000000000000000 DUP2 MSTORE PUSH1 0x4 ADD PUSH2 0x6F8 SWAP1 PUSH2 0x253C JUMP JUMPDEST PUSH1 0x40 MLOAD DUP1 SWAP2 SUB SWAP1 REVERT JUMPDEST PUSH0 PUSH1 0x1 DUP2 GT ISZERO PUSH2 0x714 JUMPI PUSH2 0x713 PUSH2 0x1DE5 JUMP JUMPDEST JUMPDEST PUSH0 PUSH1 0x15 SWAP1 SLOAD SWAP1 PUSH2 0x100 EXP SWAP1 DIV PUSH1 0xFF AND PUSH1 0x1 DUP2 GT ISZERO PUSH2 0x735 JUMPI PUSH2 0x734 PUSH2 0x1DE5 JUMP JUMPDEST JUMPDEST EQ PUSH2 0x775 JUMPI PUSH1 0x40 MLOAD PUSH32 0x8C379A000000000000000000000000000000000000000000000000000000000 DUP2 MSTORE PUSH1 0x4 ADD PUSH2 0x76C SWAP1 PUSH2 0x2933 JUMP JUMPDEST PUSH1 0x40 MLOAD DUP1 SWAP2 SUB SWAP1 REVERT JUMPDEST PUSH1 0x1 PUSH0 DUP4 PUSH1 0xFF AND PUSH1 0xFF AND DUP2 MSTORE PUSH1 0x20 ADD SWAP1 DUP2 MSTORE PUSH1 0x20 ADD PUSH0 KECCAK256 PUSH1 0x8 ADD PUSH0 SWAP1 SLOAD SWAP1 PUSH2 0x100 EXP SWAP1 DIV PUSH1 0xFF AND ISZERO PUSH2 0x7DC JUMPI PUSH1 0x40 MLOAD PUSH32 0x8C379A000000000000000000000000000000000000000000000000000000000 DUP2 MSTORE PUSH1 0x4 ADD PUSH2 0x7D3 SWAP1 PUSH2 0x29C1 JUMP JUMPDEST PUSH1 0x40 MLOAD DUP1 SWAP2 SUB SWAP1 REVERT JUMPDEST PUSH0 PUSH1 0x1 PUSH0 DUP5 PUSH1 0xFF AND PUSH1 0xFF AND DUP2 MSTORE PUSH1 0x20 ADD SWAP1 DUP2 MSTORE PUSH1 0x20 ADD PUSH0 KECCAK256 SWAP1 POP PUSH1 0x1 PUSH1 0x2 DUP2 GT ISZERO PUSH2 0x80A JUMPI PUSH2 0x809 PUSH2 0x1DE5 JUMP JUMPDEST JUMPDEST DUP3 PUSH1 0x2 DUP2 GT ISZERO PUSH2 0x81D JUMPI PUSH2 0x81C PUSH2 0x1DE5 JUMP JUMPDEST JUMPDEST SUB PUSH2 0x841 JUMPI CALLVALUE DUP2 PUSH1 0x4 ADD PUSH0 DUP3 DUP3 SLOAD PUSH2 0x835 SWAP2 SWAP1 PUSH2 0x2A0C JUMP JUMPDEST SWAP3 POP POP DUP2 SWAP1 SSTORE POP PUSH2 0x8A7 JUMP JUMPDEST PUSH1 0x2 DUP1 DUP2 GT ISZERO PUSH2 0x854 JUMPI PUSH2 0x853 PUSH2 0x1DE5 JUMP JUMPDEST JUMPDEST DUP3 PUSH1 0x2 DUP2 GT ISZERO PUSH2 0x867 JUMPI PUSH2 0x866 PUSH2 0x1DE5 JUMP JUMPDEST JUMPDEST SUB PUSH2 0x88B JUMPI CALLVALUE DUP2 PUSH1 0x5 ADD PUSH0 DUP3 DUP3 SLOAD PUSH2 0x87F SWAP2 SWAP1 PUSH2 0x2A0C JUMP JUMPDEST SWAP3 POP POP DUP2 SWAP1 SSTORE POP PUSH2 0x8A6 JUMP JUMPDEST CALLVALUE DUP2 PUSH1 0x6 ADD PUSH0 DUP3 DUP3 SLOAD PUSH2 0x89E SWAP2 SWAP1 PUSH2 0x2A0C JUMP JUMPDEST SWAP3 POP POP DUP2 SWAP1 SSTORE POP JUMPDEST JUMPDEST PUSH0 PUSH1 0x3 PUSH0 DUP6 PUSH1 0xFF AND PUSH1 0xFF AND DUP2 MSTORE PUSH1 0x20 ADD SWAP1 DUP2 MSTORE PUSH1 0x20 ADD PUSH0 KECCAK256 PUSH0 CALLER PUSH20 0xFFFFFFFFFFFFFFFFFFFFFFFFFFFFFFFFFFFFFFFF AND PUSH20 0xFFFFFFFFFFFFFFFFFFFFFFFFFFFFFFFFFFFFFFFF AND DUP2 MSTORE PUSH1 0x20 ADD SWAP1 DUP2 MSTORE PUSH1 0x20 ADD PUSH0 KECCAK256 PUSH0 ADD SLOAD SUB PUSH2 0x965 JUMPI DUP1 PUSH1 0x7 ADD CALLER SWAP1 DUP1 PUSH1 0x1 DUP2 SLOAD ADD DUP1 DUP3 SSTORE DUP1 SWAP2 POP POP PUSH1 0x1 SWAP1 SUB SWAP1 PUSH0 MSTORE PUSH1 0x20 PUSH0 KECCAK256 ADD PUSH0 SWAP1 SWAP2 SWAP1 SWAP2 SWAP1 SWAP2 PUSH2 0x100 EXP DUP2 SLOAD DUP2 PUSH20 0xFFFFFFFFFFFFFFFFFFFFFFFFFFFFFFFFFFFFFFFF MUL NOT AND SWAP1 DUP4 PUSH20 0xFFFFFFFFFFFFFFFFFFFFFFFFFFFFFFFFFFFFFFFF AND MUL OR SWAP1 SSTORE POP JUMPDEST CALLVALUE PUSH1 0x3 PUSH0 DUP6 PUSH1 0xFF AND PUSH1 0xFF AND DUP2 MSTORE PUSH1 0x20 ADD SWAP1 DUP2 MSTORE PUSH1 0x20 ADD PUSH0 KECCAK256 PUSH0 CALLER PUSH20 0xFFFFFFFFFFFFFFFFFFFFFFFFFFFFFFFFFFFFFFFF AND PUSH20 0xFFFFFFFFFFFFFFFFFFFFFFFFFFFFFFFFFFFFFFFF AND DUP2 MSTORE PUSH1 0x20 ADD SWAP1 DUP2 MSTORE PUSH1 0x20 ADD PUSH0 KECCAK256 PUSH0 ADD PUSH0 DUP3 DUP3 SLOAD PUSH2 0x9C8 SWAP2 SWAP1 PUSH2 0x2A0C JUMP JUMPDEST SWAP3 POP POP DUP2 SWAP1 SSTORE POP DUP2 PUSH1 0x3 PUSH0 DUP6 PUSH1 0xFF AND PUSH1 0xFF AND DUP2 MSTORE PUSH1 0x20 ADD SWAP1 DUP2 MSTORE PUSH1 0x20 ADD PUSH0 KECCAK256 PUSH0 CALLER PUSH20 0xFFFFFFFFFFFFFFFFFFFFFFFFFFFFFFFFFFFFFFFF AND PUSH20 0xFFFFFFFFFFFFFFFFFFFFFFFFFFFFFFFFFFFFFFFF AND DUP2 MSTORE PUSH1 0x20 ADD SWAP1 DUP2 MSTORE PUSH1 0x20 ADD PUSH0 KECCAK256 PUSH1 0x1 ADD PUSH0 PUSH2 0x100 EXP DUP2 SLOAD DUP2 PUSH1 0xFF MUL NOT AND SWAP1 DUP4 PUSH1 0x2 DUP2 GT ISZERO PUSH2 0xA46 JUMPI PUSH2 0xA45 PUSH2 0x1DE5 JUMP JUMPDEST JUMPDEST MUL OR SWAP1 SSTORE POP PUSH1 0x4 PUSH0 CALLER PUSH20 0xFFFFFFFFFFFFFFFFFFFFFFFFFFFFFFFFFFFFFFFF AND PUSH20 0xFFFFFFFFFFFFFFFFFFFFFFFFFFFFFFFFFFFFFFFF AND DUP2 MSTORE PUSH1 0x20 ADD SWAP1 DUP2 MSTORE PUSH1 0x20 ADD PUSH0 KECCAK256 DUP4 SWAP1 DUP1 PUSH1 0x1 DUP2 SLOAD ADD DUP1 DUP3 SSTORE DUP1 SWAP2 POP POP PUSH1 0x1 SWAP1 SUB SWAP1 PUSH0 MSTORE PUSH1 0x20 PUSH0 KECCAK256 SWAP1 PUSH1 0x20 SWAP2 DUP3 DUP3 DIV ADD SWAP2 SWAP1 MOD SWAP1 SWAP2 SWAP1 SWAP2 SWAP1 SWAP2 PUSH2 0x100 EXP DUP2 SLOAD DUP2 PUSH1 0xFF MUL NOT AND SWAP1 DUP4 PUSH1 0xFF AND MUL OR SWAP1 SSTORE POP POP POP POP JUMP JUMPDEST PUSH1 0x60 PUSH0 PUSH1 0x2 DUP1 SLOAD SWAP1 POP PUSH8 0xFFFFFFFFFFFFFFFF DUP2 GT ISZERO PUSH2 0xAF0 JUMPI PUSH2 0xAEF PUSH2 0x1C67 JUMP JUMPDEST JUMPDEST PUSH1 0x40 MLOAD SWAP1 DUP1 DUP3 MSTORE DUP1 PUSH1 0x20 MUL PUSH1 0x20 ADD DUP3 ADD PUSH1 0x40 MSTORE DUP1 ISZERO PUSH2 0xB29 JUMPI DUP2 PUSH1 0x20 ADD JUMPDEST PUSH2 0xB16 PUSH2 0x1A9A JUMP JUMPDEST DUP2 MSTORE PUSH1 0x20 ADD SWAP1 PUSH1 0x1 SWAP1 SUB SWAP1 DUP2 PUSH2 0xB0E JUMPI SWAP1 POP JUMPDEST POP SWAP1 POP PUSH0 JUMPDEST PUSH1 0x2 DUP1 SLOAD SWAP1 POP DUP2 LT ISZERO PUSH2 0xE48 JUMPI PUSH1 0x1 PUSH0 PUSH1 0x2 DUP4 DUP2 SLOAD DUP2 LT PUSH2 0xB52 JUMPI PUSH2 0xB51 PUSH2 0x27C6 JUMP JUMPDEST JUMPDEST SWAP1 PUSH0 MSTORE PUSH1 0x20 PUSH0 KECCAK256 SWAP1 PUSH1 0x20 SWAP2 DUP3 DUP3 DIV ADD SWAP2 SWAP1 MOD SWAP1 SLOAD SWAP1 PUSH2 0x100 EXP SWAP1 DIV PUSH1 0xFF AND PUSH1 0xFF AND PUSH1 0xFF AND DUP2 MSTORE PUSH1 0x20 ADD SWAP1 DUP2 MSTORE PUSH1 0x20 ADD PUSH0 KECCAK256 PUSH1 0x40 MLOAD DUP1 PUSH2 0x120 ADD PUSH1 0x40 MSTORE SWAP1 DUP2 PUSH0 DUP3 ADD PUSH0 SWAP1 SLOAD SWAP1 PUSH2 0x100 EXP SWAP1 DIV PUSH1 0xFF AND PUSH1 0xFF AND PUSH1 0xFF AND DUP2 MSTORE PUSH1 0x20 ADD PUSH1 0x1 DUP3 ADD DUP1 SLOAD PUSH2 0xBBA SWAP1 PUSH2 0x24C2 JUMP JUMPDEST DUP1 PUSH1 0x1F ADD PUSH1 0x20 DUP1 SWAP2 DIV MUL PUSH1 0x20 ADD PUSH1 0x40 MLOAD SWAP1 DUP2 ADD PUSH1 0x40 MSTORE DUP1 SWAP3 SWAP2 SWAP1 DUP2 DUP2 MSTORE PUSH1 0x20 ADD DUP3 DUP1 SLOAD PUSH2 0xBE6 SWAP1 PUSH2 0x24C2 JUMP JUMPDEST DUP1 ISZERO PUSH2 0xC31 JUMPI DUP1 PUSH1 0x1F LT PUSH2 0xC08 JUMPI PUSH2 0x100 DUP1 DUP4 SLOAD DIV MUL DUP4 MSTORE SWAP2 PUSH1 0x20 ADD SWAP2 PUSH2 0xC31 JUMP JUMPDEST DUP3 ADD SWAP2 SWAP1 PUSH0 MSTORE PUSH1 0x20 PUSH0 KECCAK256 SWAP1 JUMPDEST DUP2 SLOAD DUP2 MSTORE SWAP1 PUSH1 0x1 ADD SWAP1 PUSH1 0x20 ADD DUP1 DUP4 GT PUSH2 0xC14 JUMPI DUP3 SWAP1 SUB PUSH1 0x1F AND DUP3 ADD SWAP2 JUMPDEST POP POP POP POP POP DUP2 MSTORE PUSH1 0x20 ADD PUSH1 0x2 DUP3 ADD DUP1 SLOAD PUSH2 0xC4A SWAP1 PUSH2 0x24C2 JUMP JUMPDEST DUP1 PUSH1 0x1F ADD PUSH1 0x20 DUP1 SWAP2 DIV MUL PUSH1 0x20 ADD PUSH1 0x40 MLOAD SWAP1 DUP2 ADD PUSH1 0x40 MSTORE DUP1 SWAP3 SWAP2 SWAP1 DUP2 DUP2 MSTORE PUSH1 0x20 ADD DUP3 DUP1 SLOAD PUSH2 0xC76 SWAP1 PUSH2 0x24C2 JUMP JUMPDEST DUP1 ISZERO PUSH2 0xCC1 JUMPI DUP1 PUSH1 0x1F LT PUSH2 0xC98 JUMPI PUSH2 0x100 DUP1 DUP4 SLOAD DIV MUL DUP4 MSTORE SWAP2 PUSH1 0x20 ADD SWAP2 PUSH2 0xCC1 JUMP JUMPDEST DUP3 ADD SWAP2 SWAP1 PUSH0 MSTORE PUSH1 0x20 PUSH0 KECCAK256 SWAP1 JUMPDEST DUP2 SLOAD DUP2 MSTORE SWAP1 PUSH1 0x1 ADD SWAP1 PUSH1 0x20 ADD DUP1 DUP4 GT PUSH2 0xCA4 JUMPI DUP3 SWAP1 SUB PUSH1 0x1F AND DUP3 ADD SWAP2 JUMPDEST POP POP POP POP POP DUP2 MSTORE PUSH1 0x20 ADD PUSH1 0x3 DUP3 ADD DUP1 SLOAD PUSH2 0xCDA SWAP1 PUSH2 0x24C2 JUMP JUMPDEST DUP1 PUSH1 0x1F ADD PUSH1 0x20 DUP1 SWAP2 DIV MUL PUSH1 0x20 ADD PUSH1 0x40 MLOAD SWAP1 DUP2 ADD PUSH1 0x40 MSTORE DUP1 SWAP3 SWAP2 SWAP1 DUP2 DUP2 MSTORE PUSH1 0x20 ADD DUP3 DUP1 SLOAD PUSH2 0xD06 SWAP1 PUSH2 0x24C2 JUMP JUMPDEST DUP1 ISZERO PUSH2 0xD51 JUMPI DUP1 PUSH1 0x1F LT PUSH2 0xD28 JUMPI PUSH2 0x100 DUP1 DUP4 SLOAD DIV MUL DUP4 MSTORE SWAP2 PUSH1 0x20 ADD SWAP2 PUSH2 0xD51 JUMP JUMPDEST DUP3 ADD SWAP2 SWAP1 PUSH0 MSTORE PUSH1 0x20 PUSH0 KECCAK256 SWAP1 JUMPDEST DUP2 SLOAD DUP2 MSTORE SWAP1 PUSH1 0x1 ADD SWAP1 PUSH1 0x20 ADD DUP1 DUP4 GT PUSH2 0xD34 JUMPI DUP3 SWAP1 SUB PUSH1 0x1F AND DUP3 ADD SWAP2 JUMPDEST POP POP POP POP POP DUP2 MSTORE PUSH1 0x20 ADD PUSH1 0x4 DUP3 ADD SLOAD DUP2 MSTORE PUSH1 0x20 ADD PUSH1 0x5 DUP3 ADD SLOAD DUP2 MSTORE PUSH1 0x20 ADD PUSH1 0x6 DUP3 ADD SLOAD DUP2 MSTORE PUSH1 0x20 ADD PUSH1 0x7 DUP3 ADD DUP1 SLOAD DUP1 PUSH1 0x20 MUL PUSH1 0x20 ADD PUSH1 0x40 MLOAD SWAP1 DUP2 ADD PUSH1 0x40 MSTORE DUP1 SWAP3 SWAP2 SWAP1 DUP2 DUP2 MSTORE PUSH1 0x20 ADD DUP3 DUP1 SLOAD DUP1 ISZERO PUSH2 0xDFA JUMPI PUSH1 0x20 MUL DUP3 ADD SWAP2 SWAP1 PUSH0 MSTORE PUSH1 0x20 PUSH0 KECCAK256 SWAP1 JUMPDEST DUP2 PUSH0 SWAP1 SLOAD SWAP1 PUSH2 0x100 EXP SWAP1 DIV PUSH20 0xFFFFFFFFFFFFFFFFFFFFFFFFFFFFFFFFFFFFFFFF AND PUSH20 0xFFFFFFFFFFFFFFFFFFFFFFFFFFFFFFFFFFFFFFFF AND DUP2 MSTORE PUSH1 0x20 ADD SWAP1 PUSH1 0x1 ADD SWAP1 DUP1 DUP4 GT PUSH2 0xDB1 JUMPI JUMPDEST POP POP POP POP POP DUP2 MSTORE PUSH1 0x20 ADD PUSH1 0x8 DUP3 ADD PUSH0 SWAP1 SLOAD SWAP1 PUSH2 0x100 EXP SWAP1 DIV PUSH1 0xFF AND ISZERO ISZERO ISZERO ISZERO DUP2 MSTORE POP POP DUP3 DUP3 DUP2 MLOAD DUP2 LT PUSH2 0xE30 JUMPI PUSH2 0xE2F PUSH2 0x27C6 JUMP JUMPDEST JUMPDEST PUSH1 0x20 MUL PUSH1 0x20 ADD ADD DUP2 SWAP1 MSTORE POP DUP1 DUP1 PUSH1 0x1 ADD SWAP2 POP POP PUSH2 0xB2E JUMP JUMPDEST POP DUP1 SWAP2 POP POP SWAP1 JUMP JUMPDEST PUSH0 DUP1 SLOAD SWAP1 PUSH2 0x100 EXP SWAP1 DIV PUSH20 0xFFFFFFFFFFFFFFFFFFFFFFFFFFFFFFFFFFFFFFFF AND PUSH20 0xFFFFFFFFFFFFFFFFFFFFFFFFFFFFFFFFFFFFFFFF AND CALLER PUSH20 0xFFFFFFFFFFFFFFFFFFFFFFFFFFFFFFFFFFFFFFFF AND EQ PUSH2 0xEDD JUMPI PUSH1 0x40 MLOAD PUSH32 0x8C379A000000000000000000000000000000000000000000000000000000000 DUP2 MSTORE PUSH1 0x4 ADD PUSH2 0xED4 SWAP1 PUSH2 0x2477 JUMP JUMPDEST PUSH1 0x40 MLOAD DUP1 SWAP2 SUB SWAP1 REVERT JUMPDEST PUSH0 PUSH1 0x1 PUSH0 DUP6 PUSH1 0xFF AND PUSH1 0xFF AND DUP2 MSTORE PUSH1 0x20 ADD SWAP1 DUP2 MSTORE PUSH1 0x20 ADD PUSH0 KECCAK256 PUSH1 0x1 ADD DUP1 SLOAD PUSH2 0xF03 SWAP1 PUSH2 0x24C2 JUMP JUMPDEST SWAP1 POP EQ PUSH2 0xF45 JUMPI PUSH1 0x40 MLOAD PUSH32 0x8C379A000000000000000000000000000000000000000000000000000000000 DUP2 MSTORE PUSH1 0x4 ADD PUSH2 0xF3C SWAP1 PUSH2 0x2AAF JUMP JUMPDEST PUSH1 0x40 MLOAD DUP1 SWAP2 SUB SWAP1 REVERT JUMPDEST PUSH1 0x40 MLOAD DUP1 PUSH2 0x120 ADD PUSH1 0x40 MSTORE DUP1 DUP5 PUSH1 0xFF AND DUP2 MSTORE PUSH1 0x20 ADD DUP4 DUP2 MSTORE PUSH1 0x20 ADD DUP3 DUP2 MSTORE PUSH1 0x20 ADD PUSH1 0x40 MLOAD DUP1 PUSH1 0x20 ADD PUSH1 0x40 MSTORE DUP1 PUSH0 DUP2 MSTORE POP DUP2 MSTORE PUSH1 0x20 ADD PUSH0 DUP2 MSTORE PUSH1 0x20 ADD PUSH0 DUP2 MSTORE PUSH1 0x20 ADD PUSH0 DUP2 MSTORE PUSH1 0x20 ADD PUSH0 PUSH8 0xFFFFFFFFFFFFFFFF DUP2 GT ISZERO PUSH2 0xFA6 JUMPI PUSH2 0xFA5 PUSH2 0x1C67 JUMP JUMPDEST JUMPDEST PUSH1 0x40 MLOAD SWAP1 DUP1 DUP3 MSTORE DUP1 PUSH1 0x20 MUL PUSH1 0x20 ADD DUP3 ADD PUSH1 0x40 MSTORE DUP1 ISZERO PUSH2 0xFD4 JUMPI DUP2 PUSH1 0x20 ADD PUSH1 0x20 DUP3 MUL DUP1 CALLDATASIZE DUP4 CALLDATACOPY DUP1 DUP3 ADD SWAP2 POP POP SWAP1 POP JUMPDEST POP DUP2 MSTORE PUSH1 0x20 ADD PUSH0 ISZERO ISZERO DUP2 MSTORE POP PUSH1 0x1 PUSH0 DUP6 PUSH1 0xFF AND PUSH1 0xFF AND DUP2 MSTORE PUSH1 0x20 ADD SWAP1 DUP2 MSTORE PUSH1 0x20 ADD PUSH0 KECCAK256 PUSH0 DUP3 ADD MLOAD DUP2 PUSH0 ADD PUSH0 PUSH2 0x100 EXP DUP2 SLOAD DUP2 PUSH1 0xFF MUL NOT AND SWAP1 DUP4 PUSH1 0xFF AND MUL OR SWAP1 SSTORE POP PUSH1 0x20 DUP3 ADD MLOAD DUP2 PUSH1 0x1 ADD SWAP1 DUP2 PUSH2 0x102A SWAP2 SWAP1 PUSH2 0x26F7 JUMP JUMPDEST POP PUSH1 0x40 DUP3 ADD MLOAD DUP2 PUSH1 0x2 ADD SWAP1 DUP2 PUSH2 0x1040 SWAP2 SWAP1 PUSH2 0x26F7 JUMP JUMPDEST POP PUSH1 0x60 DUP3 ADD MLOAD DUP2 PUSH1 0x3 ADD SWAP1 DUP2 PUSH2 0x1056 SWAP2 SWAP1 PUSH2 0x26F7 JUMP JUMPDEST POP PUSH1 0x80 DUP3 ADD MLOAD DUP2 PUSH1 0x4 ADD SSTORE PUSH1 0xA0 DUP3 ADD MLOAD DUP2 PUSH1 0x5 ADD SSTORE PUSH1 0xC0 DUP3 ADD MLOAD DUP2 PUSH1 0x6 ADD SSTORE PUSH1 0xE0 DUP3 ADD MLOAD DUP2 PUSH1 0x7 ADD SWAP1 DUP1 MLOAD SWAP1 PUSH1 0x20 ADD SWAP1 PUSH2 0x1091 SWAP3 SWAP2 SWAP1 PUSH2 0x1AE6 JUMP JUMPDEST POP PUSH2 0x100 DUP3 ADD MLOAD DUP2 PUSH1 0x8 ADD PUSH0 PUSH2 0x100 EXP DUP2 SLOAD DUP2 PUSH1 0xFF MUL NOT AND SWAP1 DUP4 ISZERO ISZERO MUL OR SWAP1 SSTORE POP SWAP1 POP POP PUSH1 0x2 DUP4 SWAP1 DUP1 PUSH1 0x1 DUP2 SLOAD ADD DUP1 DUP3 SSTORE DUP1 SWAP2 POP POP PUSH1 0x1 SWAP1 SUB SWAP1 PUSH0 MSTORE PUSH1 0x20 PUSH0 KECCAK256 SWAP1 PUSH1 0x20 SWAP2 DUP3 DUP3 DIV ADD SWAP2 SWAP1 MOD SWAP1 SWAP2 SWAP1 SWAP2 SWAP1 SWAP2 PUSH2 0x100 EXP DUP2 SLOAD DUP2 PUSH1 0xFF MUL NOT AND SWAP1 DUP4 PUSH1 0xFF AND MUL OR SWAP1 SSTORE POP POP POP POP JUMP JUMPDEST PUSH0 DUP1 SLOAD SWAP1 PUSH2 0x100 EXP SWAP1 DIV PUSH20 0xFFFFFFFFFFFFFFFFFFFFFFFFFFFFFFFFFFFFFFFF AND PUSH20 0xFFFFFFFFFFFFFFFFFFFFFFFFFFFFFFFFFFFFFFFF AND CALLER PUSH20 0xFFFFFFFFFFFFFFFFFFFFFFFFFFFFFFFFFFFFFFFF AND EQ PUSH2 0x118A JUMPI PUSH1 0x40 MLOAD PUSH32 0x8C379A000000000000000000000000000000000000000000000000000000000 DUP2 MSTORE PUSH1 0x4 ADD PUSH2 0x1181 SWAP1 PUSH2 0x2477 JUMP JUMPDEST PUSH1 0x40 MLOAD DUP1 SWAP2 SUB SWAP1 REVERT JUMPDEST PUSH0 JUMPDEST PUSH1 0x2 DUP1 SLOAD SWAP1 POP DUP2 LT ISZERO PUSH2 0x1267 JUMPI PUSH1 0x1 PUSH0 PUSH1 0x2 DUP4 DUP2 SLOAD DUP2 LT PUSH2 0x11B0 JUMPI PUSH2 0x11AF PUSH2 0x27C6 JUMP JUMPDEST JUMPDEST SWAP1 PUSH0 MSTORE PUSH1 0x20 PUSH0 KECCAK256 SWAP1 PUSH1 0x20 SWAP2 DUP3 DUP3 DIV ADD SWAP2 SWAP1 MOD SWAP1 SLOAD SWAP1 PUSH2 0x100 EXP SWAP1 DIV PUSH1 0xFF AND PUSH1 0xFF AND PUSH1 0xFF AND DUP2 MSTORE PUSH1 0x20 ADD SWAP1 DUP2 MSTORE PUSH1 0x20 ADD PUSH0 KECCAK256 PUSH0 DUP1 DUP3 ADD PUSH0 PUSH2 0x100 EXP DUP2 SLOAD SWAP1 PUSH1 0xFF MUL NOT AND SWAP1 SSTORE PUSH1 0x1 DUP3 ADD PUSH0 PUSH2 0x1203 SWAP2 SWAP1 PUSH2 0x1B6D JUMP JUMPDEST PUSH1 0x2 DUP3 ADD PUSH0 PUSH2 0x1212 SWAP2 SWAP1 PUSH2 0x1B6D JUMP JUMPDEST PUSH1 0x3 DUP3 ADD PUSH0 PUSH2 0x1221 SWAP2 SWAP1 PUSH2 0x1B6D JUMP JUMPDEST PUSH1 0x4 DUP3 ADD PUSH0 SWAP1 SSTORE PUSH1 0x5 DUP3 ADD PUSH0 SWAP1 SSTORE PUSH1 0x6 DUP3 ADD PUSH0 SWAP1 SSTORE PUSH1 0x7 DUP3 ADD PUSH0 PUSH2 0x1245 SWAP2 SWAP1 PUSH2 0x1BAA JUMP JUMPDEST PUSH1 0x8 DUP3 ADD PUSH0 PUSH2 0x100 EXP DUP2 SLOAD SWAP1 PUSH1 0xFF MUL NOT AND SWAP1 SSTORE POP POP DUP1 DUP1 PUSH1 0x1 ADD SWAP2 POP POP PUSH2 0x118C JUMP JUMPDEST POP PUSH1 0x2 PUSH0 PUSH2 0x1275 SWAP2 SWAP1 PUSH2 0x1BC8 JUMP JUMPDEST JUMP JUMPDEST PUSH0 PUSH1 0x14 SWAP1 SLOAD SWAP1 PUSH2 0x100 EXP SWAP1 DIV PUSH1 0xFF AND DUP2 JUMP JUMPDEST PUSH0 DUP1 SLOAD SWAP1 PUSH2 0x100 EXP SWAP1 DIV PUSH20 0xFFFFFFFFFFFFFFFFFFFFFFFFFFFFFFFFFFFFFFFF AND PUSH20 0xFFFFFFFFFFFFFFFFFFFFFFFFFFFFFFFFFFFFFFFF AND CALLER PUSH20 0xFFFFFFFFFFFFFFFFFFFFFFFFFFFFFFFFFFFFFFFF AND EQ PUSH2 0x1316 JUMPI PUSH1 0x40 MLOAD PUSH32 0x8C379A000000000000000000000000000000000000000000000000000000000 DUP2 MSTORE PUSH1 0x4 ADD PUSH2 0x130D SWAP1 PUSH2 0x2477 JUMP JUMPDEST PUSH1 0x40 MLOAD DUP1 SWAP2 SUB SWAP1 REVERT JUMPDEST PUSH0 DUP1 PUSH1 0x15 PUSH2 0x100 EXP DUP2 SLOAD DUP2 PUSH1 0xFF MUL NOT AND SWAP1 DUP4 PUSH1 0x1 DUP2 GT ISZERO PUSH2 0x133A JUMPI PUSH2 0x1339 PUSH2 0x1DE5 JUMP JUMPDEST JUMPDEST MUL OR SWAP1 SSTORE POP JUMP JUMPDEST PUSH0 DUP1 SLOAD SWAP1 PUSH2 0x100 EXP SWAP1 DIV PUSH20 0xFFFFFFFFFFFFFFFFFFFFFFFFFFFFFFFFFFFFFFFF AND PUSH20 0xFFFFFFFFFFFFFFFFFFFFFFFFFFFFFFFFFFFFFFFF AND CALLER PUSH20 0xFFFFFFFFFFFFFFFFFFFFFFFFFFFFFFFFFFFFFFFF AND EQ PUSH2 0x13CE JUMPI PUSH1 0x40 MLOAD PUSH32 0x8C379A000000000000000000000000000000000000000000000000000000000 DUP2 MSTORE PUSH1 0x4 ADD PUSH2 0x13C5 SWAP1 PUSH2 0x2477 JUMP JUMPDEST PUSH1 0x40 MLOAD DUP1 SWAP2 SUB SWAP1 REVERT JUMPDEST PUSH1 0x1 DUP1 DUP2 GT ISZERO PUSH2 0x13E1 JUMPI PUSH2 0x13E0 PUSH2 0x1DE5 JUMP JUMPDEST JUMPDEST PUSH0 PUSH1 0x15 SWAP1 SLOAD SWAP1 PUSH2 0x100 EXP SWAP1 DIV PUSH1 0xFF AND PUSH1 0x1 DUP2 GT ISZERO PUSH2 0x1402 JUMPI PUSH2 0x1401 PUSH2 0x1DE5 JUMP JUMPDEST JUMPDEST EQ PUSH2 0x1442 JUMPI PUSH1 0x40 MLOAD PUSH32 0x8C379A000000000000000000000000000000000000000000000000000000000 DUP2 MSTORE PUSH1 0x4 ADD PUSH2 0x1439 SWAP1 PUSH2 0x2B3D JUMP JUMPDEST PUSH1 0x40 MLOAD DUP1 SWAP2 SUB SWAP1 REVERT JUMPDEST PUSH0 JUMPDEST PUSH1 0x2 DUP1 SLOAD SWAP1 POP DUP2 LT ISZERO PUSH2 0x14FC JUMPI PUSH0 PUSH1 0x2 DUP3 DUP2 SLOAD DUP2 LT PUSH2 0x1466 JUMPI PUSH2 0x1465 PUSH2 0x27C6 JUMP JUMPDEST JUMPDEST SWAP1 PUSH0 MSTORE PUSH1 0x20 PUSH0 KECCAK256 SWAP1 PUSH1 0x20 SWAP2 DUP3 DUP3 DIV ADD SWAP2 SWAP1 MOD SWAP1 SLOAD SWAP1 PUSH2 0x100 EXP SWAP1 DIV PUSH1 0xFF AND SWAP1 POP PUSH0 PUSH1 0x1 PUSH0 DUP4 PUSH1 0xFF AND PUSH1 0xFF AND DUP2 MSTORE PUSH1 0x20 ADD SWAP1 DUP2 MSTORE PUSH1 0x20 ADD PUSH0 KECCAK256 PUSH1 0x3 ADD DUP1 SLOAD PUSH2 0x14AC SWAP1 PUSH2 0x24C2 JUMP JUMPDEST SWAP1 POP GT DUP1 ISZERO PUSH2 0x14DF JUMPI POP PUSH1 0x1 PUSH0 DUP3 PUSH1 0xFF AND PUSH1 0xFF AND DUP2 MSTORE PUSH1 0x20 ADD SWAP1 DUP2 MSTORE PUSH1 0x20 ADD PUSH0 KECCAK256 PUSH1 0x8 ADD PUSH0 SWAP1 SLOAD SWAP1 PUSH2 0x100 EXP SWAP1 DIV PUSH1 0xFF AND ISZERO JUMPDEST ISZERO PUSH2 0x14EE JUMPI PUSH2 0x14ED DUP2 PUSH2 0x14FF JUMP JUMPDEST JUMPDEST POP DUP1 DUP1 PUSH1 0x1 ADD SWAP2 POP POP PUSH2 0x1444 JUMP JUMPDEST POP JUMP JUMPDEST PUSH0 PUSH1 0x1 PUSH0 DUP4 PUSH1 0xFF AND PUSH1 0xFF AND DUP2 MSTORE PUSH1 0x20 ADD SWAP1 DUP2 MSTORE PUSH1 0x20 ADD PUSH0 KECCAK256 SWAP1 POP PUSH1 0x1 DUP2 PUSH1 0x8 ADD PUSH0 PUSH2 0x100 EXP DUP2 SLOAD DUP2 PUSH1 0xFF MUL NOT AND SWAP1 DUP4 ISZERO ISZERO MUL OR SWAP1 SSTORE POP PUSH0 DUP1 PUSH0 PUSH2 0x15CB DUP5 PUSH1 0x3 ADD DUP1 SLOAD PUSH2 0x154A SWAP1 PUSH2 0x24C2 JUMP JUMPDEST DUP1 PUSH1 0x1F ADD PUSH1 0x20 DUP1 SWAP2 DIV MUL PUSH1 0x20 ADD PUSH1 0x40 MLOAD SWAP1 DUP2 ADD PUSH1 0x40 MSTORE DUP1 SWAP3 SWAP2 SWAP1 DUP2 DUP2 MSTORE PUSH1 0x20 ADD DUP3 DUP1 SLOAD PUSH2 0x1576 SWAP1 PUSH2 0x24C2 JUMP JUMPDEST DUP1 ISZERO PUSH2 0x15C1 JUMPI DUP1 PUSH1 0x1F LT PUSH2 0x1598 JUMPI PUSH2 0x100 DUP1 DUP4 SLOAD DIV MUL DUP4 MSTORE SWAP2 PUSH1 0x20 ADD SWAP2 PUSH2 0x15C1 JUMP JUMPDEST DUP3 ADD SWAP2 SWAP1 PUSH0 MSTORE PUSH1 0x20 PUSH0 KECCAK256 SWAP1 JUMPDEST DUP2 SLOAD DUP2 MSTORE SWAP1 PUSH1 0x1 ADD SWAP1 PUSH1 0x20 ADD DUP1 DUP4 GT PUSH2 0x15A4 JUMPI DUP3 SWAP1 SUB PUSH1 0x1F AND DUP3 ADD SWAP2 JUMPDEST POP POP POP POP POP PUSH2 0x1921 JUMP JUMPDEST SWAP3 POP SWAP3 POP SWAP3 POP DUP1 PUSH2 0x15DF JUMPI POP POP POP POP PUSH2 0x191E JUMP JUMPDEST PUSH0 DUP3 PUSH1 0xFF AND DUP5 PUSH1 0xFF AND GT ISZERO PUSH2 0x15F7 JUMPI PUSH1 0x1 SWAP1 POP PUSH2 0x1613 JUMP JUMPDEST DUP4 PUSH1 0xFF AND DUP4 PUSH1 0xFF AND GT ISZERO PUSH2 0x160E JUMPI PUSH1 0x2 SWAP1 POP PUSH2 0x1612 JUMP JUMPDEST PUSH0 SWAP1 POP JUMPDEST JUMPDEST PUSH0 DUP6 PUSH1 0x6 ADD SLOAD DUP7 PUSH1 0x5 ADD SLOAD DUP8 PUSH1 0x4 ADD SLOAD PUSH2 0x162D SWAP2 SWAP1 PUSH2 0x2A0C JUMP JUMPDEST PUSH2 0x1637 SWAP2 SWAP1 PUSH2 0x2A0C JUMP JUMPDEST SWAP1 POP PUSH0 DUP2 SUB PUSH2 0x164B JUMPI POP POP POP POP POP POP PUSH2 0x191E JUMP JUMPDEST PUSH0 PUSH1 0x64 PUSH0 PUSH1 0x14 SWAP1 SLOAD SWAP1 PUSH2 0x100 EXP SWAP1 DIV PUSH1 0xFF AND PUSH1 0xFF AND DUP4 PUSH2 0x166B SWAP2 SWAP1 PUSH2 0x2B5B JUMP JUMPDEST PUSH2 0x1675 SWAP2 SWAP1 PUSH2 0x2BC9 JUMP JUMPDEST SWAP1 POP PUSH0 DUP2 DUP4 PUSH2 0x1684 SWAP2 SWAP1 PUSH2 0x2BF9 JUMP JUMPDEST SWAP1 POP PUSH0 PUSH1 0x1 PUSH1 0x2 DUP2 GT ISZERO PUSH2 0x169B JUMPI PUSH2 0x169A PUSH2 0x1DE5 JUMP JUMPDEST JUMPDEST DUP6 PUSH1 0x2 DUP2 GT ISZERO PUSH2 0x16AE JUMPI PUSH2 0x16AD PUSH2 0x1DE5 JUMP JUMPDEST JUMPDEST SUB PUSH2 0x16BF JUMPI DUP9 PUSH1 0x4 ADD SLOAD SWAP1 POP PUSH2 0x16FF JUMP JUMPDEST PUSH1 0x2 DUP1 DUP2 GT ISZERO PUSH2 0x16D2 JUMPI PUSH2 0x16D1 PUSH2 0x1DE5 JUMP JUMPDEST JUMPDEST DUP6 PUSH1 0x2 DUP2 GT ISZERO PUSH2 0x16E5 JUMPI PUSH2 0x16E4 PUSH2 0x1DE5 JUMP JUMPDEST JUMPDEST SUB PUSH2 0x16F6 JUMPI DUP9 PUSH1 0x5 ADD SLOAD SWAP1 POP PUSH2 0x16FE JUMP JUMPDEST DUP9 PUSH1 0x6 ADD SLOAD SWAP1 POP JUMPDEST JUMPDEST PUSH0 DUP2 GT ISZERO PUSH2 0x18A8 JUMPI PUSH0 JUMPDEST DUP10 PUSH1 0x7 ADD DUP1 SLOAD SWAP1 POP DUP2 LT ISZERO PUSH2 0x18A6 JUMPI PUSH0 DUP11 PUSH1 0x7 ADD DUP3 DUP2 SLOAD DUP2 LT PUSH2 0x172F JUMPI PUSH2 0x172E PUSH2 0x27C6 JUMP JUMPDEST JUMPDEST SWAP1 PUSH0 MSTORE PUSH1 0x20 PUSH0 KECCAK256 ADD PUSH0 SWAP1 SLOAD SWAP1 PUSH2 0x100 EXP SWAP1 DIV PUSH20 0xFFFFFFFFFFFFFFFFFFFFFFFFFFFFFFFFFFFFFFFF AND SWAP1 POP PUSH0 PUSH1 0x3 PUSH0 DUP15 PUSH1 0xFF AND PUSH1 0xFF AND DUP2 MSTORE PUSH1 0x20 ADD SWAP1 DUP2 MSTORE PUSH1 0x20 ADD PUSH0 KECCAK256 PUSH0 DUP4 PUSH20 0xFFFFFFFFFFFFFFFFFFFFFFFFFFFFFFFFFFFFFFFF AND PUSH20 0xFFFFFFFFFFFFFFFFFFFFFFFFFFFFFFFFFFFFFFFF AND DUP2 MSTORE PUSH1 0x20 ADD SWAP1 DUP2 MSTORE PUSH1 0x20 ADD PUSH0 KECCAK256 PUSH1 0x40 MLOAD DUP1 PUSH1 0x40 ADD PUSH1 0x40 MSTORE SWAP1 DUP2 PUSH0 DUP3 ADD SLOAD DUP2 MSTORE PUSH1 0x20 ADD PUSH1 0x1 DUP3 ADD PUSH0 SWAP1 SLOAD SWAP1 PUSH2 0x100 EXP SWAP1 DIV PUSH1 0xFF AND PUSH1 0x2 DUP2 GT ISZERO PUSH2 0x17E4 JUMPI PUSH2 0x17E3 PUSH2 0x1DE5 JUMP JUMPDEST JUMPDEST PUSH1 0x2 DUP2 GT ISZERO PUSH2 0x17F6 JUMPI PUSH2 0x17F5 PUSH2 0x1DE5 JUMP JUMPDEST JUMPDEST DUP2 MSTORE POP POP SWAP1 POP DUP8 PUSH1 0x2 DUP2 GT ISZERO PUSH2 0x180F JUMPI PUSH2 0x180E PUSH2 0x1DE5 JUMP JUMPDEST JUMPDEST DUP2 PUSH1 0x20 ADD MLOAD PUSH1 0x2 DUP2 GT ISZERO PUSH2 0x1826 JUMPI PUSH2 0x1825 PUSH2 0x1DE5 JUMP JUMPDEST JUMPDEST SUB PUSH2 0x1897 JUMPI PUSH0 DUP5 DUP7 DUP4 PUSH0 ADD MLOAD PUSH2 0x183C SWAP2 SWAP1 PUSH2 0x2B5B JUMP JUMPDEST PUSH2 0x1846 SWAP2 SWAP1 PUSH2 0x2BC9 JUMP JUMPDEST SWAP1 POP PUSH0 DUP2 GT ISZERO PUSH2 0x1895 JUMPI DUP3 PUSH20 0xFFFFFFFFFFFFFFFFFFFFFFFFFFFFFFFFFFFFFFFF AND PUSH2 0x8FC DUP3 SWAP1 DUP2 ISZERO MUL SWAP1 PUSH1 0x40 MLOAD PUSH0 PUSH1 0x40 MLOAD DUP1 DUP4 SUB DUP2 DUP6 DUP9 DUP9 CALL SWAP4 POP POP POP POP ISZERO DUP1 ISZERO PUSH2 0x1893 JUMPI RETURNDATASIZE PUSH0 DUP1 RETURNDATACOPY RETURNDATASIZE PUSH0 REVERT JUMPDEST POP JUMPDEST POP JUMPDEST POP POP DUP1 DUP1 PUSH1 0x1 ADD SWAP2 POP POP PUSH2 0x1709 JUMP JUMPDEST POP JUMPDEST PUSH0 DUP4 GT ISZERO PUSH2 0x1914 JUMPI PUSH0 DUP1 SLOAD SWAP1 PUSH2 0x100 EXP SWAP1 DIV PUSH20 0xFFFFFFFFFFFFFFFFFFFFFFFFFFFFFFFFFFFFFFFF AND PUSH20 0xFFFFFFFFFFFFFFFFFFFFFFFFFFFFFFFFFFFFFFFF AND PUSH2 0x8FC DUP5 SWAP1 DUP2 ISZERO MUL SWAP1 PUSH1 0x40 MLOAD PUSH0 PUSH1 0x40 MLOAD DUP1 DUP4 SUB DUP2 DUP6 DUP9 DUP9 CALL SWAP4 POP POP POP POP ISZERO DUP1 ISZERO PUSH2 0x1912 JUMPI RETURNDATASIZE PUSH0 DUP1 RETURNDATACOPY RETURNDATASIZE PUSH0 REVERT JUMPDEST POP JUMPDEST POP POP POP POP POP POP POP POP POP JUMPDEST POP JUMP JUMPDEST PUSH0 DUP1 PUSH0 DUP1 DUP5 SWAP1 POP PUSH1 0x3 DUP2 MLOAD EQ ISZERO DUP1 PUSH2 0x1999 JUMPI POP PUSH32 0x2D00000000000000000000000000000000000000000000000000000000000000 DUP2 PUSH1 0x1 DUP2 MLOAD DUP2 LT PUSH2 0x1969 JUMPI PUSH2 0x1968 PUSH2 0x27C6 JUMP JUMPDEST JUMPDEST PUSH1 0x20 ADD ADD MLOAD PUSH1 0xF8 SHR PUSH1 0xF8 SHL PUSH31 0xFFFFFFFFFFFFFFFFFFFFFFFFFFFFFFFFFFFFFFFFFFFFFFFFFFFFFFFFFFFFFF NOT AND EQ ISZERO JUMPDEST ISZERO PUSH2 0x19AD JUMPI PUSH0 DUP1 PUSH0 SWAP4 POP SWAP4 POP SWAP4 POP POP PUSH2 0x1A69 JUMP JUMPDEST PUSH0 DUP2 PUSH0 DUP2 MLOAD DUP2 LT PUSH2 0x19C1 JUMPI PUSH2 0x19C0 PUSH2 0x27C6 JUMP JUMPDEST JUMPDEST PUSH1 0x20 ADD ADD MLOAD PUSH1 0xF8 SHR PUSH1 0xF8 SHL PUSH1 0xF8 SHR SWAP1 POP PUSH0 DUP3 PUSH1 0x2 DUP2 MLOAD DUP2 LT PUSH2 0x19E6 JUMPI PUSH2 0x19E5 PUSH2 0x27C6 JUMP JUMPDEST JUMPDEST PUSH1 0x20 ADD ADD MLOAD PUSH1 0xF8 SHR PUSH1 0xF8 SHL PUSH1 0xF8 SHR SWAP1 POP PUSH1 0x30 DUP3 PUSH1 0xFF AND LT DUP1 PUSH2 0x1A0B JUMPI POP PUSH1 0x39 DUP3 PUSH1 0xFF AND GT JUMPDEST DUP1 PUSH2 0x1A19 JUMPI POP PUSH1 0x30 DUP2 PUSH1 0xFF AND LT JUMPDEST DUP1 PUSH2 0x1A27 JUMPI POP PUSH1 0x39 DUP2 PUSH1 0xFF AND GT JUMPDEST ISZERO PUSH2 0x1A3D JUMPI PUSH0 DUP1 PUSH0 SWAP6 POP SWAP6 POP SWAP6 POP POP POP POP PUSH2 0x1A69 JUMP JUMPDEST PUSH1 0x30 DUP3 PUSH2 0x1A4A SWAP2 SWAP1 PUSH2 0x2C2C JUMP JUMPDEST SWAP6 POP PUSH1 0x30 DUP2 PUSH2 0x1A59 SWAP2 SWAP1 PUSH2 0x2C2C JUMP JUMPDEST SWAP5 POP DUP6 DUP6 PUSH1 0x1 SWAP6 POP SWAP6 POP SWAP6 POP POP POP POP JUMPDEST SWAP2 SWAP4 SWAP1 SWAP3 POP JUMP JUMPDEST PUSH1 0x40 MLOAD DUP1 PUSH1 0x40 ADD PUSH1 0x40 MSTORE DUP1 PUSH0 DUP2 MSTORE PUSH1 0x20 ADD PUSH0 PUSH1 0x2 DUP2 GT ISZERO PUSH2 0x1A94 JUMPI PUSH2 0x1A93 PUSH2 0x1DE5 JUMP JUMPDEST JUMPDEST DUP2 MSTORE POP SWAP1 JUMP JUMPDEST PUSH1 0x40 MLOAD DUP1 PUSH2 0x120 ADD PUSH1 0x40 MSTORE DUP1 PUSH0 PUSH1 0xFF AND DUP2 MSTORE PUSH1 0x20 ADD PUSH1 0x60 DUP2 MSTORE PUSH1 0x20 ADD PUSH1 0x60 DUP2 MSTORE PUSH1 0x20 ADD PUSH1 0x60 DUP2 MSTORE PUSH1 0x20 ADD PUSH0 DUP2 MSTORE PUSH1 0x20 ADD PUSH0 DUP2 MSTORE PUSH1 0x20 ADD PUSH0 DUP2 MSTORE PUSH1 0x20 ADD PUSH1 0x60 DUP2 MSTORE PUSH1 0x20 ADD PUSH0 ISZERO ISZERO DUP2 MSTORE POP SWAP1 JUMP JUMPDEST DUP3 DUP1 SLOAD DUP3 DUP3 SSTORE SWAP1 PUSH0 MSTORE PUSH1 0x20 PUSH0 KECCAK256 SWAP1 DUP2 ADD SWAP3 DUP3 ISZERO PUSH2 0x1B5C JUMPI SWAP2 PUSH1 0x20 MUL DUP3 ADD JUMPDEST DUP3 DUP2 GT ISZERO PUSH2 0x1B5B JUMPI DUP3 MLOAD DUP3 PUSH0 PUSH2 0x100 EXP DUP2 SLOAD DUP2 PUSH20 0xFFFFFFFFFFFFFFFFFFFFFFFFFFFFFFFFFFFFFFFF MUL NOT AND SWAP1 DUP4 PUSH20 0xFFFFFFFFFFFFFFFFFFFFFFFFFFFFFFFFFFFFFFFF AND MUL OR SWAP1 SSTORE POP SWAP2 PUSH1 0x20 ADD SWAP2 SWAP1 PUSH1 0x1 ADD SWAP1 PUSH2 0x1B04 JUMP JUMPDEST JUMPDEST POP SWAP1 POP PUSH2 0x1B69 SWAP2 SWAP1 PUSH2 0x1BED JUMP JUMPDEST POP SWAP1 JUMP JUMPDEST POP DUP1 SLOAD PUSH2 0x1B79 SWAP1 PUSH2 0x24C2 JUMP JUMPDEST PUSH0 DUP3 SSTORE DUP1 PUSH1 0x1F LT PUSH2 0x1B8A JUMPI POP PUSH2 0x1BA7 JUMP JUMPDEST PUSH1 0x1F ADD PUSH1 0x20 SWAP1 DIV SWAP1 PUSH0 MSTORE PUSH1 0x20 PUSH0 KECCAK256 SWAP1 DUP2 ADD SWAP1 PUSH2 0x1BA6 SWAP2 SWAP1 PUSH2 0x1BED JUMP JUMPDEST JUMPDEST POP JUMP JUMPDEST POP DUP1 SLOAD PUSH0 DUP3 SSTORE SWAP1 PUSH0 MSTORE PUSH1 0x20 PUSH0 KECCAK256 SWAP1 DUP2 ADD SWAP1 PUSH2 0x1BC5 SWAP2 SWAP1 PUSH2 0x1BED JUMP JUMPDEST POP JUMP JUMPDEST POP DUP1 SLOAD PUSH0 DUP3 SSTORE PUSH1 0x1F ADD PUSH1 0x20 SWAP1 DIV SWAP1 PUSH0 MSTORE PUSH1 0x20 PUSH0 KECCAK256 SWAP1 DUP2 ADD SWAP1 PUSH2 0x1BEA SWAP2 SWAP1 PUSH2 0x1BED JUMP JUMPDEST POP JUMP JUMPDEST JUMPDEST DUP1 DUP3 GT ISZERO PUSH2 0x1C04 JUMPI PUSH0 DUP2 PUSH0 SWAP1 SSTORE POP PUSH1 0x1 ADD PUSH2 0x1BEE JUMP JUMPDEST POP SWAP1 JUMP JUMPDEST PUSH0 PUSH1 0x40 MLOAD SWAP1 POP SWAP1 JUMP JUMPDEST PUSH0 DUP1 REVERT JUMPDEST PUSH0 DUP1 REVERT JUMPDEST PUSH0 PUSH1 0xFF DUP3 AND SWAP1 POP SWAP2 SWAP1 POP JUMP JUMPDEST PUSH2 0x1C2E DUP2 PUSH2 0x1C19 JUMP JUMPDEST DUP2 EQ PUSH2 0x1C38 JUMPI PUSH0 DUP1 REVERT JUMPDEST POP JUMP JUMPDEST PUSH0 DUP2 CALLDATALOAD SWAP1 POP PUSH2 0x1C49 DUP2 PUSH2 0x1C25 JUMP JUMPDEST SWAP3 SWAP2 POP POP JUMP JUMPDEST PUSH0 DUP1 REVERT JUMPDEST PUSH0 DUP1 REVERT JUMPDEST PUSH0 PUSH1 0x1F NOT PUSH1 0x1F DUP4 ADD AND SWAP1 POP SWAP2 SWAP1 POP JUMP JUMPDEST PUSH32 0x4E487B7100000000000000000000000000000000000000000000000000000000 PUSH0 MSTORE PUSH1 0x41 PUSH1 0x4 MSTORE PUSH1 0x24 PUSH0 REVERT JUMPDEST PUSH2 0x1C9D DUP3 PUSH2 0x1C57 JUMP JUMPDEST DUP2 ADD DUP2 DUP2 LT PUSH8 0xFFFFFFFFFFFFFFFF DUP3 GT OR ISZERO PUSH2 0x1CBC JUMPI PUSH2 0x1CBB PUSH2 0x1C67 JUMP JUMPDEST JUMPDEST DUP1 PUSH1 0x40 MSTORE POP POP POP JUMP JUMPDEST PUSH0 PUSH2 0x1CCE PUSH2 0x1C08 JUMP JUMPDEST SWAP1 POP PUSH2 0x1CDA DUP3 DUP3 PUSH2 0x1C94 JUMP JUMPDEST SWAP2 SWAP1 POP JUMP JUMPDEST PUSH0 PUSH8 0xFFFFFFFFFFFFFFFF DUP3 GT ISZERO PUSH2 0x1CF9 JUMPI PUSH2 0x1CF8 PUSH2 0x1C67 JUMP JUMPDEST JUMPDEST PUSH2 0x1D02 DUP3 PUSH2 0x1C57 JUMP JUMPDEST SWAP1 POP PUSH1 0x20 DUP2 ADD SWAP1 POP SWAP2 SWAP1 POP JUMP JUMPDEST DUP3 DUP2 DUP4 CALLDATACOPY PUSH0 DUP4 DUP4 ADD MSTORE POP POP POP JUMP JUMPDEST PUSH0 PUSH2 0x1D2F PUSH2 0x1D2A DUP5 PUSH2 0x1CDF JUMP JUMPDEST PUSH2 0x1CC5 JUMP JUMPDEST SWAP1 POP DUP3 DUP2 MSTORE PUSH1 0x20 DUP2 ADD DUP5 DUP5 DUP5 ADD GT ISZERO PUSH2 0x1D4B JUMPI PUSH2 0x1D4A PUSH2 0x1C53 JUMP JUMPDEST JUMPDEST PUSH2 0x1D56 DUP5 DUP3 DUP6 PUSH2 0x1D0F JUMP JUMPDEST POP SWAP4 SWAP3 POP POP POP JUMP JUMPDEST PUSH0 DUP3 PUSH1 0x1F DUP4 ADD SLT PUSH2 0x1D72 JUMPI PUSH2 0x1D71 PUSH2 0x1C4F JUMP JUMPDEST JUMPDEST DUP2 CALLDATALOAD PUSH2 0x1D82 DUP5 DUP3 PUSH1 0x20 DUP7 ADD PUSH2 0x1D1D JUMP JUMPDEST SWAP2 POP POP SWAP3 SWAP2 POP POP JUMP JUMPDEST PUSH0 DUP1 PUSH1 0x40 DUP4 DUP6 SUB SLT ISZERO PUSH2 0x1DA1 JUMPI PUSH2 0x1DA0 PUSH2 0x1C11 JUMP JUMPDEST JUMPDEST PUSH0 PUSH2 0x1DAE DUP6 DUP3 DUP7 ADD PUSH2 0x1C3B JUMP JUMPDEST SWAP3 POP POP PUSH1 0x20 DUP4 ADD CALLDATALOAD PUSH8 0xFFFFFFFFFFFFFFFF DUP2 GT ISZERO PUSH2 0x1DCF JUMPI PUSH2 0x1DCE PUSH2 0x1C15 JUMP JUMPDEST JUMPDEST PUSH2 0x1DDB DUP6 DUP3 DUP7 ADD PUSH2 0x1D5E JUMP JUMPDEST SWAP2 POP POP SWAP3 POP SWAP3 SWAP1 POP JUMP JUMPDEST PUSH32 0x4E487B7100000000000000000000000000000000000000000000000000000000 PUSH0 MSTORE PUSH1 0x21 PUSH1 0x4 MSTORE PUSH1 0x24 PUSH0 REVERT JUMPDEST PUSH1 0x2 DUP2 LT PUSH2 0x1E23 JUMPI PUSH2 0x1E22 PUSH2 0x1DE5 JUMP JUMPDEST JUMPDEST POP JUMP JUMPDEST PUSH0 DUP2 SWAP1 POP PUSH2 0x1E33 DUP3 PUSH2 0x1E12 JUMP JUMPDEST SWAP2 SWAP1 POP JUMP JUMPDEST PUSH0 PUSH2 0x1E42 DUP3 PUSH2 0x1E26 JUMP JUMPDEST SWAP1 POP SWAP2 SWAP1 POP JUMP JUMPDEST PUSH2 0x1E52 DUP2 PUSH2 0x1E38 JUMP JUMPDEST DUP3 MSTORE POP POP JUMP JUMPDEST PUSH0 PUSH1 0x20 DUP3 ADD SWAP1 POP PUSH2 0x1E6B PUSH0 DUP4 ADD DUP5 PUSH2 0x1E49 JUMP JUMPDEST SWAP3 SWAP2 POP POP JUMP JUMPDEST PUSH0 DUP2 MLOAD SWAP1 POP SWAP2 SWAP1 POP JUMP JUMPDEST PUSH0 DUP3 DUP3 MSTORE PUSH1 0x20 DUP3 ADD SWAP1 POP SWAP3 SWAP2 POP POP JUMP JUMPDEST PUSH0 DUP2 SWAP1 POP PUSH1 0x20 DUP3 ADD SWAP1 POP SWAP2 SWAP1 POP JUMP JUMPDEST PUSH0 DUP2 SWAP1 POP SWAP2 SWAP1 POP JUMP JUMPDEST PUSH2 0x1EAC DUP2 PUSH2 0x1E9A JUMP JUMPDEST DUP3 MSTORE POP POP JUMP JUMPDEST PUSH1 0x3 DUP2 LT PUSH2 0x1EC3 JUMPI PUSH2 0x1EC2 PUSH2 0x1DE5 JUMP JUMPDEST JUMPDEST POP JUMP JUMPDEST PUSH0 DUP2 SWAP1 POP PUSH2 0x1ED3 DUP3 PUSH2 0x1EB2 JUMP JUMPDEST SWAP2 SWAP1 POP JUMP JUMPDEST PUSH0 PUSH2 0x1EE2 DUP3 PUSH2 0x1EC6 JUMP JUMPDEST SWAP1 POP SWAP2 SWAP1 POP JUMP JUMPDEST PUSH2 0x1EF2 DUP2 PUSH2 0x1ED8 JUMP JUMPDEST DUP3 MSTORE POP POP JUMP JUMPDEST PUSH1 0x40 DUP3 ADD PUSH0 DUP3 ADD MLOAD PUSH2 0x1F0C PUSH0 DUP6 ADD DUP3 PUSH2 0x1EA3 JUMP JUMPDEST POP PUSH1 0x20 DUP3 ADD MLOAD PUSH2 0x1F1F PUSH1 0x20 DUP6 ADD DUP3 PUSH2 0x1EE9 JUMP JUMPDEST POP POP POP POP JUMP JUMPDEST PUSH0 PUSH2 0x1F30 DUP4 DUP4 PUSH2 0x1EF8 JUMP JUMPDEST PUSH1 0x40 DUP4 ADD SWAP1 POP SWAP3 SWAP2 POP POP JUMP JUMPDEST PUSH0 PUSH1 0x20 DUP3 ADD SWAP1 POP SWAP2 SWAP1 POP JUMP JUMPDEST PUSH0 PUSH2 0x1F52 DUP3 PUSH2 0x1E71 JUMP JUMPDEST PUSH2 0x1F5C DUP2 DUP6 PUSH2 0x1E7B JUMP JUMPDEST SWAP4 POP PUSH2 0x1F67 DUP4 PUSH2 0x1E8B JUMP JUMPDEST DUP1 PUSH0 JUMPDEST DUP4 DUP2 LT ISZERO PUSH2 0x1F97 JUMPI DUP2 MLOAD PUSH2 0x1F7E DUP9 DUP3 PUSH2 0x1F25 JUMP JUMPDEST SWAP8 POP PUSH2 0x1F89 DUP4 PUSH2 0x1F3C JUMP JUMPDEST SWAP3 POP POP PUSH1 0x1 DUP2 ADD SWAP1 POP PUSH2 0x1F6A JUMP JUMPDEST POP DUP6 SWAP4 POP POP POP POP SWAP3 SWAP2 POP POP JUMP JUMPDEST PUSH0 PUSH1 0x20 DUP3 ADD SWAP1 POP DUP2 DUP2 SUB PUSH0 DUP4 ADD MSTORE PUSH2 0x1FBC DUP2 DUP5 PUSH2 0x1F48 JUMP JUMPDEST SWAP1 POP SWAP3 SWAP2 POP POP JUMP JUMPDEST PUSH1 0x3 DUP2 LT PUSH2 0x1FD0 JUMPI PUSH0 DUP1 REVERT JUMPDEST POP JUMP JUMPDEST PUSH0 DUP2 CALLDATALOAD SWAP1 POP PUSH2 0x1FE1 DUP2 PUSH2 0x1FC4 JUMP JUMPDEST SWAP3 SWAP2 POP POP JUMP JUMPDEST PUSH0 DUP1 PUSH1 0x40 DUP4 DUP6 SUB SLT ISZERO PUSH2 0x1FFD JUMPI PUSH2 0x1FFC PUSH2 0x1C11 JUMP JUMPDEST JUMPDEST PUSH0 PUSH2 0x200A DUP6 DUP3 DUP7 ADD PUSH2 0x1C3B JUMP JUMPDEST SWAP3 POP POP PUSH1 0x20 PUSH2 0x201B DUP6 DUP3 DUP7 ADD PUSH2 0x1FD3 JUMP JUMPDEST SWAP2 POP POP SWAP3 POP SWAP3 SWAP1 POP JUMP JUMPDEST PUSH0 DUP2 MLOAD SWAP1 POP SWAP2 SWAP1 POP JUMP JUMPDEST PUSH0 DUP3 DUP3 MSTORE PUSH1 0x20 DUP3 ADD SWAP1 POP SWAP3 SWAP2 POP POP JUMP JUMPDEST PUSH0 DUP2 SWAP1 POP PUSH1 0x20 DUP3 ADD SWAP1 POP SWAP2 SWAP1 POP JUMP JUMPDEST PUSH2 0x2057 DUP2 PUSH2 0x1C19 JUMP JUMPDEST DUP3 MSTORE POP POP JUMP JUMPDEST PUSH0 DUP2 MLOAD SWAP1 POP SWAP2 SWAP1 POP JUMP JUMPDEST PUSH0 DUP3 DUP3 MSTORE PUSH1 0x20 DUP3 ADD SWAP1 POP SWAP3 SWAP2 POP POP JUMP JUMPDEST DUP3 DUP2 DUP4 MCOPY PUSH0 DUP4 DUP4 ADD MSTORE POP POP POP JUMP JUMPDEST PUSH0 PUSH2 0x208F DUP3 PUSH2 0x205D JUMP JUMPDEST PUSH2 0x2099 DUP2 DUP6 PUSH2 0x2067 JUMP JUMPDEST SWAP4 POP PUSH2 0x20A9 DUP2 DUP6 PUSH1 0x20 DUP7 ADD PUSH2 0x2077 JUMP JUMPDEST PUSH2 0x20B2 DUP2 PUSH2 0x1C57 JUMP JUMPDEST DUP5 ADD SWAP2 POP POP SWAP3 SWAP2 POP POP JUMP JUMPDEST PUSH0 DUP2 MLOAD SWAP1 POP SWAP2 SWAP1 POP JUMP JUMPDEST PUSH0 DUP3 DUP3 MSTORE PUSH1 0x20 DUP3 ADD SWAP1 POP SWAP3 SWAP2 POP POP JUMP JUMPDEST PUSH0 DUP2 SWAP1 POP PUSH1 0x20 DUP3 ADD SWAP1 POP SWAP2 SWAP1 POP JUMP JUMPDEST PUSH0 PUSH20 0xFFFFFFFFFFFFFFFFFFFFFFFFFFFFFFFFFFFFFFFF DUP3 AND SWAP1 POP SWAP2 SWAP1 POP JUMP JUMPDEST PUSH0 PUSH2 0x210F DUP3 PUSH2 0x20E6 JUMP JUMPDEST SWAP1 POP SWAP2 SWAP1 POP JUMP JUMPDEST PUSH2 0x211F DUP2 PUSH2 0x2105 JUMP JUMPDEST DUP3 MSTORE POP POP JUMP JUMPDEST PUSH0 PUSH2 0x2130 DUP4 DUP4 PUSH2 0x2116 JUMP JUMPDEST PUSH1 0x20 DUP4 ADD SWAP1 POP SWAP3 SWAP2 POP POP JUMP JUMPDEST PUSH0 PUSH1 0x20 DUP3 ADD SWAP1 POP SWAP2 SWAP1 POP JUMP JUMPDEST PUSH0 PUSH2 0x2152 DUP3 PUSH2 0x20BD JUMP JUMPDEST PUSH2 0x215C DUP2 DUP6 PUSH2 0x20C7 JUMP JUMPDEST SWAP4 POP PUSH2 0x2167 DUP4 PUSH2 0x20D7 JUMP JUMPDEST DUP1 PUSH0 JUMPDEST DUP4 DUP2 LT ISZERO PUSH2 0x2197 JUMPI DUP2 MLOAD PUSH2 0x217E DUP9 DUP3 PUSH2 0x2125 JUMP JUMPDEST SWAP8 POP PUSH2 0x2189 DUP4 PUSH2 0x213C JUMP JUMPDEST SWAP3 POP POP PUSH1 0x1 DUP2 ADD SWAP1 POP PUSH2 0x216A JUMP JUMPDEST POP DUP6 SWAP4 POP POP POP POP SWAP3 SWAP2 POP POP JUMP JUMPDEST PUSH0 DUP2 ISZERO ISZERO SWAP1 POP SWAP2 SWAP1 POP JUMP JUMPDEST PUSH2 0x21B8 DUP2 PUSH2 0x21A4 JUMP JUMPDEST DUP3 MSTORE POP POP JUMP JUMPDEST PUSH0 PUSH2 0x120 DUP4 ADD PUSH0 DUP4 ADD MLOAD PUSH2 0x21D4 PUSH0 DUP7 ADD DUP3 PUSH2 0x204E JUMP JUMPDEST POP PUSH1 0x20 DUP4 ADD MLOAD DUP5 DUP3 SUB PUSH1 0x20 DUP7 ADD MSTORE PUSH2 0x21EC DUP3 DUP3 PUSH2 0x2085 JUMP JUMPDEST SWAP2 POP POP PUSH1 0x40 DUP4 ADD MLOAD DUP5 DUP3 SUB PUSH1 0x40 DUP7 ADD MSTORE PUSH2 0x2206 DUP3 DUP3 PUSH2 0x2085 JUMP JUMPDEST SWAP2 POP POP PUSH1 0x60 DUP4 ADD MLOAD DUP5 DUP3 SUB PUSH1 0x60 DUP7 ADD MSTORE PUSH2 0x2220 DUP3 DUP3 PUSH2 0x2085 JUMP JUMPDEST SWAP2 POP POP PUSH1 0x80 DUP4 ADD MLOAD PUSH2 0x2235 PUSH1 0x80 DUP7 ADD DUP3 PUSH2 0x1EA3 JUMP JUMPDEST POP PUSH1 0xA0 DUP4 ADD MLOAD PUSH2 0x2248 PUSH1 0xA0 DUP7 ADD DUP3 PUSH2 0x1EA3 JUMP JUMPDEST POP PUSH1 0xC0 DUP4 ADD MLOAD PUSH2 0x225B PUSH1 0xC0 DUP7 ADD DUP3 PUSH2 0x1EA3 JUMP JUMPDEST POP PUSH1 0xE0 DUP4 ADD MLOAD DUP5 DUP3 SUB PUSH1 0xE0 DUP7 ADD MSTORE PUSH2 0x2273 DUP3 DUP3 PUSH2 0x2148 JUMP JUMPDEST SWAP2 POP POP PUSH2 0x100 DUP4 ADD MLOAD PUSH2 0x228A PUSH2 0x100 DUP7 ADD DUP3 PUSH2 0x21AF JUMP JUMPDEST POP DUP1 SWAP2 POP POP SWAP3 SWAP2 POP POP JUMP JUMPDEST PUSH0 PUSH2 0x22A0 DUP4 DUP4 PUSH2 0x21BE JUMP JUMPDEST SWAP1 POP SWAP3 SWAP2 POP POP JUMP JUMPDEST PUSH0 PUSH1 0x20 DUP3 ADD SWAP1 POP SWAP2 SWAP1 POP JUMP JUMPDEST PUSH0 PUSH2 0x22BE DUP3 PUSH2 0x2025 JUMP JUMPDEST PUSH2 0x22C8 DUP2 DUP6 PUSH2 0x202F JUMP JUMPDEST SWAP4 POP DUP4 PUSH1 0x20 DUP3 MUL DUP6 ADD PUSH2 0x22DA DUP6 PUSH2 0x203F JUMP JUMPDEST DUP1 PUSH0 JUMPDEST DUP6 DUP2 LT ISZERO PUSH2 0x2315 JUMPI DUP5 DUP5 SUB DUP10 MSTORE DUP2 MLOAD PUSH2 0x22F6 DUP6 DUP3 PUSH2 0x2295 JUMP JUMPDEST SWAP5 POP PUSH2 0x2301 DUP4 PUSH2 0x22A8 JUMP JUMPDEST SWAP3 POP PUSH1 0x20 DUP11 ADD SWAP10 POP POP PUSH1 0x1 DUP2 ADD SWAP1 POP PUSH2 0x22DD JUMP JUMPDEST POP DUP3 SWAP8 POP DUP8 SWAP6 POP POP POP POP POP POP SWAP3 SWAP2 POP POP JUMP JUMPDEST PUSH0 PUSH1 0x20 DUP3 ADD SWAP1 POP DUP2 DUP2 SUB PUSH0 DUP4 ADD MSTORE PUSH2 0x233F DUP2 DUP5 PUSH2 0x22B4 JUMP JUMPDEST SWAP1 POP SWAP3 SWAP2 POP POP JUMP JUMPDEST PUSH0 DUP1 PUSH0 PUSH1 0x60 DUP5 DUP7 SUB SLT ISZERO PUSH2 0x235E JUMPI PUSH2 0x235D PUSH2 0x1C11 JUMP JUMPDEST JUMPDEST PUSH0 PUSH2 0x236B DUP7 DUP3 DUP8 ADD PUSH2 0x1C3B JUMP JUMPDEST SWAP4 POP POP PUSH1 0x20 DUP5 ADD CALLDATALOAD PUSH8 0xFFFFFFFFFFFFFFFF DUP2 GT ISZERO PUSH2 0x238C JUMPI PUSH2 0x238B PUSH2 0x1C15 JUMP JUMPDEST JUMPDEST PUSH2 0x2398 DUP7 DUP3 DUP8 ADD PUSH2 0x1D5E JUMP JUMPDEST SWAP3 POP POP PUSH1 0x40 DUP5 ADD CALLDATALOAD PUSH8 0xFFFFFFFFFFFFFFFF DUP2 GT ISZERO PUSH2 0x23B9 JUMPI PUSH2 0x23B8 PUSH2 0x1C15 JUMP JUMPDEST JUMPDEST PUSH2 0x23C5 DUP7 DUP3 DUP8 ADD PUSH2 0x1D5E JUMP JUMPDEST SWAP2 POP POP SWAP3 POP SWAP3 POP SWAP3 JUMP JUMPDEST PUSH2 0x23D8 DUP2 PUSH2 0x1C19 JUMP JUMPDEST DUP3 MSTORE POP POP JUMP JUMPDEST PUSH0 PUSH1 0x20 DUP3 ADD SWAP1 POP PUSH2 0x23F1 PUSH0 DUP4 ADD DUP5 PUSH2 0x23CF JUMP JUMPDEST SWAP3 SWAP2 POP POP JUMP JUMPDEST PUSH0 DUP3 DUP3 MSTORE PUSH1 0x20 DUP3 ADD SWAP1 POP SWAP3 SWAP2 POP POP JUMP JUMPDEST PUSH32 0x4F6E6C79207468652061646D696E2063616E2063616C6C20746869732066756E PUSH0 DUP3 ADD MSTORE PUSH32 0x6374696F6E000000000000000000000000000000000000000000000000000000 PUSH1 0x20 DUP3 ADD MSTORE POP JUMP JUMPDEST PUSH0 PUSH2 0x2461 PUSH1 0x25 DUP4 PUSH2 0x23F7 JUMP JUMPDEST SWAP2 POP PUSH2 0x246C DUP3 PUSH2 0x2407 JUMP JUMPDEST PUSH1 0x40 DUP3 ADD SWAP1 POP SWAP2 SWAP1 POP JUMP JUMPDEST PUSH0 PUSH1 0x20 DUP3 ADD SWAP1 POP DUP2 DUP2 SUB PUSH0 DUP4 ADD MSTORE PUSH2 0x248E DUP2 PUSH2 0x2455 JUMP JUMPDEST SWAP1 POP SWAP2 SWAP1 POP JUMP JUMPDEST PUSH32 0x4E487B7100000000000000000000000000000000000000000000000000000000 PUSH0 MSTORE PUSH1 0x22 PUSH1 0x4 MSTORE PUSH1 0x24 PUSH0 REVERT JUMPDEST PUSH0 PUSH1 0x2 DUP3 DIV SWAP1 POP PUSH1 0x1 DUP3 AND DUP1 PUSH2 0x24D9 JUMPI PUSH1 0x7F DUP3 AND SWAP2 POP JUMPDEST PUSH1 0x20 DUP3 LT DUP2 SUB PUSH2 0x24EC JUMPI PUSH2 0x24EB PUSH2 0x2495 JUMP JUMPDEST JUMPDEST POP SWAP2 SWAP1 POP JUMP JUMPDEST PUSH32 0x4D6174636820646F6573206E6F74206578697374000000000000000000000000 PUSH0 DUP3 ADD MSTORE POP JUMP JUMPDEST PUSH0 PUSH2 0x2526 PUSH1 0x14 DUP4 PUSH2 0x23F7 JUMP JUMPDEST SWAP2 POP PUSH2 0x2531 DUP3 PUSH2 0x24F2 JUMP JUMPDEST PUSH1 0x20 DUP3 ADD SWAP1 POP SWAP2 SWAP1 POP JUMP JUMPDEST PUSH0 PUSH1 0x20 DUP3 ADD SWAP1 POP DUP2 DUP2 SUB PUSH0 DUP4 ADD MSTORE PUSH2 0x2553 DUP2 PUSH2 0x251A JUMP JUMPDEST SWAP1 POP SWAP2 SWAP1 POP JUMP JUMPDEST PUSH0 DUP2 SWAP1 POP DUP2 PUSH0 MSTORE PUSH1 0x20 PUSH0 KECCAK256 SWAP1 POP SWAP2 SWAP1 POP JUMP JUMPDEST PUSH0 PUSH1 0x20 PUSH1 0x1F DUP4 ADD DIV SWAP1 POP SWAP2 SWAP1 POP JUMP JUMPDEST PUSH0 DUP3 DUP3 SHL SWAP1 POP SWAP3 SWAP2 POP POP JUMP JUMPDEST PUSH0 PUSH1 0x8 DUP4 MUL PUSH2 0x25B6 PUSH32 0xFFFFFFFFFFFFFFFFFFFFFFFFFFFFFFFFFFFFFFFFFFFFFFFFFFFFFFFFFFFFFFFF DUP3 PUSH2 0x257B JUMP JUMPDEST PUSH2 0x25C0 DUP7 DUP4 PUSH2 0x257B JUMP JUMPDEST SWAP6 POP DUP1 NOT DUP5 AND SWAP4 POP DUP1 DUP7 AND DUP5 OR SWAP3 POP POP POP SWAP4 SWAP3 POP POP POP JUMP JUMPDEST PUSH0 DUP2 SWAP1 POP SWAP2 SWAP1 POP JUMP JUMPDEST PUSH0 PUSH2 0x25FB PUSH2 0x25F6 PUSH2 0x25F1 DUP5 PUSH2 0x1E9A JUMP JUMPDEST PUSH2 0x25D8 JUMP JUMPDEST PUSH2 0x1E9A JUMP JUMPDEST SWAP1 POP SWAP2 SWAP1 POP JUMP JUMPDEST PUSH0 DUP2 SWAP1 POP SWAP2 SWAP1 POP JUMP JUMPDEST PUSH2 0x2614 DUP4 PUSH2 0x25E1 JUMP JUMPDEST PUSH2 0x2628 PUSH2 0x2620 DUP3 PUSH2 0x2602 JUMP JUMPDEST DUP5 DUP5 SLOAD PUSH2 0x2587 JUMP JUMPDEST DUP3 SSTORE POP POP POP POP JUMP JUMPDEST PUSH0 SWAP1 JUMP JUMPDEST PUSH2 0x263C PUSH2 0x2630 JUMP JUMPDEST PUSH2 0x2647 DUP2 DUP5 DUP5 PUSH2 0x260B JUMP JUMPDEST POP POP POP JUMP JUMPDEST JUMPDEST DUP2 DUP2 LT ISZERO PUSH2 0x266A JUMPI PUSH2 0x265F PUSH0 DUP3 PUSH2 0x2634 JUMP JUMPDEST PUSH1 0x1 DUP2 ADD SWAP1 POP PUSH2 0x264D JUMP JUMPDEST POP POP JUMP JUMPDEST PUSH1 0x1F DUP3 GT ISZERO PUSH2 0x26AF JUMPI PUSH2 0x2680 DUP2 PUSH2 0x255A JUMP JUMPDEST PUSH2 0x2689 DUP5 PUSH2 0x256C JUMP JUMPDEST DUP2 ADD PUSH1 0x20 DUP6 LT ISZERO PUSH2 0x2698 JUMPI DUP2 SWAP1 POP JUMPDEST PUSH2 0x26AC PUSH2 0x26A4 DUP6 PUSH2 0x256C JUMP JUMPDEST DUP4 ADD DUP3 PUSH2 0x264C JUMP JUMPDEST POP POP JUMPDEST POP POP POP JUMP JUMPDEST PUSH0 DUP3 DUP3 SHR SWAP1 POP SWAP3 SWAP2 POP POP JUMP JUMPDEST PUSH0 PUSH2 0x26CF PUSH0 NOT DUP5 PUSH1 0x8 MUL PUSH2 0x26B4 JUMP JUMPDEST NOT DUP1 DUP4 AND SWAP2 POP POP SWAP3 SWAP2 POP POP JUMP JUMPDEST PUSH0 PUSH2 0x26E7 DUP4 DUP4 PUSH2 0x26C0 JUMP JUMPDEST SWAP2 POP DUP3 PUSH1 0x2 MUL DUP3 OR SWAP1 POP SWAP3 SWAP2 POP POP JUMP JUMPDEST PUSH2 0x2700 DUP3 PUSH2 0x205D JUMP JUMPDEST PUSH8 0xFFFFFFFFFFFFFFFF DUP2 GT ISZERO PUSH2 0x2719 JUMPI PUSH2 0x2718 PUSH2 0x1C67 JUMP JUMPDEST JUMPDEST PUSH2 0x2723 DUP3 SLOAD PUSH2 0x24C2 JUMP JUMPDEST PUSH2 0x272E DUP3 DUP3 DUP6 PUSH2 0x266E JUMP JUMPDEST PUSH0 PUSH1 0x20 SWAP1 POP PUSH1 0x1F DUP4 GT PUSH1 0x1 DUP2 EQ PUSH2 0x275F JUMPI PUSH0 DUP5 ISZERO PUSH2 0x274D JUMPI DUP3 DUP8 ADD MLOAD SWAP1 POP JUMPDEST PUSH2 0x2757 DUP6 DUP3 PUSH2 0x26DC JUMP JUMPDEST DUP7 SSTORE POP PUSH2 0x27BE JUMP JUMPDEST PUSH1 0x1F NOT DUP5 AND PUSH2 0x276D DUP7 PUSH2 0x255A JUMP JUMPDEST PUSH0 JUMPDEST DUP3 DUP2 LT ISZERO PUSH2 0x2794 JUMPI DUP5 DUP10 ADD MLOAD DUP3 SSTORE PUSH1 0x1 DUP3 ADD SWAP2 POP PUSH1 0x20 DUP6 ADD SWAP5 POP PUSH1 0x20 DUP2 ADD SWAP1 POP PUSH2 0x276F JUMP JUMPDEST DUP7 DUP4 LT ISZERO PUSH2 0x27B1 JUMPI DUP5 DUP10 ADD MLOAD PUSH2 0x27AD PUSH1 0x1F DUP10 AND DUP3 PUSH2 0x26C0 JUMP JUMPDEST DUP4 SSTORE POP JUMPDEST PUSH1 0x1 PUSH1 0x2 DUP9 MUL ADD DUP9 SSTORE POP POP POP JUMPDEST POP POP POP POP POP POP JUMP JUMPDEST PUSH32 0x4E487B7100000000000000000000000000000000000000000000000000000000 PUSH0 MSTORE PUSH1 0x32 PUSH1 0x4 MSTORE PUSH1 0x24 PUSH0 REVERT JUMPDEST PUSH32 0x412062657420616D6F756E742069732072657175697265640000000000000000 PUSH0 DUP3 ADD MSTORE POP JUMP JUMPDEST PUSH0 PUSH2 0x2827 PUSH1 0x18 DUP4 PUSH2 0x23F7 JUMP JUMPDEST SWAP2 POP PUSH2 0x2832 DUP3 PUSH2 0x27F3 JUMP JUMPDEST PUSH1 0x20 DUP3 ADD SWAP1 POP SWAP2 SWAP1 POP JUMP JUMPDEST PUSH0 PUSH1 0x20 DUP3 ADD SWAP1 POP DUP2 DUP2 SUB PUSH0 DUP4 ADD MSTORE PUSH2 0x2854 DUP2 PUSH2 0x281B JUMP JUMPDEST SWAP1 POP SWAP2 SWAP1 POP JUMP JUMPDEST PUSH32 0x496E76616C6964207465616D2073656C656374696F6E00000000000000000000 PUSH0 DUP3 ADD MSTORE POP JUMP JUMPDEST PUSH0 PUSH2 0x288F PUSH1 0x16 DUP4 PUSH2 0x23F7 JUMP JUMPDEST SWAP2 POP PUSH2 0x289A DUP3 PUSH2 0x285B JUMP JUMPDEST PUSH1 0x20 DUP3 ADD SWAP1 POP SWAP2 SWAP1 POP JUMP JUMPDEST PUSH0 PUSH1 0x20 DUP3 ADD SWAP1 POP DUP2 DUP2 SUB PUSH0 DUP4 ADD MSTORE PUSH2 0x28BC DUP2 PUSH2 0x2883 JUMP JUMPDEST SWAP1 POP SWAP2 SWAP1 POP JUMP JUMPDEST PUSH32 0x42657474696E672069732063757272656E746C7920636C6F73656420666F7220 PUSH0 DUP3 ADD MSTORE PUSH32 0x616C6C206D617463686573000000000000000000000000000000000000000000 PUSH1 0x20 DUP3 ADD MSTORE POP JUMP JUMPDEST PUSH0 PUSH2 0x291D PUSH1 0x2B DUP4 PUSH2 0x23F7 JUMP JUMPDEST SWAP2 POP PUSH2 0x2928 DUP3 PUSH2 0x28C3 JUMP JUMPDEST PUSH1 0x40 DUP3 ADD SWAP1 POP SWAP2 SWAP1 POP JUMP JUMPDEST PUSH0 PUSH1 0x20 DUP3 ADD SWAP1 POP DUP2 DUP2 SUB PUSH0 DUP4 ADD MSTORE PUSH2 0x294A DUP2 PUSH2 0x2911 JUMP JUMPDEST SWAP1 POP SWAP2 SWAP1 POP JUMP JUMPDEST PUSH32 0x54686973206D617463682068617320616C7265616479206265656E2073657474 PUSH0 DUP3 ADD MSTORE PUSH32 0x6C65640000000000000000000000000000000000000000000000000000000000 PUSH1 0x20 DUP3 ADD MSTORE POP JUMP JUMPDEST PUSH0 PUSH2 0x29AB PUSH1 0x23 DUP4 PUSH2 0x23F7 JUMP JUMPDEST SWAP2 POP PUSH2 0x29B6 DUP3 PUSH2 0x2951 JUMP JUMPDEST PUSH1 0x40 DUP3 ADD SWAP1 POP SWAP2 SWAP1 POP JUMP JUMPDEST PUSH0 PUSH1 0x20 DUP3 ADD SWAP1 POP DUP2 DUP2 SUB PUSH0 DUP4 ADD MSTORE PUSH2 0x29D8 DUP2 PUSH2 0x299F JUMP JUMPDEST SWAP1 POP SWAP2 SWAP1 POP JUMP JUMPDEST PUSH32 0x4E487B7100000000000000000000000000000000000000000000000000000000 PUSH0 MSTORE PUSH1 0x11 PUSH1 0x4 MSTORE PUSH1 0x24 PUSH0 REVERT JUMPDEST PUSH0 PUSH2 0x2A16 DUP3 PUSH2 0x1E9A JUMP JUMPDEST SWAP2 POP PUSH2 0x2A21 DUP4 PUSH2 0x1E9A JUMP JUMPDEST SWAP3 POP DUP3 DUP3 ADD SWAP1 POP DUP1 DUP3 GT ISZERO PUSH2 0x2A39 JUMPI PUSH2 0x2A38 PUSH2 0x29DF JUMP JUMPDEST JUMPDEST SWAP3 SWAP2 POP POP JUMP JUMPDEST PUSH32 0x4D617463682077697468207468697320494420616C7265616479206578697374 PUSH0 DUP3 ADD MSTORE PUSH32 0x7300000000000000000000000000000000000000000000000000000000000000 PUSH1 0x20 DUP3 ADD MSTORE POP JUMP JUMPDEST PUSH0 PUSH2 0x2A99 PUSH1 0x21 DUP4 PUSH2 0x23F7 JUMP JUMPDEST SWAP2 POP PUSH2 0x2AA4 DUP3 PUSH2 0x2A3F JUMP JUMPDEST PUSH1 0x40 DUP3 ADD SWAP1 POP SWAP2 SWAP1 POP JUMP JUMPDEST PUSH0 PUSH1 0x20 DUP3 ADD SWAP1 POP DUP2 DUP2 SUB PUSH0 DUP4 ADD MSTORE PUSH2 0x2AC6 DUP2 PUSH2 0x2A8D JUMP JUMPDEST SWAP1 POP SWAP2 SWAP1 POP JUMP JUMPDEST PUSH32 0x42657474696E67206D75737420626520636C6F73656420746F20736574746C65 PUSH0 DUP3 ADD MSTORE PUSH32 0x206D617463686573000000000000000000000000000000000000000000000000 PUSH1 0x20 DUP3 ADD MSTORE POP JUMP JUMPDEST PUSH0 PUSH2 0x2B27 PUSH1 0x28 DUP4 PUSH2 0x23F7 JUMP JUMPDEST SWAP2 POP PUSH2 0x2B32 DUP3 PUSH2 0x2ACD JUMP JUMPDEST PUSH1 0x40 DUP3 ADD SWAP1 POP SWAP2 SWAP1 POP JUMP JUMPDEST PUSH0 PUSH1 0x20 DUP3 ADD SWAP1 POP DUP2 DUP2 SUB PUSH0 DUP4 ADD MSTORE PUSH2 0x2B54 DUP2 PUSH2 0x2B1B JUMP JUMPDEST SWAP1 POP SWAP2 SWAP1 POP JUMP JUMPDEST PUSH0 PUSH2 0x2B65 DUP3 PUSH2 0x1E9A JUMP JUMPDEST SWAP2 POP PUSH2 0x2B70 DUP4 PUSH2 0x1E9A JUMP JUMPDEST SWAP3 POP DUP3 DUP3 MUL PUSH2 0x2B7E DUP2 PUSH2 0x1E9A JUMP JUMPDEST SWAP2 POP DUP3 DUP3 DIV DUP5 EQ DUP4 ISZERO OR PUSH2 0x2B95 JUMPI PUSH2 0x2B94 PUSH2 0x29DF JUMP JUMPDEST JUMPDEST POP SWAP3 SWAP2 POP POP JUMP JUMPDEST PUSH32 0x4E487B7100000000000000000000000000000000000000000000000000000000 PUSH0 MSTORE PUSH1 0x12 PUSH1 0x4 MSTORE PUSH1 0x24 PUSH0 REVERT JUMPDEST PUSH0 PUSH2 0x2BD3 DUP3 PUSH2 0x1E9A JUMP JUMPDEST SWAP2 POP PUSH2 0x2BDE DUP4 PUSH2 0x1E9A JUMP JUMPDEST SWAP3 POP DUP3 PUSH2 0x2BEE JUMPI PUSH2 0x2BED PUSH2 0x2B9C JUMP JUMPDEST JUMPDEST DUP3 DUP3 DIV SWAP1 POP SWAP3 SWAP2 POP POP JUMP JUMPDEST PUSH0 PUSH2 0x2C03 DUP3 PUSH2 0x1E9A JUMP JUMPDEST SWAP2 POP PUSH2 0x2C0E DUP4 PUSH2 0x1E9A JUMP JUMPDEST SWAP3 POP DUP3 DUP3 SUB SWAP1 POP DUP2 DUP2 GT ISZERO PUSH2 0x2C26 JUMPI PUSH2 0x2C25 PUSH2 0x29DF JUMP JUMPDEST JUMPDEST SWAP3 SWAP2 POP POP JUMP JUMPDEST PUSH0 PUSH2 0x2C36 DUP3 PUSH2 0x1C19 JUMP JUMPDEST SWAP2 POP PUSH2 0x2C41 DUP4 PUSH2 0x1C19 JUMP JUMPDEST SWAP3 POP DUP3 DUP3 SUB SWAP1 POP PUSH1 0xFF DUP2 GT ISZERO PUSH2 0x2C5A JUMPI PUSH2 0x2C59 PUSH2 0x29DF JUMP JUMPDEST JUMPDEST SWAP3 SWAP2 POP POP JUMP INVALID LOG2 PUSH5 0x6970667358 0x22 SLT KECCAK256 0xC0 0xC2 DUP12 0xDD PUSH15 0xF24947E5424DF073DC7905A4A404BE PUSH31 0xED01D9B9F3F9F2EB8B5EAD64736F6C634300081A0033000000000000000000 "
		},
		"gasEstimates": {
			"creation": {
				"codeDepositCost": "2282800",
				"executionCost": "75368",
				"totalCost": "2358168"
			},
			"external": {
				"addScore(uint8,string)": "infinite",
				"closeBetting()": "26668",
				"commissionPercentage()": "2582",
				"createMatch(uint8,string,string)": "infinite",
				"getAllMatches()": "infinite",
				"getBettingState()": "2657",
				"getMyBets()": "infinite",
				"openBetting()": "26733",
				"placeBet(uint8,uint8)": "infinite",
				"resetMatches()": "infinite",
				"settleAllMatches()": "infinite"
			},
			"internal": {
				"_parseScore(string memory)": "infinite",
				"_settle(uint8)": "infinite"
			}
		},
		"methodIdentifiers": {
			"addScore(uint8,string)": "0ee1b33d",
			"closeBetting()": "15ac534d",
			"commissionPercentage()": "d575fe64",
			"createMatch(uint8,string,string)": "cb002cf5",
			"getAllMatches()": "c17c5a45",
			"getBettingState()": "57899342",
			"getMyBets()": "99535bd7",
			"openBetting()": "e10b020c",
			"placeBet(uint8,uint8)": "a648567b",
			"resetMatches()": "d19ce9f5",
			"settleAllMatches()": "f5251cf3"
		}
	},
	"abi": [
		{
			"inputs": [],
			"stateMutability": "nonpayable",
			"type": "constructor"
		},
		{
			"inputs": [
				{
					"internalType": "uint8",
					"name": "_matchId",
					"type": "uint8"
				},
				{
					"internalType": "string",
					"name": "_score",
					"type": "string"
				}
			],
			"name": "addScore",
			"outputs": [],
			"stateMutability": "nonpayable",
			"type": "function"
		},
		{
			"inputs": [],
			"name": "closeBetting",
			"outputs": [],
			"stateMutability": "nonpayable",
			"type": "function"
		},
		{
			"inputs": [],
			"name": "commissionPercentage",
			"outputs": [
				{
					"internalType": "uint8",
					"name": "",
					"type": "uint8"
				}
			],
			"stateMutability": "view",
			"type": "function"
		},
		{
			"inputs": [
				{
					"internalType": "uint8",
					"name": "_id",
					"type": "uint8"
				},
				{
					"internalType": "string",
					"name": "_home",
					"type": "string"
				},
				{
					"internalType": "string",
					"name": "_away",
					"type": "string"
				}
			],
			"name": "createMatch",
			"outputs": [],
			"stateMutability": "nonpayable",
			"type": "function"
		},
		{
			"inputs": [],
			"name": "getAllMatches",
			"outputs": [
				{
					"components": [
						{
							"internalType": "uint8",
							"name": "id",
							"type": "uint8"
						},
						{
							"internalType": "string",
							"name": "homeTeam",
							"type": "string"
						},
						{
							"internalType": "string",
							"name": "awayTeam",
							"type": "string"
						},
						{
							"internalType": "string",
							"name": "score",
							"type": "string"
						},
						{
							"internalType": "uint256",
							"name": "totalHomeBets",
							"type": "uint256"
						},
						{
							"internalType": "uint256",
							"name": "totalAwayBets",
							"type": "uint256"
						},
						{
							"internalType": "uint256",
							"name": "totalDrawBets",
							"type": "uint256"
						},
						{
							"internalType": "address[]",
							"name": "bettors",
							"type": "address[]"
						},
						{
							"internalType": "bool",
							"name": "isSettled",
							"type": "bool"
						}
					],
					"internalType": "struct FootballBetting.Match[]",
					"name": "",
					"type": "tuple[]"
				}
			],
			"stateMutability": "view",
			"type": "function"
		},
		{
			"inputs": [],
			"name": "getBettingState",
			"outputs": [
				{
					"internalType": "enum FootballBetting.BettingState",
					"name": "",
					"type": "uint8"
				}
			],
			"stateMutability": "view",
			"type": "function"
		},
		{
			"inputs": [],
			"name": "getMyBets",
			"outputs": [
				{
					"components": [
						{
							"internalType": "uint256",
							"name": "amount",
							"type": "uint256"
						},
						{
							"internalType": "enum FootballBetting.MatchOutcome",
							"name": "team",
							"type": "uint8"
						}
					],
					"internalType": "struct FootballBetting.Bet[]",
					"name": "",
					"type": "tuple[]"
				}
			],
			"stateMutability": "view",
			"type": "function"
		},
		{
			"inputs": [],
			"name": "openBetting",
			"outputs": [],
			"stateMutability": "nonpayable",
			"type": "function"
		},
		{
			"inputs": [
				{
					"internalType": "uint8",
					"name": "_matchId",
					"type": "uint8"
				},
				{
					"internalType": "enum FootballBetting.MatchOutcome",
					"name": "_team",
					"type": "uint8"
				}
			],
			"name": "placeBet",
			"outputs": [],
			"stateMutability": "payable",
			"type": "function"
		},
		{
			"inputs": [],
			"name": "resetMatches",
			"outputs": [],
			"stateMutability": "nonpayable",
			"type": "function"
		},
		{
			"inputs": [],
			"name": "settleAllMatches",
			"outputs": [],
			"stateMutability": "nonpayable",
			"type": "function"
		}
	]
}