{
	"data": {
		"bytecode": {
			"linkReferences": {},
			"object": "6080604052348015600e575f5ffd5b50335f5f6101000a81548173ffffffffffffffffffffffffffffffffffffffff021916908373ffffffffffffffffffffffffffffffffffffffff16021790555060055f60146101000a81548160ff021916908360ff1602179055505f5f60156101000a81548160ff02191690836002811115608a5760896093565b5b021790555060c0565b7f4e487b71000000000000000000000000000000000000000000000000000000005f52602160045260245ffd5b613a87806100cd5f395ff3fe608060405260043610610113575f3560e01c80635499dc721161009f578063c17c5a4511610063578063c17c5a451461038f578063cb002cf5146103bb578063d19ce9f5146103e3578063d575fe64146103f9578063d5ce95311461042357610113565b80635499dc72146102bf57806357899342146102d55780636475e3d3146102ff5780638da5cb5b14610329578063a66023d21461035357610113565b8063442c52b9116100e6578063442c52b9146101bb57806344e8f67b146101ff57806346e70aad1461021b578063535eb36614610257578063546bc3d41461027f57610113565b80630bf36767146101175780630ee1b33d1461012d57806314bae52c1461015557806336ff6a701461017f575b5f5ffd5b348015610122575f5ffd5b5061012b61044b565b005b348015610138575f5ffd5b50610153600480360381019061014e91906126e9565b610505565b005b348015610160575f5ffd5b50610169610627565b60405161017691906127b6565b60405180910390f35b34801561018a575f5ffd5b506101a560048036038101906101a09190612802565b610639565b6040516101b2919061283c565b60405180910390f35b3480156101c6575f5ffd5b506101e160048036038101906101dc9190612855565b61066a565b6040516101f699989796959493929190612935565b60405180910390f35b61021960048036038101906102149190612a08565b61085e565b005b348015610226575f5ffd5b50610241600480360381019061023c9190612a46565b610be9565b60405161024e9190612ac3565b60405180910390f35b348015610262575f5ffd5b5061027d60048036038101906102789190612855565b610c31565b005b34801561028a575f5ffd5b506102a560048036038101906102a09190612b06565b6115bb565b6040516102b6959493929190612b6d565b60405180910390f35b3480156102ca575f5ffd5b506102d361161e565b005b3480156102e0575f5ffd5b506102e96116d7565b6040516102f6919061283c565b60405180910390f35b34801561030a575f5ffd5b506103136116fe565b6040516103209190612bbe565b60405180910390f35b348015610334575f5ffd5b5061033d611709565b60405161034a9190612ac3565b60405180910390f35b34801561035e575f5ffd5b5061037960048036038101906103749190612bfa565b61172d565b6040516103869190612bbe565b60405180910390f35b34801561039a575f5ffd5b506103a361174d565b6040516103b293929190612df2565b60405180910390f35b3480156103c6575f5ffd5b506103e160048036038101906103dc9190612e3c565b611ade565b005b3480156103ee575f5ffd5b506103f7611d51565b005b348015610404575f5ffd5b5061040d6120e7565b60405161041a919061283c565b60405180910390f35b34801561042e575f5ffd5b5061044960048036038101906104449190612f21565b6120f9565b005b5f5f9054906101000a900473ffffffffffffffffffffffffffffffffffffffff1673ffffffffffffffffffffffffffffffffffffffff163373ffffffffffffffffffffffffffffffffffffffff16146104d9576040517f08c379a00000000000000000000000000000000000000000000000000000000081526004016104d090612fdc565b60405180910390fd5b60015f60156101000a81548160ff021916908360028111156104fe576104fd612743565b5b0217905550565b5f5f9054906101000a900473ffffffffffffffffffffffffffffffffffffffff1673ffffffffffffffffffffffffffffffffffffffff163373ffffffffffffffffffffffffffffffffffffffff1614610593576040517f08c379a000000000000000000000000000000000000000000000000000000000815260040161058a90612fdc565b60405180910390fd5b5f60015f8460ff1660ff1681526020019081526020015f2060010180546105b990613027565b9050036105fb576040517f08c379a00000000000000000000000000000000000000000000000000000000081526004016105f2906130a1565b60405180910390fd5b8060015f8460ff1660ff1681526020019081526020015f206003019081610622919061325f565b505050565b5f60159054906101000a900460ff1681565b60028181548110610648575f80fd5b905f5260205f209060209182820401919006915054906101000a900460ff1681565b6001602052805f5260405f205f91509050805f015f9054906101000a900460ff169080600101805461069b90613027565b80601f01602080910402602001604051908101604052809291908181526020018280546106c790613027565b80156107125780601f106106e957610100808354040283529160200191610712565b820191905f5260205f20905b8154815290600101906020018083116106f557829003601f168201915b50505050509080600201805461072790613027565b80601f016020809104026020016040519081016040528092919081815260200182805461075390613027565b801561079e5780601f106107755761010080835404028352916020019161079e565b820191905f5260205f20905b81548152906001019060200180831161078157829003601f168201915b5050505050908060030180546107b390613027565b80601f01602080910402602001604051908101604052809291908181526020018280546107df90613027565b801561082a5780601f106108015761010080835404028352916020019161082a565b820191905f5260205f20905b81548152906001019060200180831161080d57829003601f168201915b505050505090806004015f9054906101000a900460ff16908060050154908060060154908060070154908060080154905089565b5f600281111561087157610870612743565b5b5f60159054906101000a900460ff16600281111561089257610891612743565b5b146108d2576040517f08c379a00000000000000000000000000000000000000000000000000000000081526004016108c990613378565b60405180910390fd5b664d1808f7a0400034101561091c576040517f08c379a0000000000000000000000000000000000000000000000000000000008152600401610913906133e0565b60405180910390fd5b5f341161095e576040517f08c379a000000000000000000000000000000000000000000000000000000000815260040161095590613448565b60405180910390fd5b5f60035f8460ff1660ff1681526020019081526020015f205f3373ffffffffffffffffffffffffffffffffffffffff1673ffffffffffffffffffffffffffffffffffffffff1681526020019081526020015f2060010154146109f5576040517f08c379a00000000000000000000000000000000000000000000000000000000081526004016109ec906134b0565b60405180910390fd5b5f60015f8460ff1660ff1681526020019081526020015f206001018054610a1b90613027565b905003610a5d576040517f08c379a0000000000000000000000000000000000000000000000000000000008152600401610a54906130a1565b60405180910390fd5b6040518060a001604052808281526020013481526020015f151581526020015f6002811115610a8f57610a8e612743565b5b81526020015f151581525060035f8460ff1660ff1681526020019081526020015f205f3373ffffffffffffffffffffffffffffffffffffffff1673ffffffffffffffffffffffffffffffffffffffff1681526020019081526020015f205f820151815f0155602082015181600101556040820151816002015f6101000a81548160ff02191690831515021790555060608201518160020160016101000a81548160ff02191690836002811115610b4857610b47612743565b5b021790555060808201518160020160026101000a81548160ff02191690831515021790555090505060055f8360ff1660ff1681526020019081526020015f2033908060018154018082558091505060019003905f5260205f20015f9091909190916101000a81548173ffffffffffffffffffffffffffffffffffffffff021916908373ffffffffffffffffffffffffffffffffffffffff1602179055505050565b6005602052815f5260405f208181548110610c02575f80fd5b905f5260205f20015f915091509054906101000a900473ffffffffffffffffffffffffffffffffffffffff1681565b5f5f9054906101000a900473ffffffffffffffffffffffffffffffffffffffff1673ffffffffffffffffffffffffffffffffffffffff163373ffffffffffffffffffffffffffffffffffffffff1614610cbf576040517f08c379a0000000000000000000000000000000000000000000000000000000008152600401610cb690612fdc565b60405180910390fd5b5f60015f8360ff1660ff1681526020019081526020015f206003018054610ce590613027565b905011610d27576040517f08c379a0000000000000000000000000000000000000000000000000000000008152600401610d1e90613518565b60405180910390fd5b60016002811115610d3b57610d3a612743565b5b5f60159054906101000a900460ff166002811115610d5c57610d5b612743565b5b14610d9c576040517f08c379a0000000000000000000000000000000000000000000000000000000008152600401610d9390613580565b60405180910390fd5b5f5f5f610e4860015f8660ff1660ff1681526020019081526020015f206003018054610dc790613027565b80601f0160208091040260200160405190810160405280929190818152602001828054610df390613027565b8015610e3e5780601f10610e1557610100808354040283529160200191610e3e565b820191905f5260205f20905b815481529060010190602001808311610e2157829003601f168201915b505050505061237c565b92509250925080610e8e576040517f08c379a0000000000000000000000000000000000000000000000000000000008152600401610e85906135e8565b60405180910390fd5b5f8260ff168460ff161115610ea65760019050610ec2565b8360ff168360ff161115610ebd5760029050610ec1565b5f90505b5b8060015f8760ff1660ff1681526020019081526020015f206004015f6101000a81548160ff02191690836002811115610efe57610efd612743565b5b021790555060045f8660ff1660ff1681526020019081526020015f205f5f6002811115610f2e57610f2d612743565b5b6002811115610f4057610f3f612743565b5b81526020019081526020015f205460045f8760ff1660ff1681526020019081526020015f205f600280811115610f7957610f78612743565b5b6002811115610f8b57610f8a612743565b5b81526020019081526020015f205460045f8860ff1660ff1681526020019081526020015f205f60016002811115610fc557610fc4612743565b5b6002811115610fd757610fd6612743565b5b81526020019081526020015f2054610fef9190613633565b610ff99190613633565b60015f8760ff1660ff1681526020019081526020015f206005018190555060645f60149054906101000a900460ff1660ff1660015f8860ff1660ff1681526020019081526020015f20600501546110509190613666565b61105a91906136d4565b60015f8760ff1660ff1681526020019081526020015f206007018190555060015f8660ff1660ff1681526020019081526020015f206007015460015f8760ff1660ff1681526020019081526020015f20600501546110b89190613704565b60015f8760ff1660ff1681526020019081526020015f20600801819055505f5f90505f60055f8860ff1660ff1681526020019081526020015f2090505f5f90505b8180549050811015611228575f60035f8a60ff1660ff1681526020019081526020015f205f84848154811061113157611130613737565b5b905f5260205f20015f9054906101000a900473ffffffffffffffffffffffffffffffffffffffff1673ffffffffffffffffffffffffffffffffffffffff1673ffffffffffffffffffffffffffffffffffffffff1681526020019081526020015f209050806002015f9054906101000a900460ff1680156111e557508460028111156111bf576111be612743565b5b8160020160019054906101000a900460ff1660028111156111e3576111e2612743565b5b145b1561121a5760018160020160026101000a81548160ff0219169083151502179055508060010154846112179190613633565b93505b5080806001019150506110f9565b508160015f8960ff1660ff1681526020019081526020015f20600601819055505f60015f8960ff1660ff1681526020019081526020015f2060070154111561130d575f60015f8960ff1660ff1681526020019081526020015f206007015490505f60015f8a60ff1660ff1681526020019081526020015f20600701819055505f5f9054906101000a900473ffffffffffffffffffffffffffffffffffffffff1673ffffffffffffffffffffffffffffffffffffffff166108fc8290811502906040515f60405180830381858888f1935050505015801561130a573d5f5f3e3d5ffd5b50505b5f8214801561133557505f60015f8960ff1660ff1681526020019081526020015f2060080154115b156113e1575f60015f8960ff1660ff1681526020019081526020015f206008015490505f60015f8a60ff1660ff1681526020019081526020015f20600801819055505f5f9054906101000a900473ffffffffffffffffffffffffffffffffffffffff1673ffffffffffffffffffffffffffffffffffffffff166108fc8290811502906040515f60405180830381858888f193505050501580156113da573d5f5f3e3d5ffd5b5050611588565b5f821115611587575f5f90505b8180549050811015611566575f60035f8a60ff1660ff1681526020019081526020015f205f84848154811061142657611425613737565b5b905f5260205f20015f9054906101000a900473ffffffffffffffffffffffffffffffffffffffff1673ffffffffffffffffffffffffffffffffffffffff1673ffffffffffffffffffffffffffffffffffffffff1681526020019081526020015f2090508060020160029054906101000a900460ff1615611558575f8460015f8c60ff1660ff1681526020019081526020015f206008015483600101546114cc9190613666565b6114d691906136d4565b90508383815481106114eb576114ea613737565b5b905f5260205f20015f9054906101000a900473ffffffffffffffffffffffffffffffffffffffff1673ffffffffffffffffffffffffffffffffffffffff166108fc8290811502906040515f60405180830381858888f19350505050158015611555573d5f5f3e3d5ffd5b50505b5080806001019150506113ee565b505f60015f8960ff1660ff1681526020019081526020015f20600801819055505b5b60025f60156101000a81548160ff021916908360028111156115ad576115ac612743565b5b021790555050505050505050565b6003602052815f5260405f20602052805f5260405f205f9150915050805f015490806001015490806002015f9054906101000a900460ff16908060020160019054906101000a900460ff16908060020160029054906101000a900460ff16905085565b5f5f9054906101000a900473ffffffffffffffffffffffffffffffffffffffff1673ffffffffffffffffffffffffffffffffffffffff163373ffffffffffffffffffffffffffffffffffffffff16146116ac576040517f08c379a00000000000000000000000000000000000000000000000000000000081526004016116a390612fdc565b60405180910390fd5b5f5f60156101000a81548160ff021916908360028111156116d0576116cf612743565b5b0217905550565b5f5f60159054906101000a900460ff1660028111156116f9576116f8612743565b5b905090565b664d1808f7a0400081565b5f5f9054906101000a900473ffffffffffffffffffffffffffffffffffffffff1681565b6004602052815f5260405f20602052805f5260405f205f91509150505481565b60608060605f60028054905067ffffffffffffffff811115611772576117716125c5565b5b6040519080825280602002602001820160405280156117a05781602001602082028036833780820191505090505b5090505f60028054905067ffffffffffffffff8111156117c3576117c26125c5565b5b6040519080825280602002602001820160405280156117f657816020015b60608152602001906001900390816117e15790505b5090505f60028054905067ffffffffffffffff811115611819576118186125c5565b5b60405190808252806020026020018201604052801561184c57816020015b60608152602001906001900390816118375790505b5090505f5f90505b600280549050811015611acc5760015f6002838154811061187857611877613737565b5b905f5260205f2090602091828204019190069054906101000a900460ff1660ff1660ff1681526020019081526020015f205f015f9054906101000a900460ff168482815181106118cb576118ca613737565b5b602002602001019060ff16908160ff168152505060015f600283815481106118f6576118f5613737565b5b905f5260205f2090602091828204019190069054906101000a900460ff1660ff1660ff1681526020019081526020015f20600101805461193590613027565b80601f016020809104026020016040519081016040528092919081815260200182805461196190613027565b80156119ac5780601f10611983576101008083540402835291602001916119ac565b820191905f5260205f20905b81548152906001019060200180831161198f57829003601f168201915b50505050508382815181106119c4576119c3613737565b5b602002602001018190525060015f600283815481106119e6576119e5613737565b5b905f5260205f2090602091828204019190069054906101000a900460ff1660ff1660ff1681526020019081526020015f206002018054611a2590613027565b80601f0160208091040260200160405190810160405280929190818152602001828054611a5190613027565b8015611a9c5780601f10611a7357610100808354040283529160200191611a9c565b820191905f5260205f20905b815481529060010190602001808311611a7f57829003601f168201915b5050505050828281518110611ab457611ab3613737565b5b60200260200101819052508080600101915050611854565b50828282955095509550505050909192565b5f5f9054906101000a900473ffffffffffffffffffffffffffffffffffffffff1673ffffffffffffffffffffffffffffffffffffffff163373ffffffffffffffffffffffffffffffffffffffff1614611b6c576040517f08c379a0000000000000000000000000000000000000000000000000000000008152600401611b6390612fdc565b60405180910390fd5b5f60015f8560ff1660ff1681526020019081526020015f206001018054611b9290613027565b905014611bd4576040517f08c379a0000000000000000000000000000000000000000000000000000000008152600401611bcb906137d4565b60405180910390fd5b6040518061012001604052808460ff16815260200183815260200182815260200160405180602001604052805f81525081526020015f6002811115611c1c57611c1b612743565b5b81526020015f81526020015f81526020015f81526020015f81525060015f8560ff1660ff1681526020019081526020015f205f820151815f015f6101000a81548160ff021916908360ff1602179055506020820151816001019081611c81919061325f565b506040820151816002019081611c97919061325f565b506060820151816003019081611cad919061325f565b506080820151816004015f6101000a81548160ff02191690836002811115611cd857611cd7612743565b5b021790555060a0820151816005015560c0820151816006015560e082015181600701556101008201518160080155905050600283908060018154018082558091505060019003905f5260205f2090602091828204019190069091909190916101000a81548160ff021916908360ff160217905550505050565b5f5f9054906101000a900473ffffffffffffffffffffffffffffffffffffffff1673ffffffffffffffffffffffffffffffffffffffff163373ffffffffffffffffffffffffffffffffffffffff1614611ddf576040517f08c379a0000000000000000000000000000000000000000000000000000000008152600401611dd690612fdc565b60405180910390fd5b5f5f90505b6002805490508110156120d7575f60028281548110611e0657611e05613737565b5b905f5260205f2090602091828204019190069054906101000a900460ff1690505f60055f8360ff1660ff1681526020019081526020015f2090505f5f90505b8180549050811015611f355760035f8460ff1660ff1681526020019081526020015f205f838381548110611e7c57611e7b613737565b5b905f5260205f20015f9054906101000a900473ffffffffffffffffffffffffffffffffffffffff1673ffffffffffffffffffffffffffffffffffffffff1673ffffffffffffffffffffffffffffffffffffffff1681526020019081526020015f205f5f82015f9055600182015f9055600282015f6101000a81549060ff02191690556002820160016101000a81549060ff02191690556002820160026101000a81549060ff021916905550508080600101915050611e45565b5060055f8360ff1660ff1681526020019081526020015f205f611f5891906124cb565b60045f8360ff1660ff1681526020019081526020015f205f60016002811115611f8457611f83612743565b5b6002811115611f9657611f95612743565b5b81526020019081526020015f205f905560045f8360ff1660ff1681526020019081526020015f205f600280811115611fd157611fd0612743565b5b6002811115611fe357611fe2612743565b5b81526020019081526020015f205f905560045f8360ff1660ff1681526020019081526020015f205f5f600281111561201e5761201d612743565b5b60028111156120305761202f612743565b5b81526020019081526020015f205f905560015f8360ff1660ff1681526020019081526020015f205f5f82015f6101000a81549060ff0219169055600182015f61207991906124e9565b600282015f61208891906124e9565b600382015f61209791906124e9565b600482015f6101000a81549060ff0219169055600582015f9055600682015f9055600782015f9055600882015f9055505050508080600101915050611de4565b5060025f6120e59190612526565b565b5f60149054906101000a900460ff1681565b6001600281111561210d5761210c612743565b5b5f60159054906101000a900460ff16600281111561212e5761212d612743565b5b1461216e576040517f08c379a00000000000000000000000000000000000000000000000000000000081526004016121659061383c565b60405180910390fd5b5f60035f8660ff1660ff1681526020019081526020015f205f3373ffffffffffffffffffffffffffffffffffffffff1673ffffffffffffffffffffffffffffffffffffffff1681526020019081526020015f2090505f816001015411612209576040517f08c379a0000000000000000000000000000000000000000000000000000000008152600401612200906138a4565b60405180910390fd5b806002015f9054906101000a900460ff161561225a576040517f08c379a00000000000000000000000000000000000000000000000000000000081526004016122519061390c565b60405180910390fd5b805f01548484846040516020016122739392919061398c565b60405160208183030381529060405280519060200120146122c9576040517f08c379a00000000000000000000000000000000000000000000000000000000081526004016122c0906139ff565b60405180910390fd5b6001816002015f6101000a81548160ff021916908315150217905550838160020160016101000a81548160ff0219169083600281111561230c5761230b612743565b5b0217905550806001015460045f8760ff1660ff1681526020019081526020015f205f86600281111561234157612340612743565b5b600281111561235357612352612743565b5b81526020019081526020015f205f82825461236e9190613633565b925050819055505050505050565b5f5f5f5f849050600381511415806123f457507f2d00000000000000000000000000000000000000000000000000000000000000816001815181106123c4576123c3613737565b5b602001015160f81c60f81b7effffffffffffffffffffffffffffffffffffffffffffffffffffffffffffff191614155b15612408575f5f5f935093509350506124c4565b5f815f8151811061241c5761241b613737565b5b602001015160f81c60f81b60f81c90505f8260028151811061244157612440613737565b5b602001015160f81c60f81b60f81c905060308260ff161080612466575060398260ff16115b80612474575060308160ff16105b80612482575060398160ff16115b15612498575f5f5f9550955095505050506124c4565b6030826124a59190613a1d565b95506030816124b49190613a1d565b9450858560019550955095505050505b9193909250565b5080545f8255905f5260205f20908101906124e6919061254b565b50565b5080546124f590613027565b5f825580601f106125065750612523565b601f0160209004905f5260205f2090810190612522919061254b565b5b50565b5080545f8255601f0160209004905f5260205f2090810190612548919061254b565b50565b5b80821115612562575f815f90555060010161254c565b5090565b5f604051905090565b5f5ffd5b5f5ffd5b5f60ff82169050919050565b61258c81612577565b8114612596575f5ffd5b50565b5f813590506125a781612583565b92915050565b5f5ffd5b5f5ffd5b5f601f19601f8301169050919050565b7f4e487b71000000000000000000000000000000000000000000000000000000005f52604160045260245ffd5b6125fb826125b5565b810181811067ffffffffffffffff8211171561261a576126196125c5565b5b80604052505050565b5f61262c612566565b905061263882826125f2565b919050565b5f67ffffffffffffffff821115612657576126566125c5565b5b612660826125b5565b9050602081019050919050565b828183375f83830152505050565b5f61268d6126888461263d565b612623565b9050828152602081018484840111156126a9576126a86125b1565b5b6126b484828561266d565b509392505050565b5f82601f8301126126d0576126cf6125ad565b5b81356126e084826020860161267b565b91505092915050565b5f5f604083850312156126ff576126fe61256f565b5b5f61270c85828601612599565b925050602083013567ffffffffffffffff81111561272d5761272c612573565b5b612739858286016126bc565b9150509250929050565b7f4e487b71000000000000000000000000000000000000000000000000000000005f52602160045260245ffd5b6003811061278157612780612743565b5b50565b5f81905061279182612770565b919050565b5f6127a082612784565b9050919050565b6127b081612796565b82525050565b5f6020820190506127c95f8301846127a7565b92915050565b5f819050919050565b6127e1816127cf565b81146127eb575f5ffd5b50565b5f813590506127fc816127d8565b92915050565b5f602082840312156128175761281661256f565b5b5f612824848285016127ee565b91505092915050565b61283681612577565b82525050565b5f60208201905061284f5f83018461282d565b92915050565b5f6020828403121561286a5761286961256f565b5b5f61287784828501612599565b91505092915050565b5f81519050919050565b5f82825260208201905092915050565b8281835e5f83830152505050565b5f6128b282612880565b6128bc818561288a565b93506128cc81856020860161289a565b6128d5816125b5565b840191505092915050565b600381106128f1576128f0612743565b5b50565b5f819050612901826128e0565b919050565b5f612910826128f4565b9050919050565b61292081612906565b82525050565b61292f816127cf565b82525050565b5f610120820190506129495f83018c61282d565b818103602083015261295b818b6128a8565b9050818103604083015261296f818a6128a8565b9050818103606083015261298381896128a8565b90506129926080830188612917565b61299f60a0830187612926565b6129ac60c0830186612926565b6129b960e0830185612926565b6129c7610100830184612926565b9a9950505050505050505050565b5f819050919050565b6129e7816129d5565b81146129f1575f5ffd5b50565b5f81359050612a02816129de565b92915050565b5f5f60408385031215612a1e57612a1d61256f565b5b5f612a2b85828601612599565b9250506020612a3c858286016129f4565b9150509250929050565b5f5f60408385031215612a5c57612a5b61256f565b5b5f612a6985828601612599565b9250506020612a7a858286016127ee565b9150509250929050565b5f73ffffffffffffffffffffffffffffffffffffffff82169050919050565b5f612aad82612a84565b9050919050565b612abd81612aa3565b82525050565b5f602082019050612ad65f830184612ab4565b92915050565b612ae581612aa3565b8114612aef575f5ffd5b50565b5f81359050612b0081612adc565b92915050565b5f5f60408385031215612b1c57612b1b61256f565b5b5f612b2985828601612599565b9250506020612b3a85828601612af2565b9150509250929050565b612b4d816129d5565b82525050565b5f8115159050919050565b612b6781612b53565b82525050565b5f60a082019050612b805f830188612b44565b612b8d6020830187612926565b612b9a6040830186612b5e565b612ba76060830185612917565b612bb46080830184612b5e565b9695505050505050565b5f602082019050612bd15f830184612926565b92915050565b60038110612be3575f5ffd5b50565b5f81359050612bf481612bd7565b92915050565b5f5f60408385031215612c1057612c0f61256f565b5b5f612c1d85828601612599565b9250506020612c2e85828601612be6565b9150509250929050565b5f81519050919050565b5f82825260208201905092915050565b5f819050602082019050919050565b612c6a81612577565b82525050565b5f612c7b8383612c61565b60208301905092915050565b5f602082019050919050565b5f612c9d82612c38565b612ca78185612c42565b9350612cb283612c52565b805f5b83811015612ce2578151612cc98882612c70565b9750612cd483612c87565b925050600181019050612cb5565b5085935050505092915050565b5f81519050919050565b5f82825260208201905092915050565b5f819050602082019050919050565b5f82825260208201905092915050565b5f612d3282612880565b612d3c8185612d18565b9350612d4c81856020860161289a565b612d55816125b5565b840191505092915050565b5f612d6b8383612d28565b905092915050565b5f602082019050919050565b5f612d8982612cef565b612d938185612cf9565b935083602082028501612da585612d09565b805f5b85811015612de05784840389528151612dc18582612d60565b9450612dcc83612d73565b925060208a01995050600181019050612da8565b50829750879550505050505092915050565b5f6060820190508181035f830152612e0a8186612c93565b90508181036020830152612e1e8185612d7f565b90508181036040830152612e328184612d7f565b9050949350505050565b5f5f5f60608486031215612e5357612e5261256f565b5b5f612e6086828701612599565b935050602084013567ffffffffffffffff811115612e8157612e80612573565b5b612e8d868287016126bc565b925050604084013567ffffffffffffffff811115612eae57612ead612573565b5b612eba868287016126bc565b9150509250925092565b5f5ffd5b5f5ffd5b5f5f83601f840112612ee157612ee06125ad565b5b8235905067ffffffffffffffff811115612efe57612efd612ec4565b5b602083019150836001820283011115612f1a57612f19612ec8565b5b9250929050565b5f5f5f5f60608587031215612f3957612f3861256f565b5b5f612f4687828801612599565b9450506020612f5787828801612be6565b935050604085013567ffffffffffffffff811115612f7857612f77612573565b5b612f8487828801612ecc565b925092505092959194509250565b7f4f6e6c79206f776e6572000000000000000000000000000000000000000000005f82015250565b5f612fc6600a8361288a565b9150612fd182612f92565b602082019050919050565b5f6020820190508181035f830152612ff381612fba565b9050919050565b7f4e487b71000000000000000000000000000000000000000000000000000000005f52602260045260245ffd5b5f600282049050600182168061303e57607f821691505b60208210810361305157613050612ffa565b5b50919050565b7f4d6174636820646f6573206e6f742065786973740000000000000000000000005f82015250565b5f61308b60148361288a565b915061309682613057565b602082019050919050565b5f6020820190508181035f8301526130b88161307f565b9050919050565b5f819050815f5260205f209050919050565b5f6020601f8301049050919050565b5f82821b905092915050565b5f6008830261311b7fffffffffffffffffffffffffffffffffffffffffffffffffffffffffffffffff826130e0565b61312586836130e0565b95508019841693508086168417925050509392505050565b5f819050919050565b5f61316061315b613156846127cf565b61313d565b6127cf565b9050919050565b5f819050919050565b61317983613146565b61318d61318582613167565b8484546130ec565b825550505050565b5f5f905090565b6131a4613195565b6131af818484613170565b505050565b5b818110156131d2576131c75f8261319c565b6001810190506131b5565b5050565b601f821115613217576131e8816130bf565b6131f1846130d1565b81016020851015613200578190505b61321461320c856130d1565b8301826131b4565b50505b505050565b5f82821c905092915050565b5f6132375f198460080261321c565b1980831691505092915050565b5f61324f8383613228565b9150826002028217905092915050565b61326882612880565b67ffffffffffffffff811115613281576132806125c5565b5b61328b8254613027565b6132968282856131d6565b5f60209050601f8311600181146132c7575f84156132b5578287015190505b6132bf8582613244565b865550613326565b601f1984166132d5866130bf565b5f5b828110156132fc578489015182556001820191506020850194506020810190506132d7565b868310156133195784890151613315601f891682613228565b8355505b6001600288020188555050505b505050505050565b7f4e6f7420636f6d6d6974207068617365000000000000000000000000000000005f82015250565b5f61336260108361288a565b915061336d8261332e565b602082019050919050565b5f6020820190508181035f83015261338f81613356565b9050919050565b7f42657420616d6f756e7420746f6f206c6f7700000000000000000000000000005f82015250565b5f6133ca60128361288a565b91506133d582613396565b602082019050919050565b5f6020820190508181035f8301526133f7816133be565b9050919050565b7f4e6f204554482073656e740000000000000000000000000000000000000000005f82015250565b5f613432600b8361288a565b915061343d826133fe565b602082019050919050565b5f6020820190508181035f83015261345f81613426565b9050919050565b7f416c726561647920636f6d6d69747465640000000000000000000000000000005f82015250565b5f61349a60118361288a565b91506134a582613466565b602082019050919050565b5f6020820190508181035f8301526134c78161348e565b9050919050565b7f53636f7265206e6f7420736574000000000000000000000000000000000000005f82015250565b5f613502600d8361288a565b915061350d826134ce565b602082019050919050565b5f6020820190508181035f83015261352f816134f6565b9050919050565b7f4e6f7420696e2072657665616c207068617365000000000000000000000000005f82015250565b5f61356a60138361288a565b915061357582613536565b602082019050919050565b5f6020820190508181035f8301526135978161355e565b9050919050565b7f496e76616c69642073636f7265000000000000000000000000000000000000005f82015250565b5f6135d2600d8361288a565b91506135dd8261359e565b602082019050919050565b5f6020820190508181035f8301526135ff816135c6565b9050919050565b7f4e487b71000000000000000000000000000000000000000000000000000000005f52601160045260245ffd5b5f61363d826127cf565b9150613648836127cf565b92508282019050808211156136605761365f613606565b5b92915050565b5f613670826127cf565b915061367b836127cf565b9250828202613689816127cf565b915082820484148315176136a05761369f613606565b5b5092915050565b7f4e487b71000000000000000000000000000000000000000000000000000000005f52601260045260245ffd5b5f6136de826127cf565b91506136e9836127cf565b9250826136f9576136f86136a7565b5b828204905092915050565b5f61370e826127cf565b9150613719836127cf565b925082820390508181111561373157613730613606565b5b92915050565b7f4e487b71000000000000000000000000000000000000000000000000000000005f52603260045260245ffd5b7f4d617463682077697468207468697320494420616c72656164792065786973745f8201527f7300000000000000000000000000000000000000000000000000000000000000602082015250565b5f6137be60218361288a565b91506137c982613764565b604082019050919050565b5f6020820190508181035f8301526137eb816137b2565b9050919050565b7f4e6f742072657665616c207068617365000000000000000000000000000000005f82015250565b5f61382660108361288a565b9150613831826137f2565b602082019050919050565b5f6020820190508181035f8301526138538161381a565b9050919050565b7f4e6f20636f6d6d697400000000000000000000000000000000000000000000005f82015250565b5f61388e60098361288a565b91506138998261385a565b602082019050919050565b5f6020820190508181035f8301526138bb81613882565b9050919050565b7f416c72656164792072657665616c6564000000000000000000000000000000005f82015250565b5f6138f660108361288a565b9150613901826138c2565b602082019050919050565b5f6020820190508181035f830152613923816138ea565b9050919050565b5f8160f81b9050919050565b5f6139408261392a565b9050919050565b61395861395382612906565b613936565b82525050565b5f81905092915050565b5f613973838561395e565b935061398083858461266d565b82840190509392505050565b5f6139978286613947565b6001820191506139a8828486613968565b9150819050949350505050565b7f496e76616c69642072657665616c0000000000000000000000000000000000005f82015250565b5f6139e9600e8361288a565b91506139f4826139b5565b602082019050919050565b5f6020820190508181035f830152613a16816139dd565b9050919050565b5f613a2782612577565b9150613a3283612577565b9250828203905060ff811115613a4b57613a4a613606565b5b9291505056fea26469706673582212201f35806124d7ab45edb593c63871ea8c49c5287e7e77830e3d1ef1ca569dbd4264736f6c634300081e0033",
			"opcodes": "PUSH1 0x80 PUSH1 0x40 MSTORE CALLVALUE DUP1 ISZERO PUSH1 0xE JUMPI PUSH0 PUSH0 REVERT JUMPDEST POP CALLER PUSH0 PUSH0 PUSH2 0x100 EXP DUP2 SLOAD DUP2 PUSH20 0xFFFFFFFFFFFFFFFFFFFFFFFFFFFFFFFFFFFFFFFF MUL NOT AND SWAP1 DUP4 PUSH20 0xFFFFFFFFFFFFFFFFFFFFFFFFFFFFFFFFFFFFFFFF AND MUL OR SWAP1 SSTORE POP PUSH1 0x5 PUSH0 PUSH1 0x14 PUSH2 0x100 EXP DUP2 SLOAD DUP2 PUSH1 0xFF MUL NOT AND SWAP1 DUP4 PUSH1 0xFF AND MUL OR SWAP1 SSTORE POP PUSH0 PUSH0 PUSH1 0x15 PUSH2 0x100 EXP DUP2 SLOAD DUP2 PUSH1 0xFF MUL NOT AND SWAP1 DUP4 PUSH1 0x2 DUP2 GT ISZERO PUSH1 0x8A JUMPI PUSH1 0x89 PUSH1 0x93 JUMP JUMPDEST JUMPDEST MUL OR SWAP1 SSTORE POP PUSH1 0xC0 JUMP JUMPDEST PUSH32 0x4E487B7100000000000000000000000000000000000000000000000000000000 PUSH0 MSTORE PUSH1 0x21 PUSH1 0x4 MSTORE PUSH1 0x24 PUSH0 REVERT JUMPDEST PUSH2 0x3A87 DUP1 PUSH2 0xCD PUSH0 CODECOPY PUSH0 RETURN INVALID PUSH1 0x80 PUSH1 0x40 MSTORE PUSH1 0x4 CALLDATASIZE LT PUSH2 0x113 JUMPI PUSH0 CALLDATALOAD PUSH1 0xE0 SHR DUP1 PUSH4 0x5499DC72 GT PUSH2 0x9F JUMPI DUP1 PUSH4 0xC17C5A45 GT PUSH2 0x63 JUMPI DUP1 PUSH4 0xC17C5A45 EQ PUSH2 0x38F JUMPI DUP1 PUSH4 0xCB002CF5 EQ PUSH2 0x3BB JUMPI DUP1 PUSH4 0xD19CE9F5 EQ PUSH2 0x3E3 JUMPI DUP1 PUSH4 0xD575FE64 EQ PUSH2 0x3F9 JUMPI DUP1 PUSH4 0xD5CE9531 EQ PUSH2 0x423 JUMPI PUSH2 0x113 JUMP JUMPDEST DUP1 PUSH4 0x5499DC72 EQ PUSH2 0x2BF JUMPI DUP1 PUSH4 0x57899342 EQ PUSH2 0x2D5 JUMPI DUP1 PUSH4 0x6475E3D3 EQ PUSH2 0x2FF JUMPI DUP1 PUSH4 0x8DA5CB5B EQ PUSH2 0x329 JUMPI DUP1 PUSH4 0xA66023D2 EQ PUSH2 0x353 JUMPI PUSH2 0x113 JUMP JUMPDEST DUP1 PUSH4 0x442C52B9 GT PUSH2 0xE6 JUMPI DUP1 PUSH4 0x442C52B9 EQ PUSH2 0x1BB JUMPI DUP1 PUSH4 0x44E8F67B EQ PUSH2 0x1FF JUMPI DUP1 PUSH4 0x46E70AAD EQ PUSH2 0x21B JUMPI DUP1 PUSH4 0x535EB366 EQ PUSH2 0x257 JUMPI DUP1 PUSH4 0x546BC3D4 EQ PUSH2 0x27F JUMPI PUSH2 0x113 JUMP JUMPDEST DUP1 PUSH4 0xBF36767 EQ PUSH2 0x117 JUMPI DUP1 PUSH4 0xEE1B33D EQ PUSH2 0x12D JUMPI DUP1 PUSH4 0x14BAE52C EQ PUSH2 0x155 JUMPI DUP1 PUSH4 0x36FF6A70 EQ PUSH2 0x17F JUMPI JUMPDEST PUSH0 PUSH0 REVERT JUMPDEST CALLVALUE DUP1 ISZERO PUSH2 0x122 JUMPI PUSH0 PUSH0 REVERT JUMPDEST POP PUSH2 0x12B PUSH2 0x44B JUMP JUMPDEST STOP JUMPDEST CALLVALUE DUP1 ISZERO PUSH2 0x138 JUMPI PUSH0 PUSH0 REVERT JUMPDEST POP PUSH2 0x153 PUSH1 0x4 DUP1 CALLDATASIZE SUB DUP2 ADD SWAP1 PUSH2 0x14E SWAP2 SWAP1 PUSH2 0x26E9 JUMP JUMPDEST PUSH2 0x505 JUMP JUMPDEST STOP JUMPDEST CALLVALUE DUP1 ISZERO PUSH2 0x160 JUMPI PUSH0 PUSH0 REVERT JUMPDEST POP PUSH2 0x169 PUSH2 0x627 JUMP JUMPDEST PUSH1 0x40 MLOAD PUSH2 0x176 SWAP2 SWAP1 PUSH2 0x27B6 JUMP JUMPDEST PUSH1 0x40 MLOAD DUP1 SWAP2 SUB SWAP1 RETURN JUMPDEST CALLVALUE DUP1 ISZERO PUSH2 0x18A JUMPI PUSH0 PUSH0 REVERT JUMPDEST POP PUSH2 0x1A5 PUSH1 0x4 DUP1 CALLDATASIZE SUB DUP2 ADD SWAP1 PUSH2 0x1A0 SWAP2 SWAP1 PUSH2 0x2802 JUMP JUMPDEST PUSH2 0x639 JUMP JUMPDEST PUSH1 0x40 MLOAD PUSH2 0x1B2 SWAP2 SWAP1 PUSH2 0x283C JUMP JUMPDEST PUSH1 0x40 MLOAD DUP1 SWAP2 SUB SWAP1 RETURN JUMPDEST CALLVALUE DUP1 ISZERO PUSH2 0x1C6 JUMPI PUSH0 PUSH0 REVERT JUMPDEST POP PUSH2 0x1E1 PUSH1 0x4 DUP1 CALLDATASIZE SUB DUP2 ADD SWAP1 PUSH2 0x1DC SWAP2 SWAP1 PUSH2 0x2855 JUMP JUMPDEST PUSH2 0x66A JUMP JUMPDEST PUSH1 0x40 MLOAD PUSH2 0x1F6 SWAP10 SWAP9 SWAP8 SWAP7 SWAP6 SWAP5 SWAP4 SWAP3 SWAP2 SWAP1 PUSH2 0x2935 JUMP JUMPDEST PUSH1 0x40 MLOAD DUP1 SWAP2 SUB SWAP1 RETURN JUMPDEST PUSH2 0x219 PUSH1 0x4 DUP1 CALLDATASIZE SUB DUP2 ADD SWAP1 PUSH2 0x214 SWAP2 SWAP1 PUSH2 0x2A08 JUMP JUMPDEST PUSH2 0x85E JUMP JUMPDEST STOP JUMPDEST CALLVALUE DUP1 ISZERO PUSH2 0x226 JUMPI PUSH0 PUSH0 REVERT JUMPDEST POP PUSH2 0x241 PUSH1 0x4 DUP1 CALLDATASIZE SUB DUP2 ADD SWAP1 PUSH2 0x23C SWAP2 SWAP1 PUSH2 0x2A46 JUMP JUMPDEST PUSH2 0xBE9 JUMP JUMPDEST PUSH1 0x40 MLOAD PUSH2 0x24E SWAP2 SWAP1 PUSH2 0x2AC3 JUMP JUMPDEST PUSH1 0x40 MLOAD DUP1 SWAP2 SUB SWAP1 RETURN JUMPDEST CALLVALUE DUP1 ISZERO PUSH2 0x262 JUMPI PUSH0 PUSH0 REVERT JUMPDEST POP PUSH2 0x27D PUSH1 0x4 DUP1 CALLDATASIZE SUB DUP2 ADD SWAP1 PUSH2 0x278 SWAP2 SWAP1 PUSH2 0x2855 JUMP JUMPDEST PUSH2 0xC31 JUMP JUMPDEST STOP JUMPDEST CALLVALUE DUP1 ISZERO PUSH2 0x28A JUMPI PUSH0 PUSH0 REVERT JUMPDEST POP PUSH2 0x2A5 PUSH1 0x4 DUP1 CALLDATASIZE SUB DUP2 ADD SWAP1 PUSH2 0x2A0 SWAP2 SWAP1 PUSH2 0x2B06 JUMP JUMPDEST PUSH2 0x15BB JUMP JUMPDEST PUSH1 0x40 MLOAD PUSH2 0x2B6 SWAP6 SWAP5 SWAP4 SWAP3 SWAP2 SWAP1 PUSH2 0x2B6D JUMP JUMPDEST PUSH1 0x40 MLOAD DUP1 SWAP2 SUB SWAP1 RETURN JUMPDEST CALLVALUE DUP1 ISZERO PUSH2 0x2CA JUMPI PUSH0 PUSH0 REVERT JUMPDEST POP PUSH2 0x2D3 PUSH2 0x161E JUMP JUMPDEST STOP JUMPDEST CALLVALUE DUP1 ISZERO PUSH2 0x2E0 JUMPI PUSH0 PUSH0 REVERT JUMPDEST POP PUSH2 0x2E9 PUSH2 0x16D7 JUMP JUMPDEST PUSH1 0x40 MLOAD PUSH2 0x2F6 SWAP2 SWAP1 PUSH2 0x283C JUMP JUMPDEST PUSH1 0x40 MLOAD DUP1 SWAP2 SUB SWAP1 RETURN JUMPDEST CALLVALUE DUP1 ISZERO PUSH2 0x30A JUMPI PUSH0 PUSH0 REVERT JUMPDEST POP PUSH2 0x313 PUSH2 0x16FE JUMP JUMPDEST PUSH1 0x40 MLOAD PUSH2 0x320 SWAP2 SWAP1 PUSH2 0x2BBE JUMP JUMPDEST PUSH1 0x40 MLOAD DUP1 SWAP2 SUB SWAP1 RETURN JUMPDEST CALLVALUE DUP1 ISZERO PUSH2 0x334 JUMPI PUSH0 PUSH0 REVERT JUMPDEST POP PUSH2 0x33D PUSH2 0x1709 JUMP JUMPDEST PUSH1 0x40 MLOAD PUSH2 0x34A SWAP2 SWAP1 PUSH2 0x2AC3 JUMP JUMPDEST PUSH1 0x40 MLOAD DUP1 SWAP2 SUB SWAP1 RETURN JUMPDEST CALLVALUE DUP1 ISZERO PUSH2 0x35E JUMPI PUSH0 PUSH0 REVERT JUMPDEST POP PUSH2 0x379 PUSH1 0x4 DUP1 CALLDATASIZE SUB DUP2 ADD SWAP1 PUSH2 0x374 SWAP2 SWAP1 PUSH2 0x2BFA JUMP JUMPDEST PUSH2 0x172D JUMP JUMPDEST PUSH1 0x40 MLOAD PUSH2 0x386 SWAP2 SWAP1 PUSH2 0x2BBE JUMP JUMPDEST PUSH1 0x40 MLOAD DUP1 SWAP2 SUB SWAP1 RETURN JUMPDEST CALLVALUE DUP1 ISZERO PUSH2 0x39A JUMPI PUSH0 PUSH0 REVERT JUMPDEST POP PUSH2 0x3A3 PUSH2 0x174D JUMP JUMPDEST PUSH1 0x40 MLOAD PUSH2 0x3B2 SWAP4 SWAP3 SWAP2 SWAP1 PUSH2 0x2DF2 JUMP JUMPDEST PUSH1 0x40 MLOAD DUP1 SWAP2 SUB SWAP1 RETURN JUMPDEST CALLVALUE DUP1 ISZERO PUSH2 0x3C6 JUMPI PUSH0 PUSH0 REVERT JUMPDEST POP PUSH2 0x3E1 PUSH1 0x4 DUP1 CALLDATASIZE SUB DUP2 ADD SWAP1 PUSH2 0x3DC SWAP2 SWAP1 PUSH2 0x2E3C JUMP JUMPDEST PUSH2 0x1ADE JUMP JUMPDEST STOP JUMPDEST CALLVALUE DUP1 ISZERO PUSH2 0x3EE JUMPI PUSH0 PUSH0 REVERT JUMPDEST POP PUSH2 0x3F7 PUSH2 0x1D51 JUMP JUMPDEST STOP JUMPDEST CALLVALUE DUP1 ISZERO PUSH2 0x404 JUMPI PUSH0 PUSH0 REVERT JUMPDEST POP PUSH2 0x40D PUSH2 0x20E7 JUMP JUMPDEST PUSH1 0x40 MLOAD PUSH2 0x41A SWAP2 SWAP1 PUSH2 0x283C JUMP JUMPDEST PUSH1 0x40 MLOAD DUP1 SWAP2 SUB SWAP1 RETURN JUMPDEST CALLVALUE DUP1 ISZERO PUSH2 0x42E JUMPI PUSH0 PUSH0 REVERT JUMPDEST POP PUSH2 0x449 PUSH1 0x4 DUP1 CALLDATASIZE SUB DUP2 ADD SWAP1 PUSH2 0x444 SWAP2 SWAP1 PUSH2 0x2F21 JUMP JUMPDEST PUSH2 0x20F9 JUMP JUMPDEST STOP JUMPDEST PUSH0 PUSH0 SWAP1 SLOAD SWAP1 PUSH2 0x100 EXP SWAP1 DIV PUSH20 0xFFFFFFFFFFFFFFFFFFFFFFFFFFFFFFFFFFFFFFFF AND PUSH20 0xFFFFFFFFFFFFFFFFFFFFFFFFFFFFFFFFFFFFFFFF AND CALLER PUSH20 0xFFFFFFFFFFFFFFFFFFFFFFFFFFFFFFFFFFFFFFFF AND EQ PUSH2 0x4D9 JUMPI PUSH1 0x40 MLOAD PUSH32 0x8C379A000000000000000000000000000000000000000000000000000000000 DUP2 MSTORE PUSH1 0x4 ADD PUSH2 0x4D0 SWAP1 PUSH2 0x2FDC JUMP JUMPDEST PUSH1 0x40 MLOAD DUP1 SWAP2 SUB SWAP1 REVERT JUMPDEST PUSH1 0x1 PUSH0 PUSH1 0x15 PUSH2 0x100 EXP DUP2 SLOAD DUP2 PUSH1 0xFF MUL NOT AND SWAP1 DUP4 PUSH1 0x2 DUP2 GT ISZERO PUSH2 0x4FE JUMPI PUSH2 0x4FD PUSH2 0x2743 JUMP JUMPDEST JUMPDEST MUL OR SWAP1 SSTORE POP JUMP JUMPDEST PUSH0 PUSH0 SWAP1 SLOAD SWAP1 PUSH2 0x100 EXP SWAP1 DIV PUSH20 0xFFFFFFFFFFFFFFFFFFFFFFFFFFFFFFFFFFFFFFFF AND PUSH20 0xFFFFFFFFFFFFFFFFFFFFFFFFFFFFFFFFFFFFFFFF AND CALLER PUSH20 0xFFFFFFFFFFFFFFFFFFFFFFFFFFFFFFFFFFFFFFFF AND EQ PUSH2 0x593 JUMPI PUSH1 0x40 MLOAD PUSH32 0x8C379A000000000000000000000000000000000000000000000000000000000 DUP2 MSTORE PUSH1 0x4 ADD PUSH2 0x58A SWAP1 PUSH2 0x2FDC JUMP JUMPDEST PUSH1 0x40 MLOAD DUP1 SWAP2 SUB SWAP1 REVERT JUMPDEST PUSH0 PUSH1 0x1 PUSH0 DUP5 PUSH1 0xFF AND PUSH1 0xFF AND DUP2 MSTORE PUSH1 0x20 ADD SWAP1 DUP2 MSTORE PUSH1 0x20 ADD PUSH0 KECCAK256 PUSH1 0x1 ADD DUP1 SLOAD PUSH2 0x5B9 SWAP1 PUSH2 0x3027 JUMP JUMPDEST SWAP1 POP SUB PUSH2 0x5FB JUMPI PUSH1 0x40 MLOAD PUSH32 0x8C379A000000000000000000000000000000000000000000000000000000000 DUP2 MSTORE PUSH1 0x4 ADD PUSH2 0x5F2 SWAP1 PUSH2 0x30A1 JUMP JUMPDEST PUSH1 0x40 MLOAD DUP1 SWAP2 SUB SWAP1 REVERT JUMPDEST DUP1 PUSH1 0x1 PUSH0 DUP5 PUSH1 0xFF AND PUSH1 0xFF AND DUP2 MSTORE PUSH1 0x20 ADD SWAP1 DUP2 MSTORE PUSH1 0x20 ADD PUSH0 KECCAK256 PUSH1 0x3 ADD SWAP1 DUP2 PUSH2 0x622 SWAP2 SWAP1 PUSH2 0x325F JUMP JUMPDEST POP POP POP JUMP JUMPDEST PUSH0 PUSH1 0x15 SWAP1 SLOAD SWAP1 PUSH2 0x100 EXP SWAP1 DIV PUSH1 0xFF AND DUP2 JUMP JUMPDEST PUSH1 0x2 DUP2 DUP2 SLOAD DUP2 LT PUSH2 0x648 JUMPI PUSH0 DUP1 REVERT JUMPDEST SWAP1 PUSH0 MSTORE PUSH1 0x20 PUSH0 KECCAK256 SWAP1 PUSH1 0x20 SWAP2 DUP3 DUP3 DIV ADD SWAP2 SWAP1 MOD SWAP2 POP SLOAD SWAP1 PUSH2 0x100 EXP SWAP1 DIV PUSH1 0xFF AND DUP2 JUMP JUMPDEST PUSH1 0x1 PUSH1 0x20 MSTORE DUP1 PUSH0 MSTORE PUSH1 0x40 PUSH0 KECCAK256 PUSH0 SWAP2 POP SWAP1 POP DUP1 PUSH0 ADD PUSH0 SWAP1 SLOAD SWAP1 PUSH2 0x100 EXP SWAP1 DIV PUSH1 0xFF AND SWAP1 DUP1 PUSH1 0x1 ADD DUP1 SLOAD PUSH2 0x69B SWAP1 PUSH2 0x3027 JUMP JUMPDEST DUP1 PUSH1 0x1F ADD PUSH1 0x20 DUP1 SWAP2 DIV MUL PUSH1 0x20 ADD PUSH1 0x40 MLOAD SWAP1 DUP2 ADD PUSH1 0x40 MSTORE DUP1 SWAP3 SWAP2 SWAP1 DUP2 DUP2 MSTORE PUSH1 0x20 ADD DUP3 DUP1 SLOAD PUSH2 0x6C7 SWAP1 PUSH2 0x3027 JUMP JUMPDEST DUP1 ISZERO PUSH2 0x712 JUMPI DUP1 PUSH1 0x1F LT PUSH2 0x6E9 JUMPI PUSH2 0x100 DUP1 DUP4 SLOAD DIV MUL DUP4 MSTORE SWAP2 PUSH1 0x20 ADD SWAP2 PUSH2 0x712 JUMP JUMPDEST DUP3 ADD SWAP2 SWAP1 PUSH0 MSTORE PUSH1 0x20 PUSH0 KECCAK256 SWAP1 JUMPDEST DUP2 SLOAD DUP2 MSTORE SWAP1 PUSH1 0x1 ADD SWAP1 PUSH1 0x20 ADD DUP1 DUP4 GT PUSH2 0x6F5 JUMPI DUP3 SWAP1 SUB PUSH1 0x1F AND DUP3 ADD SWAP2 JUMPDEST POP POP POP POP POP SWAP1 DUP1 PUSH1 0x2 ADD DUP1 SLOAD PUSH2 0x727 SWAP1 PUSH2 0x3027 JUMP JUMPDEST DUP1 PUSH1 0x1F ADD PUSH1 0x20 DUP1 SWAP2 DIV MUL PUSH1 0x20 ADD PUSH1 0x40 MLOAD SWAP1 DUP2 ADD PUSH1 0x40 MSTORE DUP1 SWAP3 SWAP2 SWAP1 DUP2 DUP2 MSTORE PUSH1 0x20 ADD DUP3 DUP1 SLOAD PUSH2 0x753 SWAP1 PUSH2 0x3027 JUMP JUMPDEST DUP1 ISZERO PUSH2 0x79E JUMPI DUP1 PUSH1 0x1F LT PUSH2 0x775 JUMPI PUSH2 0x100 DUP1 DUP4 SLOAD DIV MUL DUP4 MSTORE SWAP2 PUSH1 0x20 ADD SWAP2 PUSH2 0x79E JUMP JUMPDEST DUP3 ADD SWAP2 SWAP1 PUSH0 MSTORE PUSH1 0x20 PUSH0 KECCAK256 SWAP1 JUMPDEST DUP2 SLOAD DUP2 MSTORE SWAP1 PUSH1 0x1 ADD SWAP1 PUSH1 0x20 ADD DUP1 DUP4 GT PUSH2 0x781 JUMPI DUP3 SWAP1 SUB PUSH1 0x1F AND DUP3 ADD SWAP2 JUMPDEST POP POP POP POP POP SWAP1 DUP1 PUSH1 0x3 ADD DUP1 SLOAD PUSH2 0x7B3 SWAP1 PUSH2 0x3027 JUMP JUMPDEST DUP1 PUSH1 0x1F ADD PUSH1 0x20 DUP1 SWAP2 DIV MUL PUSH1 0x20 ADD PUSH1 0x40 MLOAD SWAP1 DUP2 ADD PUSH1 0x40 MSTORE DUP1 SWAP3 SWAP2 SWAP1 DUP2 DUP2 MSTORE PUSH1 0x20 ADD DUP3 DUP1 SLOAD PUSH2 0x7DF SWAP1 PUSH2 0x3027 JUMP JUMPDEST DUP1 ISZERO PUSH2 0x82A JUMPI DUP1 PUSH1 0x1F LT PUSH2 0x801 JUMPI PUSH2 0x100 DUP1 DUP4 SLOAD DIV MUL DUP4 MSTORE SWAP2 PUSH1 0x20 ADD SWAP2 PUSH2 0x82A JUMP JUMPDEST DUP3 ADD SWAP2 SWAP1 PUSH0 MSTORE PUSH1 0x20 PUSH0 KECCAK256 SWAP1 JUMPDEST DUP2 SLOAD DUP2 MSTORE SWAP1 PUSH1 0x1 ADD SWAP1 PUSH1 0x20 ADD DUP1 DUP4 GT PUSH2 0x80D JUMPI DUP3 SWAP1 SUB PUSH1 0x1F AND DUP3 ADD SWAP2 JUMPDEST POP POP POP POP POP SWAP1 DUP1 PUSH1 0x4 ADD PUSH0 SWAP1 SLOAD SWAP1 PUSH2 0x100 EXP SWAP1 DIV PUSH1 0xFF AND SWAP1 DUP1 PUSH1 0x5 ADD SLOAD SWAP1 DUP1 PUSH1 0x6 ADD SLOAD SWAP1 DUP1 PUSH1 0x7 ADD SLOAD SWAP1 DUP1 PUSH1 0x8 ADD SLOAD SWAP1 POP DUP10 JUMP JUMPDEST PUSH0 PUSH1 0x2 DUP2 GT ISZERO PUSH2 0x871 JUMPI PUSH2 0x870 PUSH2 0x2743 JUMP JUMPDEST JUMPDEST PUSH0 PUSH1 0x15 SWAP1 SLOAD SWAP1 PUSH2 0x100 EXP SWAP1 DIV PUSH1 0xFF AND PUSH1 0x2 DUP2 GT ISZERO PUSH2 0x892 JUMPI PUSH2 0x891 PUSH2 0x2743 JUMP JUMPDEST JUMPDEST EQ PUSH2 0x8D2 JUMPI PUSH1 0x40 MLOAD PUSH32 0x8C379A000000000000000000000000000000000000000000000000000000000 DUP2 MSTORE PUSH1 0x4 ADD PUSH2 0x8C9 SWAP1 PUSH2 0x3378 JUMP JUMPDEST PUSH1 0x40 MLOAD DUP1 SWAP2 SUB SWAP1 REVERT JUMPDEST PUSH7 0x4D1808F7A04000 CALLVALUE LT ISZERO PUSH2 0x91C JUMPI PUSH1 0x40 MLOAD PUSH32 0x8C379A000000000000000000000000000000000000000000000000000000000 DUP2 MSTORE PUSH1 0x4 ADD PUSH2 0x913 SWAP1 PUSH2 0x33E0 JUMP JUMPDEST PUSH1 0x40 MLOAD DUP1 SWAP2 SUB SWAP1 REVERT JUMPDEST PUSH0 CALLVALUE GT PUSH2 0x95E JUMPI PUSH1 0x40 MLOAD PUSH32 0x8C379A000000000000000000000000000000000000000000000000000000000 DUP2 MSTORE PUSH1 0x4 ADD PUSH2 0x955 SWAP1 PUSH2 0x3448 JUMP JUMPDEST PUSH1 0x40 MLOAD DUP1 SWAP2 SUB SWAP1 REVERT JUMPDEST PUSH0 PUSH1 0x3 PUSH0 DUP5 PUSH1 0xFF AND PUSH1 0xFF AND DUP2 MSTORE PUSH1 0x20 ADD SWAP1 DUP2 MSTORE PUSH1 0x20 ADD PUSH0 KECCAK256 PUSH0 CALLER PUSH20 0xFFFFFFFFFFFFFFFFFFFFFFFFFFFFFFFFFFFFFFFF AND PUSH20 0xFFFFFFFFFFFFFFFFFFFFFFFFFFFFFFFFFFFFFFFF AND DUP2 MSTORE PUSH1 0x20 ADD SWAP1 DUP2 MSTORE PUSH1 0x20 ADD PUSH0 KECCAK256 PUSH1 0x1 ADD SLOAD EQ PUSH2 0x9F5 JUMPI PUSH1 0x40 MLOAD PUSH32 0x8C379A000000000000000000000000000000000000000000000000000000000 DUP2 MSTORE PUSH1 0x4 ADD PUSH2 0x9EC SWAP1 PUSH2 0x34B0 JUMP JUMPDEST PUSH1 0x40 MLOAD DUP1 SWAP2 SUB SWAP1 REVERT JUMPDEST PUSH0 PUSH1 0x1 PUSH0 DUP5 PUSH1 0xFF AND PUSH1 0xFF AND DUP2 MSTORE PUSH1 0x20 ADD SWAP1 DUP2 MSTORE PUSH1 0x20 ADD PUSH0 KECCAK256 PUSH1 0x1 ADD DUP1 SLOAD PUSH2 0xA1B SWAP1 PUSH2 0x3027 JUMP JUMPDEST SWAP1 POP SUB PUSH2 0xA5D JUMPI PUSH1 0x40 MLOAD PUSH32 0x8C379A000000000000000000000000000000000000000000000000000000000 DUP2 MSTORE PUSH1 0x4 ADD PUSH2 0xA54 SWAP1 PUSH2 0x30A1 JUMP JUMPDEST PUSH1 0x40 MLOAD DUP1 SWAP2 SUB SWAP1 REVERT JUMPDEST PUSH1 0x40 MLOAD DUP1 PUSH1 0xA0 ADD PUSH1 0x40 MSTORE DUP1 DUP3 DUP2 MSTORE PUSH1 0x20 ADD CALLVALUE DUP2 MSTORE PUSH1 0x20 ADD PUSH0 ISZERO ISZERO DUP2 MSTORE PUSH1 0x20 ADD PUSH0 PUSH1 0x2 DUP2 GT ISZERO PUSH2 0xA8F JUMPI PUSH2 0xA8E PUSH2 0x2743 JUMP JUMPDEST JUMPDEST DUP2 MSTORE PUSH1 0x20 ADD PUSH0 ISZERO ISZERO DUP2 MSTORE POP PUSH1 0x3 PUSH0 DUP5 PUSH1 0xFF AND PUSH1 0xFF AND DUP2 MSTORE PUSH1 0x20 ADD SWAP1 DUP2 MSTORE PUSH1 0x20 ADD PUSH0 KECCAK256 PUSH0 CALLER PUSH20 0xFFFFFFFFFFFFFFFFFFFFFFFFFFFFFFFFFFFFFFFF AND PUSH20 0xFFFFFFFFFFFFFFFFFFFFFFFFFFFFFFFFFFFFFFFF AND DUP2 MSTORE PUSH1 0x20 ADD SWAP1 DUP2 MSTORE PUSH1 0x20 ADD PUSH0 KECCAK256 PUSH0 DUP3 ADD MLOAD DUP2 PUSH0 ADD SSTORE PUSH1 0x20 DUP3 ADD MLOAD DUP2 PUSH1 0x1 ADD SSTORE PUSH1 0x40 DUP3 ADD MLOAD DUP2 PUSH1 0x2 ADD PUSH0 PUSH2 0x100 EXP DUP2 SLOAD DUP2 PUSH1 0xFF MUL NOT AND SWAP1 DUP4 ISZERO ISZERO MUL OR SWAP1 SSTORE POP PUSH1 0x60 DUP3 ADD MLOAD DUP2 PUSH1 0x2 ADD PUSH1 0x1 PUSH2 0x100 EXP DUP2 SLOAD DUP2 PUSH1 0xFF MUL NOT AND SWAP1 DUP4 PUSH1 0x2 DUP2 GT ISZERO PUSH2 0xB48 JUMPI PUSH2 0xB47 PUSH2 0x2743 JUMP JUMPDEST JUMPDEST MUL OR SWAP1 SSTORE POP PUSH1 0x80 DUP3 ADD MLOAD DUP2 PUSH1 0x2 ADD PUSH1 0x2 PUSH2 0x100 EXP DUP2 SLOAD DUP2 PUSH1 0xFF MUL NOT AND SWAP1 DUP4 ISZERO ISZERO MUL OR SWAP1 SSTORE POP SWAP1 POP POP PUSH1 0x5 PUSH0 DUP4 PUSH1 0xFF AND PUSH1 0xFF AND DUP2 MSTORE PUSH1 0x20 ADD SWAP1 DUP2 MSTORE PUSH1 0x20 ADD PUSH0 KECCAK256 CALLER SWAP1 DUP1 PUSH1 0x1 DUP2 SLOAD ADD DUP1 DUP3 SSTORE DUP1 SWAP2 POP POP PUSH1 0x1 SWAP1 SUB SWAP1 PUSH0 MSTORE PUSH1 0x20 PUSH0 KECCAK256 ADD PUSH0 SWAP1 SWAP2 SWAP1 SWAP2 SWAP1 SWAP2 PUSH2 0x100 EXP DUP2 SLOAD DUP2 PUSH20 0xFFFFFFFFFFFFFFFFFFFFFFFFFFFFFFFFFFFFFFFF MUL NOT AND SWAP1 DUP4 PUSH20 0xFFFFFFFFFFFFFFFFFFFFFFFFFFFFFFFFFFFFFFFF AND MUL OR SWAP1 SSTORE POP POP POP JUMP JUMPDEST PUSH1 0x5 PUSH1 0x20 MSTORE DUP2 PUSH0 MSTORE PUSH1 0x40 PUSH0 KECCAK256 DUP2 DUP2 SLOAD DUP2 LT PUSH2 0xC02 JUMPI PUSH0 DUP1 REVERT JUMPDEST SWAP1 PUSH0 MSTORE PUSH1 0x20 PUSH0 KECCAK256 ADD PUSH0 SWAP2 POP SWAP2 POP SWAP1 SLOAD SWAP1 PUSH2 0x100 EXP SWAP1 DIV PUSH20 0xFFFFFFFFFFFFFFFFFFFFFFFFFFFFFFFFFFFFFFFF AND DUP2 JUMP JUMPDEST PUSH0 PUSH0 SWAP1 SLOAD SWAP1 PUSH2 0x100 EXP SWAP1 DIV PUSH20 0xFFFFFFFFFFFFFFFFFFFFFFFFFFFFFFFFFFFFFFFF AND PUSH20 0xFFFFFFFFFFFFFFFFFFFFFFFFFFFFFFFFFFFFFFFF AND CALLER PUSH20 0xFFFFFFFFFFFFFFFFFFFFFFFFFFFFFFFFFFFFFFFF AND EQ PUSH2 0xCBF JUMPI PUSH1 0x40 MLOAD PUSH32 0x8C379A000000000000000000000000000000000000000000000000000000000 DUP2 MSTORE PUSH1 0x4 ADD PUSH2 0xCB6 SWAP1 PUSH2 0x2FDC JUMP JUMPDEST PUSH1 0x40 MLOAD DUP1 SWAP2 SUB SWAP1 REVERT JUMPDEST PUSH0 PUSH1 0x1 PUSH0 DUP4 PUSH1 0xFF AND PUSH1 0xFF AND DUP2 MSTORE PUSH1 0x20 ADD SWAP1 DUP2 MSTORE PUSH1 0x20 ADD PUSH0 KECCAK256 PUSH1 0x3 ADD DUP1 SLOAD PUSH2 0xCE5 SWAP1 PUSH2 0x3027 JUMP JUMPDEST SWAP1 POP GT PUSH2 0xD27 JUMPI PUSH1 0x40 MLOAD PUSH32 0x8C379A000000000000000000000000000000000000000000000000000000000 DUP2 MSTORE PUSH1 0x4 ADD PUSH2 0xD1E SWAP1 PUSH2 0x3518 JUMP JUMPDEST PUSH1 0x40 MLOAD DUP1 SWAP2 SUB SWAP1 REVERT JUMPDEST PUSH1 0x1 PUSH1 0x2 DUP2 GT ISZERO PUSH2 0xD3B JUMPI PUSH2 0xD3A PUSH2 0x2743 JUMP JUMPDEST JUMPDEST PUSH0 PUSH1 0x15 SWAP1 SLOAD SWAP1 PUSH2 0x100 EXP SWAP1 DIV PUSH1 0xFF AND PUSH1 0x2 DUP2 GT ISZERO PUSH2 0xD5C JUMPI PUSH2 0xD5B PUSH2 0x2743 JUMP JUMPDEST JUMPDEST EQ PUSH2 0xD9C JUMPI PUSH1 0x40 MLOAD PUSH32 0x8C379A000000000000000000000000000000000000000000000000000000000 DUP2 MSTORE PUSH1 0x4 ADD PUSH2 0xD93 SWAP1 PUSH2 0x3580 JUMP JUMPDEST PUSH1 0x40 MLOAD DUP1 SWAP2 SUB SWAP1 REVERT JUMPDEST PUSH0 PUSH0 PUSH0 PUSH2 0xE48 PUSH1 0x1 PUSH0 DUP7 PUSH1 0xFF AND PUSH1 0xFF AND DUP2 MSTORE PUSH1 0x20 ADD SWAP1 DUP2 MSTORE PUSH1 0x20 ADD PUSH0 KECCAK256 PUSH1 0x3 ADD DUP1 SLOAD PUSH2 0xDC7 SWAP1 PUSH2 0x3027 JUMP JUMPDEST DUP1 PUSH1 0x1F ADD PUSH1 0x20 DUP1 SWAP2 DIV MUL PUSH1 0x20 ADD PUSH1 0x40 MLOAD SWAP1 DUP2 ADD PUSH1 0x40 MSTORE DUP1 SWAP3 SWAP2 SWAP1 DUP2 DUP2 MSTORE PUSH1 0x20 ADD DUP3 DUP1 SLOAD PUSH2 0xDF3 SWAP1 PUSH2 0x3027 JUMP JUMPDEST DUP1 ISZERO PUSH2 0xE3E JUMPI DUP1 PUSH1 0x1F LT PUSH2 0xE15 JUMPI PUSH2 0x100 DUP1 DUP4 SLOAD DIV MUL DUP4 MSTORE SWAP2 PUSH1 0x20 ADD SWAP2 PUSH2 0xE3E JUMP JUMPDEST DUP3 ADD SWAP2 SWAP1 PUSH0 MSTORE PUSH1 0x20 PUSH0 KECCAK256 SWAP1 JUMPDEST DUP2 SLOAD DUP2 MSTORE SWAP1 PUSH1 0x1 ADD SWAP1 PUSH1 0x20 ADD DUP1 DUP4 GT PUSH2 0xE21 JUMPI DUP3 SWAP1 SUB PUSH1 0x1F AND DUP3 ADD SWAP2 JUMPDEST POP POP POP POP POP PUSH2 0x237C JUMP JUMPDEST SWAP3 POP SWAP3 POP SWAP3 POP DUP1 PUSH2 0xE8E JUMPI PUSH1 0x40 MLOAD PUSH32 0x8C379A000000000000000000000000000000000000000000000000000000000 DUP2 MSTORE PUSH1 0x4 ADD PUSH2 0xE85 SWAP1 PUSH2 0x35E8 JUMP JUMPDEST PUSH1 0x40 MLOAD DUP1 SWAP2 SUB SWAP1 REVERT JUMPDEST PUSH0 DUP3 PUSH1 0xFF AND DUP5 PUSH1 0xFF AND GT ISZERO PUSH2 0xEA6 JUMPI PUSH1 0x1 SWAP1 POP PUSH2 0xEC2 JUMP JUMPDEST DUP4 PUSH1 0xFF AND DUP4 PUSH1 0xFF AND GT ISZERO PUSH2 0xEBD JUMPI PUSH1 0x2 SWAP1 POP PUSH2 0xEC1 JUMP JUMPDEST PUSH0 SWAP1 POP JUMPDEST JUMPDEST DUP1 PUSH1 0x1 PUSH0 DUP8 PUSH1 0xFF AND PUSH1 0xFF AND DUP2 MSTORE PUSH1 0x20 ADD SWAP1 DUP2 MSTORE PUSH1 0x20 ADD PUSH0 KECCAK256 PUSH1 0x4 ADD PUSH0 PUSH2 0x100 EXP DUP2 SLOAD DUP2 PUSH1 0xFF MUL NOT AND SWAP1 DUP4 PUSH1 0x2 DUP2 GT ISZERO PUSH2 0xEFE JUMPI PUSH2 0xEFD PUSH2 0x2743 JUMP JUMPDEST JUMPDEST MUL OR SWAP1 SSTORE POP PUSH1 0x4 PUSH0 DUP7 PUSH1 0xFF AND PUSH1 0xFF AND DUP2 MSTORE PUSH1 0x20 ADD SWAP1 DUP2 MSTORE PUSH1 0x20 ADD PUSH0 KECCAK256 PUSH0 PUSH0 PUSH1 0x2 DUP2 GT ISZERO PUSH2 0xF2E JUMPI PUSH2 0xF2D PUSH2 0x2743 JUMP JUMPDEST JUMPDEST PUSH1 0x2 DUP2 GT ISZERO PUSH2 0xF40 JUMPI PUSH2 0xF3F PUSH2 0x2743 JUMP JUMPDEST JUMPDEST DUP2 MSTORE PUSH1 0x20 ADD SWAP1 DUP2 MSTORE PUSH1 0x20 ADD PUSH0 KECCAK256 SLOAD PUSH1 0x4 PUSH0 DUP8 PUSH1 0xFF AND PUSH1 0xFF AND DUP2 MSTORE PUSH1 0x20 ADD SWAP1 DUP2 MSTORE PUSH1 0x20 ADD PUSH0 KECCAK256 PUSH0 PUSH1 0x2 DUP1 DUP2 GT ISZERO PUSH2 0xF79 JUMPI PUSH2 0xF78 PUSH2 0x2743 JUMP JUMPDEST JUMPDEST PUSH1 0x2 DUP2 GT ISZERO PUSH2 0xF8B JUMPI PUSH2 0xF8A PUSH2 0x2743 JUMP JUMPDEST JUMPDEST DUP2 MSTORE PUSH1 0x20 ADD SWAP1 DUP2 MSTORE PUSH1 0x20 ADD PUSH0 KECCAK256 SLOAD PUSH1 0x4 PUSH0 DUP9 PUSH1 0xFF AND PUSH1 0xFF AND DUP2 MSTORE PUSH1 0x20 ADD SWAP1 DUP2 MSTORE PUSH1 0x20 ADD PUSH0 KECCAK256 PUSH0 PUSH1 0x1 PUSH1 0x2 DUP2 GT ISZERO PUSH2 0xFC5 JUMPI PUSH2 0xFC4 PUSH2 0x2743 JUMP JUMPDEST JUMPDEST PUSH1 0x2 DUP2 GT ISZERO PUSH2 0xFD7 JUMPI PUSH2 0xFD6 PUSH2 0x2743 JUMP JUMPDEST JUMPDEST DUP2 MSTORE PUSH1 0x20 ADD SWAP1 DUP2 MSTORE PUSH1 0x20 ADD PUSH0 KECCAK256 SLOAD PUSH2 0xFEF SWAP2 SWAP1 PUSH2 0x3633 JUMP JUMPDEST PUSH2 0xFF9 SWAP2 SWAP1 PUSH2 0x3633 JUMP JUMPDEST PUSH1 0x1 PUSH0 DUP8 PUSH1 0xFF AND PUSH1 0xFF AND DUP2 MSTORE PUSH1 0x20 ADD SWAP1 DUP2 MSTORE PUSH1 0x20 ADD PUSH0 KECCAK256 PUSH1 0x5 ADD DUP2 SWAP1 SSTORE POP PUSH1 0x64 PUSH0 PUSH1 0x14 SWAP1 SLOAD SWAP1 PUSH2 0x100 EXP SWAP1 DIV PUSH1 0xFF AND PUSH1 0xFF AND PUSH1 0x1 PUSH0 DUP9 PUSH1 0xFF AND PUSH1 0xFF AND DUP2 MSTORE PUSH1 0x20 ADD SWAP1 DUP2 MSTORE PUSH1 0x20 ADD PUSH0 KECCAK256 PUSH1 0x5 ADD SLOAD PUSH2 0x1050 SWAP2 SWAP1 PUSH2 0x3666 JUMP JUMPDEST PUSH2 0x105A SWAP2 SWAP1 PUSH2 0x36D4 JUMP JUMPDEST PUSH1 0x1 PUSH0 DUP8 PUSH1 0xFF AND PUSH1 0xFF AND DUP2 MSTORE PUSH1 0x20 ADD SWAP1 DUP2 MSTORE PUSH1 0x20 ADD PUSH0 KECCAK256 PUSH1 0x7 ADD DUP2 SWAP1 SSTORE POP PUSH1 0x1 PUSH0 DUP7 PUSH1 0xFF AND PUSH1 0xFF AND DUP2 MSTORE PUSH1 0x20 ADD SWAP1 DUP2 MSTORE PUSH1 0x20 ADD PUSH0 KECCAK256 PUSH1 0x7 ADD SLOAD PUSH1 0x1 PUSH0 DUP8 PUSH1 0xFF AND PUSH1 0xFF AND DUP2 MSTORE PUSH1 0x20 ADD SWAP1 DUP2 MSTORE PUSH1 0x20 ADD PUSH0 KECCAK256 PUSH1 0x5 ADD SLOAD PUSH2 0x10B8 SWAP2 SWAP1 PUSH2 0x3704 JUMP JUMPDEST PUSH1 0x1 PUSH0 DUP8 PUSH1 0xFF AND PUSH1 0xFF AND DUP2 MSTORE PUSH1 0x20 ADD SWAP1 DUP2 MSTORE PUSH1 0x20 ADD PUSH0 KECCAK256 PUSH1 0x8 ADD DUP2 SWAP1 SSTORE POP PUSH0 PUSH0 SWAP1 POP PUSH0 PUSH1 0x5 PUSH0 DUP9 PUSH1 0xFF AND PUSH1 0xFF AND DUP2 MSTORE PUSH1 0x20 ADD SWAP1 DUP2 MSTORE PUSH1 0x20 ADD PUSH0 KECCAK256 SWAP1 POP PUSH0 PUSH0 SWAP1 POP JUMPDEST DUP2 DUP1 SLOAD SWAP1 POP DUP2 LT ISZERO PUSH2 0x1228 JUMPI PUSH0 PUSH1 0x3 PUSH0 DUP11 PUSH1 0xFF AND PUSH1 0xFF AND DUP2 MSTORE PUSH1 0x20 ADD SWAP1 DUP2 MSTORE PUSH1 0x20 ADD PUSH0 KECCAK256 PUSH0 DUP5 DUP5 DUP2 SLOAD DUP2 LT PUSH2 0x1131 JUMPI PUSH2 0x1130 PUSH2 0x3737 JUMP JUMPDEST JUMPDEST SWAP1 PUSH0 MSTORE PUSH1 0x20 PUSH0 KECCAK256 ADD PUSH0 SWAP1 SLOAD SWAP1 PUSH2 0x100 EXP SWAP1 DIV PUSH20 0xFFFFFFFFFFFFFFFFFFFFFFFFFFFFFFFFFFFFFFFF AND PUSH20 0xFFFFFFFFFFFFFFFFFFFFFFFFFFFFFFFFFFFFFFFF AND PUSH20 0xFFFFFFFFFFFFFFFFFFFFFFFFFFFFFFFFFFFFFFFF AND DUP2 MSTORE PUSH1 0x20 ADD SWAP1 DUP2 MSTORE PUSH1 0x20 ADD PUSH0 KECCAK256 SWAP1 POP DUP1 PUSH1 0x2 ADD PUSH0 SWAP1 SLOAD SWAP1 PUSH2 0x100 EXP SWAP1 DIV PUSH1 0xFF AND DUP1 ISZERO PUSH2 0x11E5 JUMPI POP DUP5 PUSH1 0x2 DUP2 GT ISZERO PUSH2 0x11BF JUMPI PUSH2 0x11BE PUSH2 0x2743 JUMP JUMPDEST JUMPDEST DUP2 PUSH1 0x2 ADD PUSH1 0x1 SWAP1 SLOAD SWAP1 PUSH2 0x100 EXP SWAP1 DIV PUSH1 0xFF AND PUSH1 0x2 DUP2 GT ISZERO PUSH2 0x11E3 JUMPI PUSH2 0x11E2 PUSH2 0x2743 JUMP JUMPDEST JUMPDEST EQ JUMPDEST ISZERO PUSH2 0x121A JUMPI PUSH1 0x1 DUP2 PUSH1 0x2 ADD PUSH1 0x2 PUSH2 0x100 EXP DUP2 SLOAD DUP2 PUSH1 0xFF MUL NOT AND SWAP1 DUP4 ISZERO ISZERO MUL OR SWAP1 SSTORE POP DUP1 PUSH1 0x1 ADD SLOAD DUP5 PUSH2 0x1217 SWAP2 SWAP1 PUSH2 0x3633 JUMP JUMPDEST SWAP4 POP JUMPDEST POP DUP1 DUP1 PUSH1 0x1 ADD SWAP2 POP POP PUSH2 0x10F9 JUMP JUMPDEST POP DUP2 PUSH1 0x1 PUSH0 DUP10 PUSH1 0xFF AND PUSH1 0xFF AND DUP2 MSTORE PUSH1 0x20 ADD SWAP1 DUP2 MSTORE PUSH1 0x20 ADD PUSH0 KECCAK256 PUSH1 0x6 ADD DUP2 SWAP1 SSTORE POP PUSH0 PUSH1 0x1 PUSH0 DUP10 PUSH1 0xFF AND PUSH1 0xFF AND DUP2 MSTORE PUSH1 0x20 ADD SWAP1 DUP2 MSTORE PUSH1 0x20 ADD PUSH0 KECCAK256 PUSH1 0x7 ADD SLOAD GT ISZERO PUSH2 0x130D JUMPI PUSH0 PUSH1 0x1 PUSH0 DUP10 PUSH1 0xFF AND PUSH1 0xFF AND DUP2 MSTORE PUSH1 0x20 ADD SWAP1 DUP2 MSTORE PUSH1 0x20 ADD PUSH0 KECCAK256 PUSH1 0x7 ADD SLOAD SWAP1 POP PUSH0 PUSH1 0x1 PUSH0 DUP11 PUSH1 0xFF AND PUSH1 0xFF AND DUP2 MSTORE PUSH1 0x20 ADD SWAP1 DUP2 MSTORE PUSH1 0x20 ADD PUSH0 KECCAK256 PUSH1 0x7 ADD DUP2 SWAP1 SSTORE POP PUSH0 PUSH0 SWAP1 SLOAD SWAP1 PUSH2 0x100 EXP SWAP1 DIV PUSH20 0xFFFFFFFFFFFFFFFFFFFFFFFFFFFFFFFFFFFFFFFF AND PUSH20 0xFFFFFFFFFFFFFFFFFFFFFFFFFFFFFFFFFFFFFFFF AND PUSH2 0x8FC DUP3 SWAP1 DUP2 ISZERO MUL SWAP1 PUSH1 0x40 MLOAD PUSH0 PUSH1 0x40 MLOAD DUP1 DUP4 SUB DUP2 DUP6 DUP9 DUP9 CALL SWAP4 POP POP POP POP ISZERO DUP1 ISZERO PUSH2 0x130A JUMPI RETURNDATASIZE PUSH0 PUSH0 RETURNDATACOPY RETURNDATASIZE PUSH0 REVERT JUMPDEST POP POP JUMPDEST PUSH0 DUP3 EQ DUP1 ISZERO PUSH2 0x1335 JUMPI POP PUSH0 PUSH1 0x1 PUSH0 DUP10 PUSH1 0xFF AND PUSH1 0xFF AND DUP2 MSTORE PUSH1 0x20 ADD SWAP1 DUP2 MSTORE PUSH1 0x20 ADD PUSH0 KECCAK256 PUSH1 0x8 ADD SLOAD GT JUMPDEST ISZERO PUSH2 0x13E1 JUMPI PUSH0 PUSH1 0x1 PUSH0 DUP10 PUSH1 0xFF AND PUSH1 0xFF AND DUP2 MSTORE PUSH1 0x20 ADD SWAP1 DUP2 MSTORE PUSH1 0x20 ADD PUSH0 KECCAK256 PUSH1 0x8 ADD SLOAD SWAP1 POP PUSH0 PUSH1 0x1 PUSH0 DUP11 PUSH1 0xFF AND PUSH1 0xFF AND DUP2 MSTORE PUSH1 0x20 ADD SWAP1 DUP2 MSTORE PUSH1 0x20 ADD PUSH0 KECCAK256 PUSH1 0x8 ADD DUP2 SWAP1 SSTORE POP PUSH0 PUSH0 SWAP1 SLOAD SWAP1 PUSH2 0x100 EXP SWAP1 DIV PUSH20 0xFFFFFFFFFFFFFFFFFFFFFFFFFFFFFFFFFFFFFFFF AND PUSH20 0xFFFFFFFFFFFFFFFFFFFFFFFFFFFFFFFFFFFFFFFF AND PUSH2 0x8FC DUP3 SWAP1 DUP2 ISZERO MUL SWAP1 PUSH1 0x40 MLOAD PUSH0 PUSH1 0x40 MLOAD DUP1 DUP4 SUB DUP2 DUP6 DUP9 DUP9 CALL SWAP4 POP POP POP POP ISZERO DUP1 ISZERO PUSH2 0x13DA JUMPI RETURNDATASIZE PUSH0 PUSH0 RETURNDATACOPY RETURNDATASIZE PUSH0 REVERT JUMPDEST POP POP PUSH2 0x1588 JUMP JUMPDEST PUSH0 DUP3 GT ISZERO PUSH2 0x1587 JUMPI PUSH0 PUSH0 SWAP1 POP JUMPDEST DUP2 DUP1 SLOAD SWAP1 POP DUP2 LT ISZERO PUSH2 0x1566 JUMPI PUSH0 PUSH1 0x3 PUSH0 DUP11 PUSH1 0xFF AND PUSH1 0xFF AND DUP2 MSTORE PUSH1 0x20 ADD SWAP1 DUP2 MSTORE PUSH1 0x20 ADD PUSH0 KECCAK256 PUSH0 DUP5 DUP5 DUP2 SLOAD DUP2 LT PUSH2 0x1426 JUMPI PUSH2 0x1425 PUSH2 0x3737 JUMP JUMPDEST JUMPDEST SWAP1 PUSH0 MSTORE PUSH1 0x20 PUSH0 KECCAK256 ADD PUSH0 SWAP1 SLOAD SWAP1 PUSH2 0x100 EXP SWAP1 DIV PUSH20 0xFFFFFFFFFFFFFFFFFFFFFFFFFFFFFFFFFFFFFFFF AND PUSH20 0xFFFFFFFFFFFFFFFFFFFFFFFFFFFFFFFFFFFFFFFF AND PUSH20 0xFFFFFFFFFFFFFFFFFFFFFFFFFFFFFFFFFFFFFFFF AND DUP2 MSTORE PUSH1 0x20 ADD SWAP1 DUP2 MSTORE PUSH1 0x20 ADD PUSH0 KECCAK256 SWAP1 POP DUP1 PUSH1 0x2 ADD PUSH1 0x2 SWAP1 SLOAD SWAP1 PUSH2 0x100 EXP SWAP1 DIV PUSH1 0xFF AND ISZERO PUSH2 0x1558 JUMPI PUSH0 DUP5 PUSH1 0x1 PUSH0 DUP13 PUSH1 0xFF AND PUSH1 0xFF AND DUP2 MSTORE PUSH1 0x20 ADD SWAP1 DUP2 MSTORE PUSH1 0x20 ADD PUSH0 KECCAK256 PUSH1 0x8 ADD SLOAD DUP4 PUSH1 0x1 ADD SLOAD PUSH2 0x14CC SWAP2 SWAP1 PUSH2 0x3666 JUMP JUMPDEST PUSH2 0x14D6 SWAP2 SWAP1 PUSH2 0x36D4 JUMP JUMPDEST SWAP1 POP DUP4 DUP4 DUP2 SLOAD DUP2 LT PUSH2 0x14EB JUMPI PUSH2 0x14EA PUSH2 0x3737 JUMP JUMPDEST JUMPDEST SWAP1 PUSH0 MSTORE PUSH1 0x20 PUSH0 KECCAK256 ADD PUSH0 SWAP1 SLOAD SWAP1 PUSH2 0x100 EXP SWAP1 DIV PUSH20 0xFFFFFFFFFFFFFFFFFFFFFFFFFFFFFFFFFFFFFFFF AND PUSH20 0xFFFFFFFFFFFFFFFFFFFFFFFFFFFFFFFFFFFFFFFF AND PUSH2 0x8FC DUP3 SWAP1 DUP2 ISZERO MUL SWAP1 PUSH1 0x40 MLOAD PUSH0 PUSH1 0x40 MLOAD DUP1 DUP4 SUB DUP2 DUP6 DUP9 DUP9 CALL SWAP4 POP POP POP POP ISZERO DUP1 ISZERO PUSH2 0x1555 JUMPI RETURNDATASIZE PUSH0 PUSH0 RETURNDATACOPY RETURNDATASIZE PUSH0 REVERT JUMPDEST POP POP JUMPDEST POP DUP1 DUP1 PUSH1 0x1 ADD SWAP2 POP POP PUSH2 0x13EE JUMP JUMPDEST POP PUSH0 PUSH1 0x1 PUSH0 DUP10 PUSH1 0xFF AND PUSH1 0xFF AND DUP2 MSTORE PUSH1 0x20 ADD SWAP1 DUP2 MSTORE PUSH1 0x20 ADD PUSH0 KECCAK256 PUSH1 0x8 ADD DUP2 SWAP1 SSTORE POP JUMPDEST JUMPDEST PUSH1 0x2 PUSH0 PUSH1 0x15 PUSH2 0x100 EXP DUP2 SLOAD DUP2 PUSH1 0xFF MUL NOT AND SWAP1 DUP4 PUSH1 0x2 DUP2 GT ISZERO PUSH2 0x15AD JUMPI PUSH2 0x15AC PUSH2 0x2743 JUMP JUMPDEST JUMPDEST MUL OR SWAP1 SSTORE POP POP POP POP POP POP POP POP JUMP JUMPDEST PUSH1 0x3 PUSH1 0x20 MSTORE DUP2 PUSH0 MSTORE PUSH1 0x40 PUSH0 KECCAK256 PUSH1 0x20 MSTORE DUP1 PUSH0 MSTORE PUSH1 0x40 PUSH0 KECCAK256 PUSH0 SWAP2 POP SWAP2 POP POP DUP1 PUSH0 ADD SLOAD SWAP1 DUP1 PUSH1 0x1 ADD SLOAD SWAP1 DUP1 PUSH1 0x2 ADD PUSH0 SWAP1 SLOAD SWAP1 PUSH2 0x100 EXP SWAP1 DIV PUSH1 0xFF AND SWAP1 DUP1 PUSH1 0x2 ADD PUSH1 0x1 SWAP1 SLOAD SWAP1 PUSH2 0x100 EXP SWAP1 DIV PUSH1 0xFF AND SWAP1 DUP1 PUSH1 0x2 ADD PUSH1 0x2 SWAP1 SLOAD SWAP1 PUSH2 0x100 EXP SWAP1 DIV PUSH1 0xFF AND SWAP1 POP DUP6 JUMP JUMPDEST PUSH0 PUSH0 SWAP1 SLOAD SWAP1 PUSH2 0x100 EXP SWAP1 DIV PUSH20 0xFFFFFFFFFFFFFFFFFFFFFFFFFFFFFFFFFFFFFFFF AND PUSH20 0xFFFFFFFFFFFFFFFFFFFFFFFFFFFFFFFFFFFFFFFF AND CALLER PUSH20 0xFFFFFFFFFFFFFFFFFFFFFFFFFFFFFFFFFFFFFFFF AND EQ PUSH2 0x16AC JUMPI PUSH1 0x40 MLOAD PUSH32 0x8C379A000000000000000000000000000000000000000000000000000000000 DUP2 MSTORE PUSH1 0x4 ADD PUSH2 0x16A3 SWAP1 PUSH2 0x2FDC JUMP JUMPDEST PUSH1 0x40 MLOAD DUP1 SWAP2 SUB SWAP1 REVERT JUMPDEST PUSH0 PUSH0 PUSH1 0x15 PUSH2 0x100 EXP DUP2 SLOAD DUP2 PUSH1 0xFF MUL NOT AND SWAP1 DUP4 PUSH1 0x2 DUP2 GT ISZERO PUSH2 0x16D0 JUMPI PUSH2 0x16CF PUSH2 0x2743 JUMP JUMPDEST JUMPDEST MUL OR SWAP1 SSTORE POP JUMP JUMPDEST PUSH0 PUSH0 PUSH1 0x15 SWAP1 SLOAD SWAP1 PUSH2 0x100 EXP SWAP1 DIV PUSH1 0xFF AND PUSH1 0x2 DUP2 GT ISZERO PUSH2 0x16F9 JUMPI PUSH2 0x16F8 PUSH2 0x2743 JUMP JUMPDEST JUMPDEST SWAP1 POP SWAP1 JUMP JUMPDEST PUSH7 0x4D1808F7A04000 DUP2 JUMP JUMPDEST PUSH0 PUSH0 SWAP1 SLOAD SWAP1 PUSH2 0x100 EXP SWAP1 DIV PUSH20 0xFFFFFFFFFFFFFFFFFFFFFFFFFFFFFFFFFFFFFFFF AND DUP2 JUMP JUMPDEST PUSH1 0x4 PUSH1 0x20 MSTORE DUP2 PUSH0 MSTORE PUSH1 0x40 PUSH0 KECCAK256 PUSH1 0x20 MSTORE DUP1 PUSH0 MSTORE PUSH1 0x40 PUSH0 KECCAK256 PUSH0 SWAP2 POP SWAP2 POP POP SLOAD DUP2 JUMP JUMPDEST PUSH1 0x60 DUP1 PUSH1 0x60 PUSH0 PUSH1 0x2 DUP1 SLOAD SWAP1 POP PUSH8 0xFFFFFFFFFFFFFFFF DUP2 GT ISZERO PUSH2 0x1772 JUMPI PUSH2 0x1771 PUSH2 0x25C5 JUMP JUMPDEST JUMPDEST PUSH1 0x40 MLOAD SWAP1 DUP1 DUP3 MSTORE DUP1 PUSH1 0x20 MUL PUSH1 0x20 ADD DUP3 ADD PUSH1 0x40 MSTORE DUP1 ISZERO PUSH2 0x17A0 JUMPI DUP2 PUSH1 0x20 ADD PUSH1 0x20 DUP3 MUL DUP1 CALLDATASIZE DUP4 CALLDATACOPY DUP1 DUP3 ADD SWAP2 POP POP SWAP1 POP JUMPDEST POP SWAP1 POP PUSH0 PUSH1 0x2 DUP1 SLOAD SWAP1 POP PUSH8 0xFFFFFFFFFFFFFFFF DUP2 GT ISZERO PUSH2 0x17C3 JUMPI PUSH2 0x17C2 PUSH2 0x25C5 JUMP JUMPDEST JUMPDEST PUSH1 0x40 MLOAD SWAP1 DUP1 DUP3 MSTORE DUP1 PUSH1 0x20 MUL PUSH1 0x20 ADD DUP3 ADD PUSH1 0x40 MSTORE DUP1 ISZERO PUSH2 0x17F6 JUMPI DUP2 PUSH1 0x20 ADD JUMPDEST PUSH1 0x60 DUP2 MSTORE PUSH1 0x20 ADD SWAP1 PUSH1 0x1 SWAP1 SUB SWAP1 DUP2 PUSH2 0x17E1 JUMPI SWAP1 POP JUMPDEST POP SWAP1 POP PUSH0 PUSH1 0x2 DUP1 SLOAD SWAP1 POP PUSH8 0xFFFFFFFFFFFFFFFF DUP2 GT ISZERO PUSH2 0x1819 JUMPI PUSH2 0x1818 PUSH2 0x25C5 JUMP JUMPDEST JUMPDEST PUSH1 0x40 MLOAD SWAP1 DUP1 DUP3 MSTORE DUP1 PUSH1 0x20 MUL PUSH1 0x20 ADD DUP3 ADD PUSH1 0x40 MSTORE DUP1 ISZERO PUSH2 0x184C JUMPI DUP2 PUSH1 0x20 ADD JUMPDEST PUSH1 0x60 DUP2 MSTORE PUSH1 0x20 ADD SWAP1 PUSH1 0x1 SWAP1 SUB SWAP1 DUP2 PUSH2 0x1837 JUMPI SWAP1 POP JUMPDEST POP SWAP1 POP PUSH0 PUSH0 SWAP1 POP JUMPDEST PUSH1 0x2 DUP1 SLOAD SWAP1 POP DUP2 LT ISZERO PUSH2 0x1ACC JUMPI PUSH1 0x1 PUSH0 PUSH1 0x2 DUP4 DUP2 SLOAD DUP2 LT PUSH2 0x1878 JUMPI PUSH2 0x1877 PUSH2 0x3737 JUMP JUMPDEST JUMPDEST SWAP1 PUSH0 MSTORE PUSH1 0x20 PUSH0 KECCAK256 SWAP1 PUSH1 0x20 SWAP2 DUP3 DUP3 DIV ADD SWAP2 SWAP1 MOD SWAP1 SLOAD SWAP1 PUSH2 0x100 EXP SWAP1 DIV PUSH1 0xFF AND PUSH1 0xFF AND PUSH1 0xFF AND DUP2 MSTORE PUSH1 0x20 ADD SWAP1 DUP2 MSTORE PUSH1 0x20 ADD PUSH0 KECCAK256 PUSH0 ADD PUSH0 SWAP1 SLOAD SWAP1 PUSH2 0x100 EXP SWAP1 DIV PUSH1 0xFF AND DUP5 DUP3 DUP2 MLOAD DUP2 LT PUSH2 0x18CB JUMPI PUSH2 0x18CA PUSH2 0x3737 JUMP JUMPDEST JUMPDEST PUSH1 0x20 MUL PUSH1 0x20 ADD ADD SWAP1 PUSH1 0xFF AND SWAP1 DUP2 PUSH1 0xFF AND DUP2 MSTORE POP POP PUSH1 0x1 PUSH0 PUSH1 0x2 DUP4 DUP2 SLOAD DUP2 LT PUSH2 0x18F6 JUMPI PUSH2 0x18F5 PUSH2 0x3737 JUMP JUMPDEST JUMPDEST SWAP1 PUSH0 MSTORE PUSH1 0x20 PUSH0 KECCAK256 SWAP1 PUSH1 0x20 SWAP2 DUP3 DUP3 DIV ADD SWAP2 SWAP1 MOD SWAP1 SLOAD SWAP1 PUSH2 0x100 EXP SWAP1 DIV PUSH1 0xFF AND PUSH1 0xFF AND PUSH1 0xFF AND DUP2 MSTORE PUSH1 0x20 ADD SWAP1 DUP2 MSTORE PUSH1 0x20 ADD PUSH0 KECCAK256 PUSH1 0x1 ADD DUP1 SLOAD PUSH2 0x1935 SWAP1 PUSH2 0x3027 JUMP JUMPDEST DUP1 PUSH1 0x1F ADD PUSH1 0x20 DUP1 SWAP2 DIV MUL PUSH1 0x20 ADD PUSH1 0x40 MLOAD SWAP1 DUP2 ADD PUSH1 0x40 MSTORE DUP1 SWAP3 SWAP2 SWAP1 DUP2 DUP2 MSTORE PUSH1 0x20 ADD DUP3 DUP1 SLOAD PUSH2 0x1961 SWAP1 PUSH2 0x3027 JUMP JUMPDEST DUP1 ISZERO PUSH2 0x19AC JUMPI DUP1 PUSH1 0x1F LT PUSH2 0x1983 JUMPI PUSH2 0x100 DUP1 DUP4 SLOAD DIV MUL DUP4 MSTORE SWAP2 PUSH1 0x20 ADD SWAP2 PUSH2 0x19AC JUMP JUMPDEST DUP3 ADD SWAP2 SWAP1 PUSH0 MSTORE PUSH1 0x20 PUSH0 KECCAK256 SWAP1 JUMPDEST DUP2 SLOAD DUP2 MSTORE SWAP1 PUSH1 0x1 ADD SWAP1 PUSH1 0x20 ADD DUP1 DUP4 GT PUSH2 0x198F JUMPI DUP3 SWAP1 SUB PUSH1 0x1F AND DUP3 ADD SWAP2 JUMPDEST POP POP POP POP POP DUP4 DUP3 DUP2 MLOAD DUP2 LT PUSH2 0x19C4 JUMPI PUSH2 0x19C3 PUSH2 0x3737 JUMP JUMPDEST JUMPDEST PUSH1 0x20 MUL PUSH1 0x20 ADD ADD DUP2 SWAP1 MSTORE POP PUSH1 0x1 PUSH0 PUSH1 0x2 DUP4 DUP2 SLOAD DUP2 LT PUSH2 0x19E6 JUMPI PUSH2 0x19E5 PUSH2 0x3737 JUMP JUMPDEST JUMPDEST SWAP1 PUSH0 MSTORE PUSH1 0x20 PUSH0 KECCAK256 SWAP1 PUSH1 0x20 SWAP2 DUP3 DUP3 DIV ADD SWAP2 SWAP1 MOD SWAP1 SLOAD SWAP1 PUSH2 0x100 EXP SWAP1 DIV PUSH1 0xFF AND PUSH1 0xFF AND PUSH1 0xFF AND DUP2 MSTORE PUSH1 0x20 ADD SWAP1 DUP2 MSTORE PUSH1 0x20 ADD PUSH0 KECCAK256 PUSH1 0x2 ADD DUP1 SLOAD PUSH2 0x1A25 SWAP1 PUSH2 0x3027 JUMP JUMPDEST DUP1 PUSH1 0x1F ADD PUSH1 0x20 DUP1 SWAP2 DIV MUL PUSH1 0x20 ADD PUSH1 0x40 MLOAD SWAP1 DUP2 ADD PUSH1 0x40 MSTORE DUP1 SWAP3 SWAP2 SWAP1 DUP2 DUP2 MSTORE PUSH1 0x20 ADD DUP3 DUP1 SLOAD PUSH2 0x1A51 SWAP1 PUSH2 0x3027 JUMP JUMPDEST DUP1 ISZERO PUSH2 0x1A9C JUMPI DUP1 PUSH1 0x1F LT PUSH2 0x1A73 JUMPI PUSH2 0x100 DUP1 DUP4 SLOAD DIV MUL DUP4 MSTORE SWAP2 PUSH1 0x20 ADD SWAP2 PUSH2 0x1A9C JUMP JUMPDEST DUP3 ADD SWAP2 SWAP1 PUSH0 MSTORE PUSH1 0x20 PUSH0 KECCAK256 SWAP1 JUMPDEST DUP2 SLOAD DUP2 MSTORE SWAP1 PUSH1 0x1 ADD SWAP1 PUSH1 0x20 ADD DUP1 DUP4 GT PUSH2 0x1A7F JUMPI DUP3 SWAP1 SUB PUSH1 0x1F AND DUP3 ADD SWAP2 JUMPDEST POP POP POP POP POP DUP3 DUP3 DUP2 MLOAD DUP2 LT PUSH2 0x1AB4 JUMPI PUSH2 0x1AB3 PUSH2 0x3737 JUMP JUMPDEST JUMPDEST PUSH1 0x20 MUL PUSH1 0x20 ADD ADD DUP2 SWAP1 MSTORE POP DUP1 DUP1 PUSH1 0x1 ADD SWAP2 POP POP PUSH2 0x1854 JUMP JUMPDEST POP DUP3 DUP3 DUP3 SWAP6 POP SWAP6 POP SWAP6 POP POP POP POP SWAP1 SWAP2 SWAP3 JUMP JUMPDEST PUSH0 PUSH0 SWAP1 SLOAD SWAP1 PUSH2 0x100 EXP SWAP1 DIV PUSH20 0xFFFFFFFFFFFFFFFFFFFFFFFFFFFFFFFFFFFFFFFF AND PUSH20 0xFFFFFFFFFFFFFFFFFFFFFFFFFFFFFFFFFFFFFFFF AND CALLER PUSH20 0xFFFFFFFFFFFFFFFFFFFFFFFFFFFFFFFFFFFFFFFF AND EQ PUSH2 0x1B6C JUMPI PUSH1 0x40 MLOAD PUSH32 0x8C379A000000000000000000000000000000000000000000000000000000000 DUP2 MSTORE PUSH1 0x4 ADD PUSH2 0x1B63 SWAP1 PUSH2 0x2FDC JUMP JUMPDEST PUSH1 0x40 MLOAD DUP1 SWAP2 SUB SWAP1 REVERT JUMPDEST PUSH0 PUSH1 0x1 PUSH0 DUP6 PUSH1 0xFF AND PUSH1 0xFF AND DUP2 MSTORE PUSH1 0x20 ADD SWAP1 DUP2 MSTORE PUSH1 0x20 ADD PUSH0 KECCAK256 PUSH1 0x1 ADD DUP1 SLOAD PUSH2 0x1B92 SWAP1 PUSH2 0x3027 JUMP JUMPDEST SWAP1 POP EQ PUSH2 0x1BD4 JUMPI PUSH1 0x40 MLOAD PUSH32 0x8C379A000000000000000000000000000000000000000000000000000000000 DUP2 MSTORE PUSH1 0x4 ADD PUSH2 0x1BCB SWAP1 PUSH2 0x37D4 JUMP JUMPDEST PUSH1 0x40 MLOAD DUP1 SWAP2 SUB SWAP1 REVERT JUMPDEST PUSH1 0x40 MLOAD DUP1 PUSH2 0x120 ADD PUSH1 0x40 MSTORE DUP1 DUP5 PUSH1 0xFF AND DUP2 MSTORE PUSH1 0x20 ADD DUP4 DUP2 MSTORE PUSH1 0x20 ADD DUP3 DUP2 MSTORE PUSH1 0x20 ADD PUSH1 0x40 MLOAD DUP1 PUSH1 0x20 ADD PUSH1 0x40 MSTORE DUP1 PUSH0 DUP2 MSTORE POP DUP2 MSTORE PUSH1 0x20 ADD PUSH0 PUSH1 0x2 DUP2 GT ISZERO PUSH2 0x1C1C JUMPI PUSH2 0x1C1B PUSH2 0x2743 JUMP JUMPDEST JUMPDEST DUP2 MSTORE PUSH1 0x20 ADD PUSH0 DUP2 MSTORE PUSH1 0x20 ADD PUSH0 DUP2 MSTORE PUSH1 0x20 ADD PUSH0 DUP2 MSTORE PUSH1 0x20 ADD PUSH0 DUP2 MSTORE POP PUSH1 0x1 PUSH0 DUP6 PUSH1 0xFF AND PUSH1 0xFF AND DUP2 MSTORE PUSH1 0x20 ADD SWAP1 DUP2 MSTORE PUSH1 0x20 ADD PUSH0 KECCAK256 PUSH0 DUP3 ADD MLOAD DUP2 PUSH0 ADD PUSH0 PUSH2 0x100 EXP DUP2 SLOAD DUP2 PUSH1 0xFF MUL NOT AND SWAP1 DUP4 PUSH1 0xFF AND MUL OR SWAP1 SSTORE POP PUSH1 0x20 DUP3 ADD MLOAD DUP2 PUSH1 0x1 ADD SWAP1 DUP2 PUSH2 0x1C81 SWAP2 SWAP1 PUSH2 0x325F JUMP JUMPDEST POP PUSH1 0x40 DUP3 ADD MLOAD DUP2 PUSH1 0x2 ADD SWAP1 DUP2 PUSH2 0x1C97 SWAP2 SWAP1 PUSH2 0x325F JUMP JUMPDEST POP PUSH1 0x60 DUP3 ADD MLOAD DUP2 PUSH1 0x3 ADD SWAP1 DUP2 PUSH2 0x1CAD SWAP2 SWAP1 PUSH2 0x325F JUMP JUMPDEST POP PUSH1 0x80 DUP3 ADD MLOAD DUP2 PUSH1 0x4 ADD PUSH0 PUSH2 0x100 EXP DUP2 SLOAD DUP2 PUSH1 0xFF MUL NOT AND SWAP1 DUP4 PUSH1 0x2 DUP2 GT ISZERO PUSH2 0x1CD8 JUMPI PUSH2 0x1CD7 PUSH2 0x2743 JUMP JUMPDEST JUMPDEST MUL OR SWAP1 SSTORE POP PUSH1 0xA0 DUP3 ADD MLOAD DUP2 PUSH1 0x5 ADD SSTORE PUSH1 0xC0 DUP3 ADD MLOAD DUP2 PUSH1 0x6 ADD SSTORE PUSH1 0xE0 DUP3 ADD MLOAD DUP2 PUSH1 0x7 ADD SSTORE PUSH2 0x100 DUP3 ADD MLOAD DUP2 PUSH1 0x8 ADD SSTORE SWAP1 POP POP PUSH1 0x2 DUP4 SWAP1 DUP1 PUSH1 0x1 DUP2 SLOAD ADD DUP1 DUP3 SSTORE DUP1 SWAP2 POP POP PUSH1 0x1 SWAP1 SUB SWAP1 PUSH0 MSTORE PUSH1 0x20 PUSH0 KECCAK256 SWAP1 PUSH1 0x20 SWAP2 DUP3 DUP3 DIV ADD SWAP2 SWAP1 MOD SWAP1 SWAP2 SWAP1 SWAP2 SWAP1 SWAP2 PUSH2 0x100 EXP DUP2 SLOAD DUP2 PUSH1 0xFF MUL NOT AND SWAP1 DUP4 PUSH1 0xFF AND MUL OR SWAP1 SSTORE POP POP POP POP JUMP JUMPDEST PUSH0 PUSH0 SWAP1 SLOAD SWAP1 PUSH2 0x100 EXP SWAP1 DIV PUSH20 0xFFFFFFFFFFFFFFFFFFFFFFFFFFFFFFFFFFFFFFFF AND PUSH20 0xFFFFFFFFFFFFFFFFFFFFFFFFFFFFFFFFFFFFFFFF AND CALLER PUSH20 0xFFFFFFFFFFFFFFFFFFFFFFFFFFFFFFFFFFFFFFFF AND EQ PUSH2 0x1DDF JUMPI PUSH1 0x40 MLOAD PUSH32 0x8C379A000000000000000000000000000000000000000000000000000000000 DUP2 MSTORE PUSH1 0x4 ADD PUSH2 0x1DD6 SWAP1 PUSH2 0x2FDC JUMP JUMPDEST PUSH1 0x40 MLOAD DUP1 SWAP2 SUB SWAP1 REVERT JUMPDEST PUSH0 PUSH0 SWAP1 POP JUMPDEST PUSH1 0x2 DUP1 SLOAD SWAP1 POP DUP2 LT ISZERO PUSH2 0x20D7 JUMPI PUSH0 PUSH1 0x2 DUP3 DUP2 SLOAD DUP2 LT PUSH2 0x1E06 JUMPI PUSH2 0x1E05 PUSH2 0x3737 JUMP JUMPDEST JUMPDEST SWAP1 PUSH0 MSTORE PUSH1 0x20 PUSH0 KECCAK256 SWAP1 PUSH1 0x20 SWAP2 DUP3 DUP3 DIV ADD SWAP2 SWAP1 MOD SWAP1 SLOAD SWAP1 PUSH2 0x100 EXP SWAP1 DIV PUSH1 0xFF AND SWAP1 POP PUSH0 PUSH1 0x5 PUSH0 DUP4 PUSH1 0xFF AND PUSH1 0xFF AND DUP2 MSTORE PUSH1 0x20 ADD SWAP1 DUP2 MSTORE PUSH1 0x20 ADD PUSH0 KECCAK256 SWAP1 POP PUSH0 PUSH0 SWAP1 POP JUMPDEST DUP2 DUP1 SLOAD SWAP1 POP DUP2 LT ISZERO PUSH2 0x1F35 JUMPI PUSH1 0x3 PUSH0 DUP5 PUSH1 0xFF AND PUSH1 0xFF AND DUP2 MSTORE PUSH1 0x20 ADD SWAP1 DUP2 MSTORE PUSH1 0x20 ADD PUSH0 KECCAK256 PUSH0 DUP4 DUP4 DUP2 SLOAD DUP2 LT PUSH2 0x1E7C JUMPI PUSH2 0x1E7B PUSH2 0x3737 JUMP JUMPDEST JUMPDEST SWAP1 PUSH0 MSTORE PUSH1 0x20 PUSH0 KECCAK256 ADD PUSH0 SWAP1 SLOAD SWAP1 PUSH2 0x100 EXP SWAP1 DIV PUSH20 0xFFFFFFFFFFFFFFFFFFFFFFFFFFFFFFFFFFFFFFFF AND PUSH20 0xFFFFFFFFFFFFFFFFFFFFFFFFFFFFFFFFFFFFFFFF AND PUSH20 0xFFFFFFFFFFFFFFFFFFFFFFFFFFFFFFFFFFFFFFFF AND DUP2 MSTORE PUSH1 0x20 ADD SWAP1 DUP2 MSTORE PUSH1 0x20 ADD PUSH0 KECCAK256 PUSH0 PUSH0 DUP3 ADD PUSH0 SWAP1 SSTORE PUSH1 0x1 DUP3 ADD PUSH0 SWAP1 SSTORE PUSH1 0x2 DUP3 ADD PUSH0 PUSH2 0x100 EXP DUP2 SLOAD SWAP1 PUSH1 0xFF MUL NOT AND SWAP1 SSTORE PUSH1 0x2 DUP3 ADD PUSH1 0x1 PUSH2 0x100 EXP DUP2 SLOAD SWAP1 PUSH1 0xFF MUL NOT AND SWAP1 SSTORE PUSH1 0x2 DUP3 ADD PUSH1 0x2 PUSH2 0x100 EXP DUP2 SLOAD SWAP1 PUSH1 0xFF MUL NOT AND SWAP1 SSTORE POP POP DUP1 DUP1 PUSH1 0x1 ADD SWAP2 POP POP PUSH2 0x1E45 JUMP JUMPDEST POP PUSH1 0x5 PUSH0 DUP4 PUSH1 0xFF AND PUSH1 0xFF AND DUP2 MSTORE PUSH1 0x20 ADD SWAP1 DUP2 MSTORE PUSH1 0x20 ADD PUSH0 KECCAK256 PUSH0 PUSH2 0x1F58 SWAP2 SWAP1 PUSH2 0x24CB JUMP JUMPDEST PUSH1 0x4 PUSH0 DUP4 PUSH1 0xFF AND PUSH1 0xFF AND DUP2 MSTORE PUSH1 0x20 ADD SWAP1 DUP2 MSTORE PUSH1 0x20 ADD PUSH0 KECCAK256 PUSH0 PUSH1 0x1 PUSH1 0x2 DUP2 GT ISZERO PUSH2 0x1F84 JUMPI PUSH2 0x1F83 PUSH2 0x2743 JUMP JUMPDEST JUMPDEST PUSH1 0x2 DUP2 GT ISZERO PUSH2 0x1F96 JUMPI PUSH2 0x1F95 PUSH2 0x2743 JUMP JUMPDEST JUMPDEST DUP2 MSTORE PUSH1 0x20 ADD SWAP1 DUP2 MSTORE PUSH1 0x20 ADD PUSH0 KECCAK256 PUSH0 SWAP1 SSTORE PUSH1 0x4 PUSH0 DUP4 PUSH1 0xFF AND PUSH1 0xFF AND DUP2 MSTORE PUSH1 0x20 ADD SWAP1 DUP2 MSTORE PUSH1 0x20 ADD PUSH0 KECCAK256 PUSH0 PUSH1 0x2 DUP1 DUP2 GT ISZERO PUSH2 0x1FD1 JUMPI PUSH2 0x1FD0 PUSH2 0x2743 JUMP JUMPDEST JUMPDEST PUSH1 0x2 DUP2 GT ISZERO PUSH2 0x1FE3 JUMPI PUSH2 0x1FE2 PUSH2 0x2743 JUMP JUMPDEST JUMPDEST DUP2 MSTORE PUSH1 0x20 ADD SWAP1 DUP2 MSTORE PUSH1 0x20 ADD PUSH0 KECCAK256 PUSH0 SWAP1 SSTORE PUSH1 0x4 PUSH0 DUP4 PUSH1 0xFF AND PUSH1 0xFF AND DUP2 MSTORE PUSH1 0x20 ADD SWAP1 DUP2 MSTORE PUSH1 0x20 ADD PUSH0 KECCAK256 PUSH0 PUSH0 PUSH1 0x2 DUP2 GT ISZERO PUSH2 0x201E JUMPI PUSH2 0x201D PUSH2 0x2743 JUMP JUMPDEST JUMPDEST PUSH1 0x2 DUP2 GT ISZERO PUSH2 0x2030 JUMPI PUSH2 0x202F PUSH2 0x2743 JUMP JUMPDEST JUMPDEST DUP2 MSTORE PUSH1 0x20 ADD SWAP1 DUP2 MSTORE PUSH1 0x20 ADD PUSH0 KECCAK256 PUSH0 SWAP1 SSTORE PUSH1 0x1 PUSH0 DUP4 PUSH1 0xFF AND PUSH1 0xFF AND DUP2 MSTORE PUSH1 0x20 ADD SWAP1 DUP2 MSTORE PUSH1 0x20 ADD PUSH0 KECCAK256 PUSH0 PUSH0 DUP3 ADD PUSH0 PUSH2 0x100 EXP DUP2 SLOAD SWAP1 PUSH1 0xFF MUL NOT AND SWAP1 SSTORE PUSH1 0x1 DUP3 ADD PUSH0 PUSH2 0x2079 SWAP2 SWAP1 PUSH2 0x24E9 JUMP JUMPDEST PUSH1 0x2 DUP3 ADD PUSH0 PUSH2 0x2088 SWAP2 SWAP1 PUSH2 0x24E9 JUMP JUMPDEST PUSH1 0x3 DUP3 ADD PUSH0 PUSH2 0x2097 SWAP2 SWAP1 PUSH2 0x24E9 JUMP JUMPDEST PUSH1 0x4 DUP3 ADD PUSH0 PUSH2 0x100 EXP DUP2 SLOAD SWAP1 PUSH1 0xFF MUL NOT AND SWAP1 SSTORE PUSH1 0x5 DUP3 ADD PUSH0 SWAP1 SSTORE PUSH1 0x6 DUP3 ADD PUSH0 SWAP1 SSTORE PUSH1 0x7 DUP3 ADD PUSH0 SWAP1 SSTORE PUSH1 0x8 DUP3 ADD PUSH0 SWAP1 SSTORE POP POP POP POP DUP1 DUP1 PUSH1 0x1 ADD SWAP2 POP POP PUSH2 0x1DE4 JUMP JUMPDEST POP PUSH1 0x2 PUSH0 PUSH2 0x20E5 SWAP2 SWAP1 PUSH2 0x2526 JUMP JUMPDEST JUMP JUMPDEST PUSH0 PUSH1 0x14 SWAP1 SLOAD SWAP1 PUSH2 0x100 EXP SWAP1 DIV PUSH1 0xFF AND DUP2 JUMP JUMPDEST PUSH1 0x1 PUSH1 0x2 DUP2 GT ISZERO PUSH2 0x210D JUMPI PUSH2 0x210C PUSH2 0x2743 JUMP JUMPDEST JUMPDEST PUSH0 PUSH1 0x15 SWAP1 SLOAD SWAP1 PUSH2 0x100 EXP SWAP1 DIV PUSH1 0xFF AND PUSH1 0x2 DUP2 GT ISZERO PUSH2 0x212E JUMPI PUSH2 0x212D PUSH2 0x2743 JUMP JUMPDEST JUMPDEST EQ PUSH2 0x216E JUMPI PUSH1 0x40 MLOAD PUSH32 0x8C379A000000000000000000000000000000000000000000000000000000000 DUP2 MSTORE PUSH1 0x4 ADD PUSH2 0x2165 SWAP1 PUSH2 0x383C JUMP JUMPDEST PUSH1 0x40 MLOAD DUP1 SWAP2 SUB SWAP1 REVERT JUMPDEST PUSH0 PUSH1 0x3 PUSH0 DUP7 PUSH1 0xFF AND PUSH1 0xFF AND DUP2 MSTORE PUSH1 0x20 ADD SWAP1 DUP2 MSTORE PUSH1 0x20 ADD PUSH0 KECCAK256 PUSH0 CALLER PUSH20 0xFFFFFFFFFFFFFFFFFFFFFFFFFFFFFFFFFFFFFFFF AND PUSH20 0xFFFFFFFFFFFFFFFFFFFFFFFFFFFFFFFFFFFFFFFF AND DUP2 MSTORE PUSH1 0x20 ADD SWAP1 DUP2 MSTORE PUSH1 0x20 ADD PUSH0 KECCAK256 SWAP1 POP PUSH0 DUP2 PUSH1 0x1 ADD SLOAD GT PUSH2 0x2209 JUMPI PUSH1 0x40 MLOAD PUSH32 0x8C379A000000000000000000000000000000000000000000000000000000000 DUP2 MSTORE PUSH1 0x4 ADD PUSH2 0x2200 SWAP1 PUSH2 0x38A4 JUMP JUMPDEST PUSH1 0x40 MLOAD DUP1 SWAP2 SUB SWAP1 REVERT JUMPDEST DUP1 PUSH1 0x2 ADD PUSH0 SWAP1 SLOAD SWAP1 PUSH2 0x100 EXP SWAP1 DIV PUSH1 0xFF AND ISZERO PUSH2 0x225A JUMPI PUSH1 0x40 MLOAD PUSH32 0x8C379A000000000000000000000000000000000000000000000000000000000 DUP2 MSTORE PUSH1 0x4 ADD PUSH2 0x2251 SWAP1 PUSH2 0x390C JUMP JUMPDEST PUSH1 0x40 MLOAD DUP1 SWAP2 SUB SWAP1 REVERT JUMPDEST DUP1 PUSH0 ADD SLOAD DUP5 DUP5 DUP5 PUSH1 0x40 MLOAD PUSH1 0x20 ADD PUSH2 0x2273 SWAP4 SWAP3 SWAP2 SWAP1 PUSH2 0x398C JUMP JUMPDEST PUSH1 0x40 MLOAD PUSH1 0x20 DUP2 DUP4 SUB SUB DUP2 MSTORE SWAP1 PUSH1 0x40 MSTORE DUP1 MLOAD SWAP1 PUSH1 0x20 ADD KECCAK256 EQ PUSH2 0x22C9 JUMPI PUSH1 0x40 MLOAD PUSH32 0x8C379A000000000000000000000000000000000000000000000000000000000 DUP2 MSTORE PUSH1 0x4 ADD PUSH2 0x22C0 SWAP1 PUSH2 0x39FF JUMP JUMPDEST PUSH1 0x40 MLOAD DUP1 SWAP2 SUB SWAP1 REVERT JUMPDEST PUSH1 0x1 DUP2 PUSH1 0x2 ADD PUSH0 PUSH2 0x100 EXP DUP2 SLOAD DUP2 PUSH1 0xFF MUL NOT AND SWAP1 DUP4 ISZERO ISZERO MUL OR SWAP1 SSTORE POP DUP4 DUP2 PUSH1 0x2 ADD PUSH1 0x1 PUSH2 0x100 EXP DUP2 SLOAD DUP2 PUSH1 0xFF MUL NOT AND SWAP1 DUP4 PUSH1 0x2 DUP2 GT ISZERO PUSH2 0x230C JUMPI PUSH2 0x230B PUSH2 0x2743 JUMP JUMPDEST JUMPDEST MUL OR SWAP1 SSTORE POP DUP1 PUSH1 0x1 ADD SLOAD PUSH1 0x4 PUSH0 DUP8 PUSH1 0xFF AND PUSH1 0xFF AND DUP2 MSTORE PUSH1 0x20 ADD SWAP1 DUP2 MSTORE PUSH1 0x20 ADD PUSH0 KECCAK256 PUSH0 DUP7 PUSH1 0x2 DUP2 GT ISZERO PUSH2 0x2341 JUMPI PUSH2 0x2340 PUSH2 0x2743 JUMP JUMPDEST JUMPDEST PUSH1 0x2 DUP2 GT ISZERO PUSH2 0x2353 JUMPI PUSH2 0x2352 PUSH2 0x2743 JUMP JUMPDEST JUMPDEST DUP2 MSTORE PUSH1 0x20 ADD SWAP1 DUP2 MSTORE PUSH1 0x20 ADD PUSH0 KECCAK256 PUSH0 DUP3 DUP3 SLOAD PUSH2 0x236E SWAP2 SWAP1 PUSH2 0x3633 JUMP JUMPDEST SWAP3 POP POP DUP2 SWAP1 SSTORE POP POP POP POP POP POP JUMP JUMPDEST PUSH0 PUSH0 PUSH0 PUSH0 DUP5 SWAP1 POP PUSH1 0x3 DUP2 MLOAD EQ ISZERO DUP1 PUSH2 0x23F4 JUMPI POP PUSH32 0x2D00000000000000000000000000000000000000000000000000000000000000 DUP2 PUSH1 0x1 DUP2 MLOAD DUP2 LT PUSH2 0x23C4 JUMPI PUSH2 0x23C3 PUSH2 0x3737 JUMP JUMPDEST JUMPDEST PUSH1 0x20 ADD ADD MLOAD PUSH1 0xF8 SHR PUSH1 0xF8 SHL PUSH31 0xFFFFFFFFFFFFFFFFFFFFFFFFFFFFFFFFFFFFFFFFFFFFFFFFFFFFFFFFFFFFFF NOT AND EQ ISZERO JUMPDEST ISZERO PUSH2 0x2408 JUMPI PUSH0 PUSH0 PUSH0 SWAP4 POP SWAP4 POP SWAP4 POP POP PUSH2 0x24C4 JUMP JUMPDEST PUSH0 DUP2 PUSH0 DUP2 MLOAD DUP2 LT PUSH2 0x241C JUMPI PUSH2 0x241B PUSH2 0x3737 JUMP JUMPDEST JUMPDEST PUSH1 0x20 ADD ADD MLOAD PUSH1 0xF8 SHR PUSH1 0xF8 SHL PUSH1 0xF8 SHR SWAP1 POP PUSH0 DUP3 PUSH1 0x2 DUP2 MLOAD DUP2 LT PUSH2 0x2441 JUMPI PUSH2 0x2440 PUSH2 0x3737 JUMP JUMPDEST JUMPDEST PUSH1 0x20 ADD ADD MLOAD PUSH1 0xF8 SHR PUSH1 0xF8 SHL PUSH1 0xF8 SHR SWAP1 POP PUSH1 0x30 DUP3 PUSH1 0xFF AND LT DUP1 PUSH2 0x2466 JUMPI POP PUSH1 0x39 DUP3 PUSH1 0xFF AND GT JUMPDEST DUP1 PUSH2 0x2474 JUMPI POP PUSH1 0x30 DUP2 PUSH1 0xFF AND LT JUMPDEST DUP1 PUSH2 0x2482 JUMPI POP PUSH1 0x39 DUP2 PUSH1 0xFF AND GT JUMPDEST ISZERO PUSH2 0x2498 JUMPI PUSH0 PUSH0 PUSH0 SWAP6 POP SWAP6 POP SWAP6 POP POP POP POP PUSH2 0x24C4 JUMP JUMPDEST PUSH1 0x30 DUP3 PUSH2 0x24A5 SWAP2 SWAP1 PUSH2 0x3A1D JUMP JUMPDEST SWAP6 POP PUSH1 0x30 DUP2 PUSH2 0x24B4 SWAP2 SWAP1 PUSH2 0x3A1D JUMP JUMPDEST SWAP5 POP DUP6 DUP6 PUSH1 0x1 SWAP6 POP SWAP6 POP SWAP6 POP POP POP POP JUMPDEST SWAP2 SWAP4 SWAP1 SWAP3 POP JUMP JUMPDEST POP DUP1 SLOAD PUSH0 DUP3 SSTORE SWAP1 PUSH0 MSTORE PUSH1 0x20 PUSH0 KECCAK256 SWAP1 DUP2 ADD SWAP1 PUSH2 0x24E6 SWAP2 SWAP1 PUSH2 0x254B JUMP JUMPDEST POP JUMP JUMPDEST POP DUP1 SLOAD PUSH2 0x24F5 SWAP1 PUSH2 0x3027 JUMP JUMPDEST PUSH0 DUP3 SSTORE DUP1 PUSH1 0x1F LT PUSH2 0x2506 JUMPI POP PUSH2 0x2523 JUMP JUMPDEST PUSH1 0x1F ADD PUSH1 0x20 SWAP1 DIV SWAP1 PUSH0 MSTORE PUSH1 0x20 PUSH0 KECCAK256 SWAP1 DUP2 ADD SWAP1 PUSH2 0x2522 SWAP2 SWAP1 PUSH2 0x254B JUMP JUMPDEST JUMPDEST POP JUMP JUMPDEST POP DUP1 SLOAD PUSH0 DUP3 SSTORE PUSH1 0x1F ADD PUSH1 0x20 SWAP1 DIV SWAP1 PUSH0 MSTORE PUSH1 0x20 PUSH0 KECCAK256 SWAP1 DUP2 ADD SWAP1 PUSH2 0x2548 SWAP2 SWAP1 PUSH2 0x254B JUMP JUMPDEST POP JUMP JUMPDEST JUMPDEST DUP1 DUP3 GT ISZERO PUSH2 0x2562 JUMPI PUSH0 DUP2 PUSH0 SWAP1 SSTORE POP PUSH1 0x1 ADD PUSH2 0x254C JUMP JUMPDEST POP SWAP1 JUMP JUMPDEST PUSH0 PUSH1 0x40 MLOAD SWAP1 POP SWAP1 JUMP JUMPDEST PUSH0 PUSH0 REVERT JUMPDEST PUSH0 PUSH0 REVERT JUMPDEST PUSH0 PUSH1 0xFF DUP3 AND SWAP1 POP SWAP2 SWAP1 POP JUMP JUMPDEST PUSH2 0x258C DUP2 PUSH2 0x2577 JUMP JUMPDEST DUP2 EQ PUSH2 0x2596 JUMPI PUSH0 PUSH0 REVERT JUMPDEST POP JUMP JUMPDEST PUSH0 DUP2 CALLDATALOAD SWAP1 POP PUSH2 0x25A7 DUP2 PUSH2 0x2583 JUMP JUMPDEST SWAP3 SWAP2 POP POP JUMP JUMPDEST PUSH0 PUSH0 REVERT JUMPDEST PUSH0 PUSH0 REVERT JUMPDEST PUSH0 PUSH1 0x1F NOT PUSH1 0x1F DUP4 ADD AND SWAP1 POP SWAP2 SWAP1 POP JUMP JUMPDEST PUSH32 0x4E487B7100000000000000000000000000000000000000000000000000000000 PUSH0 MSTORE PUSH1 0x41 PUSH1 0x4 MSTORE PUSH1 0x24 PUSH0 REVERT JUMPDEST PUSH2 0x25FB DUP3 PUSH2 0x25B5 JUMP JUMPDEST DUP2 ADD DUP2 DUP2 LT PUSH8 0xFFFFFFFFFFFFFFFF DUP3 GT OR ISZERO PUSH2 0x261A JUMPI PUSH2 0x2619 PUSH2 0x25C5 JUMP JUMPDEST JUMPDEST DUP1 PUSH1 0x40 MSTORE POP POP POP JUMP JUMPDEST PUSH0 PUSH2 0x262C PUSH2 0x2566 JUMP JUMPDEST SWAP1 POP PUSH2 0x2638 DUP3 DUP3 PUSH2 0x25F2 JUMP JUMPDEST SWAP2 SWAP1 POP JUMP JUMPDEST PUSH0 PUSH8 0xFFFFFFFFFFFFFFFF DUP3 GT ISZERO PUSH2 0x2657 JUMPI PUSH2 0x2656 PUSH2 0x25C5 JUMP JUMPDEST JUMPDEST PUSH2 0x2660 DUP3 PUSH2 0x25B5 JUMP JUMPDEST SWAP1 POP PUSH1 0x20 DUP2 ADD SWAP1 POP SWAP2 SWAP1 POP JUMP JUMPDEST DUP3 DUP2 DUP4 CALLDATACOPY PUSH0 DUP4 DUP4 ADD MSTORE POP POP POP JUMP JUMPDEST PUSH0 PUSH2 0x268D PUSH2 0x2688 DUP5 PUSH2 0x263D JUMP JUMPDEST PUSH2 0x2623 JUMP JUMPDEST SWAP1 POP DUP3 DUP2 MSTORE PUSH1 0x20 DUP2 ADD DUP5 DUP5 DUP5 ADD GT ISZERO PUSH2 0x26A9 JUMPI PUSH2 0x26A8 PUSH2 0x25B1 JUMP JUMPDEST JUMPDEST PUSH2 0x26B4 DUP5 DUP3 DUP6 PUSH2 0x266D JUMP JUMPDEST POP SWAP4 SWAP3 POP POP POP JUMP JUMPDEST PUSH0 DUP3 PUSH1 0x1F DUP4 ADD SLT PUSH2 0x26D0 JUMPI PUSH2 0x26CF PUSH2 0x25AD JUMP JUMPDEST JUMPDEST DUP2 CALLDATALOAD PUSH2 0x26E0 DUP5 DUP3 PUSH1 0x20 DUP7 ADD PUSH2 0x267B JUMP JUMPDEST SWAP2 POP POP SWAP3 SWAP2 POP POP JUMP JUMPDEST PUSH0 PUSH0 PUSH1 0x40 DUP4 DUP6 SUB SLT ISZERO PUSH2 0x26FF JUMPI PUSH2 0x26FE PUSH2 0x256F JUMP JUMPDEST JUMPDEST PUSH0 PUSH2 0x270C DUP6 DUP3 DUP7 ADD PUSH2 0x2599 JUMP JUMPDEST SWAP3 POP POP PUSH1 0x20 DUP4 ADD CALLDATALOAD PUSH8 0xFFFFFFFFFFFFFFFF DUP2 GT ISZERO PUSH2 0x272D JUMPI PUSH2 0x272C PUSH2 0x2573 JUMP JUMPDEST JUMPDEST PUSH2 0x2739 DUP6 DUP3 DUP7 ADD PUSH2 0x26BC JUMP JUMPDEST SWAP2 POP POP SWAP3 POP SWAP3 SWAP1 POP JUMP JUMPDEST PUSH32 0x4E487B7100000000000000000000000000000000000000000000000000000000 PUSH0 MSTORE PUSH1 0x21 PUSH1 0x4 MSTORE PUSH1 0x24 PUSH0 REVERT JUMPDEST PUSH1 0x3 DUP2 LT PUSH2 0x2781 JUMPI PUSH2 0x2780 PUSH2 0x2743 JUMP JUMPDEST JUMPDEST POP JUMP JUMPDEST PUSH0 DUP2 SWAP1 POP PUSH2 0x2791 DUP3 PUSH2 0x2770 JUMP JUMPDEST SWAP2 SWAP1 POP JUMP JUMPDEST PUSH0 PUSH2 0x27A0 DUP3 PUSH2 0x2784 JUMP JUMPDEST SWAP1 POP SWAP2 SWAP1 POP JUMP JUMPDEST PUSH2 0x27B0 DUP2 PUSH2 0x2796 JUMP JUMPDEST DUP3 MSTORE POP POP JUMP JUMPDEST PUSH0 PUSH1 0x20 DUP3 ADD SWAP1 POP PUSH2 0x27C9 PUSH0 DUP4 ADD DUP5 PUSH2 0x27A7 JUMP JUMPDEST SWAP3 SWAP2 POP POP JUMP JUMPDEST PUSH0 DUP2 SWAP1 POP SWAP2 SWAP1 POP JUMP JUMPDEST PUSH2 0x27E1 DUP2 PUSH2 0x27CF JUMP JUMPDEST DUP2 EQ PUSH2 0x27EB JUMPI PUSH0 PUSH0 REVERT JUMPDEST POP JUMP JUMPDEST PUSH0 DUP2 CALLDATALOAD SWAP1 POP PUSH2 0x27FC DUP2 PUSH2 0x27D8 JUMP JUMPDEST SWAP3 SWAP2 POP POP JUMP JUMPDEST PUSH0 PUSH1 0x20 DUP3 DUP5 SUB SLT ISZERO PUSH2 0x2817 JUMPI PUSH2 0x2816 PUSH2 0x256F JUMP JUMPDEST JUMPDEST PUSH0 PUSH2 0x2824 DUP5 DUP3 DUP6 ADD PUSH2 0x27EE JUMP JUMPDEST SWAP2 POP POP SWAP3 SWAP2 POP POP JUMP JUMPDEST PUSH2 0x2836 DUP2 PUSH2 0x2577 JUMP JUMPDEST DUP3 MSTORE POP POP JUMP JUMPDEST PUSH0 PUSH1 0x20 DUP3 ADD SWAP1 POP PUSH2 0x284F PUSH0 DUP4 ADD DUP5 PUSH2 0x282D JUMP JUMPDEST SWAP3 SWAP2 POP POP JUMP JUMPDEST PUSH0 PUSH1 0x20 DUP3 DUP5 SUB SLT ISZERO PUSH2 0x286A JUMPI PUSH2 0x2869 PUSH2 0x256F JUMP JUMPDEST JUMPDEST PUSH0 PUSH2 0x2877 DUP5 DUP3 DUP6 ADD PUSH2 0x2599 JUMP JUMPDEST SWAP2 POP POP SWAP3 SWAP2 POP POP JUMP JUMPDEST PUSH0 DUP2 MLOAD SWAP1 POP SWAP2 SWAP1 POP JUMP JUMPDEST PUSH0 DUP3 DUP3 MSTORE PUSH1 0x20 DUP3 ADD SWAP1 POP SWAP3 SWAP2 POP POP JUMP JUMPDEST DUP3 DUP2 DUP4 MCOPY PUSH0 DUP4 DUP4 ADD MSTORE POP POP POP JUMP JUMPDEST PUSH0 PUSH2 0x28B2 DUP3 PUSH2 0x2880 JUMP JUMPDEST PUSH2 0x28BC DUP2 DUP6 PUSH2 0x288A JUMP JUMPDEST SWAP4 POP PUSH2 0x28CC DUP2 DUP6 PUSH1 0x20 DUP7 ADD PUSH2 0x289A JUMP JUMPDEST PUSH2 0x28D5 DUP2 PUSH2 0x25B5 JUMP JUMPDEST DUP5 ADD SWAP2 POP POP SWAP3 SWAP2 POP POP JUMP JUMPDEST PUSH1 0x3 DUP2 LT PUSH2 0x28F1 JUMPI PUSH2 0x28F0 PUSH2 0x2743 JUMP JUMPDEST JUMPDEST POP JUMP JUMPDEST PUSH0 DUP2 SWAP1 POP PUSH2 0x2901 DUP3 PUSH2 0x28E0 JUMP JUMPDEST SWAP2 SWAP1 POP JUMP JUMPDEST PUSH0 PUSH2 0x2910 DUP3 PUSH2 0x28F4 JUMP JUMPDEST SWAP1 POP SWAP2 SWAP1 POP JUMP JUMPDEST PUSH2 0x2920 DUP2 PUSH2 0x2906 JUMP JUMPDEST DUP3 MSTORE POP POP JUMP JUMPDEST PUSH2 0x292F DUP2 PUSH2 0x27CF JUMP JUMPDEST DUP3 MSTORE POP POP JUMP JUMPDEST PUSH0 PUSH2 0x120 DUP3 ADD SWAP1 POP PUSH2 0x2949 PUSH0 DUP4 ADD DUP13 PUSH2 0x282D JUMP JUMPDEST DUP2 DUP2 SUB PUSH1 0x20 DUP4 ADD MSTORE PUSH2 0x295B DUP2 DUP12 PUSH2 0x28A8 JUMP JUMPDEST SWAP1 POP DUP2 DUP2 SUB PUSH1 0x40 DUP4 ADD MSTORE PUSH2 0x296F DUP2 DUP11 PUSH2 0x28A8 JUMP JUMPDEST SWAP1 POP DUP2 DUP2 SUB PUSH1 0x60 DUP4 ADD MSTORE PUSH2 0x2983 DUP2 DUP10 PUSH2 0x28A8 JUMP JUMPDEST SWAP1 POP PUSH2 0x2992 PUSH1 0x80 DUP4 ADD DUP9 PUSH2 0x2917 JUMP JUMPDEST PUSH2 0x299F PUSH1 0xA0 DUP4 ADD DUP8 PUSH2 0x2926 JUMP JUMPDEST PUSH2 0x29AC PUSH1 0xC0 DUP4 ADD DUP7 PUSH2 0x2926 JUMP JUMPDEST PUSH2 0x29B9 PUSH1 0xE0 DUP4 ADD DUP6 PUSH2 0x2926 JUMP JUMPDEST PUSH2 0x29C7 PUSH2 0x100 DUP4 ADD DUP5 PUSH2 0x2926 JUMP JUMPDEST SWAP11 SWAP10 POP POP POP POP POP POP POP POP POP POP JUMP JUMPDEST PUSH0 DUP2 SWAP1 POP SWAP2 SWAP1 POP JUMP JUMPDEST PUSH2 0x29E7 DUP2 PUSH2 0x29D5 JUMP JUMPDEST DUP2 EQ PUSH2 0x29F1 JUMPI PUSH0 PUSH0 REVERT JUMPDEST POP JUMP JUMPDEST PUSH0 DUP2 CALLDATALOAD SWAP1 POP PUSH2 0x2A02 DUP2 PUSH2 0x29DE JUMP JUMPDEST SWAP3 SWAP2 POP POP JUMP JUMPDEST PUSH0 PUSH0 PUSH1 0x40 DUP4 DUP6 SUB SLT ISZERO PUSH2 0x2A1E JUMPI PUSH2 0x2A1D PUSH2 0x256F JUMP JUMPDEST JUMPDEST PUSH0 PUSH2 0x2A2B DUP6 DUP3 DUP7 ADD PUSH2 0x2599 JUMP JUMPDEST SWAP3 POP POP PUSH1 0x20 PUSH2 0x2A3C DUP6 DUP3 DUP7 ADD PUSH2 0x29F4 JUMP JUMPDEST SWAP2 POP POP SWAP3 POP SWAP3 SWAP1 POP JUMP JUMPDEST PUSH0 PUSH0 PUSH1 0x40 DUP4 DUP6 SUB SLT ISZERO PUSH2 0x2A5C JUMPI PUSH2 0x2A5B PUSH2 0x256F JUMP JUMPDEST JUMPDEST PUSH0 PUSH2 0x2A69 DUP6 DUP3 DUP7 ADD PUSH2 0x2599 JUMP JUMPDEST SWAP3 POP POP PUSH1 0x20 PUSH2 0x2A7A DUP6 DUP3 DUP7 ADD PUSH2 0x27EE JUMP JUMPDEST SWAP2 POP POP SWAP3 POP SWAP3 SWAP1 POP JUMP JUMPDEST PUSH0 PUSH20 0xFFFFFFFFFFFFFFFFFFFFFFFFFFFFFFFFFFFFFFFF DUP3 AND SWAP1 POP SWAP2 SWAP1 POP JUMP JUMPDEST PUSH0 PUSH2 0x2AAD DUP3 PUSH2 0x2A84 JUMP JUMPDEST SWAP1 POP SWAP2 SWAP1 POP JUMP JUMPDEST PUSH2 0x2ABD DUP2 PUSH2 0x2AA3 JUMP JUMPDEST DUP3 MSTORE POP POP JUMP JUMPDEST PUSH0 PUSH1 0x20 DUP3 ADD SWAP1 POP PUSH2 0x2AD6 PUSH0 DUP4 ADD DUP5 PUSH2 0x2AB4 JUMP JUMPDEST SWAP3 SWAP2 POP POP JUMP JUMPDEST PUSH2 0x2AE5 DUP2 PUSH2 0x2AA3 JUMP JUMPDEST DUP2 EQ PUSH2 0x2AEF JUMPI PUSH0 PUSH0 REVERT JUMPDEST POP JUMP JUMPDEST PUSH0 DUP2 CALLDATALOAD SWAP1 POP PUSH2 0x2B00 DUP2 PUSH2 0x2ADC JUMP JUMPDEST SWAP3 SWAP2 POP POP JUMP JUMPDEST PUSH0 PUSH0 PUSH1 0x40 DUP4 DUP6 SUB SLT ISZERO PUSH2 0x2B1C JUMPI PUSH2 0x2B1B PUSH2 0x256F JUMP JUMPDEST JUMPDEST PUSH0 PUSH2 0x2B29 DUP6 DUP3 DUP7 ADD PUSH2 0x2599 JUMP JUMPDEST SWAP3 POP POP PUSH1 0x20 PUSH2 0x2B3A DUP6 DUP3 DUP7 ADD PUSH2 0x2AF2 JUMP JUMPDEST SWAP2 POP POP SWAP3 POP SWAP3 SWAP1 POP JUMP JUMPDEST PUSH2 0x2B4D DUP2 PUSH2 0x29D5 JUMP JUMPDEST DUP3 MSTORE POP POP JUMP JUMPDEST PUSH0 DUP2 ISZERO ISZERO SWAP1 POP SWAP2 SWAP1 POP JUMP JUMPDEST PUSH2 0x2B67 DUP2 PUSH2 0x2B53 JUMP JUMPDEST DUP3 MSTORE POP POP JUMP JUMPDEST PUSH0 PUSH1 0xA0 DUP3 ADD SWAP1 POP PUSH2 0x2B80 PUSH0 DUP4 ADD DUP9 PUSH2 0x2B44 JUMP JUMPDEST PUSH2 0x2B8D PUSH1 0x20 DUP4 ADD DUP8 PUSH2 0x2926 JUMP JUMPDEST PUSH2 0x2B9A PUSH1 0x40 DUP4 ADD DUP7 PUSH2 0x2B5E JUMP JUMPDEST PUSH2 0x2BA7 PUSH1 0x60 DUP4 ADD DUP6 PUSH2 0x2917 JUMP JUMPDEST PUSH2 0x2BB4 PUSH1 0x80 DUP4 ADD DUP5 PUSH2 0x2B5E JUMP JUMPDEST SWAP7 SWAP6 POP POP POP POP POP POP JUMP JUMPDEST PUSH0 PUSH1 0x20 DUP3 ADD SWAP1 POP PUSH2 0x2BD1 PUSH0 DUP4 ADD DUP5 PUSH2 0x2926 JUMP JUMPDEST SWAP3 SWAP2 POP POP JUMP JUMPDEST PUSH1 0x3 DUP2 LT PUSH2 0x2BE3 JUMPI PUSH0 PUSH0 REVERT JUMPDEST POP JUMP JUMPDEST PUSH0 DUP2 CALLDATALOAD SWAP1 POP PUSH2 0x2BF4 DUP2 PUSH2 0x2BD7 JUMP JUMPDEST SWAP3 SWAP2 POP POP JUMP JUMPDEST PUSH0 PUSH0 PUSH1 0x40 DUP4 DUP6 SUB SLT ISZERO PUSH2 0x2C10 JUMPI PUSH2 0x2C0F PUSH2 0x256F JUMP JUMPDEST JUMPDEST PUSH0 PUSH2 0x2C1D DUP6 DUP3 DUP7 ADD PUSH2 0x2599 JUMP JUMPDEST SWAP3 POP POP PUSH1 0x20 PUSH2 0x2C2E DUP6 DUP3 DUP7 ADD PUSH2 0x2BE6 JUMP JUMPDEST SWAP2 POP POP SWAP3 POP SWAP3 SWAP1 POP JUMP JUMPDEST PUSH0 DUP2 MLOAD SWAP1 POP SWAP2 SWAP1 POP JUMP JUMPDEST PUSH0 DUP3 DUP3 MSTORE PUSH1 0x20 DUP3 ADD SWAP1 POP SWAP3 SWAP2 POP POP JUMP JUMPDEST PUSH0 DUP2 SWAP1 POP PUSH1 0x20 DUP3 ADD SWAP1 POP SWAP2 SWAP1 POP JUMP JUMPDEST PUSH2 0x2C6A DUP2 PUSH2 0x2577 JUMP JUMPDEST DUP3 MSTORE POP POP JUMP JUMPDEST PUSH0 PUSH2 0x2C7B DUP4 DUP4 PUSH2 0x2C61 JUMP JUMPDEST PUSH1 0x20 DUP4 ADD SWAP1 POP SWAP3 SWAP2 POP POP JUMP JUMPDEST PUSH0 PUSH1 0x20 DUP3 ADD SWAP1 POP SWAP2 SWAP1 POP JUMP JUMPDEST PUSH0 PUSH2 0x2C9D DUP3 PUSH2 0x2C38 JUMP JUMPDEST PUSH2 0x2CA7 DUP2 DUP6 PUSH2 0x2C42 JUMP JUMPDEST SWAP4 POP PUSH2 0x2CB2 DUP4 PUSH2 0x2C52 JUMP JUMPDEST DUP1 PUSH0 JUMPDEST DUP4 DUP2 LT ISZERO PUSH2 0x2CE2 JUMPI DUP2 MLOAD PUSH2 0x2CC9 DUP9 DUP3 PUSH2 0x2C70 JUMP JUMPDEST SWAP8 POP PUSH2 0x2CD4 DUP4 PUSH2 0x2C87 JUMP JUMPDEST SWAP3 POP POP PUSH1 0x1 DUP2 ADD SWAP1 POP PUSH2 0x2CB5 JUMP JUMPDEST POP DUP6 SWAP4 POP POP POP POP SWAP3 SWAP2 POP POP JUMP JUMPDEST PUSH0 DUP2 MLOAD SWAP1 POP SWAP2 SWAP1 POP JUMP JUMPDEST PUSH0 DUP3 DUP3 MSTORE PUSH1 0x20 DUP3 ADD SWAP1 POP SWAP3 SWAP2 POP POP JUMP JUMPDEST PUSH0 DUP2 SWAP1 POP PUSH1 0x20 DUP3 ADD SWAP1 POP SWAP2 SWAP1 POP JUMP JUMPDEST PUSH0 DUP3 DUP3 MSTORE PUSH1 0x20 DUP3 ADD SWAP1 POP SWAP3 SWAP2 POP POP JUMP JUMPDEST PUSH0 PUSH2 0x2D32 DUP3 PUSH2 0x2880 JUMP JUMPDEST PUSH2 0x2D3C DUP2 DUP6 PUSH2 0x2D18 JUMP JUMPDEST SWAP4 POP PUSH2 0x2D4C DUP2 DUP6 PUSH1 0x20 DUP7 ADD PUSH2 0x289A JUMP JUMPDEST PUSH2 0x2D55 DUP2 PUSH2 0x25B5 JUMP JUMPDEST DUP5 ADD SWAP2 POP POP SWAP3 SWAP2 POP POP JUMP JUMPDEST PUSH0 PUSH2 0x2D6B DUP4 DUP4 PUSH2 0x2D28 JUMP JUMPDEST SWAP1 POP SWAP3 SWAP2 POP POP JUMP JUMPDEST PUSH0 PUSH1 0x20 DUP3 ADD SWAP1 POP SWAP2 SWAP1 POP JUMP JUMPDEST PUSH0 PUSH2 0x2D89 DUP3 PUSH2 0x2CEF JUMP JUMPDEST PUSH2 0x2D93 DUP2 DUP6 PUSH2 0x2CF9 JUMP JUMPDEST SWAP4 POP DUP4 PUSH1 0x20 DUP3 MUL DUP6 ADD PUSH2 0x2DA5 DUP6 PUSH2 0x2D09 JUMP JUMPDEST DUP1 PUSH0 JUMPDEST DUP6 DUP2 LT ISZERO PUSH2 0x2DE0 JUMPI DUP5 DUP5 SUB DUP10 MSTORE DUP2 MLOAD PUSH2 0x2DC1 DUP6 DUP3 PUSH2 0x2D60 JUMP JUMPDEST SWAP5 POP PUSH2 0x2DCC DUP4 PUSH2 0x2D73 JUMP JUMPDEST SWAP3 POP PUSH1 0x20 DUP11 ADD SWAP10 POP POP PUSH1 0x1 DUP2 ADD SWAP1 POP PUSH2 0x2DA8 JUMP JUMPDEST POP DUP3 SWAP8 POP DUP8 SWAP6 POP POP POP POP POP POP SWAP3 SWAP2 POP POP JUMP JUMPDEST PUSH0 PUSH1 0x60 DUP3 ADD SWAP1 POP DUP2 DUP2 SUB PUSH0 DUP4 ADD MSTORE PUSH2 0x2E0A DUP2 DUP7 PUSH2 0x2C93 JUMP JUMPDEST SWAP1 POP DUP2 DUP2 SUB PUSH1 0x20 DUP4 ADD MSTORE PUSH2 0x2E1E DUP2 DUP6 PUSH2 0x2D7F JUMP JUMPDEST SWAP1 POP DUP2 DUP2 SUB PUSH1 0x40 DUP4 ADD MSTORE PUSH2 0x2E32 DUP2 DUP5 PUSH2 0x2D7F JUMP JUMPDEST SWAP1 POP SWAP5 SWAP4 POP POP POP POP JUMP JUMPDEST PUSH0 PUSH0 PUSH0 PUSH1 0x60 DUP5 DUP7 SUB SLT ISZERO PUSH2 0x2E53 JUMPI PUSH2 0x2E52 PUSH2 0x256F JUMP JUMPDEST JUMPDEST PUSH0 PUSH2 0x2E60 DUP7 DUP3 DUP8 ADD PUSH2 0x2599 JUMP JUMPDEST SWAP4 POP POP PUSH1 0x20 DUP5 ADD CALLDATALOAD PUSH8 0xFFFFFFFFFFFFFFFF DUP2 GT ISZERO PUSH2 0x2E81 JUMPI PUSH2 0x2E80 PUSH2 0x2573 JUMP JUMPDEST JUMPDEST PUSH2 0x2E8D DUP7 DUP3 DUP8 ADD PUSH2 0x26BC JUMP JUMPDEST SWAP3 POP POP PUSH1 0x40 DUP5 ADD CALLDATALOAD PUSH8 0xFFFFFFFFFFFFFFFF DUP2 GT ISZERO PUSH2 0x2EAE JUMPI PUSH2 0x2EAD PUSH2 0x2573 JUMP JUMPDEST JUMPDEST PUSH2 0x2EBA DUP7 DUP3 DUP8 ADD PUSH2 0x26BC JUMP JUMPDEST SWAP2 POP POP SWAP3 POP SWAP3 POP SWAP3 JUMP JUMPDEST PUSH0 PUSH0 REVERT JUMPDEST PUSH0 PUSH0 REVERT JUMPDEST PUSH0 PUSH0 DUP4 PUSH1 0x1F DUP5 ADD SLT PUSH2 0x2EE1 JUMPI PUSH2 0x2EE0 PUSH2 0x25AD JUMP JUMPDEST JUMPDEST DUP3 CALLDATALOAD SWAP1 POP PUSH8 0xFFFFFFFFFFFFFFFF DUP2 GT ISZERO PUSH2 0x2EFE JUMPI PUSH2 0x2EFD PUSH2 0x2EC4 JUMP JUMPDEST JUMPDEST PUSH1 0x20 DUP4 ADD SWAP2 POP DUP4 PUSH1 0x1 DUP3 MUL DUP4 ADD GT ISZERO PUSH2 0x2F1A JUMPI PUSH2 0x2F19 PUSH2 0x2EC8 JUMP JUMPDEST JUMPDEST SWAP3 POP SWAP3 SWAP1 POP JUMP JUMPDEST PUSH0 PUSH0 PUSH0 PUSH0 PUSH1 0x60 DUP6 DUP8 SUB SLT ISZERO PUSH2 0x2F39 JUMPI PUSH2 0x2F38 PUSH2 0x256F JUMP JUMPDEST JUMPDEST PUSH0 PUSH2 0x2F46 DUP8 DUP3 DUP9 ADD PUSH2 0x2599 JUMP JUMPDEST SWAP5 POP POP PUSH1 0x20 PUSH2 0x2F57 DUP8 DUP3 DUP9 ADD PUSH2 0x2BE6 JUMP JUMPDEST SWAP4 POP POP PUSH1 0x40 DUP6 ADD CALLDATALOAD PUSH8 0xFFFFFFFFFFFFFFFF DUP2 GT ISZERO PUSH2 0x2F78 JUMPI PUSH2 0x2F77 PUSH2 0x2573 JUMP JUMPDEST JUMPDEST PUSH2 0x2F84 DUP8 DUP3 DUP9 ADD PUSH2 0x2ECC JUMP JUMPDEST SWAP3 POP SWAP3 POP POP SWAP3 SWAP6 SWAP2 SWAP5 POP SWAP3 POP JUMP JUMPDEST PUSH32 0x4F6E6C79206F776E657200000000000000000000000000000000000000000000 PUSH0 DUP3 ADD MSTORE POP JUMP JUMPDEST PUSH0 PUSH2 0x2FC6 PUSH1 0xA DUP4 PUSH2 0x288A JUMP JUMPDEST SWAP2 POP PUSH2 0x2FD1 DUP3 PUSH2 0x2F92 JUMP JUMPDEST PUSH1 0x20 DUP3 ADD SWAP1 POP SWAP2 SWAP1 POP JUMP JUMPDEST PUSH0 PUSH1 0x20 DUP3 ADD SWAP1 POP DUP2 DUP2 SUB PUSH0 DUP4 ADD MSTORE PUSH2 0x2FF3 DUP2 PUSH2 0x2FBA JUMP JUMPDEST SWAP1 POP SWAP2 SWAP1 POP JUMP JUMPDEST PUSH32 0x4E487B7100000000000000000000000000000000000000000000000000000000 PUSH0 MSTORE PUSH1 0x22 PUSH1 0x4 MSTORE PUSH1 0x24 PUSH0 REVERT JUMPDEST PUSH0 PUSH1 0x2 DUP3 DIV SWAP1 POP PUSH1 0x1 DUP3 AND DUP1 PUSH2 0x303E JUMPI PUSH1 0x7F DUP3 AND SWAP2 POP JUMPDEST PUSH1 0x20 DUP3 LT DUP2 SUB PUSH2 0x3051 JUMPI PUSH2 0x3050 PUSH2 0x2FFA JUMP JUMPDEST JUMPDEST POP SWAP2 SWAP1 POP JUMP JUMPDEST PUSH32 0x4D6174636820646F6573206E6F74206578697374000000000000000000000000 PUSH0 DUP3 ADD MSTORE POP JUMP JUMPDEST PUSH0 PUSH2 0x308B PUSH1 0x14 DUP4 PUSH2 0x288A JUMP JUMPDEST SWAP2 POP PUSH2 0x3096 DUP3 PUSH2 0x3057 JUMP JUMPDEST PUSH1 0x20 DUP3 ADD SWAP1 POP SWAP2 SWAP1 POP JUMP JUMPDEST PUSH0 PUSH1 0x20 DUP3 ADD SWAP1 POP DUP2 DUP2 SUB PUSH0 DUP4 ADD MSTORE PUSH2 0x30B8 DUP2 PUSH2 0x307F JUMP JUMPDEST SWAP1 POP SWAP2 SWAP1 POP JUMP JUMPDEST PUSH0 DUP2 SWAP1 POP DUP2 PUSH0 MSTORE PUSH1 0x20 PUSH0 KECCAK256 SWAP1 POP SWAP2 SWAP1 POP JUMP JUMPDEST PUSH0 PUSH1 0x20 PUSH1 0x1F DUP4 ADD DIV SWAP1 POP SWAP2 SWAP1 POP JUMP JUMPDEST PUSH0 DUP3 DUP3 SHL SWAP1 POP SWAP3 SWAP2 POP POP JUMP JUMPDEST PUSH0 PUSH1 0x8 DUP4 MUL PUSH2 0x311B PUSH32 0xFFFFFFFFFFFFFFFFFFFFFFFFFFFFFFFFFFFFFFFFFFFFFFFFFFFFFFFFFFFFFFFF DUP3 PUSH2 0x30E0 JUMP JUMPDEST PUSH2 0x3125 DUP7 DUP4 PUSH2 0x30E0 JUMP JUMPDEST SWAP6 POP DUP1 NOT DUP5 AND SWAP4 POP DUP1 DUP7 AND DUP5 OR SWAP3 POP POP POP SWAP4 SWAP3 POP POP POP JUMP JUMPDEST PUSH0 DUP2 SWAP1 POP SWAP2 SWAP1 POP JUMP JUMPDEST PUSH0 PUSH2 0x3160 PUSH2 0x315B PUSH2 0x3156 DUP5 PUSH2 0x27CF JUMP JUMPDEST PUSH2 0x313D JUMP JUMPDEST PUSH2 0x27CF JUMP JUMPDEST SWAP1 POP SWAP2 SWAP1 POP JUMP JUMPDEST PUSH0 DUP2 SWAP1 POP SWAP2 SWAP1 POP JUMP JUMPDEST PUSH2 0x3179 DUP4 PUSH2 0x3146 JUMP JUMPDEST PUSH2 0x318D PUSH2 0x3185 DUP3 PUSH2 0x3167 JUMP JUMPDEST DUP5 DUP5 SLOAD PUSH2 0x30EC JUMP JUMPDEST DUP3 SSTORE POP POP POP POP JUMP JUMPDEST PUSH0 PUSH0 SWAP1 POP SWAP1 JUMP JUMPDEST PUSH2 0x31A4 PUSH2 0x3195 JUMP JUMPDEST PUSH2 0x31AF DUP2 DUP5 DUP5 PUSH2 0x3170 JUMP JUMPDEST POP POP POP JUMP JUMPDEST JUMPDEST DUP2 DUP2 LT ISZERO PUSH2 0x31D2 JUMPI PUSH2 0x31C7 PUSH0 DUP3 PUSH2 0x319C JUMP JUMPDEST PUSH1 0x1 DUP2 ADD SWAP1 POP PUSH2 0x31B5 JUMP JUMPDEST POP POP JUMP JUMPDEST PUSH1 0x1F DUP3 GT ISZERO PUSH2 0x3217 JUMPI PUSH2 0x31E8 DUP2 PUSH2 0x30BF JUMP JUMPDEST PUSH2 0x31F1 DUP5 PUSH2 0x30D1 JUMP JUMPDEST DUP2 ADD PUSH1 0x20 DUP6 LT ISZERO PUSH2 0x3200 JUMPI DUP2 SWAP1 POP JUMPDEST PUSH2 0x3214 PUSH2 0x320C DUP6 PUSH2 0x30D1 JUMP JUMPDEST DUP4 ADD DUP3 PUSH2 0x31B4 JUMP JUMPDEST POP POP JUMPDEST POP POP POP JUMP JUMPDEST PUSH0 DUP3 DUP3 SHR SWAP1 POP SWAP3 SWAP2 POP POP JUMP JUMPDEST PUSH0 PUSH2 0x3237 PUSH0 NOT DUP5 PUSH1 0x8 MUL PUSH2 0x321C JUMP JUMPDEST NOT DUP1 DUP4 AND SWAP2 POP POP SWAP3 SWAP2 POP POP JUMP JUMPDEST PUSH0 PUSH2 0x324F DUP4 DUP4 PUSH2 0x3228 JUMP JUMPDEST SWAP2 POP DUP3 PUSH1 0x2 MUL DUP3 OR SWAP1 POP SWAP3 SWAP2 POP POP JUMP JUMPDEST PUSH2 0x3268 DUP3 PUSH2 0x2880 JUMP JUMPDEST PUSH8 0xFFFFFFFFFFFFFFFF DUP2 GT ISZERO PUSH2 0x3281 JUMPI PUSH2 0x3280 PUSH2 0x25C5 JUMP JUMPDEST JUMPDEST PUSH2 0x328B DUP3 SLOAD PUSH2 0x3027 JUMP JUMPDEST PUSH2 0x3296 DUP3 DUP3 DUP6 PUSH2 0x31D6 JUMP JUMPDEST PUSH0 PUSH1 0x20 SWAP1 POP PUSH1 0x1F DUP4 GT PUSH1 0x1 DUP2 EQ PUSH2 0x32C7 JUMPI PUSH0 DUP5 ISZERO PUSH2 0x32B5 JUMPI DUP3 DUP8 ADD MLOAD SWAP1 POP JUMPDEST PUSH2 0x32BF DUP6 DUP3 PUSH2 0x3244 JUMP JUMPDEST DUP7 SSTORE POP PUSH2 0x3326 JUMP JUMPDEST PUSH1 0x1F NOT DUP5 AND PUSH2 0x32D5 DUP7 PUSH2 0x30BF JUMP JUMPDEST PUSH0 JUMPDEST DUP3 DUP2 LT ISZERO PUSH2 0x32FC JUMPI DUP5 DUP10 ADD MLOAD DUP3 SSTORE PUSH1 0x1 DUP3 ADD SWAP2 POP PUSH1 0x20 DUP6 ADD SWAP5 POP PUSH1 0x20 DUP2 ADD SWAP1 POP PUSH2 0x32D7 JUMP JUMPDEST DUP7 DUP4 LT ISZERO PUSH2 0x3319 JUMPI DUP5 DUP10 ADD MLOAD PUSH2 0x3315 PUSH1 0x1F DUP10 AND DUP3 PUSH2 0x3228 JUMP JUMPDEST DUP4 SSTORE POP JUMPDEST PUSH1 0x1 PUSH1 0x2 DUP9 MUL ADD DUP9 SSTORE POP POP POP JUMPDEST POP POP POP POP POP POP JUMP JUMPDEST PUSH32 0x4E6F7420636F6D6D697420706861736500000000000000000000000000000000 PUSH0 DUP3 ADD MSTORE POP JUMP JUMPDEST PUSH0 PUSH2 0x3362 PUSH1 0x10 DUP4 PUSH2 0x288A JUMP JUMPDEST SWAP2 POP PUSH2 0x336D DUP3 PUSH2 0x332E JUMP JUMPDEST PUSH1 0x20 DUP3 ADD SWAP1 POP SWAP2 SWAP1 POP JUMP JUMPDEST PUSH0 PUSH1 0x20 DUP3 ADD SWAP1 POP DUP2 DUP2 SUB PUSH0 DUP4 ADD MSTORE PUSH2 0x338F DUP2 PUSH2 0x3356 JUMP JUMPDEST SWAP1 POP SWAP2 SWAP1 POP JUMP JUMPDEST PUSH32 0x42657420616D6F756E7420746F6F206C6F770000000000000000000000000000 PUSH0 DUP3 ADD MSTORE POP JUMP JUMPDEST PUSH0 PUSH2 0x33CA PUSH1 0x12 DUP4 PUSH2 0x288A JUMP JUMPDEST SWAP2 POP PUSH2 0x33D5 DUP3 PUSH2 0x3396 JUMP JUMPDEST PUSH1 0x20 DUP3 ADD SWAP1 POP SWAP2 SWAP1 POP JUMP JUMPDEST PUSH0 PUSH1 0x20 DUP3 ADD SWAP1 POP DUP2 DUP2 SUB PUSH0 DUP4 ADD MSTORE PUSH2 0x33F7 DUP2 PUSH2 0x33BE JUMP JUMPDEST SWAP1 POP SWAP2 SWAP1 POP JUMP JUMPDEST PUSH32 0x4E6F204554482073656E74000000000000000000000000000000000000000000 PUSH0 DUP3 ADD MSTORE POP JUMP JUMPDEST PUSH0 PUSH2 0x3432 PUSH1 0xB DUP4 PUSH2 0x288A JUMP JUMPDEST SWAP2 POP PUSH2 0x343D DUP3 PUSH2 0x33FE JUMP JUMPDEST PUSH1 0x20 DUP3 ADD SWAP1 POP SWAP2 SWAP1 POP JUMP JUMPDEST PUSH0 PUSH1 0x20 DUP3 ADD SWAP1 POP DUP2 DUP2 SUB PUSH0 DUP4 ADD MSTORE PUSH2 0x345F DUP2 PUSH2 0x3426 JUMP JUMPDEST SWAP1 POP SWAP2 SWAP1 POP JUMP JUMPDEST PUSH32 0x416C726561647920636F6D6D6974746564000000000000000000000000000000 PUSH0 DUP3 ADD MSTORE POP JUMP JUMPDEST PUSH0 PUSH2 0x349A PUSH1 0x11 DUP4 PUSH2 0x288A JUMP JUMPDEST SWAP2 POP PUSH2 0x34A5 DUP3 PUSH2 0x3466 JUMP JUMPDEST PUSH1 0x20 DUP3 ADD SWAP1 POP SWAP2 SWAP1 POP JUMP JUMPDEST PUSH0 PUSH1 0x20 DUP3 ADD SWAP1 POP DUP2 DUP2 SUB PUSH0 DUP4 ADD MSTORE PUSH2 0x34C7 DUP2 PUSH2 0x348E JUMP JUMPDEST SWAP1 POP SWAP2 SWAP1 POP JUMP JUMPDEST PUSH32 0x53636F7265206E6F742073657400000000000000000000000000000000000000 PUSH0 DUP3 ADD MSTORE POP JUMP JUMPDEST PUSH0 PUSH2 0x3502 PUSH1 0xD DUP4 PUSH2 0x288A JUMP JUMPDEST SWAP2 POP PUSH2 0x350D DUP3 PUSH2 0x34CE JUMP JUMPDEST PUSH1 0x20 DUP3 ADD SWAP1 POP SWAP2 SWAP1 POP JUMP JUMPDEST PUSH0 PUSH1 0x20 DUP3 ADD SWAP1 POP DUP2 DUP2 SUB PUSH0 DUP4 ADD MSTORE PUSH2 0x352F DUP2 PUSH2 0x34F6 JUMP JUMPDEST SWAP1 POP SWAP2 SWAP1 POP JUMP JUMPDEST PUSH32 0x4E6F7420696E2072657665616C20706861736500000000000000000000000000 PUSH0 DUP3 ADD MSTORE POP JUMP JUMPDEST PUSH0 PUSH2 0x356A PUSH1 0x13 DUP4 PUSH2 0x288A JUMP JUMPDEST SWAP2 POP PUSH2 0x3575 DUP3 PUSH2 0x3536 JUMP JUMPDEST PUSH1 0x20 DUP3 ADD SWAP1 POP SWAP2 SWAP1 POP JUMP JUMPDEST PUSH0 PUSH1 0x20 DUP3 ADD SWAP1 POP DUP2 DUP2 SUB PUSH0 DUP4 ADD MSTORE PUSH2 0x3597 DUP2 PUSH2 0x355E JUMP JUMPDEST SWAP1 POP SWAP2 SWAP1 POP JUMP JUMPDEST PUSH32 0x496E76616C69642073636F726500000000000000000000000000000000000000 PUSH0 DUP3 ADD MSTORE POP JUMP JUMPDEST PUSH0 PUSH2 0x35D2 PUSH1 0xD DUP4 PUSH2 0x288A JUMP JUMPDEST SWAP2 POP PUSH2 0x35DD DUP3 PUSH2 0x359E JUMP JUMPDEST PUSH1 0x20 DUP3 ADD SWAP1 POP SWAP2 SWAP1 POP JUMP JUMPDEST PUSH0 PUSH1 0x20 DUP3 ADD SWAP1 POP DUP2 DUP2 SUB PUSH0 DUP4 ADD MSTORE PUSH2 0x35FF DUP2 PUSH2 0x35C6 JUMP JUMPDEST SWAP1 POP SWAP2 SWAP1 POP JUMP JUMPDEST PUSH32 0x4E487B7100000000000000000000000000000000000000000000000000000000 PUSH0 MSTORE PUSH1 0x11 PUSH1 0x4 MSTORE PUSH1 0x24 PUSH0 REVERT JUMPDEST PUSH0 PUSH2 0x363D DUP3 PUSH2 0x27CF JUMP JUMPDEST SWAP2 POP PUSH2 0x3648 DUP4 PUSH2 0x27CF JUMP JUMPDEST SWAP3 POP DUP3 DUP3 ADD SWAP1 POP DUP1 DUP3 GT ISZERO PUSH2 0x3660 JUMPI PUSH2 0x365F PUSH2 0x3606 JUMP JUMPDEST JUMPDEST SWAP3 SWAP2 POP POP JUMP JUMPDEST PUSH0 PUSH2 0x3670 DUP3 PUSH2 0x27CF JUMP JUMPDEST SWAP2 POP PUSH2 0x367B DUP4 PUSH2 0x27CF JUMP JUMPDEST SWAP3 POP DUP3 DUP3 MUL PUSH2 0x3689 DUP2 PUSH2 0x27CF JUMP JUMPDEST SWAP2 POP DUP3 DUP3 DIV DUP5 EQ DUP4 ISZERO OR PUSH2 0x36A0 JUMPI PUSH2 0x369F PUSH2 0x3606 JUMP JUMPDEST JUMPDEST POP SWAP3 SWAP2 POP POP JUMP JUMPDEST PUSH32 0x4E487B7100000000000000000000000000000000000000000000000000000000 PUSH0 MSTORE PUSH1 0x12 PUSH1 0x4 MSTORE PUSH1 0x24 PUSH0 REVERT JUMPDEST PUSH0 PUSH2 0x36DE DUP3 PUSH2 0x27CF JUMP JUMPDEST SWAP2 POP PUSH2 0x36E9 DUP4 PUSH2 0x27CF JUMP JUMPDEST SWAP3 POP DUP3 PUSH2 0x36F9 JUMPI PUSH2 0x36F8 PUSH2 0x36A7 JUMP JUMPDEST JUMPDEST DUP3 DUP3 DIV SWAP1 POP SWAP3 SWAP2 POP POP JUMP JUMPDEST PUSH0 PUSH2 0x370E DUP3 PUSH2 0x27CF JUMP JUMPDEST SWAP2 POP PUSH2 0x3719 DUP4 PUSH2 0x27CF JUMP JUMPDEST SWAP3 POP DUP3 DUP3 SUB SWAP1 POP DUP2 DUP2 GT ISZERO PUSH2 0x3731 JUMPI PUSH2 0x3730 PUSH2 0x3606 JUMP JUMPDEST JUMPDEST SWAP3 SWAP2 POP POP JUMP JUMPDEST PUSH32 0x4E487B7100000000000000000000000000000000000000000000000000000000 PUSH0 MSTORE PUSH1 0x32 PUSH1 0x4 MSTORE PUSH1 0x24 PUSH0 REVERT JUMPDEST PUSH32 0x4D617463682077697468207468697320494420616C7265616479206578697374 PUSH0 DUP3 ADD MSTORE PUSH32 0x7300000000000000000000000000000000000000000000000000000000000000 PUSH1 0x20 DUP3 ADD MSTORE POP JUMP JUMPDEST PUSH0 PUSH2 0x37BE PUSH1 0x21 DUP4 PUSH2 0x288A JUMP JUMPDEST SWAP2 POP PUSH2 0x37C9 DUP3 PUSH2 0x3764 JUMP JUMPDEST PUSH1 0x40 DUP3 ADD SWAP1 POP SWAP2 SWAP1 POP JUMP JUMPDEST PUSH0 PUSH1 0x20 DUP3 ADD SWAP1 POP DUP2 DUP2 SUB PUSH0 DUP4 ADD MSTORE PUSH2 0x37EB DUP2 PUSH2 0x37B2 JUMP JUMPDEST SWAP1 POP SWAP2 SWAP1 POP JUMP JUMPDEST PUSH32 0x4E6F742072657665616C20706861736500000000000000000000000000000000 PUSH0 DUP3 ADD MSTORE POP JUMP JUMPDEST PUSH0 PUSH2 0x3826 PUSH1 0x10 DUP4 PUSH2 0x288A JUMP JUMPDEST SWAP2 POP PUSH2 0x3831 DUP3 PUSH2 0x37F2 JUMP JUMPDEST PUSH1 0x20 DUP3 ADD SWAP1 POP SWAP2 SWAP1 POP JUMP JUMPDEST PUSH0 PUSH1 0x20 DUP3 ADD SWAP1 POP DUP2 DUP2 SUB PUSH0 DUP4 ADD MSTORE PUSH2 0x3853 DUP2 PUSH2 0x381A JUMP JUMPDEST SWAP1 POP SWAP2 SWAP1 POP JUMP JUMPDEST PUSH32 0x4E6F20636F6D6D69740000000000000000000000000000000000000000000000 PUSH0 DUP3 ADD MSTORE POP JUMP JUMPDEST PUSH0 PUSH2 0x388E PUSH1 0x9 DUP4 PUSH2 0x288A JUMP JUMPDEST SWAP2 POP PUSH2 0x3899 DUP3 PUSH2 0x385A JUMP JUMPDEST PUSH1 0x20 DUP3 ADD SWAP1 POP SWAP2 SWAP1 POP JUMP JUMPDEST PUSH0 PUSH1 0x20 DUP3 ADD SWAP1 POP DUP2 DUP2 SUB PUSH0 DUP4 ADD MSTORE PUSH2 0x38BB DUP2 PUSH2 0x3882 JUMP JUMPDEST SWAP1 POP SWAP2 SWAP1 POP JUMP JUMPDEST PUSH32 0x416C72656164792072657665616C656400000000000000000000000000000000 PUSH0 DUP3 ADD MSTORE POP JUMP JUMPDEST PUSH0 PUSH2 0x38F6 PUSH1 0x10 DUP4 PUSH2 0x288A JUMP JUMPDEST SWAP2 POP PUSH2 0x3901 DUP3 PUSH2 0x38C2 JUMP JUMPDEST PUSH1 0x20 DUP3 ADD SWAP1 POP SWAP2 SWAP1 POP JUMP JUMPDEST PUSH0 PUSH1 0x20 DUP3 ADD SWAP1 POP DUP2 DUP2 SUB PUSH0 DUP4 ADD MSTORE PUSH2 0x3923 DUP2 PUSH2 0x38EA JUMP JUMPDEST SWAP1 POP SWAP2 SWAP1 POP JUMP JUMPDEST PUSH0 DUP2 PUSH1 0xF8 SHL SWAP1 POP SWAP2 SWAP1 POP JUMP JUMPDEST PUSH0 PUSH2 0x3940 DUP3 PUSH2 0x392A JUMP JUMPDEST SWAP1 POP SWAP2 SWAP1 POP JUMP JUMPDEST PUSH2 0x3958 PUSH2 0x3953 DUP3 PUSH2 0x2906 JUMP JUMPDEST PUSH2 0x3936 JUMP JUMPDEST DUP3 MSTORE POP POP JUMP JUMPDEST PUSH0 DUP2 SWAP1 POP SWAP3 SWAP2 POP POP JUMP JUMPDEST PUSH0 PUSH2 0x3973 DUP4 DUP6 PUSH2 0x395E JUMP JUMPDEST SWAP4 POP PUSH2 0x3980 DUP4 DUP6 DUP5 PUSH2 0x266D JUMP JUMPDEST DUP3 DUP5 ADD SWAP1 POP SWAP4 SWAP3 POP POP POP JUMP JUMPDEST PUSH0 PUSH2 0x3997 DUP3 DUP7 PUSH2 0x3947 JUMP JUMPDEST PUSH1 0x1 DUP3 ADD SWAP2 POP PUSH2 0x39A8 DUP3 DUP5 DUP7 PUSH2 0x3968 JUMP JUMPDEST SWAP2 POP DUP2 SWAP1 POP SWAP5 SWAP4 POP POP POP POP JUMP JUMPDEST PUSH32 0x496E76616C69642072657665616C000000000000000000000000000000000000 PUSH0 DUP3 ADD MSTORE POP JUMP JUMPDEST PUSH0 PUSH2 0x39E9 PUSH1 0xE DUP4 PUSH2 0x288A JUMP JUMPDEST SWAP2 POP PUSH2 0x39F4 DUP3 PUSH2 0x39B5 JUMP JUMPDEST PUSH1 0x20 DUP3 ADD SWAP1 POP SWAP2 SWAP1 POP JUMP JUMPDEST PUSH0 PUSH1 0x20 DUP3 ADD SWAP1 POP DUP2 DUP2 SUB PUSH0 DUP4 ADD MSTORE PUSH2 0x3A16 DUP2 PUSH2 0x39DD JUMP JUMPDEST SWAP1 POP SWAP2 SWAP1 POP JUMP JUMPDEST PUSH0 PUSH2 0x3A27 DUP3 PUSH2 0x2577 JUMP JUMPDEST SWAP2 POP PUSH2 0x3A32 DUP4 PUSH2 0x2577 JUMP JUMPDEST SWAP3 POP DUP3 DUP3 SUB SWAP1 POP PUSH1 0xFF DUP2 GT ISZERO PUSH2 0x3A4B JUMPI PUSH2 0x3A4A PUSH2 0x3606 JUMP JUMPDEST JUMPDEST SWAP3 SWAP2 POP POP JUMP INVALID LOG2 PUSH5 0x6970667358 0x22 SLT KECCAK256 0x1F CALLDATALOAD DUP1 PUSH2 0x24D7 0xAB GASLIMIT 0xED 0xB5 SWAP4 0xC6 CODESIZE PUSH18 0xEA8C49C5287E7E77830E3D1EF1CA569DBD42 PUSH5 0x736F6C6343 STOP ADDMOD 0x1E STOP CALLER "
		},
		"gasEstimates": {
			"creation": {
				"codeDepositCost": "2996600",
				"executionCost": "76219",
				"totalCost": "3072819"
			},
			"external": {
				"MIN_BET_AMOUNT()": "392",
				"addScore(uint8,string)": "infinite",
				"bettors(uint8,uint256)": "5254",
				"commissionPercentage()": "2604",
				"commitBet(uint8,bytes32)": "173754",
				"commits(uint8,address)": "infinite",
				"createMatch(uint8,string,string)": "infinite",
				"currentBettingState()": "2672",
				"getAllMatches()": "infinite",
				"getBettingState()": "2594",
				"matchIds(uint256)": "6621",
				"matches(uint8)": "infinite",
				"openCommitPhase()": "26669",
				"openDistributionPhase(uint8)": "infinite",
				"openRevealPhase()": "26671",
				"outcomePool(uint8,uint8)": "3060",
				"owner()": "2596",
				"resetMatches()": "infinite",
				"revealBet(uint8,uint8,string)": "infinite"
			},
			"internal": {
				"_parseScore(string memory)": "infinite"
			}
		},
		"methodIdentifiers": {
			"MIN_BET_AMOUNT()": "6475e3d3",
			"addScore(uint8,string)": "0ee1b33d",
			"bettors(uint8,uint256)": "46e70aad",
			"commissionPercentage()": "d575fe64",
			"commitBet(uint8,bytes32)": "44e8f67b",
			"commits(uint8,address)": "546bc3d4",
			"createMatch(uint8,string,string)": "cb002cf5",
			"currentBettingState()": "14bae52c",
			"getAllMatches()": "c17c5a45",
			"getBettingState()": "57899342",
			"matchIds(uint256)": "36ff6a70",
			"matches(uint8)": "442c52b9",
			"openCommitPhase()": "5499dc72",
			"openDistributionPhase(uint8)": "535eb366",
			"openRevealPhase()": "0bf36767",
			"outcomePool(uint8,uint8)": "a66023d2",
			"owner()": "8da5cb5b",
			"resetMatches()": "d19ce9f5",
			"revealBet(uint8,uint8,string)": "d5ce9531"
		}
	},
	"abi": [
		{
			"inputs": [],
			"stateMutability": "nonpayable",
			"type": "constructor"
		},
		{
			"inputs": [],
			"name": "MIN_BET_AMOUNT",
			"outputs": [
				{
					"internalType": "uint256",
					"name": "",
					"type": "uint256"
				}
			],
			"stateMutability": "view",
			"type": "function"
		},
		{
			"inputs": [
				{
					"internalType": "uint8",
					"name": "_matchId",
					"type": "uint8"
				},
				{
					"internalType": "string",
					"name": "_score",
					"type": "string"
				}
			],
			"name": "addScore",
			"outputs": [],
			"stateMutability": "nonpayable",
			"type": "function"
		},
		{
			"inputs": [
				{
					"internalType": "uint8",
					"name": "",
					"type": "uint8"
				},
				{
					"internalType": "uint256",
					"name": "",
					"type": "uint256"
				}
			],
			"name": "bettors",
			"outputs": [
				{
					"internalType": "address",
					"name": "",
					"type": "address"
				}
			],
			"stateMutability": "view",
			"type": "function"
		},
		{
			"inputs": [],
			"name": "commissionPercentage",
			"outputs": [
				{
					"internalType": "uint8",
					"name": "",
					"type": "uint8"
				}
			],
			"stateMutability": "view",
			"type": "function"
		},
		{
			"inputs": [
				{
					"internalType": "uint8",
					"name": "matchId",
					"type": "uint8"
				},
				{
					"internalType": "bytes32",
					"name": "commitHash",
					"type": "bytes32"
				}
			],
			"name": "commitBet",
			"outputs": [],
			"stateMutability": "payable",
			"type": "function"
		},
		{
			"inputs": [
				{
					"internalType": "uint8",
					"name": "",
					"type": "uint8"
				},
				{
					"internalType": "address",
					"name": "",
					"type": "address"
				}
			],
			"name": "commits",
			"outputs": [
				{
					"internalType": "bytes32",
					"name": "commitHash",
					"type": "bytes32"
				},
				{
					"internalType": "uint256",
					"name": "amount",
					"type": "uint256"
				},
				{
					"internalType": "bool",
					"name": "revealed",
					"type": "bool"
				},
				{
					"internalType": "enum FootballBetting.MatchOutcome",
					"name": "revealedOutcome",
					"type": "uint8"
				},
				{
					"internalType": "bool",
					"name": "isWinner",
					"type": "bool"
				}
			],
			"stateMutability": "view",
			"type": "function"
		},
		{
			"inputs": [
				{
					"internalType": "uint8",
					"name": "_id",
					"type": "uint8"
				},
				{
					"internalType": "string",
					"name": "_home",
					"type": "string"
				},
				{
					"internalType": "string",
					"name": "_away",
					"type": "string"
				}
			],
			"name": "createMatch",
			"outputs": [],
			"stateMutability": "nonpayable",
			"type": "function"
		},
		{
			"inputs": [],
			"name": "currentBettingState",
			"outputs": [
				{
					"internalType": "enum FootballBetting.BettingState",
					"name": "",
					"type": "uint8"
				}
			],
			"stateMutability": "view",
			"type": "function"
		},
		{
			"inputs": [],
			"name": "getAllMatches",
			"outputs": [
				{
					"internalType": "uint8[]",
					"name": "",
					"type": "uint8[]"
				},
				{
					"internalType": "string[]",
					"name": "",
					"type": "string[]"
				},
				{
					"internalType": "string[]",
					"name": "",
					"type": "string[]"
				}
			],
			"stateMutability": "view",
			"type": "function"
		},
		{
			"inputs": [],
			"name": "getBettingState",
			"outputs": [
				{
					"internalType": "uint8",
					"name": "",
					"type": "uint8"
				}
			],
			"stateMutability": "view",
			"type": "function"
		},
		{
			"inputs": [
				{
					"internalType": "uint256",
					"name": "",
					"type": "uint256"
				}
			],
			"name": "matchIds",
			"outputs": [
				{
					"internalType": "uint8",
					"name": "",
					"type": "uint8"
				}
			],
			"stateMutability": "view",
			"type": "function"
		},
		{
			"inputs": [
				{
					"internalType": "uint8",
					"name": "",
					"type": "uint8"
				}
			],
			"name": "matches",
			"outputs": [
				{
					"internalType": "uint8",
					"name": "id",
					"type": "uint8"
				},
				{
					"internalType": "string",
					"name": "homeTeam",
					"type": "string"
				},
				{
					"internalType": "string",
					"name": "awayTeam",
					"type": "string"
				},
				{
					"internalType": "string",
					"name": "score",
					"type": "string"
				},
				{
					"internalType": "enum FootballBetting.MatchOutcome",
					"name": "winningOutcome",
					"type": "uint8"
				},
				{
					"internalType": "uint256",
					"name": "totalPool",
					"type": "uint256"
				},
				{
					"internalType": "uint256",
					"name": "revealedWinningPool",
					"type": "uint256"
				},
				{
					"internalType": "uint256",
					"name": "commission",
					"type": "uint256"
				},
				{
					"internalType": "uint256",
					"name": "prizePool",
					"type": "uint256"
				}
			],
			"stateMutability": "view",
			"type": "function"
		},
		{
			"inputs": [],
			"name": "openCommitPhase",
			"outputs": [],
			"stateMutability": "nonpayable",
			"type": "function"
		},
		{
			"inputs": [
				{
					"internalType": "uint8",
					"name": "matchId",
					"type": "uint8"
				}
			],
			"name": "openDistributionPhase",
			"outputs": [],
			"stateMutability": "nonpayable",
			"type": "function"
		},
		{
			"inputs": [],
			"name": "openRevealPhase",
			"outputs": [],
			"stateMutability": "nonpayable",
			"type": "function"
		},
		{
			"inputs": [
				{
					"internalType": "uint8",
					"name": "",
					"type": "uint8"
				},
				{
					"internalType": "enum FootballBetting.MatchOutcome",
					"name": "",
					"type": "uint8"
				}
			],
			"name": "outcomePool",
			"outputs": [
				{
					"internalType": "uint256",
					"name": "",
					"type": "uint256"
				}
			],
			"stateMutability": "view",
			"type": "function"
		},
		{
			"inputs": [],
			"name": "owner",
			"outputs": [
				{
					"internalType": "address",
					"name": "",
					"type": "address"
				}
			],
			"stateMutability": "view",
			"type": "function"
		},
		{
			"inputs": [],
			"name": "resetMatches",
			"outputs": [],
			"stateMutability": "nonpayable",
			"type": "function"
		},
		{
			"inputs": [
				{
					"internalType": "uint8",
					"name": "matchId",
					"type": "uint8"
				},
				{
					"internalType": "enum FootballBetting.MatchOutcome",
					"name": "outcome",
					"type": "uint8"
				},
				{
					"internalType": "string",
					"name": "salt",
					"type": "string"
				}
			],
			"name": "revealBet",
			"outputs": [],
			"stateMutability": "nonpayable",
			"type": "function"
		}
	]
}