{
	"data": {
		"bytecode": {
			"linkReferences": {},
			"object": "6080604052348015600e575f80fd5b506113d88061001c5f395ff3fe60806040526004361061003e575f3560e01c80635f3823031461004257806399535bd71461006a578063a648567b14610094578063c17c5a45146100b0575b5f80fd5b34801561004d575f80fd5b5061006860048036038101906100639190610b24565b6100da565b005b348015610075575f80fd5b5061007e61026f565b60405161008b9190610ce2565b60405180910390f35b6100ae60048036038101906100a99190610d02565b610455565b005b3480156100bb575f80fd5b506100c461065c565b6040516100d19190610edc565b60405180910390f35b5f805f8760ff1660ff1681526020019081526020015f2060010180546100ff90610f29565b905014610141576040517f08c379a000000000000000000000000000000000000000000000000000000000815260040161013890610fb3565b60405180910390fd5b5f82510361015b5760405180602001604052805f81525091505b6040518060a001604052808660ff1681526020018581526020018481526020015f8451146101895783610199565b60405180602001604052805f8152505b8152602001828152505f808760ff1660ff1681526020019081526020015f205f820151815f015f6101000a81548160ff021916908360ff16021790555060208201518160010190816101eb919061116e565b506040820151816002019081610201919061116e565b506060820151816003019081610217919061116e565b5060808201518160040155905050600185908060018154018082558091505060019003905f5260205f2090602091828204019190069091909190916101000a81548160ff021916908360ff1602179055505050505050565b60605f60035f3373ffffffffffffffffffffffffffffffffffffffff1673ffffffffffffffffffffffffffffffffffffffff1681526020019081526020015f2080548060200260200160405190810160405280929190818152602001828054801561031b57602002820191905f5260205f20905f905b82829054906101000a900460ff1660ff16815260200190600101906020825f010492830192600103820291508084116102e55790505b505050505090505f815167ffffffffffffffff81111561033e5761033d6109cd565b5b60405190808252806020026020018201604052801561037757816020015b610364610923565b81526020019060019003908161035c5790505b5090505f5b825181101561044c5760025f84838151811061039b5761039a61123d565b5b602002602001015160ff1660ff1681526020019081526020015f205f3373ffffffffffffffffffffffffffffffffffffffff1673ffffffffffffffffffffffffffffffffffffffff1681526020019081526020015f206040518060400160405290815f8201548152602001600182015f9054906101000a900460ff1660ff1660ff16815250508282815181106104345761043361123d565b5b6020026020010181905250808060010191505061037c565b50809250505090565b5f3411610497576040517f08c379a000000000000000000000000000000000000000000000000000000000815260040161048e906112b4565b60405180910390fd5b60028160ff1611156104de576040517f08c379a00000000000000000000000000000000000000000000000000000000081526004016104d59061131c565b60405180910390fd5b5f805f8460ff1660ff1681526020019081526020015f20600101805461050390610f29565b905003610545576040517f08c379a000000000000000000000000000000000000000000000000000000000815260040161053c90611384565b60405180910390fd5b60405180604001604052803481526020018260ff1681525060025f8460ff1660ff1681526020019081526020015f205f3373ffffffffffffffffffffffffffffffffffffffff1673ffffffffffffffffffffffffffffffffffffffff1681526020019081526020015f205f820151815f01556020820151816001015f6101000a81548160ff021916908360ff16021790555090505060035f3373ffffffffffffffffffffffffffffffffffffffff1673ffffffffffffffffffffffffffffffffffffffff1681526020019081526020015f2082908060018154018082558091505060019003905f5260205f2090602091828204019190069091909190916101000a81548160ff021916908360ff1602179055505050565b60605f60018054905067ffffffffffffffff81111561067e5761067d6109cd565b5b6040519080825280602002602001820160405280156106b757816020015b6106a461093e565b81526020019060019003908161069c5790505b5090505f5b60018054905081101561091b575f80600183815481106106df576106de61123d565b5b905f5260205f2090602091828204019190069054906101000a900460ff1660ff1660ff1681526020019081526020015f206040518060a00160405290815f82015f9054906101000a900460ff1660ff1660ff16815260200160018201805461074690610f29565b80601f016020809104026020016040519081016040528092919081815260200182805461077290610f29565b80156107bd5780601f10610794576101008083540402835291602001916107bd565b820191905f5260205f20905b8154815290600101906020018083116107a057829003601f168201915b505050505081526020016002820180546107d690610f29565b80601f016020809104026020016040519081016040528092919081815260200182805461080290610f29565b801561084d5780601f106108245761010080835404028352916020019161084d565b820191905f5260205f20905b81548152906001019060200180831161083057829003601f168201915b5050505050815260200160038201805461086690610f29565b80601f016020809104026020016040519081016040528092919081815260200182805461089290610f29565b80156108dd5780601f106108b4576101008083540402835291602001916108dd565b820191905f5260205f20905b8154815290600101906020018083116108c057829003601f168201915b505050505081526020016004820154815250508282815181106109035761090261123d565b5b602002602001018190525080806001019150506106bc565b508091505090565b60405180604001604052805f81526020015f60ff1681525090565b6040518060a001604052805f60ff1681526020016060815260200160608152602001606081526020015f81525090565b5f604051905090565b5f80fd5b5f80fd5b5f60ff82169050919050565b6109948161097f565b811461099e575f80fd5b50565b5f813590506109af8161098b565b92915050565b5f80fd5b5f80fd5b5f601f19601f8301169050919050565b7f4e487b71000000000000000000000000000000000000000000000000000000005f52604160045260245ffd5b610a03826109bd565b810181811067ffffffffffffffff82111715610a2257610a216109cd565b5b80604052505050565b5f610a3461096e565b9050610a4082826109fa565b919050565b5f67ffffffffffffffff821115610a5f57610a5e6109cd565b5b610a68826109bd565b9050602081019050919050565b828183375f83830152505050565b5f610a95610a9084610a45565b610a2b565b905082815260208101848484011115610ab157610ab06109b9565b5b610abc848285610a75565b509392505050565b5f82601f830112610ad857610ad76109b5565b5b8135610ae8848260208601610a83565b91505092915050565b5f819050919050565b610b0381610af1565b8114610b0d575f80fd5b50565b5f81359050610b1e81610afa565b92915050565b5f805f805f60a08688031215610b3d57610b3c610977565b5b5f610b4a888289016109a1565b955050602086013567ffffffffffffffff811115610b6b57610b6a61097b565b5b610b7788828901610ac4565b945050604086013567ffffffffffffffff811115610b9857610b9761097b565b5b610ba488828901610ac4565b935050606086013567ffffffffffffffff811115610bc557610bc461097b565b5b610bd188828901610ac4565b9250506080610be288828901610b10565b9150509295509295909350565b5f81519050919050565b5f82825260208201905092915050565b5f819050602082019050919050565b610c2181610af1565b82525050565b610c308161097f565b82525050565b604082015f820151610c4a5f850182610c18565b506020820151610c5d6020850182610c27565b50505050565b5f610c6e8383610c36565b60408301905092915050565b5f602082019050919050565b5f610c9082610bef565b610c9a8185610bf9565b9350610ca583610c09565b805f5b83811015610cd5578151610cbc8882610c63565b9750610cc783610c7a565b925050600181019050610ca8565b5085935050505092915050565b5f6020820190508181035f830152610cfa8184610c86565b905092915050565b5f8060408385031215610d1857610d17610977565b5b5f610d25858286016109a1565b9250506020610d36858286016109a1565b9150509250929050565b5f81519050919050565b5f82825260208201905092915050565b5f819050602082019050919050565b5f81519050919050565b5f82825260208201905092915050565b8281835e5f83830152505050565b5f610d9b82610d69565b610da58185610d73565b9350610db5818560208601610d83565b610dbe816109bd565b840191505092915050565b5f60a083015f830151610dde5f860182610c27565b5060208301518482036020860152610df68282610d91565b91505060408301518482036040860152610e108282610d91565b91505060608301518482036060860152610e2a8282610d91565b9150506080830151610e3f6080860182610c18565b508091505092915050565b5f610e558383610dc9565b905092915050565b5f602082019050919050565b5f610e7382610d40565b610e7d8185610d4a565b935083602082028501610e8f85610d5a565b805f5b85811015610eca5784840389528151610eab8582610e4a565b9450610eb683610e5d565b925060208a01995050600181019050610e92565b50829750879550505050505092915050565b5f6020820190508181035f830152610ef48184610e69565b905092915050565b7f4e487b71000000000000000000000000000000000000000000000000000000005f52602260045260245ffd5b5f6002820490506001821680610f4057607f821691505b602082108103610f5357610f52610efc565b5b50919050565b5f82825260208201905092915050565b7f4d617463682064656a61206578697374616e74000000000000000000000000005f82015250565b5f610f9d601383610f59565b9150610fa882610f69565b602082019050919050565b5f6020820190508181035f830152610fca81610f91565b9050919050565b5f819050815f5260205f209050919050565b5f6020601f8301049050919050565b5f82821b905092915050565b5f6008830261102d7fffffffffffffffffffffffffffffffffffffffffffffffffffffffffffffffff82610ff2565b6110378683610ff2565b95508019841693508086168417925050509392505050565b5f819050919050565b5f61107261106d61106884610af1565b61104f565b610af1565b9050919050565b5f819050919050565b61108b83611058565b61109f61109782611079565b848454610ffe565b825550505050565b5f90565b6110b36110a7565b6110be818484611082565b505050565b5b818110156110e1576110d65f826110ab565b6001810190506110c4565b5050565b601f821115611126576110f781610fd1565b61110084610fe3565b8101602085101561110f578190505b61112361111b85610fe3565b8301826110c3565b50505b505050565b5f82821c905092915050565b5f6111465f198460080261112b565b1980831691505092915050565b5f61115e8383611137565b9150826002028217905092915050565b61117782610d69565b67ffffffffffffffff8111156111905761118f6109cd565b5b61119a8254610f29565b6111a58282856110e5565b5f60209050601f8311600181146111d6575f84156111c4578287015190505b6111ce8582611153565b865550611235565b601f1984166111e486610fd1565b5f5b8281101561120b578489015182556001820191506020850194506020810190506111e6565b868310156112285784890151611224601f891682611137565b8355505b6001600288020188555050505b505050505050565b7f4e487b71000000000000000000000000000000000000000000000000000000005f52603260045260245ffd5b7f4d697365207265717569736500000000000000000000000000000000000000005f82015250565b5f61129e600c83610f59565b91506112a98261126a565b602082019050919050565b5f6020820190508181035f8301526112cb81611292565b9050919050565b7f43686f697820696e76616c6964650000000000000000000000000000000000005f82015250565b5f611306600e83610f59565b9150611311826112d2565b602082019050919050565b5f6020820190508181035f830152611333816112fa565b9050919050565b7f4d6174636820696e6578697374616e74000000000000000000000000000000005f82015250565b5f61136e601083610f59565b91506113798261133a565b602082019050919050565b5f6020820190508181035f83015261139b81611362565b905091905056fea2646970667358221220ea7df11e89d46064159aff5f4b7a887beba9afed1dae8958b5cdb9f1278164d464736f6c634300081a0033",
			"opcodes": "PUSH1 0x80 PUSH1 0x40 MSTORE CALLVALUE DUP1 ISZERO PUSH1 0xE JUMPI PUSH0 DUP1 REVERT JUMPDEST POP PUSH2 0x13D8 DUP1 PUSH2 0x1C PUSH0 CODECOPY PUSH0 RETURN INVALID PUSH1 0x80 PUSH1 0x40 MSTORE PUSH1 0x4 CALLDATASIZE LT PUSH2 0x3E JUMPI PUSH0 CALLDATALOAD PUSH1 0xE0 SHR DUP1 PUSH4 0x5F382303 EQ PUSH2 0x42 JUMPI DUP1 PUSH4 0x99535BD7 EQ PUSH2 0x6A JUMPI DUP1 PUSH4 0xA648567B EQ PUSH2 0x94 JUMPI DUP1 PUSH4 0xC17C5A45 EQ PUSH2 0xB0 JUMPI JUMPDEST PUSH0 DUP1 REVERT JUMPDEST CALLVALUE DUP1 ISZERO PUSH2 0x4D JUMPI PUSH0 DUP1 REVERT JUMPDEST POP PUSH2 0x68 PUSH1 0x4 DUP1 CALLDATASIZE SUB DUP2 ADD SWAP1 PUSH2 0x63 SWAP2 SWAP1 PUSH2 0xB24 JUMP JUMPDEST PUSH2 0xDA JUMP JUMPDEST STOP JUMPDEST CALLVALUE DUP1 ISZERO PUSH2 0x75 JUMPI PUSH0 DUP1 REVERT JUMPDEST POP PUSH2 0x7E PUSH2 0x26F JUMP JUMPDEST PUSH1 0x40 MLOAD PUSH2 0x8B SWAP2 SWAP1 PUSH2 0xCE2 JUMP JUMPDEST PUSH1 0x40 MLOAD DUP1 SWAP2 SUB SWAP1 RETURN JUMPDEST PUSH2 0xAE PUSH1 0x4 DUP1 CALLDATASIZE SUB DUP2 ADD SWAP1 PUSH2 0xA9 SWAP2 SWAP1 PUSH2 0xD02 JUMP JUMPDEST PUSH2 0x455 JUMP JUMPDEST STOP JUMPDEST CALLVALUE DUP1 ISZERO PUSH2 0xBB JUMPI PUSH0 DUP1 REVERT JUMPDEST POP PUSH2 0xC4 PUSH2 0x65C JUMP JUMPDEST PUSH1 0x40 MLOAD PUSH2 0xD1 SWAP2 SWAP1 PUSH2 0xEDC JUMP JUMPDEST PUSH1 0x40 MLOAD DUP1 SWAP2 SUB SWAP1 RETURN JUMPDEST PUSH0 DUP1 PUSH0 DUP8 PUSH1 0xFF AND PUSH1 0xFF AND DUP2 MSTORE PUSH1 0x20 ADD SWAP1 DUP2 MSTORE PUSH1 0x20 ADD PUSH0 KECCAK256 PUSH1 0x1 ADD DUP1 SLOAD PUSH2 0xFF SWAP1 PUSH2 0xF29 JUMP JUMPDEST SWAP1 POP EQ PUSH2 0x141 JUMPI PUSH1 0x40 MLOAD PUSH32 0x8C379A000000000000000000000000000000000000000000000000000000000 DUP2 MSTORE PUSH1 0x4 ADD PUSH2 0x138 SWAP1 PUSH2 0xFB3 JUMP JUMPDEST PUSH1 0x40 MLOAD DUP1 SWAP2 SUB SWAP1 REVERT JUMPDEST PUSH0 DUP3 MLOAD SUB PUSH2 0x15B JUMPI PUSH1 0x40 MLOAD DUP1 PUSH1 0x20 ADD PUSH1 0x40 MSTORE DUP1 PUSH0 DUP2 MSTORE POP SWAP2 POP JUMPDEST PUSH1 0x40 MLOAD DUP1 PUSH1 0xA0 ADD PUSH1 0x40 MSTORE DUP1 DUP7 PUSH1 0xFF AND DUP2 MSTORE PUSH1 0x20 ADD DUP6 DUP2 MSTORE PUSH1 0x20 ADD DUP5 DUP2 MSTORE PUSH1 0x20 ADD PUSH0 DUP5 MLOAD EQ PUSH2 0x189 JUMPI DUP4 PUSH2 0x199 JUMP JUMPDEST PUSH1 0x40 MLOAD DUP1 PUSH1 0x20 ADD PUSH1 0x40 MSTORE DUP1 PUSH0 DUP2 MSTORE POP JUMPDEST DUP2 MSTORE PUSH1 0x20 ADD DUP3 DUP2 MSTORE POP PUSH0 DUP1 DUP8 PUSH1 0xFF AND PUSH1 0xFF AND DUP2 MSTORE PUSH1 0x20 ADD SWAP1 DUP2 MSTORE PUSH1 0x20 ADD PUSH0 KECCAK256 PUSH0 DUP3 ADD MLOAD DUP2 PUSH0 ADD PUSH0 PUSH2 0x100 EXP DUP2 SLOAD DUP2 PUSH1 0xFF MUL NOT AND SWAP1 DUP4 PUSH1 0xFF AND MUL OR SWAP1 SSTORE POP PUSH1 0x20 DUP3 ADD MLOAD DUP2 PUSH1 0x1 ADD SWAP1 DUP2 PUSH2 0x1EB SWAP2 SWAP1 PUSH2 0x116E JUMP JUMPDEST POP PUSH1 0x40 DUP3 ADD MLOAD DUP2 PUSH1 0x2 ADD SWAP1 DUP2 PUSH2 0x201 SWAP2 SWAP1 PUSH2 0x116E JUMP JUMPDEST POP PUSH1 0x60 DUP3 ADD MLOAD DUP2 PUSH1 0x3 ADD SWAP1 DUP2 PUSH2 0x217 SWAP2 SWAP1 PUSH2 0x116E JUMP JUMPDEST POP PUSH1 0x80 DUP3 ADD MLOAD DUP2 PUSH1 0x4 ADD SSTORE SWAP1 POP POP PUSH1 0x1 DUP6 SWAP1 DUP1 PUSH1 0x1 DUP2 SLOAD ADD DUP1 DUP3 SSTORE DUP1 SWAP2 POP POP PUSH1 0x1 SWAP1 SUB SWAP1 PUSH0 MSTORE PUSH1 0x20 PUSH0 KECCAK256 SWAP1 PUSH1 0x20 SWAP2 DUP3 DUP3 DIV ADD SWAP2 SWAP1 MOD SWAP1 SWAP2 SWAP1 SWAP2 SWAP1 SWAP2 PUSH2 0x100 EXP DUP2 SLOAD DUP2 PUSH1 0xFF MUL NOT AND SWAP1 DUP4 PUSH1 0xFF AND MUL OR SWAP1 SSTORE POP POP POP POP POP POP JUMP JUMPDEST PUSH1 0x60 PUSH0 PUSH1 0x3 PUSH0 CALLER PUSH20 0xFFFFFFFFFFFFFFFFFFFFFFFFFFFFFFFFFFFFFFFF AND PUSH20 0xFFFFFFFFFFFFFFFFFFFFFFFFFFFFFFFFFFFFFFFF AND DUP2 MSTORE PUSH1 0x20 ADD SWAP1 DUP2 MSTORE PUSH1 0x20 ADD PUSH0 KECCAK256 DUP1 SLOAD DUP1 PUSH1 0x20 MUL PUSH1 0x20 ADD PUSH1 0x40 MLOAD SWAP1 DUP2 ADD PUSH1 0x40 MSTORE DUP1 SWAP3 SWAP2 SWAP1 DUP2 DUP2 MSTORE PUSH1 0x20 ADD DUP3 DUP1 SLOAD DUP1 ISZERO PUSH2 0x31B JUMPI PUSH1 0x20 MUL DUP3 ADD SWAP2 SWAP1 PUSH0 MSTORE PUSH1 0x20 PUSH0 KECCAK256 SWAP1 PUSH0 SWAP1 JUMPDEST DUP3 DUP3 SWAP1 SLOAD SWAP1 PUSH2 0x100 EXP SWAP1 DIV PUSH1 0xFF AND PUSH1 0xFF AND DUP2 MSTORE PUSH1 0x20 ADD SWAP1 PUSH1 0x1 ADD SWAP1 PUSH1 0x20 DUP3 PUSH0 ADD DIV SWAP3 DUP4 ADD SWAP3 PUSH1 0x1 SUB DUP3 MUL SWAP2 POP DUP1 DUP5 GT PUSH2 0x2E5 JUMPI SWAP1 POP JUMPDEST POP POP POP POP POP SWAP1 POP PUSH0 DUP2 MLOAD PUSH8 0xFFFFFFFFFFFFFFFF DUP2 GT ISZERO PUSH2 0x33E JUMPI PUSH2 0x33D PUSH2 0x9CD JUMP JUMPDEST JUMPDEST PUSH1 0x40 MLOAD SWAP1 DUP1 DUP3 MSTORE DUP1 PUSH1 0x20 MUL PUSH1 0x20 ADD DUP3 ADD PUSH1 0x40 MSTORE DUP1 ISZERO PUSH2 0x377 JUMPI DUP2 PUSH1 0x20 ADD JUMPDEST PUSH2 0x364 PUSH2 0x923 JUMP JUMPDEST DUP2 MSTORE PUSH1 0x20 ADD SWAP1 PUSH1 0x1 SWAP1 SUB SWAP1 DUP2 PUSH2 0x35C JUMPI SWAP1 POP JUMPDEST POP SWAP1 POP PUSH0 JUMPDEST DUP3 MLOAD DUP2 LT ISZERO PUSH2 0x44C JUMPI PUSH1 0x2 PUSH0 DUP5 DUP4 DUP2 MLOAD DUP2 LT PUSH2 0x39B JUMPI PUSH2 0x39A PUSH2 0x123D JUMP JUMPDEST JUMPDEST PUSH1 0x20 MUL PUSH1 0x20 ADD ADD MLOAD PUSH1 0xFF AND PUSH1 0xFF AND DUP2 MSTORE PUSH1 0x20 ADD SWAP1 DUP2 MSTORE PUSH1 0x20 ADD PUSH0 KECCAK256 PUSH0 CALLER PUSH20 0xFFFFFFFFFFFFFFFFFFFFFFFFFFFFFFFFFFFFFFFF AND PUSH20 0xFFFFFFFFFFFFFFFFFFFFFFFFFFFFFFFFFFFFFFFF AND DUP2 MSTORE PUSH1 0x20 ADD SWAP1 DUP2 MSTORE PUSH1 0x20 ADD PUSH0 KECCAK256 PUSH1 0x40 MLOAD DUP1 PUSH1 0x40 ADD PUSH1 0x40 MSTORE SWAP1 DUP2 PUSH0 DUP3 ADD SLOAD DUP2 MSTORE PUSH1 0x20 ADD PUSH1 0x1 DUP3 ADD PUSH0 SWAP1 SLOAD SWAP1 PUSH2 0x100 EXP SWAP1 DIV PUSH1 0xFF AND PUSH1 0xFF AND PUSH1 0xFF AND DUP2 MSTORE POP POP DUP3 DUP3 DUP2 MLOAD DUP2 LT PUSH2 0x434 JUMPI PUSH2 0x433 PUSH2 0x123D JUMP JUMPDEST JUMPDEST PUSH1 0x20 MUL PUSH1 0x20 ADD ADD DUP2 SWAP1 MSTORE POP DUP1 DUP1 PUSH1 0x1 ADD SWAP2 POP POP PUSH2 0x37C JUMP JUMPDEST POP DUP1 SWAP3 POP POP POP SWAP1 JUMP JUMPDEST PUSH0 CALLVALUE GT PUSH2 0x497 JUMPI PUSH1 0x40 MLOAD PUSH32 0x8C379A000000000000000000000000000000000000000000000000000000000 DUP2 MSTORE PUSH1 0x4 ADD PUSH2 0x48E SWAP1 PUSH2 0x12B4 JUMP JUMPDEST PUSH1 0x40 MLOAD DUP1 SWAP2 SUB SWAP1 REVERT JUMPDEST PUSH1 0x2 DUP2 PUSH1 0xFF AND GT ISZERO PUSH2 0x4DE JUMPI PUSH1 0x40 MLOAD PUSH32 0x8C379A000000000000000000000000000000000000000000000000000000000 DUP2 MSTORE PUSH1 0x4 ADD PUSH2 0x4D5 SWAP1 PUSH2 0x131C JUMP JUMPDEST PUSH1 0x40 MLOAD DUP1 SWAP2 SUB SWAP1 REVERT JUMPDEST PUSH0 DUP1 PUSH0 DUP5 PUSH1 0xFF AND PUSH1 0xFF AND DUP2 MSTORE PUSH1 0x20 ADD SWAP1 DUP2 MSTORE PUSH1 0x20 ADD PUSH0 KECCAK256 PUSH1 0x1 ADD DUP1 SLOAD PUSH2 0x503 SWAP1 PUSH2 0xF29 JUMP JUMPDEST SWAP1 POP SUB PUSH2 0x545 JUMPI PUSH1 0x40 MLOAD PUSH32 0x8C379A000000000000000000000000000000000000000000000000000000000 DUP2 MSTORE PUSH1 0x4 ADD PUSH2 0x53C SWAP1 PUSH2 0x1384 JUMP JUMPDEST PUSH1 0x40 MLOAD DUP1 SWAP2 SUB SWAP1 REVERT JUMPDEST PUSH1 0x40 MLOAD DUP1 PUSH1 0x40 ADD PUSH1 0x40 MSTORE DUP1 CALLVALUE DUP2 MSTORE PUSH1 0x20 ADD DUP3 PUSH1 0xFF AND DUP2 MSTORE POP PUSH1 0x2 PUSH0 DUP5 PUSH1 0xFF AND PUSH1 0xFF AND DUP2 MSTORE PUSH1 0x20 ADD SWAP1 DUP2 MSTORE PUSH1 0x20 ADD PUSH0 KECCAK256 PUSH0 CALLER PUSH20 0xFFFFFFFFFFFFFFFFFFFFFFFFFFFFFFFFFFFFFFFF AND PUSH20 0xFFFFFFFFFFFFFFFFFFFFFFFFFFFFFFFFFFFFFFFF AND DUP2 MSTORE PUSH1 0x20 ADD SWAP1 DUP2 MSTORE PUSH1 0x20 ADD PUSH0 KECCAK256 PUSH0 DUP3 ADD MLOAD DUP2 PUSH0 ADD SSTORE PUSH1 0x20 DUP3 ADD MLOAD DUP2 PUSH1 0x1 ADD PUSH0 PUSH2 0x100 EXP DUP2 SLOAD DUP2 PUSH1 0xFF MUL NOT AND SWAP1 DUP4 PUSH1 0xFF AND MUL OR SWAP1 SSTORE POP SWAP1 POP POP PUSH1 0x3 PUSH0 CALLER PUSH20 0xFFFFFFFFFFFFFFFFFFFFFFFFFFFFFFFFFFFFFFFF AND PUSH20 0xFFFFFFFFFFFFFFFFFFFFFFFFFFFFFFFFFFFFFFFF AND DUP2 MSTORE PUSH1 0x20 ADD SWAP1 DUP2 MSTORE PUSH1 0x20 ADD PUSH0 KECCAK256 DUP3 SWAP1 DUP1 PUSH1 0x1 DUP2 SLOAD ADD DUP1 DUP3 SSTORE DUP1 SWAP2 POP POP PUSH1 0x1 SWAP1 SUB SWAP1 PUSH0 MSTORE PUSH1 0x20 PUSH0 KECCAK256 SWAP1 PUSH1 0x20 SWAP2 DUP3 DUP3 DIV ADD SWAP2 SWAP1 MOD SWAP1 SWAP2 SWAP1 SWAP2 SWAP1 SWAP2 PUSH2 0x100 EXP DUP2 SLOAD DUP2 PUSH1 0xFF MUL NOT AND SWAP1 DUP4 PUSH1 0xFF AND MUL OR SWAP1 SSTORE POP POP POP JUMP JUMPDEST PUSH1 0x60 PUSH0 PUSH1 0x1 DUP1 SLOAD SWAP1 POP PUSH8 0xFFFFFFFFFFFFFFFF DUP2 GT ISZERO PUSH2 0x67E JUMPI PUSH2 0x67D PUSH2 0x9CD JUMP JUMPDEST JUMPDEST PUSH1 0x40 MLOAD SWAP1 DUP1 DUP3 MSTORE DUP1 PUSH1 0x20 MUL PUSH1 0x20 ADD DUP3 ADD PUSH1 0x40 MSTORE DUP1 ISZERO PUSH2 0x6B7 JUMPI DUP2 PUSH1 0x20 ADD JUMPDEST PUSH2 0x6A4 PUSH2 0x93E JUMP JUMPDEST DUP2 MSTORE PUSH1 0x20 ADD SWAP1 PUSH1 0x1 SWAP1 SUB SWAP1 DUP2 PUSH2 0x69C JUMPI SWAP1 POP JUMPDEST POP SWAP1 POP PUSH0 JUMPDEST PUSH1 0x1 DUP1 SLOAD SWAP1 POP DUP2 LT ISZERO PUSH2 0x91B JUMPI PUSH0 DUP1 PUSH1 0x1 DUP4 DUP2 SLOAD DUP2 LT PUSH2 0x6DF JUMPI PUSH2 0x6DE PUSH2 0x123D JUMP JUMPDEST JUMPDEST SWAP1 PUSH0 MSTORE PUSH1 0x20 PUSH0 KECCAK256 SWAP1 PUSH1 0x20 SWAP2 DUP3 DUP3 DIV ADD SWAP2 SWAP1 MOD SWAP1 SLOAD SWAP1 PUSH2 0x100 EXP SWAP1 DIV PUSH1 0xFF AND PUSH1 0xFF AND PUSH1 0xFF AND DUP2 MSTORE PUSH1 0x20 ADD SWAP1 DUP2 MSTORE PUSH1 0x20 ADD PUSH0 KECCAK256 PUSH1 0x40 MLOAD DUP1 PUSH1 0xA0 ADD PUSH1 0x40 MSTORE SWAP1 DUP2 PUSH0 DUP3 ADD PUSH0 SWAP1 SLOAD SWAP1 PUSH2 0x100 EXP SWAP1 DIV PUSH1 0xFF AND PUSH1 0xFF AND PUSH1 0xFF AND DUP2 MSTORE PUSH1 0x20 ADD PUSH1 0x1 DUP3 ADD DUP1 SLOAD PUSH2 0x746 SWAP1 PUSH2 0xF29 JUMP JUMPDEST DUP1 PUSH1 0x1F ADD PUSH1 0x20 DUP1 SWAP2 DIV MUL PUSH1 0x20 ADD PUSH1 0x40 MLOAD SWAP1 DUP2 ADD PUSH1 0x40 MSTORE DUP1 SWAP3 SWAP2 SWAP1 DUP2 DUP2 MSTORE PUSH1 0x20 ADD DUP3 DUP1 SLOAD PUSH2 0x772 SWAP1 PUSH2 0xF29 JUMP JUMPDEST DUP1 ISZERO PUSH2 0x7BD JUMPI DUP1 PUSH1 0x1F LT PUSH2 0x794 JUMPI PUSH2 0x100 DUP1 DUP4 SLOAD DIV MUL DUP4 MSTORE SWAP2 PUSH1 0x20 ADD SWAP2 PUSH2 0x7BD JUMP JUMPDEST DUP3 ADD SWAP2 SWAP1 PUSH0 MSTORE PUSH1 0x20 PUSH0 KECCAK256 SWAP1 JUMPDEST DUP2 SLOAD DUP2 MSTORE SWAP1 PUSH1 0x1 ADD SWAP1 PUSH1 0x20 ADD DUP1 DUP4 GT PUSH2 0x7A0 JUMPI DUP3 SWAP1 SUB PUSH1 0x1F AND DUP3 ADD SWAP2 JUMPDEST POP POP POP POP POP DUP2 MSTORE PUSH1 0x20 ADD PUSH1 0x2 DUP3 ADD DUP1 SLOAD PUSH2 0x7D6 SWAP1 PUSH2 0xF29 JUMP JUMPDEST DUP1 PUSH1 0x1F ADD PUSH1 0x20 DUP1 SWAP2 DIV MUL PUSH1 0x20 ADD PUSH1 0x40 MLOAD SWAP1 DUP2 ADD PUSH1 0x40 MSTORE DUP1 SWAP3 SWAP2 SWAP1 DUP2 DUP2 MSTORE PUSH1 0x20 ADD DUP3 DUP1 SLOAD PUSH2 0x802 SWAP1 PUSH2 0xF29 JUMP JUMPDEST DUP1 ISZERO PUSH2 0x84D JUMPI DUP1 PUSH1 0x1F LT PUSH2 0x824 JUMPI PUSH2 0x100 DUP1 DUP4 SLOAD DIV MUL DUP4 MSTORE SWAP2 PUSH1 0x20 ADD SWAP2 PUSH2 0x84D JUMP JUMPDEST DUP3 ADD SWAP2 SWAP1 PUSH0 MSTORE PUSH1 0x20 PUSH0 KECCAK256 SWAP1 JUMPDEST DUP2 SLOAD DUP2 MSTORE SWAP1 PUSH1 0x1 ADD SWAP1 PUSH1 0x20 ADD DUP1 DUP4 GT PUSH2 0x830 JUMPI DUP3 SWAP1 SUB PUSH1 0x1F AND DUP3 ADD SWAP2 JUMPDEST POP POP POP POP POP DUP2 MSTORE PUSH1 0x20 ADD PUSH1 0x3 DUP3 ADD DUP1 SLOAD PUSH2 0x866 SWAP1 PUSH2 0xF29 JUMP JUMPDEST DUP1 PUSH1 0x1F ADD PUSH1 0x20 DUP1 SWAP2 DIV MUL PUSH1 0x20 ADD PUSH1 0x40 MLOAD SWAP1 DUP2 ADD PUSH1 0x40 MSTORE DUP1 SWAP3 SWAP2 SWAP1 DUP2 DUP2 MSTORE PUSH1 0x20 ADD DUP3 DUP1 SLOAD PUSH2 0x892 SWAP1 PUSH2 0xF29 JUMP JUMPDEST DUP1 ISZERO PUSH2 0x8DD JUMPI DUP1 PUSH1 0x1F LT PUSH2 0x8B4 JUMPI PUSH2 0x100 DUP1 DUP4 SLOAD DIV MUL DUP4 MSTORE SWAP2 PUSH1 0x20 ADD SWAP2 PUSH2 0x8DD JUMP JUMPDEST DUP3 ADD SWAP2 SWAP1 PUSH0 MSTORE PUSH1 0x20 PUSH0 KECCAK256 SWAP1 JUMPDEST DUP2 SLOAD DUP2 MSTORE SWAP1 PUSH1 0x1 ADD SWAP1 PUSH1 0x20 ADD DUP1 DUP4 GT PUSH2 0x8C0 JUMPI DUP3 SWAP1 SUB PUSH1 0x1F AND DUP3 ADD SWAP2 JUMPDEST POP POP POP POP POP DUP2 MSTORE PUSH1 0x20 ADD PUSH1 0x4 DUP3 ADD SLOAD DUP2 MSTORE POP POP DUP3 DUP3 DUP2 MLOAD DUP2 LT PUSH2 0x903 JUMPI PUSH2 0x902 PUSH2 0x123D JUMP JUMPDEST JUMPDEST PUSH1 0x20 MUL PUSH1 0x20 ADD ADD DUP2 SWAP1 MSTORE POP DUP1 DUP1 PUSH1 0x1 ADD SWAP2 POP POP PUSH2 0x6BC JUMP JUMPDEST POP DUP1 SWAP2 POP POP SWAP1 JUMP JUMPDEST PUSH1 0x40 MLOAD DUP1 PUSH1 0x40 ADD PUSH1 0x40 MSTORE DUP1 PUSH0 DUP2 MSTORE PUSH1 0x20 ADD PUSH0 PUSH1 0xFF AND DUP2 MSTORE POP SWAP1 JUMP JUMPDEST PUSH1 0x40 MLOAD DUP1 PUSH1 0xA0 ADD PUSH1 0x40 MSTORE DUP1 PUSH0 PUSH1 0xFF AND DUP2 MSTORE PUSH1 0x20 ADD PUSH1 0x60 DUP2 MSTORE PUSH1 0x20 ADD PUSH1 0x60 DUP2 MSTORE PUSH1 0x20 ADD PUSH1 0x60 DUP2 MSTORE PUSH1 0x20 ADD PUSH0 DUP2 MSTORE POP SWAP1 JUMP JUMPDEST PUSH0 PUSH1 0x40 MLOAD SWAP1 POP SWAP1 JUMP JUMPDEST PUSH0 DUP1 REVERT JUMPDEST PUSH0 DUP1 REVERT JUMPDEST PUSH0 PUSH1 0xFF DUP3 AND SWAP1 POP SWAP2 SWAP1 POP JUMP JUMPDEST PUSH2 0x994 DUP2 PUSH2 0x97F JUMP JUMPDEST DUP2 EQ PUSH2 0x99E JUMPI PUSH0 DUP1 REVERT JUMPDEST POP JUMP JUMPDEST PUSH0 DUP2 CALLDATALOAD SWAP1 POP PUSH2 0x9AF DUP2 PUSH2 0x98B JUMP JUMPDEST SWAP3 SWAP2 POP POP JUMP JUMPDEST PUSH0 DUP1 REVERT JUMPDEST PUSH0 DUP1 REVERT JUMPDEST PUSH0 PUSH1 0x1F NOT PUSH1 0x1F DUP4 ADD AND SWAP1 POP SWAP2 SWAP1 POP JUMP JUMPDEST PUSH32 0x4E487B7100000000000000000000000000000000000000000000000000000000 PUSH0 MSTORE PUSH1 0x41 PUSH1 0x4 MSTORE PUSH1 0x24 PUSH0 REVERT JUMPDEST PUSH2 0xA03 DUP3 PUSH2 0x9BD JUMP JUMPDEST DUP2 ADD DUP2 DUP2 LT PUSH8 0xFFFFFFFFFFFFFFFF DUP3 GT OR ISZERO PUSH2 0xA22 JUMPI PUSH2 0xA21 PUSH2 0x9CD JUMP JUMPDEST JUMPDEST DUP1 PUSH1 0x40 MSTORE POP POP POP JUMP JUMPDEST PUSH0 PUSH2 0xA34 PUSH2 0x96E JUMP JUMPDEST SWAP1 POP PUSH2 0xA40 DUP3 DUP3 PUSH2 0x9FA JUMP JUMPDEST SWAP2 SWAP1 POP JUMP JUMPDEST PUSH0 PUSH8 0xFFFFFFFFFFFFFFFF DUP3 GT ISZERO PUSH2 0xA5F JUMPI PUSH2 0xA5E PUSH2 0x9CD JUMP JUMPDEST JUMPDEST PUSH2 0xA68 DUP3 PUSH2 0x9BD JUMP JUMPDEST SWAP1 POP PUSH1 0x20 DUP2 ADD SWAP1 POP SWAP2 SWAP1 POP JUMP JUMPDEST DUP3 DUP2 DUP4 CALLDATACOPY PUSH0 DUP4 DUP4 ADD MSTORE POP POP POP JUMP JUMPDEST PUSH0 PUSH2 0xA95 PUSH2 0xA90 DUP5 PUSH2 0xA45 JUMP JUMPDEST PUSH2 0xA2B JUMP JUMPDEST SWAP1 POP DUP3 DUP2 MSTORE PUSH1 0x20 DUP2 ADD DUP5 DUP5 DUP5 ADD GT ISZERO PUSH2 0xAB1 JUMPI PUSH2 0xAB0 PUSH2 0x9B9 JUMP JUMPDEST JUMPDEST PUSH2 0xABC DUP5 DUP3 DUP6 PUSH2 0xA75 JUMP JUMPDEST POP SWAP4 SWAP3 POP POP POP JUMP JUMPDEST PUSH0 DUP3 PUSH1 0x1F DUP4 ADD SLT PUSH2 0xAD8 JUMPI PUSH2 0xAD7 PUSH2 0x9B5 JUMP JUMPDEST JUMPDEST DUP2 CALLDATALOAD PUSH2 0xAE8 DUP5 DUP3 PUSH1 0x20 DUP7 ADD PUSH2 0xA83 JUMP JUMPDEST SWAP2 POP POP SWAP3 SWAP2 POP POP JUMP JUMPDEST PUSH0 DUP2 SWAP1 POP SWAP2 SWAP1 POP JUMP JUMPDEST PUSH2 0xB03 DUP2 PUSH2 0xAF1 JUMP JUMPDEST DUP2 EQ PUSH2 0xB0D JUMPI PUSH0 DUP1 REVERT JUMPDEST POP JUMP JUMPDEST PUSH0 DUP2 CALLDATALOAD SWAP1 POP PUSH2 0xB1E DUP2 PUSH2 0xAFA JUMP JUMPDEST SWAP3 SWAP2 POP POP JUMP JUMPDEST PUSH0 DUP1 PUSH0 DUP1 PUSH0 PUSH1 0xA0 DUP7 DUP9 SUB SLT ISZERO PUSH2 0xB3D JUMPI PUSH2 0xB3C PUSH2 0x977 JUMP JUMPDEST JUMPDEST PUSH0 PUSH2 0xB4A DUP9 DUP3 DUP10 ADD PUSH2 0x9A1 JUMP JUMPDEST SWAP6 POP POP PUSH1 0x20 DUP7 ADD CALLDATALOAD PUSH8 0xFFFFFFFFFFFFFFFF DUP2 GT ISZERO PUSH2 0xB6B JUMPI PUSH2 0xB6A PUSH2 0x97B JUMP JUMPDEST JUMPDEST PUSH2 0xB77 DUP9 DUP3 DUP10 ADD PUSH2 0xAC4 JUMP JUMPDEST SWAP5 POP POP PUSH1 0x40 DUP7 ADD CALLDATALOAD PUSH8 0xFFFFFFFFFFFFFFFF DUP2 GT ISZERO PUSH2 0xB98 JUMPI PUSH2 0xB97 PUSH2 0x97B JUMP JUMPDEST JUMPDEST PUSH2 0xBA4 DUP9 DUP3 DUP10 ADD PUSH2 0xAC4 JUMP JUMPDEST SWAP4 POP POP PUSH1 0x60 DUP7 ADD CALLDATALOAD PUSH8 0xFFFFFFFFFFFFFFFF DUP2 GT ISZERO PUSH2 0xBC5 JUMPI PUSH2 0xBC4 PUSH2 0x97B JUMP JUMPDEST JUMPDEST PUSH2 0xBD1 DUP9 DUP3 DUP10 ADD PUSH2 0xAC4 JUMP JUMPDEST SWAP3 POP POP PUSH1 0x80 PUSH2 0xBE2 DUP9 DUP3 DUP10 ADD PUSH2 0xB10 JUMP JUMPDEST SWAP2 POP POP SWAP3 SWAP6 POP SWAP3 SWAP6 SWAP1 SWAP4 POP JUMP JUMPDEST PUSH0 DUP2 MLOAD SWAP1 POP SWAP2 SWAP1 POP JUMP JUMPDEST PUSH0 DUP3 DUP3 MSTORE PUSH1 0x20 DUP3 ADD SWAP1 POP SWAP3 SWAP2 POP POP JUMP JUMPDEST PUSH0 DUP2 SWAP1 POP PUSH1 0x20 DUP3 ADD SWAP1 POP SWAP2 SWAP1 POP JUMP JUMPDEST PUSH2 0xC21 DUP2 PUSH2 0xAF1 JUMP JUMPDEST DUP3 MSTORE POP POP JUMP JUMPDEST PUSH2 0xC30 DUP2 PUSH2 0x97F JUMP JUMPDEST DUP3 MSTORE POP POP JUMP JUMPDEST PUSH1 0x40 DUP3 ADD PUSH0 DUP3 ADD MLOAD PUSH2 0xC4A PUSH0 DUP6 ADD DUP3 PUSH2 0xC18 JUMP JUMPDEST POP PUSH1 0x20 DUP3 ADD MLOAD PUSH2 0xC5D PUSH1 0x20 DUP6 ADD DUP3 PUSH2 0xC27 JUMP JUMPDEST POP POP POP POP JUMP JUMPDEST PUSH0 PUSH2 0xC6E DUP4 DUP4 PUSH2 0xC36 JUMP JUMPDEST PUSH1 0x40 DUP4 ADD SWAP1 POP SWAP3 SWAP2 POP POP JUMP JUMPDEST PUSH0 PUSH1 0x20 DUP3 ADD SWAP1 POP SWAP2 SWAP1 POP JUMP JUMPDEST PUSH0 PUSH2 0xC90 DUP3 PUSH2 0xBEF JUMP JUMPDEST PUSH2 0xC9A DUP2 DUP6 PUSH2 0xBF9 JUMP JUMPDEST SWAP4 POP PUSH2 0xCA5 DUP4 PUSH2 0xC09 JUMP JUMPDEST DUP1 PUSH0 JUMPDEST DUP4 DUP2 LT ISZERO PUSH2 0xCD5 JUMPI DUP2 MLOAD PUSH2 0xCBC DUP9 DUP3 PUSH2 0xC63 JUMP JUMPDEST SWAP8 POP PUSH2 0xCC7 DUP4 PUSH2 0xC7A JUMP JUMPDEST SWAP3 POP POP PUSH1 0x1 DUP2 ADD SWAP1 POP PUSH2 0xCA8 JUMP JUMPDEST POP DUP6 SWAP4 POP POP POP POP SWAP3 SWAP2 POP POP JUMP JUMPDEST PUSH0 PUSH1 0x20 DUP3 ADD SWAP1 POP DUP2 DUP2 SUB PUSH0 DUP4 ADD MSTORE PUSH2 0xCFA DUP2 DUP5 PUSH2 0xC86 JUMP JUMPDEST SWAP1 POP SWAP3 SWAP2 POP POP JUMP JUMPDEST PUSH0 DUP1 PUSH1 0x40 DUP4 DUP6 SUB SLT ISZERO PUSH2 0xD18 JUMPI PUSH2 0xD17 PUSH2 0x977 JUMP JUMPDEST JUMPDEST PUSH0 PUSH2 0xD25 DUP6 DUP3 DUP7 ADD PUSH2 0x9A1 JUMP JUMPDEST SWAP3 POP POP PUSH1 0x20 PUSH2 0xD36 DUP6 DUP3 DUP7 ADD PUSH2 0x9A1 JUMP JUMPDEST SWAP2 POP POP SWAP3 POP SWAP3 SWAP1 POP JUMP JUMPDEST PUSH0 DUP2 MLOAD SWAP1 POP SWAP2 SWAP1 POP JUMP JUMPDEST PUSH0 DUP3 DUP3 MSTORE PUSH1 0x20 DUP3 ADD SWAP1 POP SWAP3 SWAP2 POP POP JUMP JUMPDEST PUSH0 DUP2 SWAP1 POP PUSH1 0x20 DUP3 ADD SWAP1 POP SWAP2 SWAP1 POP JUMP JUMPDEST PUSH0 DUP2 MLOAD SWAP1 POP SWAP2 SWAP1 POP JUMP JUMPDEST PUSH0 DUP3 DUP3 MSTORE PUSH1 0x20 DUP3 ADD SWAP1 POP SWAP3 SWAP2 POP POP JUMP JUMPDEST DUP3 DUP2 DUP4 MCOPY PUSH0 DUP4 DUP4 ADD MSTORE POP POP POP JUMP JUMPDEST PUSH0 PUSH2 0xD9B DUP3 PUSH2 0xD69 JUMP JUMPDEST PUSH2 0xDA5 DUP2 DUP6 PUSH2 0xD73 JUMP JUMPDEST SWAP4 POP PUSH2 0xDB5 DUP2 DUP6 PUSH1 0x20 DUP7 ADD PUSH2 0xD83 JUMP JUMPDEST PUSH2 0xDBE DUP2 PUSH2 0x9BD JUMP JUMPDEST DUP5 ADD SWAP2 POP POP SWAP3 SWAP2 POP POP JUMP JUMPDEST PUSH0 PUSH1 0xA0 DUP4 ADD PUSH0 DUP4 ADD MLOAD PUSH2 0xDDE PUSH0 DUP7 ADD DUP3 PUSH2 0xC27 JUMP JUMPDEST POP PUSH1 0x20 DUP4 ADD MLOAD DUP5 DUP3 SUB PUSH1 0x20 DUP7 ADD MSTORE PUSH2 0xDF6 DUP3 DUP3 PUSH2 0xD91 JUMP JUMPDEST SWAP2 POP POP PUSH1 0x40 DUP4 ADD MLOAD DUP5 DUP3 SUB PUSH1 0x40 DUP7 ADD MSTORE PUSH2 0xE10 DUP3 DUP3 PUSH2 0xD91 JUMP JUMPDEST SWAP2 POP POP PUSH1 0x60 DUP4 ADD MLOAD DUP5 DUP3 SUB PUSH1 0x60 DUP7 ADD MSTORE PUSH2 0xE2A DUP3 DUP3 PUSH2 0xD91 JUMP JUMPDEST SWAP2 POP POP PUSH1 0x80 DUP4 ADD MLOAD PUSH2 0xE3F PUSH1 0x80 DUP7 ADD DUP3 PUSH2 0xC18 JUMP JUMPDEST POP DUP1 SWAP2 POP POP SWAP3 SWAP2 POP POP JUMP JUMPDEST PUSH0 PUSH2 0xE55 DUP4 DUP4 PUSH2 0xDC9 JUMP JUMPDEST SWAP1 POP SWAP3 SWAP2 POP POP JUMP JUMPDEST PUSH0 PUSH1 0x20 DUP3 ADD SWAP1 POP SWAP2 SWAP1 POP JUMP JUMPDEST PUSH0 PUSH2 0xE73 DUP3 PUSH2 0xD40 JUMP JUMPDEST PUSH2 0xE7D DUP2 DUP6 PUSH2 0xD4A JUMP JUMPDEST SWAP4 POP DUP4 PUSH1 0x20 DUP3 MUL DUP6 ADD PUSH2 0xE8F DUP6 PUSH2 0xD5A JUMP JUMPDEST DUP1 PUSH0 JUMPDEST DUP6 DUP2 LT ISZERO PUSH2 0xECA JUMPI DUP5 DUP5 SUB DUP10 MSTORE DUP2 MLOAD PUSH2 0xEAB DUP6 DUP3 PUSH2 0xE4A JUMP JUMPDEST SWAP5 POP PUSH2 0xEB6 DUP4 PUSH2 0xE5D JUMP JUMPDEST SWAP3 POP PUSH1 0x20 DUP11 ADD SWAP10 POP POP PUSH1 0x1 DUP2 ADD SWAP1 POP PUSH2 0xE92 JUMP JUMPDEST POP DUP3 SWAP8 POP DUP8 SWAP6 POP POP POP POP POP POP SWAP3 SWAP2 POP POP JUMP JUMPDEST PUSH0 PUSH1 0x20 DUP3 ADD SWAP1 POP DUP2 DUP2 SUB PUSH0 DUP4 ADD MSTORE PUSH2 0xEF4 DUP2 DUP5 PUSH2 0xE69 JUMP JUMPDEST SWAP1 POP SWAP3 SWAP2 POP POP JUMP JUMPDEST PUSH32 0x4E487B7100000000000000000000000000000000000000000000000000000000 PUSH0 MSTORE PUSH1 0x22 PUSH1 0x4 MSTORE PUSH1 0x24 PUSH0 REVERT JUMPDEST PUSH0 PUSH1 0x2 DUP3 DIV SWAP1 POP PUSH1 0x1 DUP3 AND DUP1 PUSH2 0xF40 JUMPI PUSH1 0x7F DUP3 AND SWAP2 POP JUMPDEST PUSH1 0x20 DUP3 LT DUP2 SUB PUSH2 0xF53 JUMPI PUSH2 0xF52 PUSH2 0xEFC JUMP JUMPDEST JUMPDEST POP SWAP2 SWAP1 POP JUMP JUMPDEST PUSH0 DUP3 DUP3 MSTORE PUSH1 0x20 DUP3 ADD SWAP1 POP SWAP3 SWAP2 POP POP JUMP JUMPDEST PUSH32 0x4D617463682064656A61206578697374616E7400000000000000000000000000 PUSH0 DUP3 ADD MSTORE POP JUMP JUMPDEST PUSH0 PUSH2 0xF9D PUSH1 0x13 DUP4 PUSH2 0xF59 JUMP JUMPDEST SWAP2 POP PUSH2 0xFA8 DUP3 PUSH2 0xF69 JUMP JUMPDEST PUSH1 0x20 DUP3 ADD SWAP1 POP SWAP2 SWAP1 POP JUMP JUMPDEST PUSH0 PUSH1 0x20 DUP3 ADD SWAP1 POP DUP2 DUP2 SUB PUSH0 DUP4 ADD MSTORE PUSH2 0xFCA DUP2 PUSH2 0xF91 JUMP JUMPDEST SWAP1 POP SWAP2 SWAP1 POP JUMP JUMPDEST PUSH0 DUP2 SWAP1 POP DUP2 PUSH0 MSTORE PUSH1 0x20 PUSH0 KECCAK256 SWAP1 POP SWAP2 SWAP1 POP JUMP JUMPDEST PUSH0 PUSH1 0x20 PUSH1 0x1F DUP4 ADD DIV SWAP1 POP SWAP2 SWAP1 POP JUMP JUMPDEST PUSH0 DUP3 DUP3 SHL SWAP1 POP SWAP3 SWAP2 POP POP JUMP JUMPDEST PUSH0 PUSH1 0x8 DUP4 MUL PUSH2 0x102D PUSH32 0xFFFFFFFFFFFFFFFFFFFFFFFFFFFFFFFFFFFFFFFFFFFFFFFFFFFFFFFFFFFFFFFF DUP3 PUSH2 0xFF2 JUMP JUMPDEST PUSH2 0x1037 DUP7 DUP4 PUSH2 0xFF2 JUMP JUMPDEST SWAP6 POP DUP1 NOT DUP5 AND SWAP4 POP DUP1 DUP7 AND DUP5 OR SWAP3 POP POP POP SWAP4 SWAP3 POP POP POP JUMP JUMPDEST PUSH0 DUP2 SWAP1 POP SWAP2 SWAP1 POP JUMP JUMPDEST PUSH0 PUSH2 0x1072 PUSH2 0x106D PUSH2 0x1068 DUP5 PUSH2 0xAF1 JUMP JUMPDEST PUSH2 0x104F JUMP JUMPDEST PUSH2 0xAF1 JUMP JUMPDEST SWAP1 POP SWAP2 SWAP1 POP JUMP JUMPDEST PUSH0 DUP2 SWAP1 POP SWAP2 SWAP1 POP JUMP JUMPDEST PUSH2 0x108B DUP4 PUSH2 0x1058 JUMP JUMPDEST PUSH2 0x109F PUSH2 0x1097 DUP3 PUSH2 0x1079 JUMP JUMPDEST DUP5 DUP5 SLOAD PUSH2 0xFFE JUMP JUMPDEST DUP3 SSTORE POP POP POP POP JUMP JUMPDEST PUSH0 SWAP1 JUMP JUMPDEST PUSH2 0x10B3 PUSH2 0x10A7 JUMP JUMPDEST PUSH2 0x10BE DUP2 DUP5 DUP5 PUSH2 0x1082 JUMP JUMPDEST POP POP POP JUMP JUMPDEST JUMPDEST DUP2 DUP2 LT ISZERO PUSH2 0x10E1 JUMPI PUSH2 0x10D6 PUSH0 DUP3 PUSH2 0x10AB JUMP JUMPDEST PUSH1 0x1 DUP2 ADD SWAP1 POP PUSH2 0x10C4 JUMP JUMPDEST POP POP JUMP JUMPDEST PUSH1 0x1F DUP3 GT ISZERO PUSH2 0x1126 JUMPI PUSH2 0x10F7 DUP2 PUSH2 0xFD1 JUMP JUMPDEST PUSH2 0x1100 DUP5 PUSH2 0xFE3 JUMP JUMPDEST DUP2 ADD PUSH1 0x20 DUP6 LT ISZERO PUSH2 0x110F JUMPI DUP2 SWAP1 POP JUMPDEST PUSH2 0x1123 PUSH2 0x111B DUP6 PUSH2 0xFE3 JUMP JUMPDEST DUP4 ADD DUP3 PUSH2 0x10C3 JUMP JUMPDEST POP POP JUMPDEST POP POP POP JUMP JUMPDEST PUSH0 DUP3 DUP3 SHR SWAP1 POP SWAP3 SWAP2 POP POP JUMP JUMPDEST PUSH0 PUSH2 0x1146 PUSH0 NOT DUP5 PUSH1 0x8 MUL PUSH2 0x112B JUMP JUMPDEST NOT DUP1 DUP4 AND SWAP2 POP POP SWAP3 SWAP2 POP POP JUMP JUMPDEST PUSH0 PUSH2 0x115E DUP4 DUP4 PUSH2 0x1137 JUMP JUMPDEST SWAP2 POP DUP3 PUSH1 0x2 MUL DUP3 OR SWAP1 POP SWAP3 SWAP2 POP POP JUMP JUMPDEST PUSH2 0x1177 DUP3 PUSH2 0xD69 JUMP JUMPDEST PUSH8 0xFFFFFFFFFFFFFFFF DUP2 GT ISZERO PUSH2 0x1190 JUMPI PUSH2 0x118F PUSH2 0x9CD JUMP JUMPDEST JUMPDEST PUSH2 0x119A DUP3 SLOAD PUSH2 0xF29 JUMP JUMPDEST PUSH2 0x11A5 DUP3 DUP3 DUP6 PUSH2 0x10E5 JUMP JUMPDEST PUSH0 PUSH1 0x20 SWAP1 POP PUSH1 0x1F DUP4 GT PUSH1 0x1 DUP2 EQ PUSH2 0x11D6 JUMPI PUSH0 DUP5 ISZERO PUSH2 0x11C4 JUMPI DUP3 DUP8 ADD MLOAD SWAP1 POP JUMPDEST PUSH2 0x11CE DUP6 DUP3 PUSH2 0x1153 JUMP JUMPDEST DUP7 SSTORE POP PUSH2 0x1235 JUMP JUMPDEST PUSH1 0x1F NOT DUP5 AND PUSH2 0x11E4 DUP7 PUSH2 0xFD1 JUMP JUMPDEST PUSH0 JUMPDEST DUP3 DUP2 LT ISZERO PUSH2 0x120B JUMPI DUP5 DUP10 ADD MLOAD DUP3 SSTORE PUSH1 0x1 DUP3 ADD SWAP2 POP PUSH1 0x20 DUP6 ADD SWAP5 POP PUSH1 0x20 DUP2 ADD SWAP1 POP PUSH2 0x11E6 JUMP JUMPDEST DUP7 DUP4 LT ISZERO PUSH2 0x1228 JUMPI DUP5 DUP10 ADD MLOAD PUSH2 0x1224 PUSH1 0x1F DUP10 AND DUP3 PUSH2 0x1137 JUMP JUMPDEST DUP4 SSTORE POP JUMPDEST PUSH1 0x1 PUSH1 0x2 DUP9 MUL ADD DUP9 SSTORE POP POP POP JUMPDEST POP POP POP POP POP POP JUMP JUMPDEST PUSH32 0x4E487B7100000000000000000000000000000000000000000000000000000000 PUSH0 MSTORE PUSH1 0x32 PUSH1 0x4 MSTORE PUSH1 0x24 PUSH0 REVERT JUMPDEST PUSH32 0x4D69736520726571756973650000000000000000000000000000000000000000 PUSH0 DUP3 ADD MSTORE POP JUMP JUMPDEST PUSH0 PUSH2 0x129E PUSH1 0xC DUP4 PUSH2 0xF59 JUMP JUMPDEST SWAP2 POP PUSH2 0x12A9 DUP3 PUSH2 0x126A JUMP JUMPDEST PUSH1 0x20 DUP3 ADD SWAP1 POP SWAP2 SWAP1 POP JUMP JUMPDEST PUSH0 PUSH1 0x20 DUP3 ADD SWAP1 POP DUP2 DUP2 SUB PUSH0 DUP4 ADD MSTORE PUSH2 0x12CB DUP2 PUSH2 0x1292 JUMP JUMPDEST SWAP1 POP SWAP2 SWAP1 POP JUMP JUMPDEST PUSH32 0x43686F697820696E76616C696465000000000000000000000000000000000000 PUSH0 DUP3 ADD MSTORE POP JUMP JUMPDEST PUSH0 PUSH2 0x1306 PUSH1 0xE DUP4 PUSH2 0xF59 JUMP JUMPDEST SWAP2 POP PUSH2 0x1311 DUP3 PUSH2 0x12D2 JUMP JUMPDEST PUSH1 0x20 DUP3 ADD SWAP1 POP SWAP2 SWAP1 POP JUMP JUMPDEST PUSH0 PUSH1 0x20 DUP3 ADD SWAP1 POP DUP2 DUP2 SUB PUSH0 DUP4 ADD MSTORE PUSH2 0x1333 DUP2 PUSH2 0x12FA JUMP JUMPDEST SWAP1 POP SWAP2 SWAP1 POP JUMP JUMPDEST PUSH32 0x4D6174636820696E6578697374616E7400000000000000000000000000000000 PUSH0 DUP3 ADD MSTORE POP JUMP JUMPDEST PUSH0 PUSH2 0x136E PUSH1 0x10 DUP4 PUSH2 0xF59 JUMP JUMPDEST SWAP2 POP PUSH2 0x1379 DUP3 PUSH2 0x133A JUMP JUMPDEST PUSH1 0x20 DUP3 ADD SWAP1 POP SWAP2 SWAP1 POP JUMP JUMPDEST PUSH0 PUSH1 0x20 DUP3 ADD SWAP1 POP DUP2 DUP2 SUB PUSH0 DUP4 ADD MSTORE PUSH2 0x139B DUP2 PUSH2 0x1362 JUMP JUMPDEST SWAP1 POP SWAP2 SWAP1 POP JUMP INVALID LOG2 PUSH5 0x6970667358 0x22 SLT KECCAK256 0xEA PUSH30 0xF11E89D46064159AFF5F4B7A887BEBA9AFED1DAE8958B5CDB9F1278164D4 PUSH5 0x736F6C6343 STOP ADDMOD BYTE STOP CALLER "
		},
		"gasEstimates": {
			"creation": {
				"codeDepositCost": "1016000",
				"executionCost": "1052",
				"totalCost": "1017052"
			},
			"external": {
				"createMatch(uint8,string,string,string,uint256)": "infinite",
				"getAllMatches()": "infinite",
				"getMyBets()": "infinite",
				"placeBet(uint8,uint8)": "infinite"
			}
		},
		"methodIdentifiers": {
			"createMatch(uint8,string,string,string,uint256)": "5f382303",
			"getAllMatches()": "c17c5a45",
			"getMyBets()": "99535bd7",
			"placeBet(uint8,uint8)": "a648567b"
		}
	},
	"abi": [
		{
			"inputs": [
				{
					"internalType": "uint8",
					"name": "_id",
					"type": "uint8"
				},
				{
					"internalType": "string",
					"name": "_home",
					"type": "string"
				},
				{
					"internalType": "string",
					"name": "_away",
					"type": "string"
				},
				{
					"internalType": "string",
					"name": "_score",
					"type": "string"
				},
				{
					"internalType": "uint256",
					"name": "_timestamp",
					"type": "uint256"
				}
			],
			"name": "createMatch",
			"outputs": [],
			"stateMutability": "nonpayable",
			"type": "function"
		},
		{
			"inputs": [],
			"name": "getAllMatches",
			"outputs": [
				{
					"components": [
						{
							"internalType": "uint8",
							"name": "id",
							"type": "uint8"
						},
						{
							"internalType": "string",
							"name": "homeTeam",
							"type": "string"
						},
						{
							"internalType": "string",
							"name": "awayTeam",
							"type": "string"
						},
						{
							"internalType": "string",
							"name": "score",
							"type": "string"
						},
						{
							"internalType": "uint256",
							"name": "startTimestamp",
							"type": "uint256"
						}
					],
					"internalType": "struct FootballBetting.Match[]",
					"name": "",
					"type": "tuple[]"
				}
			],
			"stateMutability": "view",
			"type": "function"
		},
		{
			"inputs": [],
			"name": "getMyBets",
			"outputs": [
				{
					"components": [
						{
							"internalType": "uint256",
							"name": "amount",
							"type": "uint256"
						},
						{
							"internalType": "uint8",
							"name": "team",
							"type": "uint8"
						}
					],
					"internalType": "struct FootballBetting.Bet[]",
					"name": "",
					"type": "tuple[]"
				}
			],
			"stateMutability": "view",
			"type": "function"
		},
		{
			"inputs": [
				{
					"internalType": "uint8",
					"name": "_matchId",
					"type": "uint8"
				},
				{
					"internalType": "uint8",
					"name": "_team",
					"type": "uint8"
				}
			],
			"name": "placeBet",
			"outputs": [],
			"stateMutability": "payable",
			"type": "function"
		}
	]
}